{
  "address": "0xd84fcdBA6995592BE73Ff6be888028ee49A79978",
  "abi": [
    {
      "inputs": [
        {
          "internalType": "contract IERC20[]",
          "name": "_tokens",
          "type": "address[]"
        },
        {
          "internalType": "uint256[]",
          "name": "_decimals",
          "type": "uint256[]"
        },
        {
          "internalType": "string",
          "name": "_lpTokenName",
          "type": "string"
        },
        {
          "internalType": "string",
          "name": "_lpTokenSymbol",
          "type": "string"
        }
      ],
      "stateMutability": "nonpayable",
      "type": "constructor"
    },
    {
      "anonymous": false,
      "inputs": [
        {
          "indexed": true,
          "internalType": "address",
          "name": "provider",
          "type": "address"
        },
        {
          "indexed": false,
          "internalType": "uint256[]",
          "name": "tokenAmounts",
          "type": "uint256[]"
        },
        {
          "indexed": false,
          "internalType": "uint256",
          "name": "lpTokenSupply",
          "type": "uint256"
        }
      ],
      "name": "AddLiquidity",
      "type": "event"
    },
    {
      "anonymous": false,
      "inputs": [
        {
          "indexed": true,
          "internalType": "address",
          "name": "previousOwner",
          "type": "address"
        },
        {
          "indexed": true,
          "internalType": "address",
          "name": "newOwner",
          "type": "address"
        }
      ],
      "name": "OwnershipTransferred",
      "type": "event"
    },
    {
      "anonymous": false,
      "inputs": [
        {
          "indexed": false,
          "internalType": "address",
          "name": "account",
          "type": "address"
        }
      ],
      "name": "Paused",
      "type": "event"
    },
    {
      "anonymous": false,
      "inputs": [
        {
          "indexed": true,
          "internalType": "address",
          "name": "provider",
          "type": "address"
        },
        {
          "indexed": false,
          "internalType": "uint256[]",
          "name": "tokenAmounts",
          "type": "uint256[]"
        },
        {
          "indexed": false,
          "internalType": "uint256",
          "name": "lpTokenSupply",
          "type": "uint256"
        }
      ],
      "name": "RemoveLiquidity",
      "type": "event"
    },
    {
      "anonymous": false,
      "inputs": [
        {
          "indexed": true,
          "internalType": "address",
          "name": "provider",
          "type": "address"
        },
        {
          "indexed": false,
          "internalType": "uint256",
          "name": "lpTokenAmount",
          "type": "uint256"
        },
        {
          "indexed": false,
          "internalType": "uint256",
          "name": "lpTokenSupply",
          "type": "uint256"
        },
        {
          "indexed": false,
          "internalType": "uint256",
          "name": "boughtId",
          "type": "uint256"
        },
        {
          "indexed": false,
          "internalType": "uint256",
          "name": "tokensBought",
          "type": "uint256"
        }
      ],
      "name": "RemoveLiquidityOne",
      "type": "event"
    },
    {
      "anonymous": false,
      "inputs": [
        {
          "indexed": true,
          "internalType": "address",
          "name": "buyer",
          "type": "address"
        },
        {
          "indexed": false,
          "internalType": "uint256",
          "name": "tokensSold",
          "type": "uint256"
        },
        {
          "indexed": false,
          "internalType": "uint256",
          "name": "tokensBought",
          "type": "uint256"
        },
        {
          "indexed": false,
          "internalType": "uint128",
          "name": "soldId",
          "type": "uint128"
        },
        {
          "indexed": false,
          "internalType": "uint128",
          "name": "boughtId",
          "type": "uint128"
        }
      ],
      "name": "TokenSwap",
      "type": "event"
    },
    {
      "anonymous": false,
      "inputs": [
        {
          "indexed": false,
          "internalType": "address",
          "name": "account",
          "type": "address"
        }
      ],
      "name": "Unpaused",
      "type": "event"
    },
    {
      "inputs": [
        {
          "internalType": "uint256[]",
          "name": "amounts",
          "type": "uint256[]"
        },
        {
          "internalType": "uint256",
          "name": "minToMint",
          "type": "uint256"
        }
      ],
      "name": "addLiquidity",
      "outputs": [
        {
          "internalType": "uint256",
          "name": "",
          "type": "uint256"
        }
      ],
      "stateMutability": "nonpayable",
      "type": "function"
    },
    {
      "inputs": [
        {
          "internalType": "uint256",
          "name": "amount",
          "type": "uint256"
        }
      ],
      "name": "calculateRemoveLiquidity",
      "outputs": [
        {
          "internalType": "uint256[]",
          "name": "",
          "type": "uint256[]"
        }
      ],
      "stateMutability": "view",
      "type": "function"
    },
    {
      "inputs": [
        {
          "internalType": "uint256",
          "name": "tokenAmount",
          "type": "uint256"
        },
        {
          "internalType": "address",
          "name": "tokenOut",
          "type": "address"
        }
      ],
      "name": "calculateRemoveLiquidityOneToken",
      "outputs": [
        {
          "internalType": "uint256",
          "name": "availableTokenAmount",
          "type": "uint256"
        }
      ],
      "stateMutability": "view",
      "type": "function"
    },
    {
      "inputs": [],
      "name": "getBalances",
      "outputs": [
        {
          "internalType": "uint256[]",
          "name": "",
          "type": "uint256[]"
        }
      ],
      "stateMutability": "view",
      "type": "function"
    },
    {
      "inputs": [],
      "name": "getLpToken",
      "outputs": [
        {
          "internalType": "address",
          "name": "",
          "type": "address"
        }
      ],
      "stateMutability": "view",
      "type": "function"
    },
    {
      "inputs": [
        {
          "internalType": "uint8",
          "name": "index",
          "type": "uint8"
        }
      ],
      "name": "getToken",
      "outputs": [
        {
          "internalType": "contract IERC20",
          "name": "",
          "type": "address"
        }
      ],
      "stateMutability": "view",
      "type": "function"
    },
    {
      "inputs": [
        {
          "internalType": "uint8",
          "name": "index",
          "type": "uint8"
        }
      ],
      "name": "getTokenBalance",
      "outputs": [
        {
          "internalType": "uint256",
          "name": "",
          "type": "uint256"
        }
      ],
      "stateMutability": "view",
      "type": "function"
    },
    {
      "inputs": [
        {
          "internalType": "address",
          "name": "tokenAddress",
          "type": "address"
        }
      ],
      "name": "getTokenIndex",
      "outputs": [
        {
          "internalType": "uint8",
          "name": "",
          "type": "uint8"
        }
      ],
      "stateMutability": "view",
      "type": "function"
    },
    {
      "inputs": [],
      "name": "owner",
      "outputs": [
        {
          "internalType": "address",
          "name": "",
          "type": "address"
        }
      ],
      "stateMutability": "view",
      "type": "function"
    },
    {
      "inputs": [],
      "name": "pause",
      "outputs": [],
      "stateMutability": "nonpayable",
      "type": "function"
    },
    {
      "inputs": [],
      "name": "paused",
      "outputs": [
        {
          "internalType": "bool",
          "name": "",
          "type": "bool"
        }
      ],
      "stateMutability": "view",
      "type": "function"
    },
    {
      "inputs": [
        {
          "internalType": "uint256",
          "name": "amount",
          "type": "uint256"
        },
        {
          "internalType": "uint256[]",
          "name": "minAmounts",
          "type": "uint256[]"
        },
        {
          "internalType": "uint256",
          "name": "deadline",
          "type": "uint256"
        }
      ],
      "name": "removeLiquidity",
      "outputs": [
        {
          "internalType": "uint256[]",
          "name": "",
          "type": "uint256[]"
        }
      ],
      "stateMutability": "nonpayable",
      "type": "function"
    },
    {
      "inputs": [
        {
          "internalType": "uint256",
          "name": "tokenAmount",
          "type": "uint256"
        },
        {
          "internalType": "address",
          "name": "tokenOut",
          "type": "address"
        },
        {
          "internalType": "uint256",
          "name": "minAmount",
          "type": "uint256"
        }
      ],
      "name": "removeLiquidityOneToken",
      "outputs": [
        {
          "internalType": "uint256",
          "name": "",
          "type": "uint256"
        }
      ],
      "stateMutability": "nonpayable",
      "type": "function"
    },
    {
      "inputs": [],
      "name": "renounceOwnership",
      "outputs": [],
      "stateMutability": "nonpayable",
      "type": "function"
    },
    {
      "inputs": [
        {
          "internalType": "address",
          "name": "tokenFrom",
          "type": "address"
        },
        {
          "internalType": "address",
          "name": "tokenTo",
          "type": "address"
        },
        {
          "internalType": "uint256",
          "name": "amountIn",
          "type": "uint256"
        },
        {
          "internalType": "uint256",
          "name": "minAmountOut",
          "type": "uint256"
        },
        {
          "internalType": "uint256",
          "name": "deadline",
          "type": "uint256"
        }
      ],
      "name": "swap",
      "outputs": [
        {
          "internalType": "uint256",
          "name": "",
          "type": "uint256"
        }
      ],
      "stateMutability": "nonpayable",
      "type": "function"
    },
    {
      "inputs": [
        {
          "internalType": "address",
          "name": "newOwner",
          "type": "address"
        }
      ],
      "name": "transferOwnership",
      "outputs": [],
      "stateMutability": "nonpayable",
      "type": "function"
    },
    {
      "inputs": [],
      "name": "unpause",
      "outputs": [],
      "stateMutability": "nonpayable",
      "type": "function"
    }
  ],
  "transactionHash": "0xbc9071339d9d9332a581bd5dae5eb0c9af7b52a6d88d985312232de2cb281be2",
  "args": [
    [
      "0x122013fd7dF1C6F636a5bb8f03108E876548b455",
      "0xE919F65739c26a42616b7b8eedC6b5524d1e3aC4"
    ],
    [
      "18",
      "18"
    ],
    "OpenSum wETH v1/v2 LP",
    "OSlp"
  ],
  "solcInputHash": "210da34fb2958e1fe9eef44d5ec99f6f",
  "bytecode": "0x60806040523480156200001157600080fd5b5060405162003fbf38038062003fbf833981016040819052620000349162000547565b62000048620000426200032b565b6200032f565b6000805460ff60a01b191690556001808055845111620000855760405162461bcd60e51b81526004016200007c90620006d9565b60405180910390fd5b8251845114620000a95760405162461bcd60e51b81526004016200007c9062000710565b82516001600160401b03811115620000d157634e487b7160e01b600052604160045260246000fd5b604051908082528060200260200182016040528015620000fb578160200160208202803683370190505b508051620001129160069160209091019062000394565b5060005b84518160ff1610156200022b576200016c848260ff16815181106200014b57634e487b7160e01b600052603260045260246000fd5b6020026020010151601260ff166200037f60201b620010181790919060201c565b6200017990600a6200080c565b60068260ff16815481106200019e57634e487b7160e01b600052603260045260246000fd5b90600052602060002001819055508060076000878460ff1681518110620001d557634e487b7160e01b600052603260045260246000fd5b60200260200101516001600160a01b03166001600160a01b0316815260200190815260200160002060006101000a81548160ff021916908360ff1602179055508080620002229062000941565b91505062000116565b50835162000241906002906020870190620003e4565b5082516200025790600390602086019062000394565b5083516001600160401b038111156200028057634e487b7160e01b600052604160045260246000fd5b604051908082528060200260200182016040528015620002aa578160200160208202803683370190505b508051620002c19160049160209091019062000394565b5081816012604051620002d4906200043c565b620002e2939291906200069c565b604051809103906000f080158015620002ff573d6000803e3d6000fd5b50600580546001600160a01b0319166001600160a01b0392909216919091179055506200099092505050565b3390565b600080546001600160a01b038381166001600160a01b0319831681178455604051919092169283917f8be0079c531659141344cd1fd0a4f28419497f9722a3daafe3b4186f6b6457e09190a35050565b60006200038d8284620008f4565b9392505050565b828054828255906000526020600020908101928215620003d2579160200282015b82811115620003d2578251825591602001919060010190620003b5565b50620003e09291506200044a565b5090565b828054828255906000526020600020908101928215620003d2579160200282015b82811115620003d257825182546001600160a01b0319166001600160a01b0390911617825560209092019160019091019062000405565b6114fd8062002ac283390190565b5b80821115620003e057600081556001016200044b565b600082601f83011262000472578081fd5b815160206200048b620004858362000799565b6200076d565b8281528181019085830183850287018401881015620004a8578586fd5b855b85811015620004c857815184529284019290840190600101620004aa565b5090979650505050505050565b600082601f830112620004e6578081fd5b81516001600160401b038111156200050257620005026200097a565b62000517601f8201601f19166020016200076d565b8181528460208386010111156200052c578283fd5b6200053f8260208301602087016200090e565b949350505050565b600080600080608085870312156200055d578384fd5b84516001600160401b038082111562000574578586fd5b818701915087601f83011262000588578586fd5b815160206200059b620004858362000799565b82815281810190858301838502870184018d1015620005b8578a8bfd5b8a96505b84871015620005f15780516001600160a01b0381168114620005dc578b8cfd5b835260019690960195918301918301620005bc565b50918a01519198509093505050808211156200060b578485fd5b620006198883890162000461565b945060408701519150808211156200062f578384fd5b6200063d88838901620004d5565b9350606087015191508082111562000653578283fd5b506200066287828801620004d5565b91505092959194509250565b60008151808452620006888160208601602086016200090e565b601f01601f19169290920160200192915050565b600060608252620006b160608301866200066e565b8281036020840152620006c581866200066e565b91505060ff83166040830152949350505050565b6020808252601e908201527f6e756d626572206f6620746f6b656e73206d7573742065786365656420310000604082015260600190565b60208082526035908201527f546f6b656e73206172726179206d757374206265207468652073616d6520736860408201527f61706520617320646563696d616c732061727261790000000000000000000000606082015260800190565b6040518181016001600160401b03811182821017156200079157620007916200097a565b604052919050565b60006001600160401b03821115620007b557620007b56200097a565b5060209081020190565b80825b6001808611620007d3575062000803565b818704821115620007e857620007e862000964565b80861615620007f657918102915b9490941c938002620007c2565b94509492505050565b60006200038d600019848460008262000828575060016200038d565b8162000837575060006200038d565b81600181146200085057600281146200085b576200088f565b60019150506200038d565b60ff8411156200086f576200086f62000964565b6001841b91508482111562000888576200088862000964565b506200038d565b5060208310610133831016604e8410600b8410161715620008c7575081810a83811115620008c157620008c162000964565b6200038d565b620008d68484846001620007bf565b808604821115620008eb57620008eb62000964565b02949350505050565b60008282101562000909576200090962000964565b500390565b60005b838110156200092b57818101518382015260200162000911565b838111156200093b576000848401525b50505050565b600060ff821660ff8114156200095b576200095b62000964565b60010192915050565b634e487b7160e01b600052601160045260246000fd5b634e487b7160e01b600052604160045260246000fd5b61212280620009a06000396000f3fe608060405234801561001057600080fd5b506004361061011a5760003560e01c80638214f5a4116100b257806391ceb3eb11610081578063c5bb316811610066578063c5bb316814610228578063f2fad2b61461023b578063f2fde38b1461024e5761011a565b806391ceb3eb14610202578063a571135f146102155761011a565b80638214f5a4146101ca57806382b86600146101df5780638456cb59146101f25780638da5cb5b146101fa5761011a565b806366c0bd24116100ee57806366c0bd241461016f578063715018a61461018f5780637a950f9914610197578063805d2766146101b75761011a565b8062113e081461011f57806331cd52b01461013d5780633f4ba83a146101505780635c975abb1461015a575b600080fd5b610127610261565b6040516101349190611ae8565b60405180910390f35b61012761014b3660046119a1565b6102b9565b61015861061a565b005b610162610663565b6040516101349190611b1d565b61018261017d3660046117cc565b610684565b6040516101349190611fa1565b610158610697565b6101aa6101a53660046117e6565b6106e0565b6040516101349190611f59565b6101aa6101c5366004611942565b610972565b6101d2610987565b6040516101349190611a97565b6101d26101ed366004611a20565b610996565b6101586109fc565b6101d2610a43565b6101aa610210366004611a20565b610a52565b6101aa61022336600461196d565b610aaf565b6101aa610236366004611832565b610cc9565b610127610249366004611912565b610f9c565b61015861025c3660046117cc565b610fa7565b606060048054806020026020016040519081016040528092919081815260200182805480156102af57602002820191906000526020600020905b81548152602001906001019080831161029b575b5050505050905090565b6060600260015414156102e75760405162461bcd60e51b81526004016102de90611f22565b60405180910390fd5b6002600155814281101561030d5760405162461bcd60e51b81526004016102de90611de9565b600061031887611024565b905060005b60025460ff821610156104bf5786868260ff1681811061034d57634e487b7160e01b600052603260045260246000fd5b90506020020135828260ff168151811061037757634e487b7160e01b600052603260045260246000fd5b6020026020010151101561039d5760405162461bcd60e51b81526004016102de90611d20565b610408828260ff16815181106103c357634e487b7160e01b600052603260045260246000fd5b602002602001015160048360ff16815481106103ef57634e487b7160e01b600052603260045260246000fd5b906000526020600020015461101890919063ffffffff16565b60048260ff168154811061042c57634e487b7160e01b600052603260045260246000fd5b90600052602060002001819055506104ad3360048360ff168154811061046257634e487b7160e01b600052603260045260246000fd5b906000526020600020015460028460ff168154811061049157634e487b7160e01b600052603260045260246000fd5b6000918252602090912001546001600160a01b031691906111a4565b806104b7816120a0565b91505061031d565b506005546040517f79cc67900000000000000000000000000000000000000000000000000000000081526001600160a01b03909116906379cc67909061050b9033908b90600401611acf565b600060405180830381600087803b15801561052557600080fd5b505af1158015610539573d6000803e3d6000fd5b5050600554604080517f18160ddd00000000000000000000000000000000000000000000000000000000815290513394507f88d38ed598fdd809c2bf01ee49cd24b7fdabf379a83d29567952b60324d58cef935085926001600160a01b0316916318160ddd916004808301926020929190829003018186803b1580156105be57600080fd5b505afa1580156105d2573d6000803e3d6000fd5b505050506040513d601f19601f820116820180604052508101906105f6919061192a565b604051610604929190611afb565b60405180910390a2600180559695505050505050565b61062261124a565b6001600160a01b0316610633610a43565b6001600160a01b0316146106595760405162461bcd60e51b81526004016102de90611d57565b61066161124e565b565b60005474010000000000000000000000000000000000000000900460ff1690565b600061068f826112da565b90505b919050565b61069f61124a565b6001600160a01b03166106b0610a43565b6001600160a01b0316146106d65760405162461bcd60e51b81526004016102de90611d57565b610661600061132a565b6000600260015414156107055760405162461bcd60e51b81526004016102de90611f22565b6002600155610712610663565b1561072f5760405162461bcd60e51b81526004016102de90611cb2565b81804211156107505760405162461bcd60e51b81526004016102de90611de9565b600061075b886112da565b90506000610768886112da565b905060006107778a8a8a611392565b905060048260ff168154811061079d57634e487b7160e01b600052603260045260246000fd5b906000526020600020015481106107c65760405162461bcd60e51b81526004016102de90611b79565b868110156107e65760405162461bcd60e51b81526004016102de90611ce9565b61082d33308a60028760ff168154811061081057634e487b7160e01b600052603260045260246000fd5b6000918252602090912001546001600160a01b031692919061149d565b610856338260028560ff168154811061049157634e487b7160e01b600052603260045260246000fd5b6108978860048560ff168154811061087e57634e487b7160e01b600052603260045260246000fd5b90600052602060002001546114c490919063ffffffff16565b60048460ff16815481106108bb57634e487b7160e01b600052603260045260246000fd5b90600052602060002001819055506108f18160048460ff16815481106103ef57634e487b7160e01b600052603260045260246000fd5b60048360ff168154811061091557634e487b7160e01b600052603260045260246000fd5b60009182526020909120015560405133907fc6c1e0630dbe9130cc068028486c0d118ddcea348550819defd5cb8c257f8a3890610959908b90859088908890611f80565b60405180910390a2600180559998505050505050505050565b600061097e83836114d0565b90505b92915050565b6005546001600160a01b031690565b60025460009060ff8316106109bd5760405162461bcd60e51b81526004016102de90611e20565b60028260ff16815481106109e157634e487b7160e01b600052603260045260246000fd5b6000918252602090912001546001600160a01b031692915050565b610a0461124a565b6001600160a01b0316610a15610a43565b6001600160a01b031614610a3b5760405162461bcd60e51b81526004016102de90611d57565b610661611599565b6000546001600160a01b031690565b60025460009060ff831610610a795760405162461bcd60e51b81526004016102de90611e57565b60048260ff1681548110610a9d57634e487b7160e01b600052603260045260246000fd5b90600052602060002001549050919050565b600080610abb846112da565b90506000610ac986866114d0565b905083811015610aeb5760405162461bcd60e51b81526004016102de90611c7b565b610b138160048460ff16815481106103ef57634e487b7160e01b600052603260045260246000fd5b60048360ff1681548110610b3757634e487b7160e01b600052603260045260246000fd5b9060005260206000200181905550610b6e338260028560ff168154811061049157634e487b7160e01b600052603260045260246000fd5b6005546040517f79cc67900000000000000000000000000000000000000000000000000000000081526001600160a01b03909116906379cc679090610bb99033908a90600401611acf565b600060405180830381600087803b158015610bd357600080fd5b505af1158015610be7573d6000803e3d6000fd5b5050600554604080517f18160ddd00000000000000000000000000000000000000000000000000000000815290513394507f43fb02998f4e03da2e0e6fff53fdbf0c40a9f45f145dc377fc30615d7d7a8a6493508a926001600160a01b0316916318160ddd916004808301926020929190829003018186803b158015610c6c57600080fd5b505afa158015610c80573d6000803e3d6000fd5b505050506040513d601f19601f82011682018060405250810190610ca4919061192a565b8585604051610cb69493929190611f62565b60405180910390a29150505b9392505050565b600080805b600254811015610e2457610d47610d4060068381548110610cff57634e487b7160e01b600052603260045260246000fd5b9060005260206000200154878481518110610d2a57634e487b7160e01b600052603260045260246000fd5b602002602001015161162690919063ffffffff16565b83906114c4565b9150610d95858281518110610d6c57634e487b7160e01b600052603260045260246000fd5b60200260200101516004838154811061087e57634e487b7160e01b600052603260045260246000fd5b60048281548110610db657634e487b7160e01b600052603260045260246000fd5b9060005260206000200181905550610e123330878481518110610de957634e487b7160e01b600052603260045260246000fd5b60200260200101516002858154811061081057634e487b7160e01b600052603260045260246000fd5b80610e1c81612067565b915050610cce565b5082811015610e455760405162461bcd60e51b81526004016102de90611d8c565b6005546040517f40c10f190000000000000000000000000000000000000000000000000000000081526001600160a01b03909116906340c10f1990610e909033908590600401611acf565b600060405180830381600087803b158015610eaa57600080fd5b505af1158015610ebe573d6000803e3d6000fd5b50505050336001600160a01b03167fdf21883620cd435343a655a765cce604ee5e962b399aed0ebbbd63a9c7e570c48583600560009054906101000a90046001600160a01b03166001600160a01b03166318160ddd6040518163ffffffff1660e01b815260040160206040518083038186803b158015610f3d57600080fd5b505afa158015610f51573d6000803e3d6000fd5b505050506040513d601f19601f82011682018060405250810190610f75919061192a565b610f7f9190611faf565b604051610f8d929190611afb565b60405180910390a29392505050565b606061068f82611024565b610faf61124a565b6001600160a01b0316610fc0610a43565b6001600160a01b031614610fe65760405162461bcd60e51b81526004016102de90611d57565b6001600160a01b03811661100c5760405162461bcd60e51b81526004016102de90611be7565b6110158161132a565b50565b600061097e8284612024565b60025460609060009067ffffffffffffffff81111561105357634e487b7160e01b600052604160045260246000fd5b60405190808252806020026020018201604052801561107c578160200160208202803683370190505b5090506000600560009054906101000a90046001600160a01b03166001600160a01b03166318160ddd6040518163ffffffff1660e01b815260040160206040518083038186803b1580156110cf57600080fd5b505afa1580156110e3573d6000803e3d6000fd5b505050506040513d601f19601f82011682018060405250810190611107919061192a565b905060005b60025481101561119b5761115e82611158876004858154811061113f57634e487b7160e01b600052603260045260246000fd5b906000526020600020015461162690919063ffffffff16565b90611632565b83828151811061117e57634e487b7160e01b600052603260045260246000fd5b60209081029190910101528061119381612067565b91505061110c565b50909392505050565b6112458363a9059cbb60e01b84846040516024016111c3929190611acf565b604080517fffffffffffffffffffffffffffffffffffffffffffffffffffffffffffffffe08184030181529190526020810180517bffffffffffffffffffffffffffffffffffffffffffffffffffffffff167fffffffff000000000000000000000000000000000000000000000000000000009093169290921790915261163e565b505050565b3390565b611256610663565b6112725760405162461bcd60e51b81526004016102de90611bb0565b600080547fffffffffffffffffffffff00ffffffffffffffffffffffffffffffffffffffff1690557f5db9ee0a495bf2e6ff9c91a7834c1ba4fdd244a5e8aa4e537bd38aeae4b073aa6112c361124a565b6040516112d09190611a97565b60405180910390a1565b6001600160a01b038116600081815260076020526040812054909160ff9091169061130482610996565b6001600160a01b03161461068f5760405162461bcd60e51b81526004016102de90611c44565b600080546001600160a01b038381167fffffffffffffffffffffffff0000000000000000000000000000000000000000831681178455604051919092169283917f8be0079c531659141344cd1fd0a4f28419497f9722a3daafe3b4186f6b6457e09190a35050565b60008061139e856112da565b905060006113ab856112da565b9050600061142260068360ff16815481106113d657634e487b7160e01b600052603260045260246000fd5b906000526020600020015461115860068660ff168154811061140857634e487b7160e01b600052603260045260246000fd5b90600052602060002001548861162690919063ffffffff16565b905060048260ff168154811061144857634e487b7160e01b600052603260045260246000fd5b90600052602060002001548111156114935760048260ff168154811061147e57634e487b7160e01b600052603260045260246000fd5b90600052602060002001549350505050610cc2565b9695505050505050565b6114be846323b872dd60e01b8585856040516024016111c393929190611aab565b50505050565b600061097e8284611faf565b6000806114dc836112da565b9050600061152160068360ff168154811061150757634e487b7160e01b600052603260045260246000fd5b90600052602060002001548661163290919063ffffffff16565b90508060048360ff168154811061154857634e487b7160e01b600052603260045260246000fd5b906000526020600020015410156115915760048260ff168154811061157d57634e487b7160e01b600052603260045260246000fd5b906000526020600020015492505050610981565b949350505050565b6115a1610663565b156115be5760405162461bcd60e51b81526004016102de90611cb2565b600080547fffffffffffffffffffffff00ffffffffffffffffffffffffffffffffffffffff16740100000000000000000000000000000000000000001790557f62e78cea01bee320cd4e420270b5ea74000d11b0c9f74754ebdbfc544b05a2586112c361124a565b600061097e8284611fe7565b600061097e8284611fc7565b6000611693826040518060400160405280602081526020017f5361666545524332303a206c6f772d6c6576656c2063616c6c206661696c6564815250856001600160a01b03166116cd9092919063ffffffff16565b80519091501561124557808060200190518101906116b191906118f2565b6112455760405162461bcd60e51b81526004016102de90611ec5565b60606115918484600085856116e185611776565b6116fd5760405162461bcd60e51b81526004016102de90611e8e565b600080866001600160a01b031685876040516117199190611a7b565b60006040518083038185875af1925050503d8060008114611756576040519150601f19603f3d011682016040523d82523d6000602084013e61175b565b606091505b509150915061176b82828661177c565b979650505050505050565b3b151590565b6060831561178b575081610cc2565b82511561179b5782518084602001fd5b8160405162461bcd60e51b81526004016102de9190611b28565b80356001600160a01b038116811461069257600080fd5b6000602082840312156117dd578081fd5b61097e826117b5565b600080600080600060a086880312156117fd578081fd5b611806866117b5565b9450611814602087016117b5565b94979496505050506040830135926060810135926080909101359150565b60008060408385031215611844578182fd5b823567ffffffffffffffff8082111561185b578384fd5b818501915085601f83011261186e578384fd5b8135602082821115611882576118826120d6565b808202604051828282010181811086821117156118a1576118a16120d6565b604052838152828101945085830182870184018b10156118bf578889fd5b8896505b848710156118e15780358652600196909601959483019483016118c3565b509997909101359750505050505050565b600060208284031215611903578081fd5b81518015158114610cc2578182fd5b600060208284031215611923578081fd5b5035919050565b60006020828403121561193b578081fd5b5051919050565b60008060408385031215611954578182fd5b82359150611964602084016117b5565b90509250929050565b600080600060608486031215611981578283fd5b83359250611991602085016117b5565b9150604084013590509250925092565b600080600080606085870312156119b6578384fd5b84359350602085013567ffffffffffffffff808211156119d4578485fd5b818701915087601f8301126119e7578485fd5b8135818111156119f5578586fd5b8860208083028501011115611a08578586fd5b95986020929092019750949560400135945092505050565b600060208284031215611a31578081fd5b813560ff81168114610cc2578182fd5b6000815180845260208085019450808401835b83811015611a7057815187529582019590820190600101611a54565b509495945050505050565b60008251611a8d81846020870161203b565b9190910192915050565b6001600160a01b0391909116815260200190565b6001600160a01b039384168152919092166020820152604081019190915260600190565b6001600160a01b03929092168252602082015260400190565b60006020825261097e6020830184611a41565b600060408252611b0e6040830185611a41565b90508260208301529392505050565b901515815260200190565b6000602082528251806020840152611b4781604085016020870161203b565b601f017fffffffffffffffffffffffffffffffffffffffffffffffffffffffffffffffe0169190910160400192915050565b6020808252601e908201527f4e6f7420656e6f756768206c697175696469747920666f722074726164650000604082015260600190565b60208082526014908201527f5061757361626c653a206e6f7420706175736564000000000000000000000000604082015260600190565b60208082526026908201527f4f776e61626c653a206e6577206f776e657220697320746865207a65726f206160408201527f6464726573730000000000000000000000000000000000000000000000000000606082015260800190565b60208082526014908201527f546f6b656e20646f6573206e6f74206578697374000000000000000000000000604082015260600190565b6020808252601e908201527f4e6f7420656e6f756768206c697175696469747920746f2072656d6f76650000604082015260600190565b60208082526010908201527f5061757361626c653a2070617573656400000000000000000000000000000000604082015260600190565b6020808252601e908201527f4d696e696d756d20616d6f756e74206f757420776173206e6f74206d65740000604082015260600190565b60208082526014908201527f4e6f7420656e6f75676820726563656976656421000000000000000000000000604082015260600190565b6020808252818101527f4f776e61626c653a2063616c6c6572206973206e6f7420746865206f776e6572604082015260600190565b6020808252602b908201527f4e6f7420656e6f756768206c7020746f6b656e7320776f756c6420686176652060408201527f6265656e206d696e746564000000000000000000000000000000000000000000606082015260800190565b60208082526010908201527f446561646c696e65206e6f74206d657400000000000000000000000000000000604082015260600190565b6020808252600c908201527f4f7574206f662072616e67650000000000000000000000000000000000000000604082015260600190565b60208082526012908201527f496e646578206f7574206f662072616e67650000000000000000000000000000604082015260600190565b6020808252601d908201527f416464726573733a2063616c6c20746f206e6f6e2d636f6e7472616374000000604082015260600190565b6020808252602a908201527f5361666545524332303a204552433230206f7065726174696f6e20646964206e60408201527f6f74207375636365656400000000000000000000000000000000000000000000606082015260800190565b6020808252601f908201527f5265656e7472616e637947756172643a207265656e7472616e742063616c6c00604082015260600190565b90815260200190565b938452602084019290925260ff166040830152606082015260800190565b938452602084019290925260ff908116604084015216606082015260800190565b60ff91909116815260200190565b60008219821115611fc257611fc26120c0565b500190565b600082611fe257634e487b7160e01b81526012600452602481fd5b500490565b6000817fffffffffffffffffffffffffffffffffffffffffffffffffffffffffffffffff048311821515161561201f5761201f6120c0565b500290565b600082821015612036576120366120c0565b500390565b60005b8381101561205657818101518382015260200161203e565b838111156114be5750506000910152565b60007fffffffffffffffffffffffffffffffffffffffffffffffffffffffffffffffff821415612099576120996120c0565b5060010190565b600060ff821660ff8114156120b7576120b76120c0565b60010192915050565b634e487b7160e01b600052601160045260246000fd5b634e487b7160e01b600052604160045260246000fdfea2646970667358221220f7088042e3decc70235093cfac2865a8505490eca3d03a9c35e76294be1b984364736f6c6343000800003360806040523480156200001157600080fd5b50604051620014fd380380620014fd83398101604081905262000034916200024e565b8251839083906200004d906003906020850190620000fd565b50805162000063906004906020840190620000fd565b505050620000806200007a620000a760201b60201c565b620000ab565b6005805460ff909216600160a01b0260ff60a01b1990921691909117905550620003229050565b3390565b600580546001600160a01b038381166001600160a01b0319831681179093556040519116919082907f8be0079c531659141344cd1fd0a4f28419497f9722a3daafe3b4186f6b6457e090600090a35050565b8280546200010b90620002cf565b90600052602060002090601f0160209004810192826200012f57600085556200017a565b82601f106200014a57805160ff19168380011785556200017a565b828001600101855582156200017a579182015b828111156200017a5782518255916020019190600101906200015d565b50620001889291506200018c565b5090565b5b808211156200018857600081556001016200018d565b600082601f830112620001b4578081fd5b81516001600160401b0380821115620001d157620001d16200030c565b6040516020601f8401601f1916820181018381118382101715620001f957620001f96200030c565b604052838252858401810187101562000210578485fd5b8492505b8383101562000233578583018101518284018201529182019162000214565b838311156200024457848185840101525b5095945050505050565b60008060006060848603121562000263578283fd5b83516001600160401b03808211156200027a578485fd5b6200028887838801620001a3565b945060208601519150808211156200029e578384fd5b50620002ad86828701620001a3565b925050604084015160ff81168114620002c4578182fd5b809150509250925092565b600281046001821680620002e457607f821691505b602082108114156200030657634e487b7160e01b600052602260045260246000fd5b50919050565b634e487b7160e01b600052604160045260246000fd5b6111cb80620003326000396000f3fe608060405234801561001057600080fd5b506004361061011b5760003560e01c806370a08231116100b257806395d89b4111610081578063a9059cbb11610066578063a9059cbb14610234578063dd62ed3e14610247578063f2fde38b1461025a5761011b565b806395d89b4114610219578063a457c2d7146102215761011b565b806370a08231146101d6578063715018a6146101e957806379cc6790146101f15780638da5cb5b146102045761011b565b8063313ce567116100ee578063313ce56714610186578063395093511461019b57806340c10f19146101ae57806342966c68146101c35761011b565b806306fdde0314610120578063095ea7b31461013e57806318160ddd1461015e57806323b872dd14610173575b600080fd5b61012861026d565b6040516101359190610bb9565b60405180910390f35b61015161014c366004610b59565b6102ff565b6040516101359190610bae565b61016661031c565b60405161013591906110cc565b610151610181366004610b1e565b610322565b61018e6103bb565b60405161013591906110d5565b6101516101a9366004610b59565b6103dc565b6101c16101bc366004610b59565b610430565b005b6101c16101d1366004610b82565b61049a565b6101666101e4366004610acb565b6104ae565b6101c16104cd565b6101c16101ff366004610b59565b610518565b61020c61056b565b6040516101359190610b9a565b61012861057a565b61015161022f366004610b59565b610589565b610151610242366004610b59565b610602565b610166610255366004610aec565b610616565b6101c1610268366004610acb565b610641565b60606003805461027c90611112565b80601f01602080910402602001604051908101604052809291908181526020018280546102a890611112565b80156102f55780601f106102ca576101008083540402835291602001916102f5565b820191906000526020600020905b8154815290600101906020018083116102d857829003601f168201915b5050505050905090565b600061031361030c6106af565b84846106b3565b50600192915050565b60025490565b600061032f848484610767565b6001600160a01b0384166000908152600160205260408120816103506106af565b6001600160a01b03166001600160a01b031681526020019081526020016000205490508281101561039c5760405162461bcd60e51b815260040161039390610e32565b60405180910390fd5b6103b0856103a86106af565b8584036106b3565b506001949350505050565b60055474010000000000000000000000000000000000000000900460ff1690565b60006103136103e96106af565b8484600160006103f76106af565b6001600160a01b03908116825260208083019390935260409182016000908120918b168152925290205461042b91906110e3565b6106b3565b6104386106af565b6001600160a01b031661044961056b565b6001600160a01b03161461046f5760405162461bcd60e51b815260040161039390610e8f565b8061048c5760405162461bcd60e51b815260040161039390610dfb565b6104968282610891565b5050565b6104ab6104a56106af565b82610959565b50565b6001600160a01b0381166000908152602081905260409020545b919050565b6104d56106af565b6001600160a01b03166104e661056b565b6001600160a01b03161461050c5760405162461bcd60e51b815260040161039390610e8f565b6105166000610a4a565b565b6000610526836102556106af565b9050818110156105485760405162461bcd60e51b815260040161039390610ec4565b61055c836105546106af565b8484036106b3565b6105668383610959565b505050565b6005546001600160a01b031690565b60606004805461027c90611112565b600080600160006105986106af565b6001600160a01b03908116825260208083019390935260409182016000908120918816815292529020549050828110156105e45760405162461bcd60e51b815260040161039390611038565b6105f86105ef6106af565b858584036106b3565b5060019392505050565b600061031361060f6106af565b8484610767565b6001600160a01b03918216600090815260016020908152604080832093909416825291909152205490565b6106496106af565b6001600160a01b031661065a61056b565b6001600160a01b0316146106805760405162461bcd60e51b815260040161039390610e8f565b6001600160a01b0381166106a65760405162461bcd60e51b815260040161039390610ce4565b6104ab81610a4a565b3390565b6001600160a01b0383166106d95760405162461bcd60e51b815260040161039390610fdb565b6001600160a01b0382166106ff5760405162461bcd60e51b815260040161039390610d41565b6001600160a01b0380841660008181526001602090815260408083209487168084529490915290819020849055517f8c5be1e5ebec7d5bd14f71427d1e84f3dd0314c0f7b2291e5b200ac8c7c3b9259061075a9085906110cc565b60405180910390a3505050565b6001600160a01b03831661078d5760405162461bcd60e51b815260040161039390610f7e565b6001600160a01b0382166107b35760405162461bcd60e51b815260040161039390610c2a565b6107be838383610566565b6001600160a01b038316600090815260208190526040902054818110156107f75760405162461bcd60e51b815260040161039390610d9e565b6001600160a01b0380851660009081526020819052604080822085850390559185168152908120805484929061082e9084906110e3565b92505081905550826001600160a01b0316846001600160a01b03167fddf252ad1be2c89b69c2b068fc378daa952ba7f163c4a11628f55a4df523b3ef8460405161087891906110cc565b60405180910390a361088b848484610566565b50505050565b6001600160a01b0382166108b75760405162461bcd60e51b815260040161039390611095565b6108c360008383610566565b80600260008282546108d591906110e3565b90915550506001600160a01b038216600090815260208190526040812080548392906109029084906110e3565b90915550506040516001600160a01b038316906000907fddf252ad1be2c89b69c2b068fc378daa952ba7f163c4a11628f55a4df523b3ef906109459085906110cc565b60405180910390a361049660008383610566565b6001600160a01b03821661097f5760405162461bcd60e51b815260040161039390610f21565b61098b82600083610566565b6001600160a01b038216600090815260208190526040902054818110156109c45760405162461bcd60e51b815260040161039390610c87565b6001600160a01b03831660009081526020819052604081208383039055600280548492906109f39084906110fb565b90915550506040516000906001600160a01b038516907fddf252ad1be2c89b69c2b068fc378daa952ba7f163c4a11628f55a4df523b3ef90610a369086906110cc565b60405180910390a361056683600084610566565b600580546001600160a01b038381167fffffffffffffffffffffffff0000000000000000000000000000000000000000831681179093556040519116919082907f8be0079c531659141344cd1fd0a4f28419497f9722a3daafe3b4186f6b6457e090600090a35050565b80356001600160a01b03811681146104c857600080fd5b600060208284031215610adc578081fd5b610ae582610ab4565b9392505050565b60008060408385031215610afe578081fd5b610b0783610ab4565b9150610b1560208401610ab4565b90509250929050565b600080600060608486031215610b32578081fd5b610b3b84610ab4565b9250610b4960208501610ab4565b9150604084013590509250925092565b60008060408385031215610b6b578182fd5b610b7483610ab4565b946020939093013593505050565b600060208284031215610b93578081fd5b5035919050565b6001600160a01b0391909116815260200190565b901515815260200190565b6000602080835283518082850152825b81811015610be557858101830151858201604001528201610bc9565b81811115610bf65783604083870101525b50601f017fffffffffffffffffffffffffffffffffffffffffffffffffffffffffffffffe016929092016040019392505050565b60208082526023908201527f45524332303a207472616e7366657220746f20746865207a65726f206164647260408201527f6573730000000000000000000000000000000000000000000000000000000000606082015260800190565b60208082526022908201527f45524332303a206275726e20616d6f756e7420657863656564732062616c616e60408201527f6365000000000000000000000000000000000000000000000000000000000000606082015260800190565b60208082526026908201527f4f776e61626c653a206e6577206f776e657220697320746865207a65726f206160408201527f6464726573730000000000000000000000000000000000000000000000000000606082015260800190565b60208082526022908201527f45524332303a20617070726f766520746f20746865207a65726f20616464726560408201527f7373000000000000000000000000000000000000000000000000000000000000606082015260800190565b60208082526026908201527f45524332303a207472616e7366657220616d6f756e742065786365656473206260408201527f616c616e63650000000000000000000000000000000000000000000000000000606082015260800190565b6020808252600b908201527f616d6f756e74203d3d2030000000000000000000000000000000000000000000604082015260600190565b60208082526028908201527f45524332303a207472616e7366657220616d6f756e742065786365656473206160408201527f6c6c6f77616e6365000000000000000000000000000000000000000000000000606082015260800190565b6020808252818101527f4f776e61626c653a2063616c6c6572206973206e6f7420746865206f776e6572604082015260600190565b60208082526024908201527f45524332303a206275726e20616d6f756e74206578636565647320616c6c6f7760408201527f616e636500000000000000000000000000000000000000000000000000000000606082015260800190565b60208082526021908201527f45524332303a206275726e2066726f6d20746865207a65726f2061646472657360408201527f7300000000000000000000000000000000000000000000000000000000000000606082015260800190565b60208082526025908201527f45524332303a207472616e736665722066726f6d20746865207a65726f20616460408201527f6472657373000000000000000000000000000000000000000000000000000000606082015260800190565b60208082526024908201527f45524332303a20617070726f76652066726f6d20746865207a65726f2061646460408201527f7265737300000000000000000000000000000000000000000000000000000000606082015260800190565b60208082526025908201527f45524332303a2064656372656173656420616c6c6f77616e63652062656c6f7760408201527f207a65726f000000000000000000000000000000000000000000000000000000606082015260800190565b6020808252601f908201527f45524332303a206d696e7420746f20746865207a65726f206164647265737300604082015260600190565b90815260200190565b60ff91909116815260200190565b600082198211156110f6576110f6611166565b500190565b60008282101561110d5761110d611166565b500390565b60028104600182168061112657607f821691505b60208210811415611160577f4e487b7100000000000000000000000000000000000000000000000000000000600052602260045260246000fd5b50919050565b7f4e487b7100000000000000000000000000000000000000000000000000000000600052601160045260246000fdfea2646970667358221220b2b020c4b6ae9010ea569b5a9c322db06b91569eaec2f5f9eca6e414431111f064736f6c63430008000033",
  "libraries": {
    "SafeERC20": "0xe3C03e4B4d84b84b877a6C0D007dDAd025a175e0",
    "SafeMath": "0x939925cbDf9597aa761FE1bEF478293C05987938"
  },
  "devdoc": {
    "kind": "dev",
    "methods": {
      "addLiquidity(uint256[],uint256)": {
        "params": {
          "amounts": "the amounts of each token to add, in their native precision",
          "minToMint": "the minimum LP tokens adding this amount of liquidity should mint, otherwise revert. Handy for front-running mitigation"
        },
        "returns": {
          "_0": "amount of LP token user received"
        }
      },
      "calculateRemoveLiquidity(uint256)": {
        "params": {
          "amount": "the amount of LP tokens that would be burned on withdrawal"
        },
        "returns": {
          "_0": "array of token balances that the user will receive"
        }
      },
      "calculateRemoveLiquidityOneToken(uint256,address)": {
        "params": {
          "tokenAmount": "the amount of LP token to burn",
          "tokenOut": "address of which token will be withdrawn"
        },
        "returns": {
          "availableTokenAmount": "calculated amount of underlying token available to withdraw"
        }
      },
      "getBalances()": {
        "returns": {
          "_0": "current balances of all tokens in pool"
        }
      },
      "getLpToken()": {
        "returns": {
          "_0": "address of lp token"
        }
      },
      "getToken(uint8)": {
        "params": {
          "index": "the index of the token"
        },
        "returns": {
          "_0": "address of the token at given index"
        }
      },
      "getTokenBalance(uint8)": {
        "params": {
          "index": "the index of the token"
        },
        "returns": {
          "_0": "current balance of the pooled token at given index with token's native precision"
        }
      },
      "getTokenIndex(address)": {
        "params": {
          "tokenAddress": "address of the token"
        },
        "returns": {
          "_0": "the index of the given token address"
        }
      },
      "owner()": {
        "details": "Returns the address of the current owner."
      },
      "paused()": {
        "details": "Returns true if the contract is paused, and false otherwise."
      },
      "removeLiquidity(uint256,uint256[],uint256)": {
        "details": "Liquidity can always be removed, even when the pool is paused.",
        "params": {
          "amount": "the amount of LP tokens to burn",
          "deadline": "latest timestamp to accept this transaction",
          "minAmounts": "the minimum amounts of each token in the pool        acceptable for this burn. Useful as a front-running mitigation"
        },
        "returns": {
          "_0": "amounts of tokens user received"
        }
      },
      "removeLiquidityOneToken(uint256,address,uint256)": {
        "params": {
          "minAmount": "the minimum amount to withdraw, otherwise revert",
          "tokenAmount": "the amount of the lp tokens to burn",
          "tokenOut": "the address of the token you want to receive"
        },
        "returns": {
          "_0": "amount chosen token that user received"
        }
      },
      "renounceOwnership()": {
        "details": "Leaves the contract without owner. It will not be possible to call `onlyOwner` functions anymore. Can only be called by the current owner. NOTE: Renouncing ownership will leave the contract without an owner, thereby removing any functionality that is only available to the owner."
      },
      "swap(address,address,uint256,uint256,uint256)": {
        "params": {
          "amountIn": "the amount of tokens the user wants to swap from",
          "deadline": "latest timestamp to accept this transaction",
          "minAmountOut": "the min amount the user would like to receive, or revert.",
          "tokenFrom": "the token the user wants to swap from",
          "tokenTo": "the token the user wants to swap to"
        }
      },
      "transferOwnership(address)": {
        "details": "Transfers ownership of the contract to a new account (`newOwner`). Can only be called by the current owner."
      }
    },
    "version": 1
  },
  "userdoc": {
    "kind": "user",
    "methods": {
      "addLiquidity(uint256[],uint256)": {
        "notice": "Add liquidity to the pool"
      },
      "calculateRemoveLiquidity(uint256)": {
        "notice": "A simple method to calculate amount of each underlying tokens that is returned upon burning given amount of LP tokens"
      },
      "calculateRemoveLiquidityOneToken(uint256,address)": {
        "notice": "Calculate the amount of underlying token available to withdraw when withdrawing via only single token"
      },
      "getBalances()": {
        "notice": "Return balances of pooled tokens"
      },
      "getLpToken()": {
        "notice": "Returns address of lp token"
      },
      "getToken(uint8)": {
        "notice": "Return address of the pooled token at given index. Reverts if tokenIndex is out of range."
      },
      "getTokenBalance(uint8)": {
        "notice": "Return current balance of the pooled token at given index"
      },
      "getTokenIndex(address)": {
        "notice": "Return the index of the given token address. Reverts if no matching token is found."
      },
      "pause()": {
        "notice": "Pause the contract. Revert if already paused."
      },
      "removeLiquidity(uint256,uint256[],uint256)": {
        "notice": "Burn LP tokens to remove liquidity from the pool."
      },
      "removeLiquidityOneToken(uint256,address,uint256)": {
        "notice": "Remove liquidity from the pool all in one token."
      },
      "swap(address,address,uint256,uint256,uint256)": {
        "notice": "Swap two tokens using this pool"
      },
      "unpause()": {
        "notice": "Unpause the contract. Revert if already unpaused."
      }
    },
    "version": 1
  },
  "storageLayout": {
    "storage": [
      {
        "astId": 7,
        "contract": "contracts/Swap.sol:Swap",
        "label": "_owner",
        "offset": 0,
        "slot": "0",
        "type": "t_address"
      },
      {
        "astId": 122,
        "contract": "contracts/Swap.sol:Swap",
        "label": "_paused",
        "offset": 20,
        "slot": "0",
        "type": "t_bool"
      },
      {
        "astId": 207,
        "contract": "contracts/Swap.sol:Swap",
        "label": "_status",
        "offset": 0,
        "slot": "1",
        "type": "t_uint256"
      },
      {
        "astId": 1927,
        "contract": "contracts/Swap.sol:Swap",
        "label": "tokens",
        "offset": 0,
        "slot": "2",
        "type": "t_array(t_contract(IERC20)860)dyn_storage"
      },
      {
        "astId": 1930,
        "contract": "contracts/Swap.sol:Swap",
        "label": "decimals",
        "offset": 0,
        "slot": "3",
        "type": "t_array(t_uint256)dyn_storage"
      },
      {
        "astId": 1933,
        "contract": "contracts/Swap.sol:Swap",
        "label": "balances",
        "offset": 0,
        "slot": "4",
        "type": "t_array(t_uint256)dyn_storage"
      },
      {
        "astId": 1936,
        "contract": "contracts/Swap.sol:Swap",
        "label": "lpToken",
        "offset": 0,
        "slot": "5",
        "type": "t_contract(LPToken)1869"
      },
      {
        "astId": 1939,
        "contract": "contracts/Swap.sol:Swap",
        "label": "precisionMultipliers",
        "offset": 0,
        "slot": "6",
        "type": "t_array(t_uint256)dyn_storage"
      },
      {
        "astId": 1946,
        "contract": "contracts/Swap.sol:Swap",
        "label": "tokenIndexes",
        "offset": 0,
        "slot": "7",
        "type": "t_mapping(t_address,t_uint8)"
      }
    ],
    "types": {
      "t_address": {
        "encoding": "inplace",
        "label": "address",
        "numberOfBytes": "20"
      },
      "t_array(t_contract(IERC20)860)dyn_storage": {
        "base": "t_contract(IERC20)860",
        "encoding": "dynamic_array",
        "label": "contract IERC20[]",
        "numberOfBytes": "32"
      },
      "t_array(t_uint256)dyn_storage": {
        "base": "t_uint256",
        "encoding": "dynamic_array",
        "label": "uint256[]",
        "numberOfBytes": "32"
      },
      "t_bool": {
        "encoding": "inplace",
        "label": "bool",
        "numberOfBytes": "1"
      },
      "t_contract(IERC20)860": {
        "encoding": "inplace",
        "label": "contract IERC20",
        "numberOfBytes": "20"
      },
      "t_contract(LPToken)1869": {
        "encoding": "inplace",
        "label": "contract LPToken",
        "numberOfBytes": "20"
      },
      "t_mapping(t_address,t_uint8)": {
        "encoding": "mapping",
        "key": "t_address",
        "label": "mapping(address => uint8)",
        "numberOfBytes": "32",
        "value": "t_uint8"
      },
      "t_uint256": {
        "encoding": "inplace",
        "label": "uint256",
        "numberOfBytes": "32"
      },
      "t_uint8": {
        "encoding": "inplace",
        "label": "uint8",
        "numberOfBytes": "1"
      }
    }
  }
}