{
  "abi": [
    {
      "inputs": [
        {
          "internalType": "address",
          "name": "_stakingToken",
          "type": "address"
        },
        {
          "internalType": "address[]",
          "name": "_minters",
          "type": "address[]"
        }
      ],
      "stateMutability": "nonpayable",
      "type": "constructor"
    },
    {
      "anonymous": false,
      "inputs": [
        {
          "indexed": true,
          "internalType": "address",
          "name": "previousOwner",
          "type": "address"
        },
        {
          "indexed": true,
          "internalType": "address",
          "name": "newOwner",
          "type": "address"
        }
      ],
      "name": "OwnershipTransferred",
      "type": "event"
    },
    {
      "anonymous": false,
      "inputs": [
        {
          "indexed": false,
          "internalType": "address",
          "name": "token",
          "type": "address"
        },
        {
          "indexed": false,
          "internalType": "uint256",
          "name": "amount",
          "type": "uint256"
        }
      ],
      "name": "Recovered",
      "type": "event"
    },
    {
      "anonymous": false,
      "inputs": [
        {
          "indexed": false,
          "internalType": "uint256",
          "name": "reward",
          "type": "uint256"
        }
      ],
      "name": "RewardAdded",
      "type": "event"
    },
    {
      "anonymous": false,
      "inputs": [
        {
          "indexed": true,
          "internalType": "address",
          "name": "user",
          "type": "address"
        },
        {
          "indexed": true,
          "internalType": "address",
          "name": "rewardsToken",
          "type": "address"
        },
        {
          "indexed": false,
          "internalType": "uint256",
          "name": "reward",
          "type": "uint256"
        }
      ],
      "name": "RewardPaid",
      "type": "event"
    },
    {
      "anonymous": false,
      "inputs": [
        {
          "indexed": false,
          "internalType": "address",
          "name": "token",
          "type": "address"
        },
        {
          "indexed": false,
          "internalType": "uint256",
          "name": "newDuration",
          "type": "uint256"
        }
      ],
      "name": "RewardsDurationUpdated",
      "type": "event"
    },
    {
      "anonymous": false,
      "inputs": [
        {
          "indexed": true,
          "internalType": "address",
          "name": "user",
          "type": "address"
        },
        {
          "indexed": false,
          "internalType": "uint256",
          "name": "amount",
          "type": "uint256"
        }
      ],
      "name": "Staked",
      "type": "event"
    },
    {
      "anonymous": false,
      "inputs": [
        {
          "indexed": true,
          "internalType": "address",
          "name": "user",
          "type": "address"
        },
        {
          "indexed": false,
          "internalType": "uint256",
          "name": "amount",
          "type": "uint256"
        }
      ],
      "name": "Withdrawn",
      "type": "event"
    },
    {
      "inputs": [
        {
          "internalType": "address",
          "name": "_rewardsToken",
          "type": "address"
        },
        {
          "internalType": "address",
          "name": "_distributor",
          "type": "address"
        }
      ],
      "name": "addReward",
      "outputs": [],
      "stateMutability": "nonpayable",
      "type": "function"
    },
    {
      "inputs": [
        {
          "internalType": "address",
          "name": "_rewardsToken",
          "type": "address"
        },
        {
          "internalType": "address",
          "name": "_distributor",
          "type": "address"
        },
        {
          "internalType": "bool",
          "name": "_approved",
          "type": "bool"
        }
      ],
      "name": "approveRewardDistributor",
      "outputs": [],
      "stateMutability": "nonpayable",
      "type": "function"
    },
    {
      "inputs": [
        {
          "internalType": "address",
          "name": "account",
          "type": "address"
        }
      ],
      "name": "claimableRewards",
      "outputs": [
        {
          "components": [
            {
              "internalType": "address",
              "name": "token",
              "type": "address"
            },
            {
              "internalType": "uint256",
              "name": "amount",
              "type": "uint256"
            }
          ],
          "internalType": "struct MultiFeeDistribution.RewardData[]",
          "name": "rewards",
          "type": "tuple[]"
        }
      ],
      "stateMutability": "view",
      "type": "function"
    },
    {
      "inputs": [
        {
          "internalType": "address",
          "name": "user",
          "type": "address"
        }
      ],
      "name": "earnedBalances",
      "outputs": [
        {
          "internalType": "uint256",
          "name": "total",
          "type": "uint256"
        },
        {
          "components": [
            {
              "internalType": "uint256",
              "name": "amount",
              "type": "uint256"
            },
            {
              "internalType": "uint256",
              "name": "unlockTime",
              "type": "uint256"
            }
          ],
          "internalType": "struct MultiFeeDistribution.LockedBalance[]",
          "name": "earningsData",
          "type": "tuple[]"
        }
      ],
      "stateMutability": "view",
      "type": "function"
    },
    {
      "inputs": [],
      "name": "exit",
      "outputs": [],
      "stateMutability": "nonpayable",
      "type": "function"
    },
    {
      "inputs": [],
      "name": "getReward",
      "outputs": [],
      "stateMutability": "nonpayable",
      "type": "function"
    },
    {
      "inputs": [
        {
          "internalType": "address",
          "name": "_rewardsToken",
          "type": "address"
        }
      ],
      "name": "getRewardForDuration",
      "outputs": [
        {
          "internalType": "uint256",
          "name": "",
          "type": "uint256"
        }
      ],
      "stateMutability": "view",
      "type": "function"
    },
    {
      "inputs": [
        {
          "internalType": "address",
          "name": "_rewardsToken",
          "type": "address"
        }
      ],
      "name": "lastTimeRewardApplicable",
      "outputs": [
        {
          "internalType": "uint256",
          "name": "",
          "type": "uint256"
        }
      ],
      "stateMutability": "view",
      "type": "function"
    },
    {
      "inputs": [],
      "name": "lockDuration",
      "outputs": [
        {
          "internalType": "uint256",
          "name": "",
          "type": "uint256"
        }
      ],
      "stateMutability": "view",
      "type": "function"
    },
    {
      "inputs": [
        {
          "internalType": "address",
          "name": "user",
          "type": "address"
        }
      ],
      "name": "lockedBalances",
      "outputs": [
        {
          "internalType": "uint256",
          "name": "total",
          "type": "uint256"
        },
        {
          "internalType": "uint256",
          "name": "unlockable",
          "type": "uint256"
        },
        {
          "internalType": "uint256",
          "name": "locked",
          "type": "uint256"
        },
        {
          "components": [
            {
              "internalType": "uint256",
              "name": "amount",
              "type": "uint256"
            },
            {
              "internalType": "uint256",
              "name": "unlockTime",
              "type": "uint256"
            }
          ],
          "internalType": "struct MultiFeeDistribution.LockedBalance[]",
          "name": "lockData",
          "type": "tuple[]"
        }
      ],
      "stateMutability": "view",
      "type": "function"
    },
    {
      "inputs": [],
      "name": "lockedSupply",
      "outputs": [
        {
          "internalType": "uint256",
          "name": "",
          "type": "uint256"
        }
      ],
      "stateMutability": "view",
      "type": "function"
    },
    {
      "inputs": [
        {
          "internalType": "address",
          "name": "user",
          "type": "address"
        },
        {
          "internalType": "uint256",
          "name": "amount",
          "type": "uint256"
        }
      ],
      "name": "mint",
      "outputs": [],
      "stateMutability": "nonpayable",
      "type": "function"
    },
    {
      "inputs": [
        {
          "internalType": "address",
          "name": "",
          "type": "address"
        }
      ],
      "name": "minters",
      "outputs": [
        {
          "internalType": "bool",
          "name": "",
          "type": "bool"
        }
      ],
      "stateMutability": "view",
      "type": "function"
    },
    {
      "inputs": [
        {
          "internalType": "address",
          "name": "_rewardsToken",
          "type": "address"
        },
        {
          "internalType": "uint256",
          "name": "reward",
          "type": "uint256"
        }
      ],
      "name": "notifyRewardAmount",
      "outputs": [],
      "stateMutability": "nonpayable",
      "type": "function"
    },
    {
      "inputs": [],
      "name": "owner",
      "outputs": [
        {
          "internalType": "address",
          "name": "",
          "type": "address"
        }
      ],
      "stateMutability": "view",
      "type": "function"
    },
    {
      "inputs": [
        {
          "internalType": "address",
          "name": "tokenAddress",
          "type": "address"
        },
        {
          "internalType": "uint256",
          "name": "tokenAmount",
          "type": "uint256"
        }
      ],
      "name": "recoverERC20",
      "outputs": [],
      "stateMutability": "nonpayable",
      "type": "function"
    },
    {
      "inputs": [],
      "name": "renounceOwnership",
      "outputs": [],
      "stateMutability": "nonpayable",
      "type": "function"
    },
    {
      "inputs": [
        {
          "internalType": "address",
          "name": "",
          "type": "address"
        }
      ],
      "name": "rewardData",
      "outputs": [
        {
          "internalType": "uint256",
          "name": "periodFinish",
          "type": "uint256"
        },
        {
          "internalType": "uint256",
          "name": "rewardRate",
          "type": "uint256"
        },
        {
          "internalType": "uint256",
          "name": "lastUpdateTime",
          "type": "uint256"
        },
        {
          "internalType": "uint256",
          "name": "rewardPerTokenStored",
          "type": "uint256"
        }
      ],
      "stateMutability": "view",
      "type": "function"
    },
    {
      "inputs": [
        {
          "internalType": "address",
          "name": "",
          "type": "address"
        },
        {
          "internalType": "address",
          "name": "",
          "type": "address"
        }
      ],
      "name": "rewardDistributors",
      "outputs": [
        {
          "internalType": "bool",
          "name": "",
          "type": "bool"
        }
      ],
      "stateMutability": "view",
      "type": "function"
    },
    {
      "inputs": [
        {
          "internalType": "address",
          "name": "_rewardsToken",
          "type": "address"
        }
      ],
      "name": "rewardPerToken",
      "outputs": [
        {
          "internalType": "uint256",
          "name": "",
          "type": "uint256"
        }
      ],
      "stateMutability": "view",
      "type": "function"
    },
    {
      "inputs": [
        {
          "internalType": "uint256",
          "name": "",
          "type": "uint256"
        }
      ],
      "name": "rewardTokens",
      "outputs": [
        {
          "internalType": "address",
          "name": "",
          "type": "address"
        }
      ],
      "stateMutability": "view",
      "type": "function"
    },
    {
      "inputs": [
        {
          "internalType": "address",
          "name": "",
          "type": "address"
        },
        {
          "internalType": "address",
          "name": "",
          "type": "address"
        }
      ],
      "name": "rewards",
      "outputs": [
        {
          "internalType": "uint256",
          "name": "",
          "type": "uint256"
        }
      ],
      "stateMutability": "view",
      "type": "function"
    },
    {
      "inputs": [],
      "name": "rewardsDuration",
      "outputs": [
        {
          "internalType": "uint256",
          "name": "",
          "type": "uint256"
        }
      ],
      "stateMutability": "view",
      "type": "function"
    },
    {
      "inputs": [
        {
          "internalType": "uint256",
          "name": "amount",
          "type": "uint256"
        },
        {
          "internalType": "bool",
          "name": "lock",
          "type": "bool"
        }
      ],
      "name": "stake",
      "outputs": [],
      "stateMutability": "nonpayable",
      "type": "function"
    },
    {
      "inputs": [],
      "name": "stakingToken",
      "outputs": [
        {
          "internalType": "contract IMintableToken",
          "name": "",
          "type": "address"
        }
      ],
      "stateMutability": "view",
      "type": "function"
    },
    {
      "inputs": [
        {
          "internalType": "address",
          "name": "user",
          "type": "address"
        }
      ],
      "name": "totalBalance",
      "outputs": [
        {
          "internalType": "uint256",
          "name": "amount",
          "type": "uint256"
        }
      ],
      "stateMutability": "view",
      "type": "function"
    },
    {
      "inputs": [],
      "name": "totalSupply",
      "outputs": [
        {
          "internalType": "uint256",
          "name": "",
          "type": "uint256"
        }
      ],
      "stateMutability": "view",
      "type": "function"
    },
    {
      "inputs": [
        {
          "internalType": "address",
          "name": "newOwner",
          "type": "address"
        }
      ],
      "name": "transferOwnership",
      "outputs": [],
      "stateMutability": "nonpayable",
      "type": "function"
    },
    {
      "inputs": [
        {
          "internalType": "address",
          "name": "user",
          "type": "address"
        }
      ],
      "name": "unlockedBalance",
      "outputs": [
        {
          "internalType": "uint256",
          "name": "amount",
          "type": "uint256"
        }
      ],
      "stateMutability": "view",
      "type": "function"
    },
    {
      "inputs": [
        {
          "internalType": "address",
          "name": "",
          "type": "address"
        },
        {
          "internalType": "address",
          "name": "",
          "type": "address"
        }
      ],
      "name": "userRewardPerTokenPaid",
      "outputs": [
        {
          "internalType": "uint256",
          "name": "",
          "type": "uint256"
        }
      ],
      "stateMutability": "view",
      "type": "function"
    },
    {
      "inputs": [
        {
          "internalType": "uint256",
          "name": "amount",
          "type": "uint256"
        }
      ],
      "name": "withdraw",
      "outputs": [],
      "stateMutability": "nonpayable",
      "type": "function"
    },
    {
      "inputs": [],
      "name": "withdrawExpiredLocks",
      "outputs": [],
      "stateMutability": "nonpayable",
      "type": "function"
    },
    {
      "inputs": [
        {
          "internalType": "address",
          "name": "user",
          "type": "address"
        }
      ],
      "name": "withdrawableBalance",
      "outputs": [
        {
          "internalType": "uint256",
          "name": "amount",
          "type": "uint256"
        },
        {
          "internalType": "uint256",
          "name": "penaltyAmount",
          "type": "uint256"
        }
      ],
      "stateMutability": "view",
      "type": "function"
    }
  ],
  "bytecode": "60a06040523480156200001157600080fd5b506040516200388338038062003883833981016040819052620000349162000185565b600160009081556200004562000164565b600180546001600160a01b0319166001600160a01b038316908117909155604051919250906000907f8be0079c531659141344cd1fd0a4f28419497f9722a3daafe3b4186f6b6457e0908290a3506001600160601b0319606083901b1660805260005b81518110156200010057600160046000848481518110620000c557fe5b6020908102919091018101516001600160a01b03168252810191909152604001600020805460ff1916911515919091179055600101620000a8565b5050600280546001810182557f405787fa12a823e0f2b7631cc41b3ba8828b3321ca811111fa75cd3aa3bb5ace0180546001600160a01b039093166001600160a01b031990931683179055600091825260036020526040909120429101556200025a565b3390565b80516001600160a01b03811681146200018057600080fd5b919050565b6000806040838503121562000198578182fd5b620001a38362000168565b602084810151919350906001600160401b0380821115620001c2578384fd5b818601915086601f830112620001d6578384fd5b815181811115620001e357fe5b83810260405185828201018181108582111715620001fd57fe5b604052828152858101935084860182860187018b10156200021c578788fd5b8795505b838610156200024957620002348162000168565b85526001959095019493860193860162000220565b508096505050505050509250929050565b60805160601c6135c0620002c3600039806107c05280610c165280610c485280610d4a5280611130528061149552806117fe52806118ae5280611acf5280611b625280611efa5280611f7952806124f05280612766528061279852806127d352506135c06000f3fe608060405234801561001057600080fd5b50600436106101fb5760003560e01c8063715018a61161011a578063bcd11014116100ad578063e70b9e271161007c578063e70b9e271461042c578063e9fad8ee1461043f578063f122977714610447578063f2fde38b1461045a578063f46eccc41461046d576101fb565b8063bcd11014146103d0578063ca5c7b91146103e3578063dc01f60d146103eb578063df3798761461040b576101fb565b80638da5cb5b116100e95780638da5cb5b1461039a578063a01c77bc146103a2578063abe50f19146103aa578063b66503cf146103bd576101fb565b8063715018a61461035757806372f702f31461035f5780637bb7bed1146103745780638980f11f14610387576101fb565b806340b47e1a11610192578063638634ee11610161578063638634ee1461030b5780636724c9101461031e5780636eacd398146103315780637035ab9814610344576101fb565b806340b47e1a146102af57806340c10f19146102c257806348e5d9f8146102d55780635e0fac2e146102f8576101fb565b80632e1a7d4d116101ce5780632e1a7d4d1461026a578063386a95251461027f57806339fc9713146102875780633d18b912146102a7576101fb565b806302b6293814610200578063045544431461022a5780630483a7f61461023f57806318160ddd14610262575b600080fd5b61021361020e3660046130fb565b610480565b60405161022192919061346d565b60405180910390f35b6102326105bf565b604051610221919061344b565b61025261024d3660046130fb565b6105c6565b604051610221949392919061347b565b610232610754565b61027d6102783660046131d2565b61075a565b005b610232610cbd565b61029a610295366004613115565b610cc4565b60405161022191906132e3565b61027d610ce4565b61027d6102bd366004613115565b611019565b61027d6102d036600461318d565b611129565b6102e86102e33660046130fb565b61156c565b60405161022194939291906134aa565b6102326103063660046130fb565b611595565b6102326103193660046130fb565b61162d565b61027d61032c366004613147565b611657565b61023261033f3660046130fb565b611718565b610232610352366004613115565b611733565b61027d611750565b6103676117fc565b604051610221919061325e565b6103676103823660046131d2565b611820565b61027d61039536600461318d565b61184a565b610367611990565b61027d61199f565b61027d6103b83660046131ea565b611afc565b61027d6103cb36600461318d565b611f71565b6102326103de3660046130fb565b612211565b61023261223a565b6103fe6103f93660046130fb565b612240565b604051610221919061328b565b61041e6104193660046130fb565b6123a8565b604051610221929190613454565b61023261043a366004613115565b6124cc565b61027d6124e9565b6102326104553660046130fb565b6127ce565b61027d6104683660046130fb565b612829565b61029a61047b3660046130fb565b61292c565b6001600160a01b0381166000908152600a60205260408120600381015482919015610592576001600160a01b0384166000908152600c6020526040812054815b8181101561056a576001600160a01b0387166000908152600c602052604081208054839081106104ec57fe5b9060005260206000209060020201600001549050806000141561050f5750610562565b6001600160a01b0388166000908152600c6020526040902080544291908490811061053657fe5b9060005260206000209060020201600101541115610554575061056a565b61055e8482612941565b9350505b6001016104c0565b5061058d600261058784866003015461299b90919063ffffffff16565b906129f8565b935050505b6105b7826105b18360030154846001015461294190919063ffffffff16565b9061299b565b925050915091565b6277f88081565b6001600160a01b0381166000908152600b602052604081208190819060609082805b825481101561072c57428382815481106105fe57fe5b90600052602060002090600202016001015411156106fa578161067457825481900367ffffffffffffffff8111801561063657600080fd5b5060405190808252806020026020018201604052801561067057816020015b61065d613070565b8152602001906001900390816106555790505b5093505b82818154811061068057fe5b9060005260206000209060020201604051806040016040529081600082015481526020016001820154815250508483815181106106b957fe5b602002602001018190525081806001019250506106f38382815481106106db57fe5b60009182526020909120600290910201548690612941565b9450610724565b61072183828154811061070957fe5b60009182526020909120600290910201548790612941565b95505b6001016105e8565b5050506001600160a01b0385166000908152600a602052604090206002015493509193509193565b60085481565b600260005414156107b2576040805162461bcd60e51b815260206004820152601f60248201527f5265656e7472616e637947756172643a207265656e7472616e742063616c6c00604482015290519081900360640190fd5b6002600090815560095433917f0000000000000000000000000000000000000000000000000000000000000000916107ea8382612a5f565b6001600160a01b038416600090815260036020819052604090912001556108108361162d565b6001600160a01b038085166000908152600360205260409020600201919091558416156108bb576001600160a01b0384166000908152600a6020526040902060020154610861908590859084612af6565b6001600160a01b03808616600081815260076020908152604080832094891680845294825280832095909555600380825285832001548383526006825285832094835293815284822093909355908152600a909152205491505b5060085460015b6002548110156109a757600281815481106108d957fe5b6000918252602090912001546001600160a01b031693506108fa8483612a5f565b6001600160a01b038516600090815260036020819052604090912001556109208461162d565b6001600160a01b0380861660009081526003602052604090206002019190915585161561099f5761095385858585612af6565b6001600160a01b038087166000818152600760209081526040808320948a1680845294825280832095909555600380825285832001549282526006815284822093825292909252919020555b6001016108c2565b50600085116109d15760405162461bcd60e51b81526004016109c89061337b565b60405180910390fd5b336000908152600a6020526040812060018101549091908711610a075760018201546109fd908861299b565b6001830155610bdc565b6000610a2083600101548961299b90919063ffffffff16565b90508083600301541015610a465760405162461bcd60e51b81526004016109c8906133dd565b600060018401556003830154610a5c908261299b565b600384015560005b336000908152600c60205260408120805483908110610a7f57fe5b90600052602060002090600202016000015490508060001415610aa25750610bd1565b83158015610add5750336000908152600c60205260409020805442919084908110610ac957fe5b906000526020600020906002020160010154115b15610b4f578293508285600301541015610b095760405162461bcd60e51b81526004016109c890613316565b6003850154610b18908461299b565b60038601819055610b4157336000908152600c60205260408120610b3b9161308a565b50610bd9565b610b4c836002612b68565b92505b808311610b9257610b60818461299b565b336000908152600c60205260409020805484908110610b7b57fe5b600091825260209091206002909102015550610bd9565b336000908152600c60205260409020805483908110610bad57fe5b60009182526020822060029091020181815560010155610bcd838261299b565b9250505b600101610a64565b50505b6000610be88883612941565b8354909150610bf7908261299b565b8355600854610c06908261299b565b600855610c3d6001600160a01b037f000000000000000000000000000000000000000000000000000000000000000016338a612bc1565b8115610c6d57610c6d7f000000000000000000000000000000000000000000000000000000000000000083612c18565b336001600160a01b03167f7084f5476618d8e60b11ef0d7d3f06914655adb8793e28ff7f018d4c76d505d589604051610ca6919061344b565b60405180910390a250506001600055505050505050565b62093a8081565b600560209081526000928352604080842090915290825290205460ff1681565b60026000541415610d3c576040805162461bcd60e51b815260206004820152601f60248201527f5265656e7472616e637947756172643a207265656e7472616e742063616c6c00604482015290519081900360640190fd5b6002600090815560095433917f000000000000000000000000000000000000000000000000000000000000000091610d748382612a5f565b6001600160a01b03841660009081526003602081905260409091200155610d9a8361162d565b6001600160a01b03808516600090815260036020526040902060020191909155841615610e45576001600160a01b0384166000908152600a6020526040902060020154610deb908590859084612af6565b6001600160a01b03808616600081815260076020908152604080832094891680845294825280832095909555600380825285832001548383526006825285832094835293815284822093909355908152600a909152205491505b5060085460015b600254811015610f315760028181548110610e6357fe5b6000918252602090912001546001600160a01b03169350610e848483612a5f565b6001600160a01b03851660009081526003602081905260409091200155610eaa8461162d565b6001600160a01b03808616600090815260036020526040902060020191909155851615610f2957610edd85858585612af6565b6001600160a01b038087166000818152600760209081526040808320948a1680845294825280832095909555600380825285832001549282526006815284822093825292909252919020555b600101610e4c565b5060005b60025481101561100d57600060028281548110610f4e57fe5b60009182526020808320909101543383526007825260408084206001600160a01b03909216808552919092529120549091508015611003573360008181526007602090815260408083206001600160a01b0387168085529252822091909155610fb79183612bc1565b816001600160a01b0316336001600160a01b03167f540798df468d7b23d11f156fdb954cb19ad414d150722a7b6d55ba369dea792e83604051610ffa919061344b565b60405180910390a35b5050600101610f35565b50506001600055505050565b611021612d33565b6001600160a01b0316611032611990565b6001600160a01b03161461107b576040805162461bcd60e51b81526020600482018190526024820152600080516020613541833981519152604482015290519081900360640190fd5b6001600160a01b038216600090815260036020526040902060020154156110a157600080fd5b60028054600180820183557f405787fa12a823e0f2b7631cc41b3ba8828b3321ca811111fa75cd3aa3bb5ace90910180546001600160a01b0319166001600160a01b039586169081179091556000908152600360209081526040808320429581018690559490945560058152838220949095168152929093529020805460ff19169091179055565b60095482907f00000000000000000000000000000000000000000000000000000000000000009060009061115d8382612a5f565b6001600160a01b038416600090815260036020819052604090912001556111838361162d565b6001600160a01b0380851660009081526003602052604090206002019190915584161561122e576001600160a01b0384166000908152600a60205260409020600201546111d4908590859084612af6565b6001600160a01b03808616600081815260076020908152604080832094891680845294825280832095909555600380825285832001548383526006825285832094835293815284822093909355908152600a909152205491505b5060085460015b60025481101561131a576002818154811061124c57fe5b6000918252602090912001546001600160a01b0316935061126d8483612a5f565b6001600160a01b038516600090815260036020819052604090912001556112938461162d565b6001600160a01b03808616600090815260036020526040902060020191909155851615611312576112c685858585612af6565b6001600160a01b038087166000818152600760209081526040808320948a1680845294825280832095909555600380825285832001549282526006815284822093825292909252919020555b600101611235565b503360009081526004602052604090205460ff1661133757600080fd5b6008546113449086612941565b6008556001600160a01b0386166000908152600a60205260409020805461136b9087612941565b8155600381015461137c9087612941565b600382015560006113a76277f8806113a162093a8061139b42826129f8565b90612b68565b90612941565b6001600160a01b0389166000908152600c602052604090208054919250908015806113f15750828260018303815481106113dd57fe5b906000526020600020906002020160010154105b1561143357604080518082019091528981526020808201858152845460018181018755600087815293909320935160029091029093019283555191015561147e565b61145d8983600184038154811061144657fe5b600091825260209091206002909102015490612941565b82600183038154811061146c57fe5b60009182526020909120600290910201555b6040516340c10f1960e01b81526001600160a01b037f000000000000000000000000000000000000000000000000000000000000000016906340c10f19906114cc9030908d90600401613272565b602060405180830381600087803b1580156114e657600080fd5b505af11580156114fa573d6000803e3d6000fd5b505050506040513d601f19601f8201168201806040525081019061151e91906131b6565b50896001600160a01b03167f9e71bc8eea02a63969f509818f2dafb9254532904319f9dbda79b67bd34a5f3d8a604051611558919061344b565b60405180910390a250505050505050505050565b600360208190526000918252604090912080546001820154600283015492909301549092919084565b6001600160a01b0381166000908152600a6020908152604080832060010154338452600c909252822090915b815481101561162557428282815481106115d757fe5b90600052602060002090600202016001015411156115f457611625565b61161b82828154811061160357fe5b60009182526020909120600290910201548490612941565b92506001016115c1565b50505b919050565b6001600160a01b038116600090815260036020526040812054611651904290612d37565b92915050565b61165f612d33565b6001600160a01b0316611670611990565b6001600160a01b0316146116b9576040805162461bcd60e51b81526020600482018190526024820152600080516020613541833981519152604482015290519081900360640190fd5b6001600160a01b0383166000908152600360205260409020600201546116de57600080fd5b6001600160a01b03928316600090815260056020908152604080832094909516825292909252919020805460ff1916911515919091179055565b6001600160a01b03166000908152600a602052604090205490565b600660209081526000928352604080842090915290825290205481565b611758612d33565b6001600160a01b0316611769611990565b6001600160a01b0316146117b2576040805162461bcd60e51b81526020600482018190526024820152600080516020613541833981519152604482015290519081900360640190fd5b6001546040516000916001600160a01b0316907f8be0079c531659141344cd1fd0a4f28419497f9722a3daafe3b4186f6b6457e0908390a3600180546001600160a01b0319169055565b7f000000000000000000000000000000000000000000000000000000000000000081565b6002818154811061183057600080fd5b6000918252602090912001546001600160a01b0316905081565b611852612d33565b6001600160a01b0316611863611990565b6001600160a01b0316146118ac576040805162461bcd60e51b81526020600482018190526024820152600080516020613541833981519152604482015290519081900360640190fd5b7f00000000000000000000000000000000000000000000000000000000000000006001600160a01b0316826001600160a01b031614156118fe5760405162461bcd60e51b81526004016109c8906133a6565b6001600160a01b038216600090815260036020526040902060020154156119375760405162461bcd60e51b81526004016109c890613414565b611953611942611990565b6001600160a01b0384169083612bc1565b7f8c1256b8896378cd5044f80c202f9772b9d77dc85c8a6eb51967210b09bfaa288282604051611984929190613272565b60405180910390a15050565b6001546001600160a01b031690565b336000908152600b60209081526040808320600a9092528220815491929091428460001983018381106119ce57fe5b90600052602060002090600202016001015411611a0b576002830154336000908152600b60205260408120919350611a06919061308a565b611a80565b60005b81811015611a7e5742858281548110611a2357fe5b9060005260206000209060020201600101541115611a4057611a7e565b611a4f85828154811061160357fe5b9250848181548110611a5d57fe5b60009182526020822060029091020181815560019081019190915501611a0e565b505b6002830154611a8f908361299b565b60028401558254611aa0908361299b565b8355600854611aaf908361299b565b600855600954611abf908361299b565b600955611af66001600160a01b037f0000000000000000000000000000000000000000000000000000000000000000163384612bc1565b50505050565b60026000541415611b54576040805162461bcd60e51b815260206004820152601f60248201527f5265656e7472616e637947756172643a207265656e7472616e742063616c6c00604482015290519081900360640190fd5b6002600090815560095433917f000000000000000000000000000000000000000000000000000000000000000091611b8c8382612a5f565b6001600160a01b03841660009081526003602081905260409091200155611bb28361162d565b6001600160a01b03808516600090815260036020526040902060020191909155841615611c5d576001600160a01b0384166000908152600a6020526040902060020154611c03908590859084612af6565b6001600160a01b03808616600081815260076020908152604080832094891680845294825280832095909555600380825285832001548383526006825285832094835293815284822093909355908152600a909152205491505b5060085460015b600254811015611d495760028181548110611c7b57fe5b6000918252602090912001546001600160a01b03169350611c9c8483612a5f565b6001600160a01b03851660009081526003602081905260409091200155611cc28461162d565b6001600160a01b03808616600090815260036020526040902060020191909155851615611d4157611cf585858585612af6565b6001600160a01b038087166000818152600760209081526040808320948a1680845294825280832095909555600380825285832001549282526006815284822093825292909252919020555b600101611c64565b5060008611611d6a5760405162461bcd60e51b81526004016109c8906132ee565b600854611d779087612941565b600855336000908152600a602052604090208054611d959088612941565b81558515611ed857600954611daa9088612941565b6009556002810154611dbc9088612941565b60028201556000611ddb6277f8806113a162093a8061139b42826129f8565b336000908152600b6020526040902054909150801580611e2c5750336000908152600b6020526040902080548391906000198401908110611e1857fe5b906000526020600020906002020160010154105b15611e7b57336000908152600b6020908152604080832081518083019092528c825281830186815281546001818101845592865293909420915160029093029091019182559151910155611ed1565b336000908152600b602052604090208054611ea0918b91600019850190811061144657fe5b336000908152600b6020526040902080546000198401908110611ebf57fe5b60009182526020909120600290910201555b5050611eed565b6001810154611ee79088612941565b60018201555b611f226001600160a01b037f00000000000000000000000000000000000000000000000000000000000000001633308a612d4d565b336001600160a01b03167f9e71bc8eea02a63969f509818f2dafb9254532904319f9dbda79b67bd34a5f3d88604051611f5b919061344b565b60405180910390a2505060016000555050505050565b6009546000907f0000000000000000000000000000000000000000000000000000000000000000908290611fa58382612a5f565b6001600160a01b03841660009081526003602081905260409091200155611fcb8361162d565b6001600160a01b03808516600090815260036020526040902060020191909155841615612076576001600160a01b0384166000908152600a602052604090206002015461201c908590859084612af6565b6001600160a01b03808616600081815260076020908152604080832094891680845294825280832095909555600380825285832001548383526006825285832094835293815284822093909355908152600a909152205491505b5060085460015b600254811015612162576002818154811061209457fe5b6000918252602090912001546001600160a01b031693506120b58483612a5f565b6001600160a01b038516600090815260036020819052604090912001556120db8461162d565b6001600160a01b0380861660009081526003602052604090206002019190915585161561215a5761210e85858585612af6565b6001600160a01b038087166000818152600760209081526040808320948a1680845294825280832095909555600380825285832001549282526006815284822093825292909252919020555b60010161207d565b506001600160a01b038616600090815260056020908152604080832033845290915290205460ff1661219357600080fd5b600085116121b35760405162461bcd60e51b81526004016109c890613358565b6121c86001600160a01b038716333088612d4d565b6121d28686612c18565b7fde88a922e0d3b88b24e9623efeb464919c6bf9f66857a65e2bfcf2ce87a9433d85604051612201919061344b565b60405180910390a1505050505050565b6001600160a01b0381166000908152600360205260408120600101546116519062093a80612b68565b60095481565b60025460609067ffffffffffffffff8111801561225c57600080fd5b5060405190808252806020026020018201604052801561229657816020015b6122836130ae565b81526020019060019003908161227b5790505b50905060005b81518110156123a257600081156122cb576001600160a01b0384166000908152600a60205260409020546122e8565b6001600160a01b0384166000908152600a60205260409020600201545b9050600082156122fa576008546122fe565b6009545b90506002838154811061230d57fe5b9060005260206000200160009054906101000a90046001600160a01b031684848151811061233757fe5b6020026020010151600001906001600160a01b031690816001600160a01b03168152505061237e8585858151811061236b57fe5b6020026020010151600001518484612af6565b84848151811061238a57fe5b6020908102919091018101510152505060010161229c565b50919050565b6001600160a01b0381166000908152600c6020526040812060609082805b82548110156124c457428382815481106123dc57fe5b90600052602060002090600202016001015411156124bc578161245257825481900367ffffffffffffffff8111801561241457600080fd5b5060405190808252806020026020018201604052801561244e57816020015b61243b613070565b8152602001906001900390816124335790505b5093505b82818154811061245e57fe5b90600052602060002090600202016040518060400160405290816000820154815260200160018201548152505084838151811061249757fe5b602002602001018190525081806001019250506124b98382815481106106db57fe5b94505b6001016123c6565b505050915091565b600760209081526000928352604080842090915290825290205481565b60095433907f00000000000000000000000000000000000000000000000000000000000000009060009061251d8382612a5f565b6001600160a01b038416600090815260036020819052604090912001556125438361162d565b6001600160a01b038085166000908152600360205260409020600201919091558416156125ee576001600160a01b0384166000908152600a6020526040902060020154612594908590859084612af6565b6001600160a01b03808616600081815260076020908152604080832094891680845294825280832095909555600380825285832001548383526006825285832094835293815284822093909355908152600a909152205491505b5060085460015b6002548110156126da576002818154811061260c57fe5b6000918252602090912001546001600160a01b0316935061262d8483612a5f565b6001600160a01b038516600090815260036020819052604090912001556126538461162d565b6001600160a01b038086166000908152600360205260409020600201919091558516156126d25761268685858585612af6565b6001600160a01b038087166000818152600760209081526040808320948a1680845294825280832095909555600380825285832001549282526006815284822093825292909252919020555b6001016125f5565b506000806126e733610480565b336000908152600c60205260408120929450909250612706919061308a565b336000908152600a6020526040902060038101546001820154825461273092916105b1919061299b565b8155600060018201819055600382015561275661274d8484612941565b6008549061299b565b60085561278d6001600160a01b037f0000000000000000000000000000000000000000000000000000000000000000163385612bc1565b81156127bd576127bd7f000000000000000000000000000000000000000000000000000000000000000083612c18565b6127c5610ce4565b50505050505050565b6000807f00000000000000000000000000000000000000000000000000000000000000006001600160a01b0316836001600160a01b03161461281257600854612816565b6009545b90506128228382612a5f565b9392505050565b612831612d33565b6001600160a01b0316612842611990565b6001600160a01b03161461288b576040805162461bcd60e51b81526020600482018190526024820152600080516020613541833981519152604482015290519081900360640190fd5b6001600160a01b0381166128d05760405162461bcd60e51b81526004018080602001828103825260268152602001806134d46026913960400191505060405180910390fd5b6001546040516001600160a01b038084169216907f8be0079c531659141344cd1fd0a4f28419497f9722a3daafe3b4186f6b6457e090600090a3600180546001600160a01b0319166001600160a01b0392909216919091179055565b60046020526000908152604090205460ff1681565b600082820183811015612822576040805162461bcd60e51b815260206004820152601b60248201527f536166654d6174683a206164646974696f6e206f766572666c6f770000000000604482015290519081900360640190fd5b6000828211156129f2576040805162461bcd60e51b815260206004820152601e60248201527f536166654d6174683a207375627472616374696f6e206f766572666c6f770000604482015290519081900360640190fd5b50900390565b6000808211612a4e576040805162461bcd60e51b815260206004820152601a60248201527f536166654d6174683a206469766973696f6e206279207a65726f000000000000604482015290519081900360640190fd5b818381612a5757fe5b049392505050565b600081612a8957506001600160a01b03821660009081526003602081905260409091200154611651565b6001600160a01b0383166000908152600360205260409020600181015460029091015461282291612ad391859161058791670de0b6b3a76400009161139b9182906105b18c61162d565b6001600160a01b0385166000908152600360208190526040909120015490612941565b6001600160a01b038085166000818152600760209081526040808320948816808452948252808320549383526006825280832094835293905291822054612b5f91906113a190670de0b6b3a76400009061058790612b58906105b18b8a612a5f565b8890612b68565b95945050505050565b600082612b7757506000611651565b82820282848281612b8457fe5b04146128225760405162461bcd60e51b81526004018080602001828103825260218152602001806135206021913960400191505060405180910390fd5b604080516001600160a01b038416602482015260448082018490528251808303909101815260649091019091526020810180516001600160e01b031663a9059cbb60e01b179052612c13908490612da3565b505050565b6001600160a01b0382166000908152600360205260409020544210612c6557612c448162093a806129f8565b6001600160a01b038316600090815260036020526040902060010155612ce5565b6001600160a01b038216600090815260036020526040812054612c88904261299b565b6001600160a01b03841660009081526003602052604081206001015491925090612cb3908390612b68565b9050612cc662093a806105878584612941565b6001600160a01b03851660009081526003602052604090206001015550505b6001600160a01b0382166000908152600360205260409020426002909101819055612d139062093a80612941565b6001600160a01b0390921660009081526003602052604090209190915550565b3390565b6000818310612d465781612822565b5090919050565b604080516001600160a01b0380861660248301528416604482015260648082018490528251808303909101815260849091019091526020810180516001600160e01b03166323b872dd60e01b179052611af69085905b6000612df8826040518060400160405280602081526020017f5361666545524332303a206c6f772d6c6576656c2063616c6c206661696c6564815250856001600160a01b0316612e549092919063ffffffff16565b805190915015612c1357808060200190516020811015612e1757600080fd5b5051612c135760405162461bcd60e51b815260040180806020018281038252602a815260200180613561602a913960400191505060405180910390fd5b6060612e638484600085612e6b565b949350505050565b606082471015612eac5760405162461bcd60e51b81526004018080602001828103825260268152602001806134fa6026913960400191505060405180910390fd5b612eb585612fc6565b612f06576040805162461bcd60e51b815260206004820152601d60248201527f416464726573733a2063616c6c20746f206e6f6e2d636f6e7472616374000000604482015290519081900360640190fd5b600080866001600160a01b031685876040518082805190602001908083835b60208310612f445780518252601f199092019160209182019101612f25565b6001836020036101000a03801982511681845116808217855250505050505090500191505060006040518083038185875af1925050503d8060008114612fa6576040519150601f19603f3d011682016040523d82523d6000602084013e612fab565b606091505b5091509150612fbb828286612fcc565b979650505050505050565b3b151590565b60608315612fdb575081612822565b825115612feb5782518084602001fd5b8160405162461bcd60e51b81526004018080602001828103825283818151815260200191508051906020019080838360005b8381101561303557818101518382015260200161301d565b50505050905090810190601f1680156130625780820380516001836020036101000a031916815260200191505b509250505060405180910390fd5b604051806040016040528060008152602001600081525090565b50805460008255600202906000526020600020908101906130ab91906130c5565b50565b604080518082019091526000808252602082015290565b5b808211156130e057600080825560018201556002016130c6565b5090565b80356001600160a01b038116811461162857600080fd5b60006020828403121561310c578081fd5b612822826130e4565b60008060408385031215613127578081fd5b613130836130e4565b915061313e602084016130e4565b90509250929050565b60008060006060848603121561315b578081fd5b613164846130e4565b9250613172602085016130e4565b91506040840135613182816134c5565b809150509250925092565b6000806040838503121561319f578182fd5b6131a8836130e4565b946020939093013593505050565b6000602082840312156131c7578081fd5b8151612822816134c5565b6000602082840312156131e3578081fd5b5035919050565b600080604083850312156131fc578182fd5b82359150602083013561320e816134c5565b809150509250929050565b6000815180845260208085019450808401835b8381101561325357815180518852830151838801526040909601959082019060010161322c565b509495945050505050565b6001600160a01b0391909116815260200190565b6001600160a01b03929092168252602082015260400190565b602080825282518282018190526000919060409081850190868401855b828110156132d657815180516001600160a01b031685528601518685015292840192908501906001016132a8565b5091979650505050505050565b901515815260200190565b6020808252600e908201526d043616e6e6f74207374616b6520360941b604082015260600190565b60208082526022908201527f496e73756666696369656e742062616c616e63652061667465722070656e616c604082015261747960f01b606082015260800190565b602080825260099082015268139bc81c995dd85c9960ba1b604082015260600190565b602080825260119082015270043616e6e6f74207769746864726177203607c1b604082015260600190565b6020808252601d908201527f43616e6e6f74207769746864726177207374616b696e6720746f6b656e000000604082015260600190565b6020808252601d908201527f496e73756666696369656e7420756e6c6f636b65642062616c616e6365000000604082015260600190565b6020808252601c908201527f43616e6e6f742077697468647261772072657761726420746f6b656e00000000604082015260600190565b90815260200190565b600083825260406020830152612e636040830184613219565b918252602082015260400190565b6000858252846020830152836040830152608060608301526134a06080830184613219565b9695505050505050565b93845260208401929092526040830152606082015260800190565b80151581146130ab57600080fdfe4f776e61626c653a206e6577206f776e657220697320746865207a65726f2061646472657373416464726573733a20696e73756666696369656e742062616c616e636520666f722063616c6c536166654d6174683a206d756c7469706c69636174696f6e206f766572666c6f774f776e61626c653a2063616c6c6572206973206e6f7420746865206f776e65725361666545524332303a204552433230206f7065726174696f6e20646964206e6f742073756363656564a2646970667358221220d7c470fe2cf4cf89b8fdc1d754230160cd7c4853e576397869be80e8776a1b9a64736f6c63430007060033",
  "bytecodeSha1": "3dcd2252fabaea90efef83c661d44b3d5cc60ae7",
  "compiler": {
    "evm_version": "istanbul",
    "optimizer": {
      "enabled": true,
      "runs": 200
    },
    "version": "0.7.6+commit.7338295f"
  },
  "contractName": "MultiFeeDistribution",
  "language": "Solidity",
  "natspec": {
    "kind": "dev",
    "methods": {
      "owner()": {
        "details": "Returns the address of the current owner."
      },
      "renounceOwnership()": {
        "details": "Leaves the contract without owner. It will not be possible to call `onlyOwner` functions anymore. Can only be called by the current owner. NOTE: Renouncing ownership will leave the contract without an owner, thereby removing any functionality that is only available to the owner."
      },
      "transferOwnership(address)": {
        "details": "Transfers ownership of the contract to a new account (`newOwner`). Can only be called by the current owner."
      }
    },
    "version": 1
  },
  "opcodes": "PUSH1 0x80 PUSH1 0x40 MSTORE CALLVALUE DUP1 ISZERO PUSH2 0x10 JUMPI PUSH1 0x0 DUP1 REVERT JUMPDEST POP PUSH1 0x4 CALLDATASIZE LT PUSH2 0x1FB JUMPI PUSH1 0x0 CALLDATALOAD PUSH1 0xE0 SHR DUP1 PUSH4 0x715018A6 GT PUSH2 0x11A JUMPI DUP1 PUSH4 0xBCD11014 GT PUSH2 0xAD JUMPI DUP1 PUSH4 0xE70B9E27 GT PUSH2 0x7C JUMPI DUP1 PUSH4 0xE70B9E27 EQ PUSH2 0x42C JUMPI DUP1 PUSH4 0xE9FAD8EE EQ PUSH2 0x43F JUMPI DUP1 PUSH4 0xF1229777 EQ PUSH2 0x447 JUMPI DUP1 PUSH4 0xF2FDE38B EQ PUSH2 0x45A JUMPI DUP1 PUSH4 0xF46ECCC4 EQ PUSH2 0x46D JUMPI PUSH2 0x1FB JUMP JUMPDEST DUP1 PUSH4 0xBCD11014 EQ PUSH2 0x3D0 JUMPI DUP1 PUSH4 0xCA5C7B91 EQ PUSH2 0x3E3 JUMPI DUP1 PUSH4 0xDC01F60D EQ PUSH2 0x3EB JUMPI DUP1 PUSH4 0xDF379876 EQ PUSH2 0x40B JUMPI PUSH2 0x1FB JUMP JUMPDEST DUP1 PUSH4 0x8DA5CB5B GT PUSH2 0xE9 JUMPI DUP1 PUSH4 0x8DA5CB5B EQ PUSH2 0x39A JUMPI DUP1 PUSH4 0xA01C77BC EQ PUSH2 0x3A2 JUMPI DUP1 PUSH4 0xABE50F19 EQ PUSH2 0x3AA JUMPI DUP1 PUSH4 0xB66503CF EQ PUSH2 0x3BD JUMPI PUSH2 0x1FB JUMP JUMPDEST DUP1 PUSH4 0x715018A6 EQ PUSH2 0x357 JUMPI DUP1 PUSH4 0x72F702F3 EQ PUSH2 0x35F JUMPI DUP1 PUSH4 0x7BB7BED1 EQ PUSH2 0x374 JUMPI DUP1 PUSH4 0x8980F11F EQ PUSH2 0x387 JUMPI PUSH2 0x1FB JUMP JUMPDEST DUP1 PUSH4 0x40B47E1A GT PUSH2 0x192 JUMPI DUP1 PUSH4 0x638634EE GT PUSH2 0x161 JUMPI DUP1 PUSH4 0x638634EE EQ PUSH2 0x30B JUMPI DUP1 PUSH4 0x6724C910 EQ PUSH2 0x31E JUMPI DUP1 PUSH4 0x6EACD398 EQ PUSH2 0x331 JUMPI DUP1 PUSH4 0x7035AB98 EQ PUSH2 0x344 JUMPI PUSH2 0x1FB JUMP JUMPDEST DUP1 PUSH4 0x40B47E1A EQ PUSH2 0x2AF JUMPI DUP1 PUSH4 0x40C10F19 EQ PUSH2 0x2C2 JUMPI DUP1 PUSH4 0x48E5D9F8 EQ PUSH2 0x2D5 JUMPI DUP1 PUSH4 0x5E0FAC2E EQ PUSH2 0x2F8 JUMPI PUSH2 0x1FB JUMP JUMPDEST DUP1 PUSH4 0x2E1A7D4D GT PUSH2 0x1CE JUMPI DUP1 PUSH4 0x2E1A7D4D EQ PUSH2 0x26A JUMPI DUP1 PUSH4 0x386A9525 EQ PUSH2 0x27F JUMPI DUP1 PUSH4 0x39FC9713 EQ PUSH2 0x287 JUMPI DUP1 PUSH4 0x3D18B912 EQ PUSH2 0x2A7 JUMPI PUSH2 0x1FB JUMP JUMPDEST DUP1 PUSH4 0x2B62938 EQ PUSH2 0x200 JUMPI DUP1 PUSH4 0x4554443 EQ PUSH2 0x22A JUMPI DUP1 PUSH4 0x483A7F6 EQ PUSH2 0x23F JUMPI DUP1 PUSH4 0x18160DDD EQ PUSH2 0x262 JUMPI JUMPDEST PUSH1 0x0 DUP1 REVERT JUMPDEST PUSH2 0x213 PUSH2 0x20E CALLDATASIZE PUSH1 0x4 PUSH2 0x30FB JUMP JUMPDEST PUSH2 0x480 JUMP JUMPDEST PUSH1 0x40 MLOAD PUSH2 0x221 SWAP3 SWAP2 SWAP1 PUSH2 0x346D JUMP JUMPDEST PUSH1 0x40 MLOAD DUP1 SWAP2 SUB SWAP1 RETURN JUMPDEST PUSH2 0x232 PUSH2 0x5BF JUMP JUMPDEST PUSH1 0x40 MLOAD PUSH2 0x221 SWAP2 SWAP1 PUSH2 0x344B JUMP JUMPDEST PUSH2 0x252 PUSH2 0x24D CALLDATASIZE PUSH1 0x4 PUSH2 0x30FB JUMP JUMPDEST PUSH2 0x5C6 JUMP JUMPDEST PUSH1 0x40 MLOAD PUSH2 0x221 SWAP5 SWAP4 SWAP3 SWAP2 SWAP1 PUSH2 0x347B JUMP JUMPDEST PUSH2 0x232 PUSH2 0x754 JUMP JUMPDEST PUSH2 0x27D PUSH2 0x278 CALLDATASIZE PUSH1 0x4 PUSH2 0x31D2 JUMP JUMPDEST PUSH2 0x75A JUMP JUMPDEST STOP JUMPDEST PUSH2 0x232 PUSH2 0xCBD JUMP JUMPDEST PUSH2 0x29A PUSH2 0x295 CALLDATASIZE PUSH1 0x4 PUSH2 0x3115 JUMP JUMPDEST PUSH2 0xCC4 JUMP JUMPDEST PUSH1 0x40 MLOAD PUSH2 0x221 SWAP2 SWAP1 PUSH2 0x32E3 JUMP JUMPDEST PUSH2 0x27D PUSH2 0xCE4 JUMP JUMPDEST PUSH2 0x27D PUSH2 0x2BD CALLDATASIZE PUSH1 0x4 PUSH2 0x3115 JUMP JUMPDEST PUSH2 0x1019 JUMP JUMPDEST PUSH2 0x27D PUSH2 0x2D0 CALLDATASIZE PUSH1 0x4 PUSH2 0x318D JUMP JUMPDEST PUSH2 0x1129 JUMP JUMPDEST PUSH2 0x2E8 PUSH2 0x2E3 CALLDATASIZE PUSH1 0x4 PUSH2 0x30FB JUMP JUMPDEST PUSH2 0x156C JUMP JUMPDEST PUSH1 0x40 MLOAD PUSH2 0x221 SWAP5 SWAP4 SWAP3 SWAP2 SWAP1 PUSH2 0x34AA JUMP JUMPDEST PUSH2 0x232 PUSH2 0x306 CALLDATASIZE PUSH1 0x4 PUSH2 0x30FB JUMP JUMPDEST PUSH2 0x1595 JUMP JUMPDEST PUSH2 0x232 PUSH2 0x319 CALLDATASIZE PUSH1 0x4 PUSH2 0x30FB JUMP JUMPDEST PUSH2 0x162D JUMP JUMPDEST PUSH2 0x27D PUSH2 0x32C CALLDATASIZE PUSH1 0x4 PUSH2 0x3147 JUMP JUMPDEST PUSH2 0x1657 JUMP JUMPDEST PUSH2 0x232 PUSH2 0x33F CALLDATASIZE PUSH1 0x4 PUSH2 0x30FB JUMP JUMPDEST PUSH2 0x1718 JUMP JUMPDEST PUSH2 0x232 PUSH2 0x352 CALLDATASIZE PUSH1 0x4 PUSH2 0x3115 JUMP JUMPDEST PUSH2 0x1733 JUMP JUMPDEST PUSH2 0x27D PUSH2 0x1750 JUMP JUMPDEST PUSH2 0x367 PUSH2 0x17FC JUMP JUMPDEST PUSH1 0x40 MLOAD PUSH2 0x221 SWAP2 SWAP1 PUSH2 0x325E JUMP JUMPDEST PUSH2 0x367 PUSH2 0x382 CALLDATASIZE PUSH1 0x4 PUSH2 0x31D2 JUMP JUMPDEST PUSH2 0x1820 JUMP JUMPDEST PUSH2 0x27D PUSH2 0x395 CALLDATASIZE PUSH1 0x4 PUSH2 0x318D JUMP JUMPDEST PUSH2 0x184A JUMP JUMPDEST PUSH2 0x367 PUSH2 0x1990 JUMP JUMPDEST PUSH2 0x27D PUSH2 0x199F JUMP JUMPDEST PUSH2 0x27D PUSH2 0x3B8 CALLDATASIZE PUSH1 0x4 PUSH2 0x31EA JUMP JUMPDEST PUSH2 0x1AFC JUMP JUMPDEST PUSH2 0x27D PUSH2 0x3CB CALLDATASIZE PUSH1 0x4 PUSH2 0x318D JUMP JUMPDEST PUSH2 0x1F71 JUMP JUMPDEST PUSH2 0x232 PUSH2 0x3DE CALLDATASIZE PUSH1 0x4 PUSH2 0x30FB JUMP JUMPDEST PUSH2 0x2211 JUMP JUMPDEST PUSH2 0x232 PUSH2 0x223A JUMP JUMPDEST PUSH2 0x3FE PUSH2 0x3F9 CALLDATASIZE PUSH1 0x4 PUSH2 0x30FB JUMP JUMPDEST PUSH2 0x2240 JUMP JUMPDEST PUSH1 0x40 MLOAD PUSH2 0x221 SWAP2 SWAP1 PUSH2 0x328B JUMP JUMPDEST PUSH2 0x41E PUSH2 0x419 CALLDATASIZE PUSH1 0x4 PUSH2 0x30FB JUMP JUMPDEST PUSH2 0x23A8 JUMP JUMPDEST PUSH1 0x40 MLOAD PUSH2 0x221 SWAP3 SWAP2 SWAP1 PUSH2 0x3454 JUMP JUMPDEST PUSH2 0x232 PUSH2 0x43A CALLDATASIZE PUSH1 0x4 PUSH2 0x3115 JUMP JUMPDEST PUSH2 0x24CC JUMP JUMPDEST PUSH2 0x27D PUSH2 0x24E9 JUMP JUMPDEST PUSH2 0x232 PUSH2 0x455 CALLDATASIZE PUSH1 0x4 PUSH2 0x30FB JUMP JUMPDEST PUSH2 0x27CE JUMP JUMPDEST PUSH2 0x27D PUSH2 0x468 CALLDATASIZE PUSH1 0x4 PUSH2 0x30FB JUMP JUMPDEST PUSH2 0x2829 JUMP JUMPDEST PUSH2 0x29A PUSH2 0x47B CALLDATASIZE PUSH1 0x4 PUSH2 0x30FB JUMP JUMPDEST PUSH2 0x292C JUMP JUMPDEST PUSH1 0x1 PUSH1 0x1 PUSH1 0xA0 SHL SUB DUP2 AND PUSH1 0x0 SWAP1 DUP2 MSTORE PUSH1 0xA PUSH1 0x20 MSTORE PUSH1 0x40 DUP2 KECCAK256 PUSH1 0x3 DUP2 ADD SLOAD DUP3 SWAP2 SWAP1 ISZERO PUSH2 0x592 JUMPI PUSH1 0x1 PUSH1 0x1 PUSH1 0xA0 SHL SUB DUP5 AND PUSH1 0x0 SWAP1 DUP2 MSTORE PUSH1 0xC PUSH1 0x20 MSTORE PUSH1 0x40 DUP2 KECCAK256 SLOAD DUP2 JUMPDEST DUP2 DUP2 LT ISZERO PUSH2 0x56A JUMPI PUSH1 0x1 PUSH1 0x1 PUSH1 0xA0 SHL SUB DUP8 AND PUSH1 0x0 SWAP1 DUP2 MSTORE PUSH1 0xC PUSH1 0x20 MSTORE PUSH1 0x40 DUP2 KECCAK256 DUP1 SLOAD DUP4 SWAP1 DUP2 LT PUSH2 0x4EC JUMPI INVALID JUMPDEST SWAP1 PUSH1 0x0 MSTORE PUSH1 0x20 PUSH1 0x0 KECCAK256 SWAP1 PUSH1 0x2 MUL ADD PUSH1 0x0 ADD SLOAD SWAP1 POP DUP1 PUSH1 0x0 EQ ISZERO PUSH2 0x50F JUMPI POP PUSH2 0x562 JUMP JUMPDEST PUSH1 0x1 PUSH1 0x1 PUSH1 0xA0 SHL SUB DUP9 AND PUSH1 0x0 SWAP1 DUP2 MSTORE PUSH1 0xC PUSH1 0x20 MSTORE PUSH1 0x40 SWAP1 KECCAK256 DUP1 SLOAD TIMESTAMP SWAP2 SWAP1 DUP5 SWAP1 DUP2 LT PUSH2 0x536 JUMPI INVALID JUMPDEST SWAP1 PUSH1 0x0 MSTORE PUSH1 0x20 PUSH1 0x0 KECCAK256 SWAP1 PUSH1 0x2 MUL ADD PUSH1 0x1 ADD SLOAD GT ISZERO PUSH2 0x554 JUMPI POP PUSH2 0x56A JUMP JUMPDEST PUSH2 0x55E DUP5 DUP3 PUSH2 0x2941 JUMP JUMPDEST SWAP4 POP POP JUMPDEST PUSH1 0x1 ADD PUSH2 0x4C0 JUMP JUMPDEST POP PUSH2 0x58D PUSH1 0x2 PUSH2 0x587 DUP5 DUP7 PUSH1 0x3 ADD SLOAD PUSH2 0x299B SWAP1 SWAP2 SWAP1 PUSH4 0xFFFFFFFF AND JUMP JUMPDEST SWAP1 PUSH2 0x29F8 JUMP JUMPDEST SWAP4 POP POP POP JUMPDEST PUSH2 0x5B7 DUP3 PUSH2 0x5B1 DUP4 PUSH1 0x3 ADD SLOAD DUP5 PUSH1 0x1 ADD SLOAD PUSH2 0x2941 SWAP1 SWAP2 SWAP1 PUSH4 0xFFFFFFFF AND JUMP JUMPDEST SWAP1 PUSH2 0x299B JUMP JUMPDEST SWAP3 POP POP SWAP2 POP SWAP2 JUMP JUMPDEST PUSH3 0x77F880 DUP2 JUMP JUMPDEST PUSH1 0x1 PUSH1 0x1 PUSH1 0xA0 SHL SUB DUP2 AND PUSH1 0x0 SWAP1 DUP2 MSTORE PUSH1 0xB PUSH1 0x20 MSTORE PUSH1 0x40 DUP2 KECCAK256 DUP2 SWAP1 DUP2 SWAP1 PUSH1 0x60 SWAP1 DUP3 DUP1 JUMPDEST DUP3 SLOAD DUP2 LT ISZERO PUSH2 0x72C JUMPI TIMESTAMP DUP4 DUP3 DUP2 SLOAD DUP2 LT PUSH2 0x5FE JUMPI INVALID JUMPDEST SWAP1 PUSH1 0x0 MSTORE PUSH1 0x20 PUSH1 0x0 KECCAK256 SWAP1 PUSH1 0x2 MUL ADD PUSH1 0x1 ADD SLOAD GT ISZERO PUSH2 0x6FA JUMPI DUP2 PUSH2 0x674 JUMPI DUP3 SLOAD DUP2 SWAP1 SUB PUSH8 0xFFFFFFFFFFFFFFFF DUP2 GT DUP1 ISZERO PUSH2 0x636 JUMPI PUSH1 0x0 DUP1 REVERT JUMPDEST POP PUSH1 0x40 MLOAD SWAP1 DUP1 DUP3 MSTORE DUP1 PUSH1 0x20 MUL PUSH1 0x20 ADD DUP3 ADD PUSH1 0x40 MSTORE DUP1 ISZERO PUSH2 0x670 JUMPI DUP2 PUSH1 0x20 ADD JUMPDEST PUSH2 0x65D PUSH2 0x3070 JUMP JUMPDEST DUP2 MSTORE PUSH1 0x20 ADD SWAP1 PUSH1 0x1 SWAP1 SUB SWAP1 DUP2 PUSH2 0x655 JUMPI SWAP1 POP JUMPDEST POP SWAP4 POP JUMPDEST DUP3 DUP2 DUP2 SLOAD DUP2 LT PUSH2 0x680 JUMPI INVALID JUMPDEST SWAP1 PUSH1 0x0 MSTORE PUSH1 0x20 PUSH1 0x0 KECCAK256 SWAP1 PUSH1 0x2 MUL ADD PUSH1 0x40 MLOAD DUP1 PUSH1 0x40 ADD PUSH1 0x40 MSTORE SWAP1 DUP2 PUSH1 0x0 DUP3 ADD SLOAD DUP2 MSTORE PUSH1 0x20 ADD PUSH1 0x1 DUP3 ADD SLOAD DUP2 MSTORE POP POP DUP5 DUP4 DUP2 MLOAD DUP2 LT PUSH2 0x6B9 JUMPI INVALID JUMPDEST PUSH1 0x20 MUL PUSH1 0x20 ADD ADD DUP2 SWAP1 MSTORE POP DUP2 DUP1 PUSH1 0x1 ADD SWAP3 POP POP PUSH2 0x6F3 DUP4 DUP3 DUP2 SLOAD DUP2 LT PUSH2 0x6DB JUMPI INVALID JUMPDEST PUSH1 0x0 SWAP2 DUP3 MSTORE PUSH1 0x20 SWAP1 SWAP2 KECCAK256 PUSH1 0x2 SWAP1 SWAP2 MUL ADD SLOAD DUP7 SWAP1 PUSH2 0x2941 JUMP JUMPDEST SWAP5 POP PUSH2 0x724 JUMP JUMPDEST PUSH2 0x721 DUP4 DUP3 DUP2 SLOAD DUP2 LT PUSH2 0x709 JUMPI INVALID JUMPDEST PUSH1 0x0 SWAP2 DUP3 MSTORE PUSH1 0x20 SWAP1 SWAP2 KECCAK256 PUSH1 0x2 SWAP1 SWAP2 MUL ADD SLOAD DUP8 SWAP1 PUSH2 0x2941 JUMP JUMPDEST SWAP6 POP JUMPDEST PUSH1 0x1 ADD PUSH2 0x5E8 JUMP JUMPDEST POP POP POP PUSH1 0x1 PUSH1 0x1 PUSH1 0xA0 SHL SUB DUP6 AND PUSH1 0x0 SWAP1 DUP2 MSTORE PUSH1 0xA PUSH1 0x20 MSTORE PUSH1 0x40 SWAP1 KECCAK256 PUSH1 0x2 ADD SLOAD SWAP4 POP SWAP2 SWAP4 POP SWAP2 SWAP4 JUMP JUMPDEST PUSH1 0x8 SLOAD DUP2 JUMP JUMPDEST PUSH1 0x2 PUSH1 0x0 SLOAD EQ ISZERO PUSH2 0x7B2 JUMPI PUSH1 0x40 DUP1 MLOAD PUSH3 0x461BCD PUSH1 0xE5 SHL DUP2 MSTORE PUSH1 0x20 PUSH1 0x4 DUP3 ADD MSTORE PUSH1 0x1F PUSH1 0x24 DUP3 ADD MSTORE PUSH32 0x5265656E7472616E637947756172643A207265656E7472616E742063616C6C00 PUSH1 0x44 DUP3 ADD MSTORE SWAP1 MLOAD SWAP1 DUP2 SWAP1 SUB PUSH1 0x64 ADD SWAP1 REVERT JUMPDEST PUSH1 0x2 PUSH1 0x0 SWAP1 DUP2 SSTORE PUSH1 0x9 SLOAD CALLER SWAP2 PUSH32 0x0 SWAP2 PUSH2 0x7EA DUP4 DUP3 PUSH2 0x2A5F JUMP JUMPDEST PUSH1 0x1 PUSH1 0x1 PUSH1 0xA0 SHL SUB DUP5 AND PUSH1 0x0 SWAP1 DUP2 MSTORE PUSH1 0x3 PUSH1 0x20 DUP2 SWAP1 MSTORE PUSH1 0x40 SWAP1 SWAP2 KECCAK256 ADD SSTORE PUSH2 0x810 DUP4 PUSH2 0x162D JUMP JUMPDEST PUSH1 0x1 PUSH1 0x1 PUSH1 0xA0 SHL SUB DUP1 DUP6 AND PUSH1 0x0 SWAP1 DUP2 MSTORE PUSH1 0x3 PUSH1 0x20 MSTORE PUSH1 0x40 SWAP1 KECCAK256 PUSH1 0x2 ADD SWAP2 SWAP1 SWAP2 SSTORE DUP5 AND ISZERO PUSH2 0x8BB JUMPI PUSH1 0x1 PUSH1 0x1 PUSH1 0xA0 SHL SUB DUP5 AND PUSH1 0x0 SWAP1 DUP2 MSTORE PUSH1 0xA PUSH1 0x20 MSTORE PUSH1 0x40 SWAP1 KECCAK256 PUSH1 0x2 ADD SLOAD PUSH2 0x861 SWAP1 DUP6 SWAP1 DUP6 SWAP1 DUP5 PUSH2 0x2AF6 JUMP JUMPDEST PUSH1 0x1 PUSH1 0x1 PUSH1 0xA0 SHL SUB DUP1 DUP7 AND PUSH1 0x0 DUP2 DUP2 MSTORE PUSH1 0x7 PUSH1 0x20 SWAP1 DUP2 MSTORE PUSH1 0x40 DUP1 DUP4 KECCAK256 SWAP5 DUP10 AND DUP1 DUP5 MSTORE SWAP5 DUP3 MSTORE DUP1 DUP4 KECCAK256 SWAP6 SWAP1 SWAP6 SSTORE PUSH1 0x3 DUP1 DUP3 MSTORE DUP6 DUP4 KECCAK256 ADD SLOAD DUP4 DUP4 MSTORE PUSH1 0x6 DUP3 MSTORE DUP6 DUP4 KECCAK256 SWAP5 DUP4 MSTORE SWAP4 DUP2 MSTORE DUP5 DUP3 KECCAK256 SWAP4 SWAP1 SWAP4 SSTORE SWAP1 DUP2 MSTORE PUSH1 0xA SWAP1 SWAP2 MSTORE KECCAK256 SLOAD SWAP2 POP JUMPDEST POP PUSH1 0x8 SLOAD PUSH1 0x1 JUMPDEST PUSH1 0x2 SLOAD DUP2 LT ISZERO PUSH2 0x9A7 JUMPI PUSH1 0x2 DUP2 DUP2 SLOAD DUP2 LT PUSH2 0x8D9 JUMPI INVALID JUMPDEST PUSH1 0x0 SWAP2 DUP3 MSTORE PUSH1 0x20 SWAP1 SWAP2 KECCAK256 ADD SLOAD PUSH1 0x1 PUSH1 0x1 PUSH1 0xA0 SHL SUB AND SWAP4 POP PUSH2 0x8FA DUP5 DUP4 PUSH2 0x2A5F JUMP JUMPDEST PUSH1 0x1 PUSH1 0x1 PUSH1 0xA0 SHL SUB DUP6 AND PUSH1 0x0 SWAP1 DUP2 MSTORE PUSH1 0x3 PUSH1 0x20 DUP2 SWAP1 MSTORE PUSH1 0x40 SWAP1 SWAP2 KECCAK256 ADD SSTORE PUSH2 0x920 DUP5 PUSH2 0x162D JUMP JUMPDEST PUSH1 0x1 PUSH1 0x1 PUSH1 0xA0 SHL SUB DUP1 DUP7 AND PUSH1 0x0 SWAP1 DUP2 MSTORE PUSH1 0x3 PUSH1 0x20 MSTORE PUSH1 0x40 SWAP1 KECCAK256 PUSH1 0x2 ADD SWAP2 SWAP1 SWAP2 SSTORE DUP6 AND ISZERO PUSH2 0x99F JUMPI PUSH2 0x953 DUP6 DUP6 DUP6 DUP6 PUSH2 0x2AF6 JUMP JUMPDEST PUSH1 0x1 PUSH1 0x1 PUSH1 0xA0 SHL SUB DUP1 DUP8 AND PUSH1 0x0 DUP2 DUP2 MSTORE PUSH1 0x7 PUSH1 0x20 SWAP1 DUP2 MSTORE PUSH1 0x40 DUP1 DUP4 KECCAK256 SWAP5 DUP11 AND DUP1 DUP5 MSTORE SWAP5 DUP3 MSTORE DUP1 DUP4 KECCAK256 SWAP6 SWAP1 SWAP6 SSTORE PUSH1 0x3 DUP1 DUP3 MSTORE DUP6 DUP4 KECCAK256 ADD SLOAD SWAP3 DUP3 MSTORE PUSH1 0x6 DUP2 MSTORE DUP5 DUP3 KECCAK256 SWAP4 DUP3 MSTORE SWAP3 SWAP1 SWAP3 MSTORE SWAP2 SWAP1 KECCAK256 SSTORE JUMPDEST PUSH1 0x1 ADD PUSH2 0x8C2 JUMP JUMPDEST POP PUSH1 0x0 DUP6 GT PUSH2 0x9D1 JUMPI PUSH1 0x40 MLOAD PUSH3 0x461BCD PUSH1 0xE5 SHL DUP2 MSTORE PUSH1 0x4 ADD PUSH2 0x9C8 SWAP1 PUSH2 0x337B JUMP JUMPDEST PUSH1 0x40 MLOAD DUP1 SWAP2 SUB SWAP1 REVERT JUMPDEST CALLER PUSH1 0x0 SWAP1 DUP2 MSTORE PUSH1 0xA PUSH1 0x20 MSTORE PUSH1 0x40 DUP2 KECCAK256 PUSH1 0x1 DUP2 ADD SLOAD SWAP1 SWAP2 SWAP1 DUP8 GT PUSH2 0xA07 JUMPI PUSH1 0x1 DUP3 ADD SLOAD PUSH2 0x9FD SWAP1 DUP9 PUSH2 0x299B JUMP JUMPDEST PUSH1 0x1 DUP4 ADD SSTORE PUSH2 0xBDC JUMP JUMPDEST PUSH1 0x0 PUSH2 0xA20 DUP4 PUSH1 0x1 ADD SLOAD DUP10 PUSH2 0x299B SWAP1 SWAP2 SWAP1 PUSH4 0xFFFFFFFF AND JUMP JUMPDEST SWAP1 POP DUP1 DUP4 PUSH1 0x3 ADD SLOAD LT ISZERO PUSH2 0xA46 JUMPI PUSH1 0x40 MLOAD PUSH3 0x461BCD PUSH1 0xE5 SHL DUP2 MSTORE PUSH1 0x4 ADD PUSH2 0x9C8 SWAP1 PUSH2 0x33DD JUMP JUMPDEST PUSH1 0x0 PUSH1 0x1 DUP5 ADD SSTORE PUSH1 0x3 DUP4 ADD SLOAD PUSH2 0xA5C SWAP1 DUP3 PUSH2 0x299B JUMP JUMPDEST PUSH1 0x3 DUP5 ADD SSTORE PUSH1 0x0 JUMPDEST CALLER PUSH1 0x0 SWAP1 DUP2 MSTORE PUSH1 0xC PUSH1 0x20 MSTORE PUSH1 0x40 DUP2 KECCAK256 DUP1 SLOAD DUP4 SWAP1 DUP2 LT PUSH2 0xA7F JUMPI INVALID JUMPDEST SWAP1 PUSH1 0x0 MSTORE PUSH1 0x20 PUSH1 0x0 KECCAK256 SWAP1 PUSH1 0x2 MUL ADD PUSH1 0x0 ADD SLOAD SWAP1 POP DUP1 PUSH1 0x0 EQ ISZERO PUSH2 0xAA2 JUMPI POP PUSH2 0xBD1 JUMP JUMPDEST DUP4 ISZERO DUP1 ISZERO PUSH2 0xADD JUMPI POP CALLER PUSH1 0x0 SWAP1 DUP2 MSTORE PUSH1 0xC PUSH1 0x20 MSTORE PUSH1 0x40 SWAP1 KECCAK256 DUP1 SLOAD TIMESTAMP SWAP2 SWAP1 DUP5 SWAP1 DUP2 LT PUSH2 0xAC9 JUMPI INVALID JUMPDEST SWAP1 PUSH1 0x0 MSTORE PUSH1 0x20 PUSH1 0x0 KECCAK256 SWAP1 PUSH1 0x2 MUL ADD PUSH1 0x1 ADD SLOAD GT JUMPDEST ISZERO PUSH2 0xB4F JUMPI DUP3 SWAP4 POP DUP3 DUP6 PUSH1 0x3 ADD SLOAD LT ISZERO PUSH2 0xB09 JUMPI PUSH1 0x40 MLOAD PUSH3 0x461BCD PUSH1 0xE5 SHL DUP2 MSTORE PUSH1 0x4 ADD PUSH2 0x9C8 SWAP1 PUSH2 0x3316 JUMP JUMPDEST PUSH1 0x3 DUP6 ADD SLOAD PUSH2 0xB18 SWAP1 DUP5 PUSH2 0x299B JUMP JUMPDEST PUSH1 0x3 DUP7 ADD DUP2 SWAP1 SSTORE PUSH2 0xB41 JUMPI CALLER PUSH1 0x0 SWAP1 DUP2 MSTORE PUSH1 0xC PUSH1 0x20 MSTORE PUSH1 0x40 DUP2 KECCAK256 PUSH2 0xB3B SWAP2 PUSH2 0x308A JUMP JUMPDEST POP PUSH2 0xBD9 JUMP JUMPDEST PUSH2 0xB4C DUP4 PUSH1 0x2 PUSH2 0x2B68 JUMP JUMPDEST SWAP3 POP JUMPDEST DUP1 DUP4 GT PUSH2 0xB92 JUMPI PUSH2 0xB60 DUP2 DUP5 PUSH2 0x299B JUMP JUMPDEST CALLER PUSH1 0x0 SWAP1 DUP2 MSTORE PUSH1 0xC PUSH1 0x20 MSTORE PUSH1 0x40 SWAP1 KECCAK256 DUP1 SLOAD DUP5 SWAP1 DUP2 LT PUSH2 0xB7B JUMPI INVALID JUMPDEST PUSH1 0x0 SWAP2 DUP3 MSTORE PUSH1 0x20 SWAP1 SWAP2 KECCAK256 PUSH1 0x2 SWAP1 SWAP2 MUL ADD SSTORE POP PUSH2 0xBD9 JUMP JUMPDEST CALLER PUSH1 0x0 SWAP1 DUP2 MSTORE PUSH1 0xC PUSH1 0x20 MSTORE PUSH1 0x40 SWAP1 KECCAK256 DUP1 SLOAD DUP4 SWAP1 DUP2 LT PUSH2 0xBAD JUMPI INVALID JUMPDEST PUSH1 0x0 SWAP2 DUP3 MSTORE PUSH1 0x20 DUP3 KECCAK256 PUSH1 0x2 SWAP1 SWAP2 MUL ADD DUP2 DUP2 SSTORE PUSH1 0x1 ADD SSTORE PUSH2 0xBCD DUP4 DUP3 PUSH2 0x299B JUMP JUMPDEST SWAP3 POP POP JUMPDEST PUSH1 0x1 ADD PUSH2 0xA64 JUMP JUMPDEST POP POP JUMPDEST PUSH1 0x0 PUSH2 0xBE8 DUP9 DUP4 PUSH2 0x2941 JUMP JUMPDEST DUP4 SLOAD SWAP1 SWAP2 POP PUSH2 0xBF7 SWAP1 DUP3 PUSH2 0x299B JUMP JUMPDEST DUP4 SSTORE PUSH1 0x8 SLOAD PUSH2 0xC06 SWAP1 DUP3 PUSH2 0x299B JUMP JUMPDEST PUSH1 0x8 SSTORE PUSH2 0xC3D PUSH1 0x1 PUSH1 0x1 PUSH1 0xA0 SHL SUB PUSH32 0x0 AND CALLER DUP11 PUSH2 0x2BC1 JUMP JUMPDEST DUP2 ISZERO PUSH2 0xC6D JUMPI PUSH2 0xC6D PUSH32 0x0 DUP4 PUSH2 0x2C18 JUMP JUMPDEST CALLER PUSH1 0x1 PUSH1 0x1 PUSH1 0xA0 SHL SUB AND PUSH32 0x7084F5476618D8E60B11EF0D7D3F06914655ADB8793E28FF7F018D4C76D505D5 DUP10 PUSH1 0x40 MLOAD PUSH2 0xCA6 SWAP2 SWAP1 PUSH2 0x344B JUMP JUMPDEST PUSH1 0x40 MLOAD DUP1 SWAP2 SUB SWAP1 LOG2 POP POP PUSH1 0x1 PUSH1 0x0 SSTORE POP POP POP POP POP POP JUMP JUMPDEST PUSH3 0x93A80 DUP2 JUMP JUMPDEST PUSH1 0x5 PUSH1 0x20 SWAP1 DUP2 MSTORE PUSH1 0x0 SWAP3 DUP4 MSTORE PUSH1 0x40 DUP1 DUP5 KECCAK256 SWAP1 SWAP2 MSTORE SWAP1 DUP3 MSTORE SWAP1 KECCAK256 SLOAD PUSH1 0xFF AND DUP2 JUMP JUMPDEST PUSH1 0x2 PUSH1 0x0 SLOAD EQ ISZERO PUSH2 0xD3C JUMPI PUSH1 0x40 DUP1 MLOAD PUSH3 0x461BCD PUSH1 0xE5 SHL DUP2 MSTORE PUSH1 0x20 PUSH1 0x4 DUP3 ADD MSTORE PUSH1 0x1F PUSH1 0x24 DUP3 ADD MSTORE PUSH32 0x5265656E7472616E637947756172643A207265656E7472616E742063616C6C00 PUSH1 0x44 DUP3 ADD MSTORE SWAP1 MLOAD SWAP1 DUP2 SWAP1 SUB PUSH1 0x64 ADD SWAP1 REVERT JUMPDEST PUSH1 0x2 PUSH1 0x0 SWAP1 DUP2 SSTORE PUSH1 0x9 SLOAD CALLER SWAP2 PUSH32 0x0 SWAP2 PUSH2 0xD74 DUP4 DUP3 PUSH2 0x2A5F JUMP JUMPDEST PUSH1 0x1 PUSH1 0x1 PUSH1 0xA0 SHL SUB DUP5 AND PUSH1 0x0 SWAP1 DUP2 MSTORE PUSH1 0x3 PUSH1 0x20 DUP2 SWAP1 MSTORE PUSH1 0x40 SWAP1 SWAP2 KECCAK256 ADD SSTORE PUSH2 0xD9A DUP4 PUSH2 0x162D JUMP JUMPDEST PUSH1 0x1 PUSH1 0x1 PUSH1 0xA0 SHL SUB DUP1 DUP6 AND PUSH1 0x0 SWAP1 DUP2 MSTORE PUSH1 0x3 PUSH1 0x20 MSTORE PUSH1 0x40 SWAP1 KECCAK256 PUSH1 0x2 ADD SWAP2 SWAP1 SWAP2 SSTORE DUP5 AND ISZERO PUSH2 0xE45 JUMPI PUSH1 0x1 PUSH1 0x1 PUSH1 0xA0 SHL SUB DUP5 AND PUSH1 0x0 SWAP1 DUP2 MSTORE PUSH1 0xA PUSH1 0x20 MSTORE PUSH1 0x40 SWAP1 KECCAK256 PUSH1 0x2 ADD SLOAD PUSH2 0xDEB SWAP1 DUP6 SWAP1 DUP6 SWAP1 DUP5 PUSH2 0x2AF6 JUMP JUMPDEST PUSH1 0x1 PUSH1 0x1 PUSH1 0xA0 SHL SUB DUP1 DUP7 AND PUSH1 0x0 DUP2 DUP2 MSTORE PUSH1 0x7 PUSH1 0x20 SWAP1 DUP2 MSTORE PUSH1 0x40 DUP1 DUP4 KECCAK256 SWAP5 DUP10 AND DUP1 DUP5 MSTORE SWAP5 DUP3 MSTORE DUP1 DUP4 KECCAK256 SWAP6 SWAP1 SWAP6 SSTORE PUSH1 0x3 DUP1 DUP3 MSTORE DUP6 DUP4 KECCAK256 ADD SLOAD DUP4 DUP4 MSTORE PUSH1 0x6 DUP3 MSTORE DUP6 DUP4 KECCAK256 SWAP5 DUP4 MSTORE SWAP4 DUP2 MSTORE DUP5 DUP3 KECCAK256 SWAP4 SWAP1 SWAP4 SSTORE SWAP1 DUP2 MSTORE PUSH1 0xA SWAP1 SWAP2 MSTORE KECCAK256 SLOAD SWAP2 POP JUMPDEST POP PUSH1 0x8 SLOAD PUSH1 0x1 JUMPDEST PUSH1 0x2 SLOAD DUP2 LT ISZERO PUSH2 0xF31 JUMPI PUSH1 0x2 DUP2 DUP2 SLOAD DUP2 LT PUSH2 0xE63 JUMPI INVALID JUMPDEST PUSH1 0x0 SWAP2 DUP3 MSTORE PUSH1 0x20 SWAP1 SWAP2 KECCAK256 ADD SLOAD PUSH1 0x1 PUSH1 0x1 PUSH1 0xA0 SHL SUB AND SWAP4 POP PUSH2 0xE84 DUP5 DUP4 PUSH2 0x2A5F JUMP JUMPDEST PUSH1 0x1 PUSH1 0x1 PUSH1 0xA0 SHL SUB DUP6 AND PUSH1 0x0 SWAP1 DUP2 MSTORE PUSH1 0x3 PUSH1 0x20 DUP2 SWAP1 MSTORE PUSH1 0x40 SWAP1 SWAP2 KECCAK256 ADD SSTORE PUSH2 0xEAA DUP5 PUSH2 0x162D JUMP JUMPDEST PUSH1 0x1 PUSH1 0x1 PUSH1 0xA0 SHL SUB DUP1 DUP7 AND PUSH1 0x0 SWAP1 DUP2 MSTORE PUSH1 0x3 PUSH1 0x20 MSTORE PUSH1 0x40 SWAP1 KECCAK256 PUSH1 0x2 ADD SWAP2 SWAP1 SWAP2 SSTORE DUP6 AND ISZERO PUSH2 0xF29 JUMPI PUSH2 0xEDD DUP6 DUP6 DUP6 DUP6 PUSH2 0x2AF6 JUMP JUMPDEST PUSH1 0x1 PUSH1 0x1 PUSH1 0xA0 SHL SUB DUP1 DUP8 AND PUSH1 0x0 DUP2 DUP2 MSTORE PUSH1 0x7 PUSH1 0x20 SWAP1 DUP2 MSTORE PUSH1 0x40 DUP1 DUP4 KECCAK256 SWAP5 DUP11 AND DUP1 DUP5 MSTORE SWAP5 DUP3 MSTORE DUP1 DUP4 KECCAK256 SWAP6 SWAP1 SWAP6 SSTORE PUSH1 0x3 DUP1 DUP3 MSTORE DUP6 DUP4 KECCAK256 ADD SLOAD SWAP3 DUP3 MSTORE PUSH1 0x6 DUP2 MSTORE DUP5 DUP3 KECCAK256 SWAP4 DUP3 MSTORE SWAP3 SWAP1 SWAP3 MSTORE SWAP2 SWAP1 KECCAK256 SSTORE JUMPDEST PUSH1 0x1 ADD PUSH2 0xE4C JUMP JUMPDEST POP PUSH1 0x0 JUMPDEST PUSH1 0x2 SLOAD DUP2 LT ISZERO PUSH2 0x100D JUMPI PUSH1 0x0 PUSH1 0x2 DUP3 DUP2 SLOAD DUP2 LT PUSH2 0xF4E JUMPI INVALID JUMPDEST PUSH1 0x0 SWAP2 DUP3 MSTORE PUSH1 0x20 DUP1 DUP4 KECCAK256 SWAP1 SWAP2 ADD SLOAD CALLER DUP4 MSTORE PUSH1 0x7 DUP3 MSTORE PUSH1 0x40 DUP1 DUP5 KECCAK256 PUSH1 0x1 PUSH1 0x1 PUSH1 0xA0 SHL SUB SWAP1 SWAP3 AND DUP1 DUP6 MSTORE SWAP2 SWAP1 SWAP3 MSTORE SWAP2 KECCAK256 SLOAD SWAP1 SWAP2 POP DUP1 ISZERO PUSH2 0x1003 JUMPI CALLER PUSH1 0x0 DUP2 DUP2 MSTORE PUSH1 0x7 PUSH1 0x20 SWAP1 DUP2 MSTORE PUSH1 0x40 DUP1 DUP4 KECCAK256 PUSH1 0x1 PUSH1 0x1 PUSH1 0xA0 SHL SUB DUP8 AND DUP1 DUP6 MSTORE SWAP3 MSTORE DUP3 KECCAK256 SWAP2 SWAP1 SWAP2 SSTORE PUSH2 0xFB7 SWAP2 DUP4 PUSH2 0x2BC1 JUMP JUMPDEST DUP2 PUSH1 0x1 PUSH1 0x1 PUSH1 0xA0 SHL SUB AND CALLER PUSH1 0x1 PUSH1 0x1 PUSH1 0xA0 SHL SUB AND PUSH32 0x540798DF468D7B23D11F156FDB954CB19AD414D150722A7B6D55BA369DEA792E DUP4 PUSH1 0x40 MLOAD PUSH2 0xFFA SWAP2 SWAP1 PUSH2 0x344B JUMP JUMPDEST PUSH1 0x40 MLOAD DUP1 SWAP2 SUB SWAP1 LOG3 JUMPDEST POP POP PUSH1 0x1 ADD PUSH2 0xF35 JUMP JUMPDEST POP POP PUSH1 0x1 PUSH1 0x0 SSTORE POP POP POP JUMP JUMPDEST PUSH2 0x1021 PUSH2 0x2D33 JUMP JUMPDEST PUSH1 0x1 PUSH1 0x1 PUSH1 0xA0 SHL SUB AND PUSH2 0x1032 PUSH2 0x1990 JUMP JUMPDEST PUSH1 0x1 PUSH1 0x1 PUSH1 0xA0 SHL SUB AND EQ PUSH2 0x107B JUMPI PUSH1 0x40 DUP1 MLOAD PUSH3 0x461BCD PUSH1 0xE5 SHL DUP2 MSTORE PUSH1 0x20 PUSH1 0x4 DUP3 ADD DUP2 SWAP1 MSTORE PUSH1 0x24 DUP3 ADD MSTORE PUSH1 0x0 DUP1 MLOAD PUSH1 0x20 PUSH2 0x3541 DUP4 CODECOPY DUP2 MLOAD SWAP2 MSTORE PUSH1 0x44 DUP3 ADD MSTORE SWAP1 MLOAD SWAP1 DUP2 SWAP1 SUB PUSH1 0x64 ADD SWAP1 REVERT JUMPDEST PUSH1 0x1 PUSH1 0x1 PUSH1 0xA0 SHL SUB DUP3 AND PUSH1 0x0 SWAP1 DUP2 MSTORE PUSH1 0x3 PUSH1 0x20 MSTORE PUSH1 0x40 SWAP1 KECCAK256 PUSH1 0x2 ADD SLOAD ISZERO PUSH2 0x10A1 JUMPI PUSH1 0x0 DUP1 REVERT JUMPDEST PUSH1 0x2 DUP1 SLOAD PUSH1 0x1 DUP1 DUP3 ADD DUP4 SSTORE PUSH32 0x405787FA12A823E0F2B7631CC41B3BA8828B3321CA811111FA75CD3AA3BB5ACE SWAP1 SWAP2 ADD DUP1 SLOAD PUSH1 0x1 PUSH1 0x1 PUSH1 0xA0 SHL SUB NOT AND PUSH1 0x1 PUSH1 0x1 PUSH1 0xA0 SHL SUB SWAP6 DUP7 AND SWAP1 DUP2 OR SWAP1 SWAP2 SSTORE PUSH1 0x0 SWAP1 DUP2 MSTORE PUSH1 0x3 PUSH1 0x20 SWAP1 DUP2 MSTORE PUSH1 0x40 DUP1 DUP4 KECCAK256 TIMESTAMP SWAP6 DUP2 ADD DUP7 SWAP1 SSTORE SWAP5 SWAP1 SWAP5 SSTORE PUSH1 0x5 DUP2 MSTORE DUP4 DUP3 KECCAK256 SWAP5 SWAP1 SWAP6 AND DUP2 MSTORE SWAP3 SWAP1 SWAP4 MSTORE SWAP1 KECCAK256 DUP1 SLOAD PUSH1 0xFF NOT AND SWAP1 SWAP2 OR SWAP1 SSTORE JUMP JUMPDEST PUSH1 0x9 SLOAD DUP3 SWAP1 PUSH32 0x0 SWAP1 PUSH1 0x0 SWAP1 PUSH2 0x115D DUP4 DUP3 PUSH2 0x2A5F JUMP JUMPDEST PUSH1 0x1 PUSH1 0x1 PUSH1 0xA0 SHL SUB DUP5 AND PUSH1 0x0 SWAP1 DUP2 MSTORE PUSH1 0x3 PUSH1 0x20 DUP2 SWAP1 MSTORE PUSH1 0x40 SWAP1 SWAP2 KECCAK256 ADD SSTORE PUSH2 0x1183 DUP4 PUSH2 0x162D JUMP JUMPDEST PUSH1 0x1 PUSH1 0x1 PUSH1 0xA0 SHL SUB DUP1 DUP6 AND PUSH1 0x0 SWAP1 DUP2 MSTORE PUSH1 0x3 PUSH1 0x20 MSTORE PUSH1 0x40 SWAP1 KECCAK256 PUSH1 0x2 ADD SWAP2 SWAP1 SWAP2 SSTORE DUP5 AND ISZERO PUSH2 0x122E JUMPI PUSH1 0x1 PUSH1 0x1 PUSH1 0xA0 SHL SUB DUP5 AND PUSH1 0x0 SWAP1 DUP2 MSTORE PUSH1 0xA PUSH1 0x20 MSTORE PUSH1 0x40 SWAP1 KECCAK256 PUSH1 0x2 ADD SLOAD PUSH2 0x11D4 SWAP1 DUP6 SWAP1 DUP6 SWAP1 DUP5 PUSH2 0x2AF6 JUMP JUMPDEST PUSH1 0x1 PUSH1 0x1 PUSH1 0xA0 SHL SUB DUP1 DUP7 AND PUSH1 0x0 DUP2 DUP2 MSTORE PUSH1 0x7 PUSH1 0x20 SWAP1 DUP2 MSTORE PUSH1 0x40 DUP1 DUP4 KECCAK256 SWAP5 DUP10 AND DUP1 DUP5 MSTORE SWAP5 DUP3 MSTORE DUP1 DUP4 KECCAK256 SWAP6 SWAP1 SWAP6 SSTORE PUSH1 0x3 DUP1 DUP3 MSTORE DUP6 DUP4 KECCAK256 ADD SLOAD DUP4 DUP4 MSTORE PUSH1 0x6 DUP3 MSTORE DUP6 DUP4 KECCAK256 SWAP5 DUP4 MSTORE SWAP4 DUP2 MSTORE DUP5 DUP3 KECCAK256 SWAP4 SWAP1 SWAP4 SSTORE SWAP1 DUP2 MSTORE PUSH1 0xA SWAP1 SWAP2 MSTORE KECCAK256 SLOAD SWAP2 POP JUMPDEST POP PUSH1 0x8 SLOAD PUSH1 0x1 JUMPDEST PUSH1 0x2 SLOAD DUP2 LT ISZERO PUSH2 0x131A JUMPI PUSH1 0x2 DUP2 DUP2 SLOAD DUP2 LT PUSH2 0x124C JUMPI INVALID JUMPDEST PUSH1 0x0 SWAP2 DUP3 MSTORE PUSH1 0x20 SWAP1 SWAP2 KECCAK256 ADD SLOAD PUSH1 0x1 PUSH1 0x1 PUSH1 0xA0 SHL SUB AND SWAP4 POP PUSH2 0x126D DUP5 DUP4 PUSH2 0x2A5F JUMP JUMPDEST PUSH1 0x1 PUSH1 0x1 PUSH1 0xA0 SHL SUB DUP6 AND PUSH1 0x0 SWAP1 DUP2 MSTORE PUSH1 0x3 PUSH1 0x20 DUP2 SWAP1 MSTORE PUSH1 0x40 SWAP1 SWAP2 KECCAK256 ADD SSTORE PUSH2 0x1293 DUP5 PUSH2 0x162D JUMP JUMPDEST PUSH1 0x1 PUSH1 0x1 PUSH1 0xA0 SHL SUB DUP1 DUP7 AND PUSH1 0x0 SWAP1 DUP2 MSTORE PUSH1 0x3 PUSH1 0x20 MSTORE PUSH1 0x40 SWAP1 KECCAK256 PUSH1 0x2 ADD SWAP2 SWAP1 SWAP2 SSTORE DUP6 AND ISZERO PUSH2 0x1312 JUMPI PUSH2 0x12C6 DUP6 DUP6 DUP6 DUP6 PUSH2 0x2AF6 JUMP JUMPDEST PUSH1 0x1 PUSH1 0x1 PUSH1 0xA0 SHL SUB DUP1 DUP8 AND PUSH1 0x0 DUP2 DUP2 MSTORE PUSH1 0x7 PUSH1 0x20 SWAP1 DUP2 MSTORE PUSH1 0x40 DUP1 DUP4 KECCAK256 SWAP5 DUP11 AND DUP1 DUP5 MSTORE SWAP5 DUP3 MSTORE DUP1 DUP4 KECCAK256 SWAP6 SWAP1 SWAP6 SSTORE PUSH1 0x3 DUP1 DUP3 MSTORE DUP6 DUP4 KECCAK256 ADD SLOAD SWAP3 DUP3 MSTORE PUSH1 0x6 DUP2 MSTORE DUP5 DUP3 KECCAK256 SWAP4 DUP3 MSTORE SWAP3 SWAP1 SWAP3 MSTORE SWAP2 SWAP1 KECCAK256 SSTORE JUMPDEST PUSH1 0x1 ADD PUSH2 0x1235 JUMP JUMPDEST POP CALLER PUSH1 0x0 SWAP1 DUP2 MSTORE PUSH1 0x4 PUSH1 0x20 MSTORE PUSH1 0x40 SWAP1 KECCAK256 SLOAD PUSH1 0xFF AND PUSH2 0x1337 JUMPI PUSH1 0x0 DUP1 REVERT JUMPDEST PUSH1 0x8 SLOAD PUSH2 0x1344 SWAP1 DUP7 PUSH2 0x2941 JUMP JUMPDEST PUSH1 0x8 SSTORE PUSH1 0x1 PUSH1 0x1 PUSH1 0xA0 SHL SUB DUP7 AND PUSH1 0x0 SWAP1 DUP2 MSTORE PUSH1 0xA PUSH1 0x20 MSTORE PUSH1 0x40 SWAP1 KECCAK256 DUP1 SLOAD PUSH2 0x136B SWAP1 DUP8 PUSH2 0x2941 JUMP JUMPDEST DUP2 SSTORE PUSH1 0x3 DUP2 ADD SLOAD PUSH2 0x137C SWAP1 DUP8 PUSH2 0x2941 JUMP JUMPDEST PUSH1 0x3 DUP3 ADD SSTORE PUSH1 0x0 PUSH2 0x13A7 PUSH3 0x77F880 PUSH2 0x13A1 PUSH3 0x93A80 PUSH2 0x139B TIMESTAMP DUP3 PUSH2 0x29F8 JUMP JUMPDEST SWAP1 PUSH2 0x2B68 JUMP JUMPDEST SWAP1 PUSH2 0x2941 JUMP JUMPDEST PUSH1 0x1 PUSH1 0x1 PUSH1 0xA0 SHL SUB DUP10 AND PUSH1 0x0 SWAP1 DUP2 MSTORE PUSH1 0xC PUSH1 0x20 MSTORE PUSH1 0x40 SWAP1 KECCAK256 DUP1 SLOAD SWAP2 SWAP3 POP SWAP1 DUP1 ISZERO DUP1 PUSH2 0x13F1 JUMPI POP DUP3 DUP3 PUSH1 0x1 DUP4 SUB DUP2 SLOAD DUP2 LT PUSH2 0x13DD JUMPI INVALID JUMPDEST SWAP1 PUSH1 0x0 MSTORE PUSH1 0x20 PUSH1 0x0 KECCAK256 SWAP1 PUSH1 0x2 MUL ADD PUSH1 0x1 ADD SLOAD LT JUMPDEST ISZERO PUSH2 0x1433 JUMPI PUSH1 0x40 DUP1 MLOAD DUP1 DUP3 ADD SWAP1 SWAP2 MSTORE DUP10 DUP2 MSTORE PUSH1 0x20 DUP1 DUP3 ADD DUP6 DUP2 MSTORE DUP5 SLOAD PUSH1 0x1 DUP2 DUP2 ADD DUP8 SSTORE PUSH1 0x0 DUP8 DUP2 MSTORE SWAP4 SWAP1 SWAP4 KECCAK256 SWAP4 MLOAD PUSH1 0x2 SWAP1 SWAP2 MUL SWAP1 SWAP4 ADD SWAP3 DUP4 SSTORE MLOAD SWAP2 ADD SSTORE PUSH2 0x147E JUMP JUMPDEST PUSH2 0x145D DUP10 DUP4 PUSH1 0x1 DUP5 SUB DUP2 SLOAD DUP2 LT PUSH2 0x1446 JUMPI INVALID JUMPDEST PUSH1 0x0 SWAP2 DUP3 MSTORE PUSH1 0x20 SWAP1 SWAP2 KECCAK256 PUSH1 0x2 SWAP1 SWAP2 MUL ADD SLOAD SWAP1 PUSH2 0x2941 JUMP JUMPDEST DUP3 PUSH1 0x1 DUP4 SUB DUP2 SLOAD DUP2 LT PUSH2 0x146C JUMPI INVALID JUMPDEST PUSH1 0x0 SWAP2 DUP3 MSTORE PUSH1 0x20 SWAP1 SWAP2 KECCAK256 PUSH1 0x2 SWAP1 SWAP2 MUL ADD SSTORE JUMPDEST PUSH1 0x40 MLOAD PUSH4 0x40C10F19 PUSH1 0xE0 SHL DUP2 MSTORE PUSH1 0x1 PUSH1 0x1 PUSH1 0xA0 SHL SUB PUSH32 0x0 AND SWAP1 PUSH4 0x40C10F19 SWAP1 PUSH2 0x14CC SWAP1 ADDRESS SWAP1 DUP14 SWAP1 PUSH1 0x4 ADD PUSH2 0x3272 JUMP JUMPDEST PUSH1 0x20 PUSH1 0x40 MLOAD DUP1 DUP4 SUB DUP2 PUSH1 0x0 DUP8 DUP1 EXTCODESIZE ISZERO DUP1 ISZERO PUSH2 0x14E6 JUMPI PUSH1 0x0 DUP1 REVERT JUMPDEST POP GAS CALL ISZERO DUP1 ISZERO PUSH2 0x14FA JUMPI RETURNDATASIZE PUSH1 0x0 DUP1 RETURNDATACOPY RETURNDATASIZE PUSH1 0x0 REVERT JUMPDEST POP POP POP POP PUSH1 0x40 MLOAD RETURNDATASIZE PUSH1 0x1F NOT PUSH1 0x1F DUP3 ADD AND DUP3 ADD DUP1 PUSH1 0x40 MSTORE POP DUP2 ADD SWAP1 PUSH2 0x151E SWAP2 SWAP1 PUSH2 0x31B6 JUMP JUMPDEST POP DUP10 PUSH1 0x1 PUSH1 0x1 PUSH1 0xA0 SHL SUB AND PUSH32 0x9E71BC8EEA02A63969F509818F2DAFB9254532904319F9DBDA79B67BD34A5F3D DUP11 PUSH1 0x40 MLOAD PUSH2 0x1558 SWAP2 SWAP1 PUSH2 0x344B JUMP JUMPDEST PUSH1 0x40 MLOAD DUP1 SWAP2 SUB SWAP1 LOG2 POP POP POP POP POP POP POP POP POP POP JUMP JUMPDEST PUSH1 0x3 PUSH1 0x20 DUP2 SWAP1 MSTORE PUSH1 0x0 SWAP2 DUP3 MSTORE PUSH1 0x40 SWAP1 SWAP2 KECCAK256 DUP1 SLOAD PUSH1 0x1 DUP3 ADD SLOAD PUSH1 0x2 DUP4 ADD SLOAD SWAP3 SWAP1 SWAP4 ADD SLOAD SWAP1 SWAP3 SWAP2 SWAP1 DUP5 JUMP JUMPDEST PUSH1 0x1 PUSH1 0x1 PUSH1 0xA0 SHL SUB DUP2 AND PUSH1 0x0 SWAP1 DUP2 MSTORE PUSH1 0xA PUSH1 0x20 SWAP1 DUP2 MSTORE PUSH1 0x40 DUP1 DUP4 KECCAK256 PUSH1 0x1 ADD SLOAD CALLER DUP5 MSTORE PUSH1 0xC SWAP1 SWAP3 MSTORE DUP3 KECCAK256 SWAP1 SWAP2 JUMPDEST DUP2 SLOAD DUP2 LT ISZERO PUSH2 0x1625 JUMPI TIMESTAMP DUP3 DUP3 DUP2 SLOAD DUP2 LT PUSH2 0x15D7 JUMPI INVALID JUMPDEST SWAP1 PUSH1 0x0 MSTORE PUSH1 0x20 PUSH1 0x0 KECCAK256 SWAP1 PUSH1 0x2 MUL ADD PUSH1 0x1 ADD SLOAD GT ISZERO PUSH2 0x15F4 JUMPI PUSH2 0x1625 JUMP JUMPDEST PUSH2 0x161B DUP3 DUP3 DUP2 SLOAD DUP2 LT PUSH2 0x1603 JUMPI INVALID JUMPDEST PUSH1 0x0 SWAP2 DUP3 MSTORE PUSH1 0x20 SWAP1 SWAP2 KECCAK256 PUSH1 0x2 SWAP1 SWAP2 MUL ADD SLOAD DUP5 SWAP1 PUSH2 0x2941 JUMP JUMPDEST SWAP3 POP PUSH1 0x1 ADD PUSH2 0x15C1 JUMP JUMPDEST POP POP JUMPDEST SWAP2 SWAP1 POP JUMP JUMPDEST PUSH1 0x1 PUSH1 0x1 PUSH1 0xA0 SHL SUB DUP2 AND PUSH1 0x0 SWAP1 DUP2 MSTORE PUSH1 0x3 PUSH1 0x20 MSTORE PUSH1 0x40 DUP2 KECCAK256 SLOAD PUSH2 0x1651 SWAP1 TIMESTAMP SWAP1 PUSH2 0x2D37 JUMP JUMPDEST SWAP3 SWAP2 POP POP JUMP JUMPDEST PUSH2 0x165F PUSH2 0x2D33 JUMP JUMPDEST PUSH1 0x1 PUSH1 0x1 PUSH1 0xA0 SHL SUB AND PUSH2 0x1670 PUSH2 0x1990 JUMP JUMPDEST PUSH1 0x1 PUSH1 0x1 PUSH1 0xA0 SHL SUB AND EQ PUSH2 0x16B9 JUMPI PUSH1 0x40 DUP1 MLOAD PUSH3 0x461BCD PUSH1 0xE5 SHL DUP2 MSTORE PUSH1 0x20 PUSH1 0x4 DUP3 ADD DUP2 SWAP1 MSTORE PUSH1 0x24 DUP3 ADD MSTORE PUSH1 0x0 DUP1 MLOAD PUSH1 0x20 PUSH2 0x3541 DUP4 CODECOPY DUP2 MLOAD SWAP2 MSTORE PUSH1 0x44 DUP3 ADD MSTORE SWAP1 MLOAD SWAP1 DUP2 SWAP1 SUB PUSH1 0x64 ADD SWAP1 REVERT JUMPDEST PUSH1 0x1 PUSH1 0x1 PUSH1 0xA0 SHL SUB DUP4 AND PUSH1 0x0 SWAP1 DUP2 MSTORE PUSH1 0x3 PUSH1 0x20 MSTORE PUSH1 0x40 SWAP1 KECCAK256 PUSH1 0x2 ADD SLOAD PUSH2 0x16DE JUMPI PUSH1 0x0 DUP1 REVERT JUMPDEST PUSH1 0x1 PUSH1 0x1 PUSH1 0xA0 SHL SUB SWAP3 DUP4 AND PUSH1 0x0 SWAP1 DUP2 MSTORE PUSH1 0x5 PUSH1 0x20 SWAP1 DUP2 MSTORE PUSH1 0x40 DUP1 DUP4 KECCAK256 SWAP5 SWAP1 SWAP6 AND DUP3 MSTORE SWAP3 SWAP1 SWAP3 MSTORE SWAP2 SWAP1 KECCAK256 DUP1 SLOAD PUSH1 0xFF NOT AND SWAP2 ISZERO ISZERO SWAP2 SWAP1 SWAP2 OR SWAP1 SSTORE JUMP JUMPDEST PUSH1 0x1 PUSH1 0x1 PUSH1 0xA0 SHL SUB AND PUSH1 0x0 SWAP1 DUP2 MSTORE PUSH1 0xA PUSH1 0x20 MSTORE PUSH1 0x40 SWAP1 KECCAK256 SLOAD SWAP1 JUMP JUMPDEST PUSH1 0x6 PUSH1 0x20 SWAP1 DUP2 MSTORE PUSH1 0x0 SWAP3 DUP4 MSTORE PUSH1 0x40 DUP1 DUP5 KECCAK256 SWAP1 SWAP2 MSTORE SWAP1 DUP3 MSTORE SWAP1 KECCAK256 SLOAD DUP2 JUMP JUMPDEST PUSH2 0x1758 PUSH2 0x2D33 JUMP JUMPDEST PUSH1 0x1 PUSH1 0x1 PUSH1 0xA0 SHL SUB AND PUSH2 0x1769 PUSH2 0x1990 JUMP JUMPDEST PUSH1 0x1 PUSH1 0x1 PUSH1 0xA0 SHL SUB AND EQ PUSH2 0x17B2 JUMPI PUSH1 0x40 DUP1 MLOAD PUSH3 0x461BCD PUSH1 0xE5 SHL DUP2 MSTORE PUSH1 0x20 PUSH1 0x4 DUP3 ADD DUP2 SWAP1 MSTORE PUSH1 0x24 DUP3 ADD MSTORE PUSH1 0x0 DUP1 MLOAD PUSH1 0x20 PUSH2 0x3541 DUP4 CODECOPY DUP2 MLOAD SWAP2 MSTORE PUSH1 0x44 DUP3 ADD MSTORE SWAP1 MLOAD SWAP1 DUP2 SWAP1 SUB PUSH1 0x64 ADD SWAP1 REVERT JUMPDEST PUSH1 0x1 SLOAD PUSH1 0x40 MLOAD PUSH1 0x0 SWAP2 PUSH1 0x1 PUSH1 0x1 PUSH1 0xA0 SHL SUB AND SWAP1 PUSH32 0x8BE0079C531659141344CD1FD0A4F28419497F9722A3DAAFE3B4186F6B6457E0 SWAP1 DUP4 SWAP1 LOG3 PUSH1 0x1 DUP1 SLOAD PUSH1 0x1 PUSH1 0x1 PUSH1 0xA0 SHL SUB NOT AND SWAP1 SSTORE JUMP JUMPDEST PUSH32 0x0 DUP2 JUMP JUMPDEST PUSH1 0x2 DUP2 DUP2 SLOAD DUP2 LT PUSH2 0x1830 JUMPI PUSH1 0x0 DUP1 REVERT JUMPDEST PUSH1 0x0 SWAP2 DUP3 MSTORE PUSH1 0x20 SWAP1 SWAP2 KECCAK256 ADD SLOAD PUSH1 0x1 PUSH1 0x1 PUSH1 0xA0 SHL SUB AND SWAP1 POP DUP2 JUMP JUMPDEST PUSH2 0x1852 PUSH2 0x2D33 JUMP JUMPDEST PUSH1 0x1 PUSH1 0x1 PUSH1 0xA0 SHL SUB AND PUSH2 0x1863 PUSH2 0x1990 JUMP JUMPDEST PUSH1 0x1 PUSH1 0x1 PUSH1 0xA0 SHL SUB AND EQ PUSH2 0x18AC JUMPI PUSH1 0x40 DUP1 MLOAD PUSH3 0x461BCD PUSH1 0xE5 SHL DUP2 MSTORE PUSH1 0x20 PUSH1 0x4 DUP3 ADD DUP2 SWAP1 MSTORE PUSH1 0x24 DUP3 ADD MSTORE PUSH1 0x0 DUP1 MLOAD PUSH1 0x20 PUSH2 0x3541 DUP4 CODECOPY DUP2 MLOAD SWAP2 MSTORE PUSH1 0x44 DUP3 ADD MSTORE SWAP1 MLOAD SWAP1 DUP2 SWAP1 SUB PUSH1 0x64 ADD SWAP1 REVERT JUMPDEST PUSH32 0x0 PUSH1 0x1 PUSH1 0x1 PUSH1 0xA0 SHL SUB AND DUP3 PUSH1 0x1 PUSH1 0x1 PUSH1 0xA0 SHL SUB AND EQ ISZERO PUSH2 0x18FE JUMPI PUSH1 0x40 MLOAD PUSH3 0x461BCD PUSH1 0xE5 SHL DUP2 MSTORE PUSH1 0x4 ADD PUSH2 0x9C8 SWAP1 PUSH2 0x33A6 JUMP JUMPDEST PUSH1 0x1 PUSH1 0x1 PUSH1 0xA0 SHL SUB DUP3 AND PUSH1 0x0 SWAP1 DUP2 MSTORE PUSH1 0x3 PUSH1 0x20 MSTORE PUSH1 0x40 SWAP1 KECCAK256 PUSH1 0x2 ADD SLOAD ISZERO PUSH2 0x1937 JUMPI PUSH1 0x40 MLOAD PUSH3 0x461BCD PUSH1 0xE5 SHL DUP2 MSTORE PUSH1 0x4 ADD PUSH2 0x9C8 SWAP1 PUSH2 0x3414 JUMP JUMPDEST PUSH2 0x1953 PUSH2 0x1942 PUSH2 0x1990 JUMP JUMPDEST PUSH1 0x1 PUSH1 0x1 PUSH1 0xA0 SHL SUB DUP5 AND SWAP1 DUP4 PUSH2 0x2BC1 JUMP JUMPDEST PUSH32 0x8C1256B8896378CD5044F80C202F9772B9D77DC85C8A6EB51967210B09BFAA28 DUP3 DUP3 PUSH1 0x40 MLOAD PUSH2 0x1984 SWAP3 SWAP2 SWAP1 PUSH2 0x3272 JUMP JUMPDEST PUSH1 0x40 MLOAD DUP1 SWAP2 SUB SWAP1 LOG1 POP POP JUMP JUMPDEST PUSH1 0x1 SLOAD PUSH1 0x1 PUSH1 0x1 PUSH1 0xA0 SHL SUB AND SWAP1 JUMP JUMPDEST CALLER PUSH1 0x0 SWAP1 DUP2 MSTORE PUSH1 0xB PUSH1 0x20 SWAP1 DUP2 MSTORE PUSH1 0x40 DUP1 DUP4 KECCAK256 PUSH1 0xA SWAP1 SWAP3 MSTORE DUP3 KECCAK256 DUP2 SLOAD SWAP2 SWAP3 SWAP1 SWAP2 TIMESTAMP DUP5 PUSH1 0x0 NOT DUP4 ADD DUP4 DUP2 LT PUSH2 0x19CE JUMPI INVALID JUMPDEST SWAP1 PUSH1 0x0 MSTORE PUSH1 0x20 PUSH1 0x0 KECCAK256 SWAP1 PUSH1 0x2 MUL ADD PUSH1 0x1 ADD SLOAD GT PUSH2 0x1A0B JUMPI PUSH1 0x2 DUP4 ADD SLOAD CALLER PUSH1 0x0 SWAP1 DUP2 MSTORE PUSH1 0xB PUSH1 0x20 MSTORE PUSH1 0x40 DUP2 KECCAK256 SWAP2 SWAP4 POP PUSH2 0x1A06 SWAP2 SWAP1 PUSH2 0x308A JUMP JUMPDEST PUSH2 0x1A80 JUMP JUMPDEST PUSH1 0x0 JUMPDEST DUP2 DUP2 LT ISZERO PUSH2 0x1A7E JUMPI TIMESTAMP DUP6 DUP3 DUP2 SLOAD DUP2 LT PUSH2 0x1A23 JUMPI INVALID JUMPDEST SWAP1 PUSH1 0x0 MSTORE PUSH1 0x20 PUSH1 0x0 KECCAK256 SWAP1 PUSH1 0x2 MUL ADD PUSH1 0x1 ADD SLOAD GT ISZERO PUSH2 0x1A40 JUMPI PUSH2 0x1A7E JUMP JUMPDEST PUSH2 0x1A4F DUP6 DUP3 DUP2 SLOAD DUP2 LT PUSH2 0x1603 JUMPI INVALID JUMPDEST SWAP3 POP DUP5 DUP2 DUP2 SLOAD DUP2 LT PUSH2 0x1A5D JUMPI INVALID JUMPDEST PUSH1 0x0 SWAP2 DUP3 MSTORE PUSH1 0x20 DUP3 KECCAK256 PUSH1 0x2 SWAP1 SWAP2 MUL ADD DUP2 DUP2 SSTORE PUSH1 0x1 SWAP1 DUP2 ADD SWAP2 SWAP1 SWAP2 SSTORE ADD PUSH2 0x1A0E JUMP JUMPDEST POP JUMPDEST PUSH1 0x2 DUP4 ADD SLOAD PUSH2 0x1A8F SWAP1 DUP4 PUSH2 0x299B JUMP JUMPDEST PUSH1 0x2 DUP5 ADD SSTORE DUP3 SLOAD PUSH2 0x1AA0 SWAP1 DUP4 PUSH2 0x299B JUMP JUMPDEST DUP4 SSTORE PUSH1 0x8 SLOAD PUSH2 0x1AAF SWAP1 DUP4 PUSH2 0x299B JUMP JUMPDEST PUSH1 0x8 SSTORE PUSH1 0x9 SLOAD PUSH2 0x1ABF SWAP1 DUP4 PUSH2 0x299B JUMP JUMPDEST PUSH1 0x9 SSTORE PUSH2 0x1AF6 PUSH1 0x1 PUSH1 0x1 PUSH1 0xA0 SHL SUB PUSH32 0x0 AND CALLER DUP5 PUSH2 0x2BC1 JUMP JUMPDEST POP POP POP POP JUMP JUMPDEST PUSH1 0x2 PUSH1 0x0 SLOAD EQ ISZERO PUSH2 0x1B54 JUMPI PUSH1 0x40 DUP1 MLOAD PUSH3 0x461BCD PUSH1 0xE5 SHL DUP2 MSTORE PUSH1 0x20 PUSH1 0x4 DUP3 ADD MSTORE PUSH1 0x1F PUSH1 0x24 DUP3 ADD MSTORE PUSH32 0x5265656E7472616E637947756172643A207265656E7472616E742063616C6C00 PUSH1 0x44 DUP3 ADD MSTORE SWAP1 MLOAD SWAP1 DUP2 SWAP1 SUB PUSH1 0x64 ADD SWAP1 REVERT JUMPDEST PUSH1 0x2 PUSH1 0x0 SWAP1 DUP2 SSTORE PUSH1 0x9 SLOAD CALLER SWAP2 PUSH32 0x0 SWAP2 PUSH2 0x1B8C DUP4 DUP3 PUSH2 0x2A5F JUMP JUMPDEST PUSH1 0x1 PUSH1 0x1 PUSH1 0xA0 SHL SUB DUP5 AND PUSH1 0x0 SWAP1 DUP2 MSTORE PUSH1 0x3 PUSH1 0x20 DUP2 SWAP1 MSTORE PUSH1 0x40 SWAP1 SWAP2 KECCAK256 ADD SSTORE PUSH2 0x1BB2 DUP4 PUSH2 0x162D JUMP JUMPDEST PUSH1 0x1 PUSH1 0x1 PUSH1 0xA0 SHL SUB DUP1 DUP6 AND PUSH1 0x0 SWAP1 DUP2 MSTORE PUSH1 0x3 PUSH1 0x20 MSTORE PUSH1 0x40 SWAP1 KECCAK256 PUSH1 0x2 ADD SWAP2 SWAP1 SWAP2 SSTORE DUP5 AND ISZERO PUSH2 0x1C5D JUMPI PUSH1 0x1 PUSH1 0x1 PUSH1 0xA0 SHL SUB DUP5 AND PUSH1 0x0 SWAP1 DUP2 MSTORE PUSH1 0xA PUSH1 0x20 MSTORE PUSH1 0x40 SWAP1 KECCAK256 PUSH1 0x2 ADD SLOAD PUSH2 0x1C03 SWAP1 DUP6 SWAP1 DUP6 SWAP1 DUP5 PUSH2 0x2AF6 JUMP JUMPDEST PUSH1 0x1 PUSH1 0x1 PUSH1 0xA0 SHL SUB DUP1 DUP7 AND PUSH1 0x0 DUP2 DUP2 MSTORE PUSH1 0x7 PUSH1 0x20 SWAP1 DUP2 MSTORE PUSH1 0x40 DUP1 DUP4 KECCAK256 SWAP5 DUP10 AND DUP1 DUP5 MSTORE SWAP5 DUP3 MSTORE DUP1 DUP4 KECCAK256 SWAP6 SWAP1 SWAP6 SSTORE PUSH1 0x3 DUP1 DUP3 MSTORE DUP6 DUP4 KECCAK256 ADD SLOAD DUP4 DUP4 MSTORE PUSH1 0x6 DUP3 MSTORE DUP6 DUP4 KECCAK256 SWAP5 DUP4 MSTORE SWAP4 DUP2 MSTORE DUP5 DUP3 KECCAK256 SWAP4 SWAP1 SWAP4 SSTORE SWAP1 DUP2 MSTORE PUSH1 0xA SWAP1 SWAP2 MSTORE KECCAK256 SLOAD SWAP2 POP JUMPDEST POP PUSH1 0x8 SLOAD PUSH1 0x1 JUMPDEST PUSH1 0x2 SLOAD DUP2 LT ISZERO PUSH2 0x1D49 JUMPI PUSH1 0x2 DUP2 DUP2 SLOAD DUP2 LT PUSH2 0x1C7B JUMPI INVALID JUMPDEST PUSH1 0x0 SWAP2 DUP3 MSTORE PUSH1 0x20 SWAP1 SWAP2 KECCAK256 ADD SLOAD PUSH1 0x1 PUSH1 0x1 PUSH1 0xA0 SHL SUB AND SWAP4 POP PUSH2 0x1C9C DUP5 DUP4 PUSH2 0x2A5F JUMP JUMPDEST PUSH1 0x1 PUSH1 0x1 PUSH1 0xA0 SHL SUB DUP6 AND PUSH1 0x0 SWAP1 DUP2 MSTORE PUSH1 0x3 PUSH1 0x20 DUP2 SWAP1 MSTORE PUSH1 0x40 SWAP1 SWAP2 KECCAK256 ADD SSTORE PUSH2 0x1CC2 DUP5 PUSH2 0x162D JUMP JUMPDEST PUSH1 0x1 PUSH1 0x1 PUSH1 0xA0 SHL SUB DUP1 DUP7 AND PUSH1 0x0 SWAP1 DUP2 MSTORE PUSH1 0x3 PUSH1 0x20 MSTORE PUSH1 0x40 SWAP1 KECCAK256 PUSH1 0x2 ADD SWAP2 SWAP1 SWAP2 SSTORE DUP6 AND ISZERO PUSH2 0x1D41 JUMPI PUSH2 0x1CF5 DUP6 DUP6 DUP6 DUP6 PUSH2 0x2AF6 JUMP JUMPDEST PUSH1 0x1 PUSH1 0x1 PUSH1 0xA0 SHL SUB DUP1 DUP8 AND PUSH1 0x0 DUP2 DUP2 MSTORE PUSH1 0x7 PUSH1 0x20 SWAP1 DUP2 MSTORE PUSH1 0x40 DUP1 DUP4 KECCAK256 SWAP5 DUP11 AND DUP1 DUP5 MSTORE SWAP5 DUP3 MSTORE DUP1 DUP4 KECCAK256 SWAP6 SWAP1 SWAP6 SSTORE PUSH1 0x3 DUP1 DUP3 MSTORE DUP6 DUP4 KECCAK256 ADD SLOAD SWAP3 DUP3 MSTORE PUSH1 0x6 DUP2 MSTORE DUP5 DUP3 KECCAK256 SWAP4 DUP3 MSTORE SWAP3 SWAP1 SWAP3 MSTORE SWAP2 SWAP1 KECCAK256 SSTORE JUMPDEST PUSH1 0x1 ADD PUSH2 0x1C64 JUMP JUMPDEST POP PUSH1 0x0 DUP7 GT PUSH2 0x1D6A JUMPI PUSH1 0x40 MLOAD PUSH3 0x461BCD PUSH1 0xE5 SHL DUP2 MSTORE PUSH1 0x4 ADD PUSH2 0x9C8 SWAP1 PUSH2 0x32EE JUMP JUMPDEST PUSH1 0x8 SLOAD PUSH2 0x1D77 SWAP1 DUP8 PUSH2 0x2941 JUMP JUMPDEST PUSH1 0x8 SSTORE CALLER PUSH1 0x0 SWAP1 DUP2 MSTORE PUSH1 0xA PUSH1 0x20 MSTORE PUSH1 0x40 SWAP1 KECCAK256 DUP1 SLOAD PUSH2 0x1D95 SWAP1 DUP9 PUSH2 0x2941 JUMP JUMPDEST DUP2 SSTORE DUP6 ISZERO PUSH2 0x1ED8 JUMPI PUSH1 0x9 SLOAD PUSH2 0x1DAA SWAP1 DUP9 PUSH2 0x2941 JUMP JUMPDEST PUSH1 0x9 SSTORE PUSH1 0x2 DUP2 ADD SLOAD PUSH2 0x1DBC SWAP1 DUP9 PUSH2 0x2941 JUMP JUMPDEST PUSH1 0x2 DUP3 ADD SSTORE PUSH1 0x0 PUSH2 0x1DDB PUSH3 0x77F880 PUSH2 0x13A1 PUSH3 0x93A80 PUSH2 0x139B TIMESTAMP DUP3 PUSH2 0x29F8 JUMP JUMPDEST CALLER PUSH1 0x0 SWAP1 DUP2 MSTORE PUSH1 0xB PUSH1 0x20 MSTORE PUSH1 0x40 SWAP1 KECCAK256 SLOAD SWAP1 SWAP2 POP DUP1 ISZERO DUP1 PUSH2 0x1E2C JUMPI POP CALLER PUSH1 0x0 SWAP1 DUP2 MSTORE PUSH1 0xB PUSH1 0x20 MSTORE PUSH1 0x40 SWAP1 KECCAK256 DUP1 SLOAD DUP4 SWAP2 SWAP1 PUSH1 0x0 NOT DUP5 ADD SWAP1 DUP2 LT PUSH2 0x1E18 JUMPI INVALID JUMPDEST SWAP1 PUSH1 0x0 MSTORE PUSH1 0x20 PUSH1 0x0 KECCAK256 SWAP1 PUSH1 0x2 MUL ADD PUSH1 0x1 ADD SLOAD LT JUMPDEST ISZERO PUSH2 0x1E7B JUMPI CALLER PUSH1 0x0 SWAP1 DUP2 MSTORE PUSH1 0xB PUSH1 0x20 SWAP1 DUP2 MSTORE PUSH1 0x40 DUP1 DUP4 KECCAK256 DUP2 MLOAD DUP1 DUP4 ADD SWAP1 SWAP3 MSTORE DUP13 DUP3 MSTORE DUP2 DUP4 ADD DUP7 DUP2 MSTORE DUP2 SLOAD PUSH1 0x1 DUP2 DUP2 ADD DUP5 SSTORE SWAP3 DUP7 MSTORE SWAP4 SWAP1 SWAP5 KECCAK256 SWAP2 MLOAD PUSH1 0x2 SWAP1 SWAP4 MUL SWAP1 SWAP2 ADD SWAP2 DUP3 SSTORE SWAP2 MLOAD SWAP2 ADD SSTORE PUSH2 0x1ED1 JUMP JUMPDEST CALLER PUSH1 0x0 SWAP1 DUP2 MSTORE PUSH1 0xB PUSH1 0x20 MSTORE PUSH1 0x40 SWAP1 KECCAK256 DUP1 SLOAD PUSH2 0x1EA0 SWAP2 DUP12 SWAP2 PUSH1 0x0 NOT DUP6 ADD SWAP1 DUP2 LT PUSH2 0x1446 JUMPI INVALID JUMPDEST CALLER PUSH1 0x0 SWAP1 DUP2 MSTORE PUSH1 0xB PUSH1 0x20 MSTORE PUSH1 0x40 SWAP1 KECCAK256 DUP1 SLOAD PUSH1 0x0 NOT DUP5 ADD SWAP1 DUP2 LT PUSH2 0x1EBF JUMPI INVALID JUMPDEST PUSH1 0x0 SWAP2 DUP3 MSTORE PUSH1 0x20 SWAP1 SWAP2 KECCAK256 PUSH1 0x2 SWAP1 SWAP2 MUL ADD SSTORE JUMPDEST POP POP PUSH2 0x1EED JUMP JUMPDEST PUSH1 0x1 DUP2 ADD SLOAD PUSH2 0x1EE7 SWAP1 DUP9 PUSH2 0x2941 JUMP JUMPDEST PUSH1 0x1 DUP3 ADD SSTORE JUMPDEST PUSH2 0x1F22 PUSH1 0x1 PUSH1 0x1 PUSH1 0xA0 SHL SUB PUSH32 0x0 AND CALLER ADDRESS DUP11 PUSH2 0x2D4D JUMP JUMPDEST CALLER PUSH1 0x1 PUSH1 0x1 PUSH1 0xA0 SHL SUB AND PUSH32 0x9E71BC8EEA02A63969F509818F2DAFB9254532904319F9DBDA79B67BD34A5F3D DUP9 PUSH1 0x40 MLOAD PUSH2 0x1F5B SWAP2 SWAP1 PUSH2 0x344B JUMP JUMPDEST PUSH1 0x40 MLOAD DUP1 SWAP2 SUB SWAP1 LOG2 POP POP PUSH1 0x1 PUSH1 0x0 SSTORE POP POP POP POP POP JUMP JUMPDEST PUSH1 0x9 SLOAD PUSH1 0x0 SWAP1 PUSH32 0x0 SWAP1 DUP3 SWAP1 PUSH2 0x1FA5 DUP4 DUP3 PUSH2 0x2A5F JUMP JUMPDEST PUSH1 0x1 PUSH1 0x1 PUSH1 0xA0 SHL SUB DUP5 AND PUSH1 0x0 SWAP1 DUP2 MSTORE PUSH1 0x3 PUSH1 0x20 DUP2 SWAP1 MSTORE PUSH1 0x40 SWAP1 SWAP2 KECCAK256 ADD SSTORE PUSH2 0x1FCB DUP4 PUSH2 0x162D JUMP JUMPDEST PUSH1 0x1 PUSH1 0x1 PUSH1 0xA0 SHL SUB DUP1 DUP6 AND PUSH1 0x0 SWAP1 DUP2 MSTORE PUSH1 0x3 PUSH1 0x20 MSTORE PUSH1 0x40 SWAP1 KECCAK256 PUSH1 0x2 ADD SWAP2 SWAP1 SWAP2 SSTORE DUP5 AND ISZERO PUSH2 0x2076 JUMPI PUSH1 0x1 PUSH1 0x1 PUSH1 0xA0 SHL SUB DUP5 AND PUSH1 0x0 SWAP1 DUP2 MSTORE PUSH1 0xA PUSH1 0x20 MSTORE PUSH1 0x40 SWAP1 KECCAK256 PUSH1 0x2 ADD SLOAD PUSH2 0x201C SWAP1 DUP6 SWAP1 DUP6 SWAP1 DUP5 PUSH2 0x2AF6 JUMP JUMPDEST PUSH1 0x1 PUSH1 0x1 PUSH1 0xA0 SHL SUB DUP1 DUP7 AND PUSH1 0x0 DUP2 DUP2 MSTORE PUSH1 0x7 PUSH1 0x20 SWAP1 DUP2 MSTORE PUSH1 0x40 DUP1 DUP4 KECCAK256 SWAP5 DUP10 AND DUP1 DUP5 MSTORE SWAP5 DUP3 MSTORE DUP1 DUP4 KECCAK256 SWAP6 SWAP1 SWAP6 SSTORE PUSH1 0x3 DUP1 DUP3 MSTORE DUP6 DUP4 KECCAK256 ADD SLOAD DUP4 DUP4 MSTORE PUSH1 0x6 DUP3 MSTORE DUP6 DUP4 KECCAK256 SWAP5 DUP4 MSTORE SWAP4 DUP2 MSTORE DUP5 DUP3 KECCAK256 SWAP4 SWAP1 SWAP4 SSTORE SWAP1 DUP2 MSTORE PUSH1 0xA SWAP1 SWAP2 MSTORE KECCAK256 SLOAD SWAP2 POP JUMPDEST POP PUSH1 0x8 SLOAD PUSH1 0x1 JUMPDEST PUSH1 0x2 SLOAD DUP2 LT ISZERO PUSH2 0x2162 JUMPI PUSH1 0x2 DUP2 DUP2 SLOAD DUP2 LT PUSH2 0x2094 JUMPI INVALID JUMPDEST PUSH1 0x0 SWAP2 DUP3 MSTORE PUSH1 0x20 SWAP1 SWAP2 KECCAK256 ADD SLOAD PUSH1 0x1 PUSH1 0x1 PUSH1 0xA0 SHL SUB AND SWAP4 POP PUSH2 0x20B5 DUP5 DUP4 PUSH2 0x2A5F JUMP JUMPDEST PUSH1 0x1 PUSH1 0x1 PUSH1 0xA0 SHL SUB DUP6 AND PUSH1 0x0 SWAP1 DUP2 MSTORE PUSH1 0x3 PUSH1 0x20 DUP2 SWAP1 MSTORE PUSH1 0x40 SWAP1 SWAP2 KECCAK256 ADD SSTORE PUSH2 0x20DB DUP5 PUSH2 0x162D JUMP JUMPDEST PUSH1 0x1 PUSH1 0x1 PUSH1 0xA0 SHL SUB DUP1 DUP7 AND PUSH1 0x0 SWAP1 DUP2 MSTORE PUSH1 0x3 PUSH1 0x20 MSTORE PUSH1 0x40 SWAP1 KECCAK256 PUSH1 0x2 ADD SWAP2 SWAP1 SWAP2 SSTORE DUP6 AND ISZERO PUSH2 0x215A JUMPI PUSH2 0x210E DUP6 DUP6 DUP6 DUP6 PUSH2 0x2AF6 JUMP JUMPDEST PUSH1 0x1 PUSH1 0x1 PUSH1 0xA0 SHL SUB DUP1 DUP8 AND PUSH1 0x0 DUP2 DUP2 MSTORE PUSH1 0x7 PUSH1 0x20 SWAP1 DUP2 MSTORE PUSH1 0x40 DUP1 DUP4 KECCAK256 SWAP5 DUP11 AND DUP1 DUP5 MSTORE SWAP5 DUP3 MSTORE DUP1 DUP4 KECCAK256 SWAP6 SWAP1 SWAP6 SSTORE PUSH1 0x3 DUP1 DUP3 MSTORE DUP6 DUP4 KECCAK256 ADD SLOAD SWAP3 DUP3 MSTORE PUSH1 0x6 DUP2 MSTORE DUP5 DUP3 KECCAK256 SWAP4 DUP3 MSTORE SWAP3 SWAP1 SWAP3 MSTORE SWAP2 SWAP1 KECCAK256 SSTORE JUMPDEST PUSH1 0x1 ADD PUSH2 0x207D JUMP JUMPDEST POP PUSH1 0x1 PUSH1 0x1 PUSH1 0xA0 SHL SUB DUP7 AND PUSH1 0x0 SWAP1 DUP2 MSTORE PUSH1 0x5 PUSH1 0x20 SWAP1 DUP2 MSTORE PUSH1 0x40 DUP1 DUP4 KECCAK256 CALLER DUP5 MSTORE SWAP1 SWAP2 MSTORE SWAP1 KECCAK256 SLOAD PUSH1 0xFF AND PUSH2 0x2193 JUMPI PUSH1 0x0 DUP1 REVERT JUMPDEST PUSH1 0x0 DUP6 GT PUSH2 0x21B3 JUMPI PUSH1 0x40 MLOAD PUSH3 0x461BCD PUSH1 0xE5 SHL DUP2 MSTORE PUSH1 0x4 ADD PUSH2 0x9C8 SWAP1 PUSH2 0x3358 JUMP JUMPDEST PUSH2 0x21C8 PUSH1 0x1 PUSH1 0x1 PUSH1 0xA0 SHL SUB DUP8 AND CALLER ADDRESS DUP9 PUSH2 0x2D4D JUMP JUMPDEST PUSH2 0x21D2 DUP7 DUP7 PUSH2 0x2C18 JUMP JUMPDEST PUSH32 0xDE88A922E0D3B88B24E9623EFEB464919C6BF9F66857A65E2BFCF2CE87A9433D DUP6 PUSH1 0x40 MLOAD PUSH2 0x2201 SWAP2 SWAP1 PUSH2 0x344B JUMP JUMPDEST PUSH1 0x40 MLOAD DUP1 SWAP2 SUB SWAP1 LOG1 POP POP POP POP POP POP JUMP JUMPDEST PUSH1 0x1 PUSH1 0x1 PUSH1 0xA0 SHL SUB DUP2 AND PUSH1 0x0 SWAP1 DUP2 MSTORE PUSH1 0x3 PUSH1 0x20 MSTORE PUSH1 0x40 DUP2 KECCAK256 PUSH1 0x1 ADD SLOAD PUSH2 0x1651 SWAP1 PUSH3 0x93A80 PUSH2 0x2B68 JUMP JUMPDEST PUSH1 0x9 SLOAD DUP2 JUMP JUMPDEST PUSH1 0x2 SLOAD PUSH1 0x60 SWAP1 PUSH8 0xFFFFFFFFFFFFFFFF DUP2 GT DUP1 ISZERO PUSH2 0x225C JUMPI PUSH1 0x0 DUP1 REVERT JUMPDEST POP PUSH1 0x40 MLOAD SWAP1 DUP1 DUP3 MSTORE DUP1 PUSH1 0x20 MUL PUSH1 0x20 ADD DUP3 ADD PUSH1 0x40 MSTORE DUP1 ISZERO PUSH2 0x2296 JUMPI DUP2 PUSH1 0x20 ADD JUMPDEST PUSH2 0x2283 PUSH2 0x30AE JUMP JUMPDEST DUP2 MSTORE PUSH1 0x20 ADD SWAP1 PUSH1 0x1 SWAP1 SUB SWAP1 DUP2 PUSH2 0x227B JUMPI SWAP1 POP JUMPDEST POP SWAP1 POP PUSH1 0x0 JUMPDEST DUP2 MLOAD DUP2 LT ISZERO PUSH2 0x23A2 JUMPI PUSH1 0x0 DUP2 ISZERO PUSH2 0x22CB JUMPI PUSH1 0x1 PUSH1 0x1 PUSH1 0xA0 SHL SUB DUP5 AND PUSH1 0x0 SWAP1 DUP2 MSTORE PUSH1 0xA PUSH1 0x20 MSTORE PUSH1 0x40 SWAP1 KECCAK256 SLOAD PUSH2 0x22E8 JUMP JUMPDEST PUSH1 0x1 PUSH1 0x1 PUSH1 0xA0 SHL SUB DUP5 AND PUSH1 0x0 SWAP1 DUP2 MSTORE PUSH1 0xA PUSH1 0x20 MSTORE PUSH1 0x40 SWAP1 KECCAK256 PUSH1 0x2 ADD SLOAD JUMPDEST SWAP1 POP PUSH1 0x0 DUP3 ISZERO PUSH2 0x22FA JUMPI PUSH1 0x8 SLOAD PUSH2 0x22FE JUMP JUMPDEST PUSH1 0x9 SLOAD JUMPDEST SWAP1 POP PUSH1 0x2 DUP4 DUP2 SLOAD DUP2 LT PUSH2 0x230D JUMPI INVALID JUMPDEST SWAP1 PUSH1 0x0 MSTORE PUSH1 0x20 PUSH1 0x0 KECCAK256 ADD PUSH1 0x0 SWAP1 SLOAD SWAP1 PUSH2 0x100 EXP SWAP1 DIV PUSH1 0x1 PUSH1 0x1 PUSH1 0xA0 SHL SUB AND DUP5 DUP5 DUP2 MLOAD DUP2 LT PUSH2 0x2337 JUMPI INVALID JUMPDEST PUSH1 0x20 MUL PUSH1 0x20 ADD ADD MLOAD PUSH1 0x0 ADD SWAP1 PUSH1 0x1 PUSH1 0x1 PUSH1 0xA0 SHL SUB AND SWAP1 DUP2 PUSH1 0x1 PUSH1 0x1 PUSH1 0xA0 SHL SUB AND DUP2 MSTORE POP POP PUSH2 0x237E DUP6 DUP6 DUP6 DUP2 MLOAD DUP2 LT PUSH2 0x236B JUMPI INVALID JUMPDEST PUSH1 0x20 MUL PUSH1 0x20 ADD ADD MLOAD PUSH1 0x0 ADD MLOAD DUP5 DUP5 PUSH2 0x2AF6 JUMP JUMPDEST DUP5 DUP5 DUP2 MLOAD DUP2 LT PUSH2 0x238A JUMPI INVALID JUMPDEST PUSH1 0x20 SWAP1 DUP2 MUL SWAP2 SWAP1 SWAP2 ADD DUP2 ADD MLOAD ADD MSTORE POP POP PUSH1 0x1 ADD PUSH2 0x229C JUMP JUMPDEST POP SWAP2 SWAP1 POP JUMP JUMPDEST PUSH1 0x1 PUSH1 0x1 PUSH1 0xA0 SHL SUB DUP2 AND PUSH1 0x0 SWAP1 DUP2 MSTORE PUSH1 0xC PUSH1 0x20 MSTORE PUSH1 0x40 DUP2 KECCAK256 PUSH1 0x60 SWAP1 DUP3 DUP1 JUMPDEST DUP3 SLOAD DUP2 LT ISZERO PUSH2 0x24C4 JUMPI TIMESTAMP DUP4 DUP3 DUP2 SLOAD DUP2 LT PUSH2 0x23DC JUMPI INVALID JUMPDEST SWAP1 PUSH1 0x0 MSTORE PUSH1 0x20 PUSH1 0x0 KECCAK256 SWAP1 PUSH1 0x2 MUL ADD PUSH1 0x1 ADD SLOAD GT ISZERO PUSH2 0x24BC JUMPI DUP2 PUSH2 0x2452 JUMPI DUP3 SLOAD DUP2 SWAP1 SUB PUSH8 0xFFFFFFFFFFFFFFFF DUP2 GT DUP1 ISZERO PUSH2 0x2414 JUMPI PUSH1 0x0 DUP1 REVERT JUMPDEST POP PUSH1 0x40 MLOAD SWAP1 DUP1 DUP3 MSTORE DUP1 PUSH1 0x20 MUL PUSH1 0x20 ADD DUP3 ADD PUSH1 0x40 MSTORE DUP1 ISZERO PUSH2 0x244E JUMPI DUP2 PUSH1 0x20 ADD JUMPDEST PUSH2 0x243B PUSH2 0x3070 JUMP JUMPDEST DUP2 MSTORE PUSH1 0x20 ADD SWAP1 PUSH1 0x1 SWAP1 SUB SWAP1 DUP2 PUSH2 0x2433 JUMPI SWAP1 POP JUMPDEST POP SWAP4 POP JUMPDEST DUP3 DUP2 DUP2 SLOAD DUP2 LT PUSH2 0x245E JUMPI INVALID JUMPDEST SWAP1 PUSH1 0x0 MSTORE PUSH1 0x20 PUSH1 0x0 KECCAK256 SWAP1 PUSH1 0x2 MUL ADD PUSH1 0x40 MLOAD DUP1 PUSH1 0x40 ADD PUSH1 0x40 MSTORE SWAP1 DUP2 PUSH1 0x0 DUP3 ADD SLOAD DUP2 MSTORE PUSH1 0x20 ADD PUSH1 0x1 DUP3 ADD SLOAD DUP2 MSTORE POP POP DUP5 DUP4 DUP2 MLOAD DUP2 LT PUSH2 0x2497 JUMPI INVALID JUMPDEST PUSH1 0x20 MUL PUSH1 0x20 ADD ADD DUP2 SWAP1 MSTORE POP DUP2 DUP1 PUSH1 0x1 ADD SWAP3 POP POP PUSH2 0x24B9 DUP4 DUP3 DUP2 SLOAD DUP2 LT PUSH2 0x6DB JUMPI INVALID JUMPDEST SWAP5 POP JUMPDEST PUSH1 0x1 ADD PUSH2 0x23C6 JUMP JUMPDEST POP POP POP SWAP2 POP SWAP2 JUMP JUMPDEST PUSH1 0x7 PUSH1 0x20 SWAP1 DUP2 MSTORE PUSH1 0x0 SWAP3 DUP4 MSTORE PUSH1 0x40 DUP1 DUP5 KECCAK256 SWAP1 SWAP2 MSTORE SWAP1 DUP3 MSTORE SWAP1 KECCAK256 SLOAD DUP2 JUMP JUMPDEST PUSH1 0x9 SLOAD CALLER SWAP1 PUSH32 0x0 SWAP1 PUSH1 0x0 SWAP1 PUSH2 0x251D DUP4 DUP3 PUSH2 0x2A5F JUMP JUMPDEST PUSH1 0x1 PUSH1 0x1 PUSH1 0xA0 SHL SUB DUP5 AND PUSH1 0x0 SWAP1 DUP2 MSTORE PUSH1 0x3 PUSH1 0x20 DUP2 SWAP1 MSTORE PUSH1 0x40 SWAP1 SWAP2 KECCAK256 ADD SSTORE PUSH2 0x2543 DUP4 PUSH2 0x162D JUMP JUMPDEST PUSH1 0x1 PUSH1 0x1 PUSH1 0xA0 SHL SUB DUP1 DUP6 AND PUSH1 0x0 SWAP1 DUP2 MSTORE PUSH1 0x3 PUSH1 0x20 MSTORE PUSH1 0x40 SWAP1 KECCAK256 PUSH1 0x2 ADD SWAP2 SWAP1 SWAP2 SSTORE DUP5 AND ISZERO PUSH2 0x25EE JUMPI PUSH1 0x1 PUSH1 0x1 PUSH1 0xA0 SHL SUB DUP5 AND PUSH1 0x0 SWAP1 DUP2 MSTORE PUSH1 0xA PUSH1 0x20 MSTORE PUSH1 0x40 SWAP1 KECCAK256 PUSH1 0x2 ADD SLOAD PUSH2 0x2594 SWAP1 DUP6 SWAP1 DUP6 SWAP1 DUP5 PUSH2 0x2AF6 JUMP JUMPDEST PUSH1 0x1 PUSH1 0x1 PUSH1 0xA0 SHL SUB DUP1 DUP7 AND PUSH1 0x0 DUP2 DUP2 MSTORE PUSH1 0x7 PUSH1 0x20 SWAP1 DUP2 MSTORE PUSH1 0x40 DUP1 DUP4 KECCAK256 SWAP5 DUP10 AND DUP1 DUP5 MSTORE SWAP5 DUP3 MSTORE DUP1 DUP4 KECCAK256 SWAP6 SWAP1 SWAP6 SSTORE PUSH1 0x3 DUP1 DUP3 MSTORE DUP6 DUP4 KECCAK256 ADD SLOAD DUP4 DUP4 MSTORE PUSH1 0x6 DUP3 MSTORE DUP6 DUP4 KECCAK256 SWAP5 DUP4 MSTORE SWAP4 DUP2 MSTORE DUP5 DUP3 KECCAK256 SWAP4 SWAP1 SWAP4 SSTORE SWAP1 DUP2 MSTORE PUSH1 0xA SWAP1 SWAP2 MSTORE KECCAK256 SLOAD SWAP2 POP JUMPDEST POP PUSH1 0x8 SLOAD PUSH1 0x1 JUMPDEST PUSH1 0x2 SLOAD DUP2 LT ISZERO PUSH2 0x26DA JUMPI PUSH1 0x2 DUP2 DUP2 SLOAD DUP2 LT PUSH2 0x260C JUMPI INVALID JUMPDEST PUSH1 0x0 SWAP2 DUP3 MSTORE PUSH1 0x20 SWAP1 SWAP2 KECCAK256 ADD SLOAD PUSH1 0x1 PUSH1 0x1 PUSH1 0xA0 SHL SUB AND SWAP4 POP PUSH2 0x262D DUP5 DUP4 PUSH2 0x2A5F JUMP JUMPDEST PUSH1 0x1 PUSH1 0x1 PUSH1 0xA0 SHL SUB DUP6 AND PUSH1 0x0 SWAP1 DUP2 MSTORE PUSH1 0x3 PUSH1 0x20 DUP2 SWAP1 MSTORE PUSH1 0x40 SWAP1 SWAP2 KECCAK256 ADD SSTORE PUSH2 0x2653 DUP5 PUSH2 0x162D JUMP JUMPDEST PUSH1 0x1 PUSH1 0x1 PUSH1 0xA0 SHL SUB DUP1 DUP7 AND PUSH1 0x0 SWAP1 DUP2 MSTORE PUSH1 0x3 PUSH1 0x20 MSTORE PUSH1 0x40 SWAP1 KECCAK256 PUSH1 0x2 ADD SWAP2 SWAP1 SWAP2 SSTORE DUP6 AND ISZERO PUSH2 0x26D2 JUMPI PUSH2 0x2686 DUP6 DUP6 DUP6 DUP6 PUSH2 0x2AF6 JUMP JUMPDEST PUSH1 0x1 PUSH1 0x1 PUSH1 0xA0 SHL SUB DUP1 DUP8 AND PUSH1 0x0 DUP2 DUP2 MSTORE PUSH1 0x7 PUSH1 0x20 SWAP1 DUP2 MSTORE PUSH1 0x40 DUP1 DUP4 KECCAK256 SWAP5 DUP11 AND DUP1 DUP5 MSTORE SWAP5 DUP3 MSTORE DUP1 DUP4 KECCAK256 SWAP6 SWAP1 SWAP6 SSTORE PUSH1 0x3 DUP1 DUP3 MSTORE DUP6 DUP4 KECCAK256 ADD SLOAD SWAP3 DUP3 MSTORE PUSH1 0x6 DUP2 MSTORE DUP5 DUP3 KECCAK256 SWAP4 DUP3 MSTORE SWAP3 SWAP1 SWAP3 MSTORE SWAP2 SWAP1 KECCAK256 SSTORE JUMPDEST PUSH1 0x1 ADD PUSH2 0x25F5 JUMP JUMPDEST POP PUSH1 0x0 DUP1 PUSH2 0x26E7 CALLER PUSH2 0x480 JUMP JUMPDEST CALLER PUSH1 0x0 SWAP1 DUP2 MSTORE PUSH1 0xC PUSH1 0x20 MSTORE PUSH1 0x40 DUP2 KECCAK256 SWAP3 SWAP5 POP SWAP1 SWAP3 POP PUSH2 0x2706 SWAP2 SWAP1 PUSH2 0x308A JUMP JUMPDEST CALLER PUSH1 0x0 SWAP1 DUP2 MSTORE PUSH1 0xA PUSH1 0x20 MSTORE PUSH1 0x40 SWAP1 KECCAK256 PUSH1 0x3 DUP2 ADD SLOAD PUSH1 0x1 DUP3 ADD SLOAD DUP3 SLOAD PUSH2 0x2730 SWAP3 SWAP2 PUSH2 0x5B1 SWAP2 SWAP1 PUSH2 0x299B JUMP JUMPDEST DUP2 SSTORE PUSH1 0x0 PUSH1 0x1 DUP3 ADD DUP2 SWAP1 SSTORE PUSH1 0x3 DUP3 ADD SSTORE PUSH2 0x2756 PUSH2 0x274D DUP5 DUP5 PUSH2 0x2941 JUMP JUMPDEST PUSH1 0x8 SLOAD SWAP1 PUSH2 0x299B JUMP JUMPDEST PUSH1 0x8 SSTORE PUSH2 0x278D PUSH1 0x1 PUSH1 0x1 PUSH1 0xA0 SHL SUB PUSH32 0x0 AND CALLER DUP6 PUSH2 0x2BC1 JUMP JUMPDEST DUP2 ISZERO PUSH2 0x27BD JUMPI PUSH2 0x27BD PUSH32 0x0 DUP4 PUSH2 0x2C18 JUMP JUMPDEST PUSH2 0x27C5 PUSH2 0xCE4 JUMP JUMPDEST POP POP POP POP POP POP POP JUMP JUMPDEST PUSH1 0x0 DUP1 PUSH32 0x0 PUSH1 0x1 PUSH1 0x1 PUSH1 0xA0 SHL SUB AND DUP4 PUSH1 0x1 PUSH1 0x1 PUSH1 0xA0 SHL SUB AND EQ PUSH2 0x2812 JUMPI PUSH1 0x8 SLOAD PUSH2 0x2816 JUMP JUMPDEST PUSH1 0x9 SLOAD JUMPDEST SWAP1 POP PUSH2 0x2822 DUP4 DUP3 PUSH2 0x2A5F JUMP JUMPDEST SWAP4 SWAP3 POP POP POP JUMP JUMPDEST PUSH2 0x2831 PUSH2 0x2D33 JUMP JUMPDEST PUSH1 0x1 PUSH1 0x1 PUSH1 0xA0 SHL SUB AND PUSH2 0x2842 PUSH2 0x1990 JUMP JUMPDEST PUSH1 0x1 PUSH1 0x1 PUSH1 0xA0 SHL SUB AND EQ PUSH2 0x288B JUMPI PUSH1 0x40 DUP1 MLOAD PUSH3 0x461BCD PUSH1 0xE5 SHL DUP2 MSTORE PUSH1 0x20 PUSH1 0x4 DUP3 ADD DUP2 SWAP1 MSTORE PUSH1 0x24 DUP3 ADD MSTORE PUSH1 0x0 DUP1 MLOAD PUSH1 0x20 PUSH2 0x3541 DUP4 CODECOPY DUP2 MLOAD SWAP2 MSTORE PUSH1 0x44 DUP3 ADD MSTORE SWAP1 MLOAD SWAP1 DUP2 SWAP1 SUB PUSH1 0x64 ADD SWAP1 REVERT JUMPDEST PUSH1 0x1 PUSH1 0x1 PUSH1 0xA0 SHL SUB DUP2 AND PUSH2 0x28D0 JUMPI PUSH1 0x40 MLOAD PUSH3 0x461BCD PUSH1 0xE5 SHL DUP2 MSTORE PUSH1 0x4 ADD DUP1 DUP1 PUSH1 0x20 ADD DUP3 DUP2 SUB DUP3 MSTORE PUSH1 0x26 DUP2 MSTORE PUSH1 0x20 ADD DUP1 PUSH2 0x34D4 PUSH1 0x26 SWAP2 CODECOPY PUSH1 0x40 ADD SWAP2 POP POP PUSH1 0x40 MLOAD DUP1 SWAP2 SUB SWAP1 REVERT JUMPDEST PUSH1 0x1 SLOAD PUSH1 0x40 MLOAD PUSH1 0x1 PUSH1 0x1 PUSH1 0xA0 SHL SUB DUP1 DUP5 AND SWAP3 AND SWAP1 PUSH32 0x8BE0079C531659141344CD1FD0A4F28419497F9722A3DAAFE3B4186F6B6457E0 SWAP1 PUSH1 0x0 SWAP1 LOG3 PUSH1 0x1 DUP1 SLOAD PUSH1 0x1 PUSH1 0x1 PUSH1 0xA0 SHL SUB NOT AND PUSH1 0x1 PUSH1 0x1 PUSH1 0xA0 SHL SUB SWAP3 SWAP1 SWAP3 AND SWAP2 SWAP1 SWAP2 OR SWAP1 SSTORE JUMP JUMPDEST PUSH1 0x4 PUSH1 0x20 MSTORE PUSH1 0x0 SWAP1 DUP2 MSTORE PUSH1 0x40 SWAP1 KECCAK256 SLOAD PUSH1 0xFF AND DUP2 JUMP JUMPDEST PUSH1 0x0 DUP3 DUP3 ADD DUP4 DUP2 LT ISZERO PUSH2 0x2822 JUMPI PUSH1 0x40 DUP1 MLOAD PUSH3 0x461BCD PUSH1 0xE5 SHL DUP2 MSTORE PUSH1 0x20 PUSH1 0x4 DUP3 ADD MSTORE PUSH1 0x1B PUSH1 0x24 DUP3 ADD MSTORE PUSH32 0x536166654D6174683A206164646974696F6E206F766572666C6F770000000000 PUSH1 0x44 DUP3 ADD MSTORE SWAP1 MLOAD SWAP1 DUP2 SWAP1 SUB PUSH1 0x64 ADD SWAP1 REVERT JUMPDEST PUSH1 0x0 DUP3 DUP3 GT ISZERO PUSH2 0x29F2 JUMPI PUSH1 0x40 DUP1 MLOAD PUSH3 0x461BCD PUSH1 0xE5 SHL DUP2 MSTORE PUSH1 0x20 PUSH1 0x4 DUP3 ADD MSTORE PUSH1 0x1E PUSH1 0x24 DUP3 ADD MSTORE PUSH32 0x536166654D6174683A207375627472616374696F6E206F766572666C6F770000 PUSH1 0x44 DUP3 ADD MSTORE SWAP1 MLOAD SWAP1 DUP2 SWAP1 SUB PUSH1 0x64 ADD SWAP1 REVERT JUMPDEST POP SWAP1 SUB SWAP1 JUMP JUMPDEST PUSH1 0x0 DUP1 DUP3 GT PUSH2 0x2A4E JUMPI PUSH1 0x40 DUP1 MLOAD PUSH3 0x461BCD PUSH1 0xE5 SHL DUP2 MSTORE PUSH1 0x20 PUSH1 0x4 DUP3 ADD MSTORE PUSH1 0x1A PUSH1 0x24 DUP3 ADD MSTORE PUSH32 0x536166654D6174683A206469766973696F6E206279207A65726F000000000000 PUSH1 0x44 DUP3 ADD MSTORE SWAP1 MLOAD SWAP1 DUP2 SWAP1 SUB PUSH1 0x64 ADD SWAP1 REVERT JUMPDEST DUP2 DUP4 DUP2 PUSH2 0x2A57 JUMPI INVALID JUMPDEST DIV SWAP4 SWAP3 POP POP POP JUMP JUMPDEST PUSH1 0x0 DUP2 PUSH2 0x2A89 JUMPI POP PUSH1 0x1 PUSH1 0x1 PUSH1 0xA0 SHL SUB DUP3 AND PUSH1 0x0 SWAP1 DUP2 MSTORE PUSH1 0x3 PUSH1 0x20 DUP2 SWAP1 MSTORE PUSH1 0x40 SWAP1 SWAP2 KECCAK256 ADD SLOAD PUSH2 0x1651 JUMP JUMPDEST PUSH1 0x1 PUSH1 0x1 PUSH1 0xA0 SHL SUB DUP4 AND PUSH1 0x0 SWAP1 DUP2 MSTORE PUSH1 0x3 PUSH1 0x20 MSTORE PUSH1 0x40 SWAP1 KECCAK256 PUSH1 0x1 DUP2 ADD SLOAD PUSH1 0x2 SWAP1 SWAP2 ADD SLOAD PUSH2 0x2822 SWAP2 PUSH2 0x2AD3 SWAP2 DUP6 SWAP2 PUSH2 0x587 SWAP2 PUSH8 0xDE0B6B3A7640000 SWAP2 PUSH2 0x139B SWAP2 DUP3 SWAP1 PUSH2 0x5B1 DUP13 PUSH2 0x162D JUMP JUMPDEST PUSH1 0x1 PUSH1 0x1 PUSH1 0xA0 SHL SUB DUP6 AND PUSH1 0x0 SWAP1 DUP2 MSTORE PUSH1 0x3 PUSH1 0x20 DUP2 SWAP1 MSTORE PUSH1 0x40 SWAP1 SWAP2 KECCAK256 ADD SLOAD SWAP1 PUSH2 0x2941 JUMP JUMPDEST PUSH1 0x1 PUSH1 0x1 PUSH1 0xA0 SHL SUB DUP1 DUP6 AND PUSH1 0x0 DUP2 DUP2 MSTORE PUSH1 0x7 PUSH1 0x20 SWAP1 DUP2 MSTORE PUSH1 0x40 DUP1 DUP4 KECCAK256 SWAP5 DUP9 AND DUP1 DUP5 MSTORE SWAP5 DUP3 MSTORE DUP1 DUP4 KECCAK256 SLOAD SWAP4 DUP4 MSTORE PUSH1 0x6 DUP3 MSTORE DUP1 DUP4 KECCAK256 SWAP5 DUP4 MSTORE SWAP4 SWAP1 MSTORE SWAP2 DUP3 KECCAK256 SLOAD PUSH2 0x2B5F SWAP2 SWAP1 PUSH2 0x13A1 SWAP1 PUSH8 0xDE0B6B3A7640000 SWAP1 PUSH2 0x587 SWAP1 PUSH2 0x2B58 SWAP1 PUSH2 0x5B1 DUP12 DUP11 PUSH2 0x2A5F JUMP JUMPDEST DUP9 SWAP1 PUSH2 0x2B68 JUMP JUMPDEST SWAP6 SWAP5 POP POP POP POP POP JUMP JUMPDEST PUSH1 0x0 DUP3 PUSH2 0x2B77 JUMPI POP PUSH1 0x0 PUSH2 0x1651 JUMP JUMPDEST DUP3 DUP3 MUL DUP3 DUP5 DUP3 DUP2 PUSH2 0x2B84 JUMPI INVALID JUMPDEST DIV EQ PUSH2 0x2822 JUMPI PUSH1 0x40 MLOAD PUSH3 0x461BCD PUSH1 0xE5 SHL DUP2 MSTORE PUSH1 0x4 ADD DUP1 DUP1 PUSH1 0x20 ADD DUP3 DUP2 SUB DUP3 MSTORE PUSH1 0x21 DUP2 MSTORE PUSH1 0x20 ADD DUP1 PUSH2 0x3520 PUSH1 0x21 SWAP2 CODECOPY PUSH1 0x40 ADD SWAP2 POP POP PUSH1 0x40 MLOAD DUP1 SWAP2 SUB SWAP1 REVERT JUMPDEST PUSH1 0x40 DUP1 MLOAD PUSH1 0x1 PUSH1 0x1 PUSH1 0xA0 SHL SUB DUP5 AND PUSH1 0x24 DUP3 ADD MSTORE PUSH1 0x44 DUP1 DUP3 ADD DUP5 SWAP1 MSTORE DUP3 MLOAD DUP1 DUP4 SUB SWAP1 SWAP2 ADD DUP2 MSTORE PUSH1 0x64 SWAP1 SWAP2 ADD SWAP1 SWAP2 MSTORE PUSH1 0x20 DUP2 ADD DUP1 MLOAD PUSH1 0x1 PUSH1 0x1 PUSH1 0xE0 SHL SUB AND PUSH4 0xA9059CBB PUSH1 0xE0 SHL OR SWAP1 MSTORE PUSH2 0x2C13 SWAP1 DUP5 SWAP1 PUSH2 0x2DA3 JUMP JUMPDEST POP POP POP JUMP JUMPDEST PUSH1 0x1 PUSH1 0x1 PUSH1 0xA0 SHL SUB DUP3 AND PUSH1 0x0 SWAP1 DUP2 MSTORE PUSH1 0x3 PUSH1 0x20 MSTORE PUSH1 0x40 SWAP1 KECCAK256 SLOAD TIMESTAMP LT PUSH2 0x2C65 JUMPI PUSH2 0x2C44 DUP2 PUSH3 0x93A80 PUSH2 0x29F8 JUMP JUMPDEST PUSH1 0x1 PUSH1 0x1 PUSH1 0xA0 SHL SUB DUP4 AND PUSH1 0x0 SWAP1 DUP2 MSTORE PUSH1 0x3 PUSH1 0x20 MSTORE PUSH1 0x40 SWAP1 KECCAK256 PUSH1 0x1 ADD SSTORE PUSH2 0x2CE5 JUMP JUMPDEST PUSH1 0x1 PUSH1 0x1 PUSH1 0xA0 SHL SUB DUP3 AND PUSH1 0x0 SWAP1 DUP2 MSTORE PUSH1 0x3 PUSH1 0x20 MSTORE PUSH1 0x40 DUP2 KECCAK256 SLOAD PUSH2 0x2C88 SWAP1 TIMESTAMP PUSH2 0x299B JUMP JUMPDEST PUSH1 0x1 PUSH1 0x1 PUSH1 0xA0 SHL SUB DUP5 AND PUSH1 0x0 SWAP1 DUP2 MSTORE PUSH1 0x3 PUSH1 0x20 MSTORE PUSH1 0x40 DUP2 KECCAK256 PUSH1 0x1 ADD SLOAD SWAP2 SWAP3 POP SWAP1 PUSH2 0x2CB3 SWAP1 DUP4 SWAP1 PUSH2 0x2B68 JUMP JUMPDEST SWAP1 POP PUSH2 0x2CC6 PUSH3 0x93A80 PUSH2 0x587 DUP6 DUP5 PUSH2 0x2941 JUMP JUMPDEST PUSH1 0x1 PUSH1 0x1 PUSH1 0xA0 SHL SUB DUP6 AND PUSH1 0x0 SWAP1 DUP2 MSTORE PUSH1 0x3 PUSH1 0x20 MSTORE PUSH1 0x40 SWAP1 KECCAK256 PUSH1 0x1 ADD SSTORE POP POP JUMPDEST PUSH1 0x1 PUSH1 0x1 PUSH1 0xA0 SHL SUB DUP3 AND PUSH1 0x0 SWAP1 DUP2 MSTORE PUSH1 0x3 PUSH1 0x20 MSTORE PUSH1 0x40 SWAP1 KECCAK256 TIMESTAMP PUSH1 0x2 SWAP1 SWAP2 ADD DUP2 SWAP1 SSTORE PUSH2 0x2D13 SWAP1 PUSH3 0x93A80 PUSH2 0x2941 JUMP JUMPDEST PUSH1 0x1 PUSH1 0x1 PUSH1 0xA0 SHL SUB SWAP1 SWAP3 AND PUSH1 0x0 SWAP1 DUP2 MSTORE PUSH1 0x3 PUSH1 0x20 MSTORE PUSH1 0x40 SWAP1 KECCAK256 SWAP2 SWAP1 SWAP2 SSTORE POP JUMP JUMPDEST CALLER SWAP1 JUMP JUMPDEST PUSH1 0x0 DUP2 DUP4 LT PUSH2 0x2D46 JUMPI DUP2 PUSH2 0x2822 JUMP JUMPDEST POP SWAP1 SWAP2 SWAP1 POP JUMP JUMPDEST PUSH1 0x40 DUP1 MLOAD PUSH1 0x1 PUSH1 0x1 PUSH1 0xA0 SHL SUB DUP1 DUP7 AND PUSH1 0x24 DUP4 ADD MSTORE DUP5 AND PUSH1 0x44 DUP3 ADD MSTORE PUSH1 0x64 DUP1 DUP3 ADD DUP5 SWAP1 MSTORE DUP3 MLOAD DUP1 DUP4 SUB SWAP1 SWAP2 ADD DUP2 MSTORE PUSH1 0x84 SWAP1 SWAP2 ADD SWAP1 SWAP2 MSTORE PUSH1 0x20 DUP2 ADD DUP1 MLOAD PUSH1 0x1 PUSH1 0x1 PUSH1 0xE0 SHL SUB AND PUSH4 0x23B872DD PUSH1 0xE0 SHL OR SWAP1 MSTORE PUSH2 0x1AF6 SWAP1 DUP6 SWAP1 JUMPDEST PUSH1 0x0 PUSH2 0x2DF8 DUP3 PUSH1 0x40 MLOAD DUP1 PUSH1 0x40 ADD PUSH1 0x40 MSTORE DUP1 PUSH1 0x20 DUP2 MSTORE PUSH1 0x20 ADD PUSH32 0x5361666545524332303A206C6F772D6C6576656C2063616C6C206661696C6564 DUP2 MSTORE POP DUP6 PUSH1 0x1 PUSH1 0x1 PUSH1 0xA0 SHL SUB AND PUSH2 0x2E54 SWAP1 SWAP3 SWAP2 SWAP1 PUSH4 0xFFFFFFFF AND JUMP JUMPDEST DUP1 MLOAD SWAP1 SWAP2 POP ISZERO PUSH2 0x2C13 JUMPI DUP1 DUP1 PUSH1 0x20 ADD SWAP1 MLOAD PUSH1 0x20 DUP2 LT ISZERO PUSH2 0x2E17 JUMPI PUSH1 0x0 DUP1 REVERT JUMPDEST POP MLOAD PUSH2 0x2C13 JUMPI PUSH1 0x40 MLOAD PUSH3 0x461BCD PUSH1 0xE5 SHL DUP2 MSTORE PUSH1 0x4 ADD DUP1 DUP1 PUSH1 0x20 ADD DUP3 DUP2 SUB DUP3 MSTORE PUSH1 0x2A DUP2 MSTORE PUSH1 0x20 ADD DUP1 PUSH2 0x3561 PUSH1 0x2A SWAP2 CODECOPY PUSH1 0x40 ADD SWAP2 POP POP PUSH1 0x40 MLOAD DUP1 SWAP2 SUB SWAP1 REVERT JUMPDEST PUSH1 0x60 PUSH2 0x2E63 DUP5 DUP5 PUSH1 0x0 DUP6 PUSH2 0x2E6B JUMP JUMPDEST SWAP5 SWAP4 POP POP POP POP JUMP JUMPDEST PUSH1 0x60 DUP3 SELFBALANCE LT ISZERO PUSH2 0x2EAC JUMPI PUSH1 0x40 MLOAD PUSH3 0x461BCD PUSH1 0xE5 SHL DUP2 MSTORE PUSH1 0x4 ADD DUP1 DUP1 PUSH1 0x20 ADD DUP3 DUP2 SUB DUP3 MSTORE PUSH1 0x26 DUP2 MSTORE PUSH1 0x20 ADD DUP1 PUSH2 0x34FA PUSH1 0x26 SWAP2 CODECOPY PUSH1 0x40 ADD SWAP2 POP POP PUSH1 0x40 MLOAD DUP1 SWAP2 SUB SWAP1 REVERT JUMPDEST PUSH2 0x2EB5 DUP6 PUSH2 0x2FC6 JUMP JUMPDEST PUSH2 0x2F06 JUMPI PUSH1 0x40 DUP1 MLOAD PUSH3 0x461BCD PUSH1 0xE5 SHL DUP2 MSTORE PUSH1 0x20 PUSH1 0x4 DUP3 ADD MSTORE PUSH1 0x1D PUSH1 0x24 DUP3 ADD MSTORE PUSH32 0x416464726573733A2063616C6C20746F206E6F6E2D636F6E7472616374000000 PUSH1 0x44 DUP3 ADD MSTORE SWAP1 MLOAD SWAP1 DUP2 SWAP1 SUB PUSH1 0x64 ADD SWAP1 REVERT JUMPDEST PUSH1 0x0 DUP1 DUP7 PUSH1 0x1 PUSH1 0x1 PUSH1 0xA0 SHL SUB AND DUP6 DUP8 PUSH1 0x40 MLOAD DUP1 DUP3 DUP1 MLOAD SWAP1 PUSH1 0x20 ADD SWAP1 DUP1 DUP4 DUP4 JUMPDEST PUSH1 0x20 DUP4 LT PUSH2 0x2F44 JUMPI DUP1 MLOAD DUP3 MSTORE PUSH1 0x1F NOT SWAP1 SWAP3 ADD SWAP2 PUSH1 0x20 SWAP2 DUP3 ADD SWAP2 ADD PUSH2 0x2F25 JUMP JUMPDEST PUSH1 0x1 DUP4 PUSH1 0x20 SUB PUSH2 0x100 EXP SUB DUP1 NOT DUP3 MLOAD AND DUP2 DUP5 MLOAD AND DUP1 DUP3 OR DUP6 MSTORE POP POP POP POP POP POP SWAP1 POP ADD SWAP2 POP POP PUSH1 0x0 PUSH1 0x40 MLOAD DUP1 DUP4 SUB DUP2 DUP6 DUP8 GAS CALL SWAP3 POP POP POP RETURNDATASIZE DUP1 PUSH1 0x0 DUP2 EQ PUSH2 0x2FA6 JUMPI PUSH1 0x40 MLOAD SWAP2 POP PUSH1 0x1F NOT PUSH1 0x3F RETURNDATASIZE ADD AND DUP3 ADD PUSH1 0x40 MSTORE RETURNDATASIZE DUP3 MSTORE RETURNDATASIZE PUSH1 0x0 PUSH1 0x20 DUP5 ADD RETURNDATACOPY PUSH2 0x2FAB JUMP JUMPDEST PUSH1 0x60 SWAP2 POP JUMPDEST POP SWAP2 POP SWAP2 POP PUSH2 0x2FBB DUP3 DUP3 DUP7 PUSH2 0x2FCC JUMP JUMPDEST SWAP8 SWAP7 POP POP POP POP POP POP POP JUMP JUMPDEST EXTCODESIZE ISZERO ISZERO SWAP1 JUMP JUMPDEST PUSH1 0x60 DUP4 ISZERO PUSH2 0x2FDB JUMPI POP DUP2 PUSH2 0x2822 JUMP JUMPDEST DUP3 MLOAD ISZERO PUSH2 0x2FEB JUMPI DUP3 MLOAD DUP1 DUP5 PUSH1 0x20 ADD REVERT JUMPDEST DUP2 PUSH1 0x40 MLOAD PUSH3 0x461BCD PUSH1 0xE5 SHL DUP2 MSTORE PUSH1 0x4 ADD DUP1 DUP1 PUSH1 0x20 ADD DUP3 DUP2 SUB DUP3 MSTORE DUP4 DUP2 DUP2 MLOAD DUP2 MSTORE PUSH1 0x20 ADD SWAP2 POP DUP1 MLOAD SWAP1 PUSH1 0x20 ADD SWAP1 DUP1 DUP4 DUP4 PUSH1 0x0 JUMPDEST DUP4 DUP2 LT ISZERO PUSH2 0x3035 JUMPI DUP2 DUP2 ADD MLOAD DUP4 DUP3 ADD MSTORE PUSH1 0x20 ADD PUSH2 0x301D JUMP JUMPDEST POP POP POP POP SWAP1 POP SWAP1 DUP2 ADD SWAP1 PUSH1 0x1F AND DUP1 ISZERO PUSH2 0x3062 JUMPI DUP1 DUP3 SUB DUP1 MLOAD PUSH1 0x1 DUP4 PUSH1 0x20 SUB PUSH2 0x100 EXP SUB NOT AND DUP2 MSTORE PUSH1 0x20 ADD SWAP2 POP JUMPDEST POP SWAP3 POP POP POP PUSH1 0x40 MLOAD DUP1 SWAP2 SUB SWAP1 REVERT JUMPDEST PUSH1 0x40 MLOAD DUP1 PUSH1 0x40 ADD PUSH1 0x40 MSTORE DUP1 PUSH1 0x0 DUP2 MSTORE PUSH1 0x20 ADD PUSH1 0x0 DUP2 MSTORE POP SWAP1 JUMP JUMPDEST POP DUP1 SLOAD PUSH1 0x0 DUP3 SSTORE PUSH1 0x2 MUL SWAP1 PUSH1 0x0 MSTORE PUSH1 0x20 PUSH1 0x0 KECCAK256 SWAP1 DUP2 ADD SWAP1 PUSH2 0x30AB SWAP2 SWAP1 PUSH2 0x30C5 JUMP JUMPDEST POP JUMP JUMPDEST PUSH1 0x40 DUP1 MLOAD DUP1 DUP3 ADD SWAP1 SWAP2 MSTORE PUSH1 0x0 DUP1 DUP3 MSTORE PUSH1 0x20 DUP3 ADD MSTORE SWAP1 JUMP JUMPDEST JUMPDEST DUP1 DUP3 GT ISZERO PUSH2 0x30E0 JUMPI PUSH1 0x0 DUP1 DUP3 SSTORE PUSH1 0x1 DUP3 ADD SSTORE PUSH1 0x2 ADD PUSH2 0x30C6 JUMP JUMPDEST POP SWAP1 JUMP JUMPDEST DUP1 CALLDATALOAD PUSH1 0x1 PUSH1 0x1 PUSH1 0xA0 SHL SUB DUP2 AND DUP2 EQ PUSH2 0x1628 JUMPI PUSH1 0x0 DUP1 REVERT JUMPDEST PUSH1 0x0 PUSH1 0x20 DUP3 DUP5 SUB SLT ISZERO PUSH2 0x310C JUMPI DUP1 DUP2 REVERT JUMPDEST PUSH2 0x2822 DUP3 PUSH2 0x30E4 JUMP JUMPDEST PUSH1 0x0 DUP1 PUSH1 0x40 DUP4 DUP6 SUB SLT ISZERO PUSH2 0x3127 JUMPI DUP1 DUP2 REVERT JUMPDEST PUSH2 0x3130 DUP4 PUSH2 0x30E4 JUMP JUMPDEST SWAP2 POP PUSH2 0x313E PUSH1 0x20 DUP5 ADD PUSH2 0x30E4 JUMP JUMPDEST SWAP1 POP SWAP3 POP SWAP3 SWAP1 POP JUMP JUMPDEST PUSH1 0x0 DUP1 PUSH1 0x0 PUSH1 0x60 DUP5 DUP7 SUB SLT ISZERO PUSH2 0x315B JUMPI DUP1 DUP2 REVERT JUMPDEST PUSH2 0x3164 DUP5 PUSH2 0x30E4 JUMP JUMPDEST SWAP3 POP PUSH2 0x3172 PUSH1 0x20 DUP6 ADD PUSH2 0x30E4 JUMP JUMPDEST SWAP2 POP PUSH1 0x40 DUP5 ADD CALLDATALOAD PUSH2 0x3182 DUP2 PUSH2 0x34C5 JUMP JUMPDEST DUP1 SWAP2 POP POP SWAP3 POP SWAP3 POP SWAP3 JUMP JUMPDEST PUSH1 0x0 DUP1 PUSH1 0x40 DUP4 DUP6 SUB SLT ISZERO PUSH2 0x319F JUMPI DUP2 DUP3 REVERT JUMPDEST PUSH2 0x31A8 DUP4 PUSH2 0x30E4 JUMP JUMPDEST SWAP5 PUSH1 0x20 SWAP4 SWAP1 SWAP4 ADD CALLDATALOAD SWAP4 POP POP POP JUMP JUMPDEST PUSH1 0x0 PUSH1 0x20 DUP3 DUP5 SUB SLT ISZERO PUSH2 0x31C7 JUMPI DUP1 DUP2 REVERT JUMPDEST DUP2 MLOAD PUSH2 0x2822 DUP2 PUSH2 0x34C5 JUMP JUMPDEST PUSH1 0x0 PUSH1 0x20 DUP3 DUP5 SUB SLT ISZERO PUSH2 0x31E3 JUMPI DUP1 DUP2 REVERT JUMPDEST POP CALLDATALOAD SWAP2 SWAP1 POP JUMP JUMPDEST PUSH1 0x0 DUP1 PUSH1 0x40 DUP4 DUP6 SUB SLT ISZERO PUSH2 0x31FC JUMPI DUP2 DUP3 REVERT JUMPDEST DUP3 CALLDATALOAD SWAP2 POP PUSH1 0x20 DUP4 ADD CALLDATALOAD PUSH2 0x320E DUP2 PUSH2 0x34C5 JUMP JUMPDEST DUP1 SWAP2 POP POP SWAP3 POP SWAP3 SWAP1 POP JUMP JUMPDEST PUSH1 0x0 DUP2 MLOAD DUP1 DUP5 MSTORE PUSH1 0x20 DUP1 DUP6 ADD SWAP5 POP DUP1 DUP5 ADD DUP4 JUMPDEST DUP4 DUP2 LT ISZERO PUSH2 0x3253 JUMPI DUP2 MLOAD DUP1 MLOAD DUP9 MSTORE DUP4 ADD MLOAD DUP4 DUP9 ADD MSTORE PUSH1 0x40 SWAP1 SWAP7 ADD SWAP6 SWAP1 DUP3 ADD SWAP1 PUSH1 0x1 ADD PUSH2 0x322C JUMP JUMPDEST POP SWAP5 SWAP6 SWAP5 POP POP POP POP POP JUMP JUMPDEST PUSH1 0x1 PUSH1 0x1 PUSH1 0xA0 SHL SUB SWAP2 SWAP1 SWAP2 AND DUP2 MSTORE PUSH1 0x20 ADD SWAP1 JUMP JUMPDEST PUSH1 0x1 PUSH1 0x1 PUSH1 0xA0 SHL SUB SWAP3 SWAP1 SWAP3 AND DUP3 MSTORE PUSH1 0x20 DUP3 ADD MSTORE PUSH1 0x40 ADD SWAP1 JUMP JUMPDEST PUSH1 0x20 DUP1 DUP3 MSTORE DUP3 MLOAD DUP3 DUP3 ADD DUP2 SWAP1 MSTORE PUSH1 0x0 SWAP2 SWAP1 PUSH1 0x40 SWAP1 DUP2 DUP6 ADD SWAP1 DUP7 DUP5 ADD DUP6 JUMPDEST DUP3 DUP2 LT ISZERO PUSH2 0x32D6 JUMPI DUP2 MLOAD DUP1 MLOAD PUSH1 0x1 PUSH1 0x1 PUSH1 0xA0 SHL SUB AND DUP6 MSTORE DUP7 ADD MLOAD DUP7 DUP6 ADD MSTORE SWAP3 DUP5 ADD SWAP3 SWAP1 DUP6 ADD SWAP1 PUSH1 0x1 ADD PUSH2 0x32A8 JUMP JUMPDEST POP SWAP2 SWAP8 SWAP7 POP POP POP POP POP POP POP JUMP JUMPDEST SWAP1 ISZERO ISZERO DUP2 MSTORE PUSH1 0x20 ADD SWAP1 JUMP JUMPDEST PUSH1 0x20 DUP1 DUP3 MSTORE PUSH1 0xE SWAP1 DUP3 ADD MSTORE PUSH14 0x43616E6E6F74207374616B65203 PUSH1 0x94 SHL PUSH1 0x40 DUP3 ADD MSTORE PUSH1 0x60 ADD SWAP1 JUMP JUMPDEST PUSH1 0x20 DUP1 DUP3 MSTORE PUSH1 0x22 SWAP1 DUP3 ADD MSTORE PUSH32 0x496E73756666696369656E742062616C616E63652061667465722070656E616C PUSH1 0x40 DUP3 ADD MSTORE PUSH2 0x7479 PUSH1 0xF0 SHL PUSH1 0x60 DUP3 ADD MSTORE PUSH1 0x80 ADD SWAP1 JUMP JUMPDEST PUSH1 0x20 DUP1 DUP3 MSTORE PUSH1 0x9 SWAP1 DUP3 ADD MSTORE PUSH9 0x139BC81C995DD85C99 PUSH1 0xBA SHL PUSH1 0x40 DUP3 ADD MSTORE PUSH1 0x60 ADD SWAP1 JUMP JUMPDEST PUSH1 0x20 DUP1 DUP3 MSTORE PUSH1 0x11 SWAP1 DUP3 ADD MSTORE PUSH17 0x43616E6E6F74207769746864726177203 PUSH1 0x7C SHL PUSH1 0x40 DUP3 ADD MSTORE PUSH1 0x60 ADD SWAP1 JUMP JUMPDEST PUSH1 0x20 DUP1 DUP3 MSTORE PUSH1 0x1D SWAP1 DUP3 ADD MSTORE PUSH32 0x43616E6E6F74207769746864726177207374616B696E6720746F6B656E000000 PUSH1 0x40 DUP3 ADD MSTORE PUSH1 0x60 ADD SWAP1 JUMP JUMPDEST PUSH1 0x20 DUP1 DUP3 MSTORE PUSH1 0x1D SWAP1 DUP3 ADD MSTORE PUSH32 0x496E73756666696369656E7420756E6C6F636B65642062616C616E6365000000 PUSH1 0x40 DUP3 ADD MSTORE PUSH1 0x60 ADD SWAP1 JUMP JUMPDEST PUSH1 0x20 DUP1 DUP3 MSTORE PUSH1 0x1C SWAP1 DUP3 ADD MSTORE PUSH32 0x43616E6E6F742077697468647261772072657761726420746F6B656E00000000 PUSH1 0x40 DUP3 ADD MSTORE PUSH1 0x60 ADD SWAP1 JUMP JUMPDEST SWAP1 DUP2 MSTORE PUSH1 0x20 ADD SWAP1 JUMP JUMPDEST PUSH1 0x0 DUP4 DUP3 MSTORE PUSH1 0x40 PUSH1 0x20 DUP4 ADD MSTORE PUSH2 0x2E63 PUSH1 0x40 DUP4 ADD DUP5 PUSH2 0x3219 JUMP JUMPDEST SWAP2 DUP3 MSTORE PUSH1 0x20 DUP3 ADD MSTORE PUSH1 0x40 ADD SWAP1 JUMP JUMPDEST PUSH1 0x0 DUP6 DUP3 MSTORE DUP5 PUSH1 0x20 DUP4 ADD MSTORE DUP4 PUSH1 0x40 DUP4 ADD MSTORE PUSH1 0x80 PUSH1 0x60 DUP4 ADD MSTORE PUSH2 0x34A0 PUSH1 0x80 DUP4 ADD DUP5 PUSH2 0x3219 JUMP JUMPDEST SWAP7 SWAP6 POP POP POP POP POP POP JUMP JUMPDEST SWAP4 DUP5 MSTORE PUSH1 0x20 DUP5 ADD SWAP3 SWAP1 SWAP3 MSTORE PUSH1 0x40 DUP4 ADD MSTORE PUSH1 0x60 DUP3 ADD MSTORE PUSH1 0x80 ADD SWAP1 JUMP JUMPDEST DUP1 ISZERO ISZERO DUP2 EQ PUSH2 0x30AB JUMPI PUSH1 0x0 DUP1 REVERT INVALID 0x4F PUSH24 0x6E61626C653A206E6577206F776E65722069732074686520 PUSH27 0x65726F2061646472657373416464726573733A20696E7375666669 PUSH4 0x69656E74 KECCAK256 PUSH3 0x616C61 PUSH15 0x636520666F722063616C6C53616665 0x4D PUSH2 0x7468 GASPRICE KECCAK256 PUSH14 0x756C7469706C69636174696F6E20 PUSH16 0x766572666C6F774F776E61626C653A20 PUSH4 0x616C6C65 PUSH19 0x206973206E6F7420746865206F776E65725361 PUSH7 0x6545524332303A KECCAK256 GASLIMIT MSTORE NUMBER ORIGIN ADDRESS KECCAK256 PUSH16 0x7065726174696F6E20646964206E6F74 KECCAK256 PUSH20 0x756363656564A2646970667358221220D7C470FE 0x2C DELEGATECALL 0xCF DUP10 0xB8 REVERT 0xC1 0xD7 SLOAD 0x23 ADD PUSH1 0xCD PUSH29 0x4853E576397869BE80E8776A1B9A64736F6C6343000706003300000000 ",
  "sha1": "e268f2a21e15a6ca486c6e0ebbbe400d0a1b3dd1",
  "source": "pragma solidity 0.7.6;\npragma abicoder v2;\n\nimport \"@openzeppelin/contracts/token/ERC20/IERC20.sol\";\nimport \"@openzeppelin/contracts/token/ERC20/SafeERC20.sol\";\nimport \"@openzeppelin/contracts/math/Math.sol\";\nimport \"@openzeppelin/contracts/math/SafeMath.sol\";\nimport \"@openzeppelin/contracts/access/Ownable.sol\";\nimport \"@openzeppelin/contracts/utils/ReentrancyGuard.sol\";\n\n\ninterface IMintableToken is IERC20 {\n    function mint(address _receiver, uint256 _amount) external returns (bool);\n}\n\n// EPS Staking contract for http://ellipsis.finance/\n// EPS staked within this contact entitles stakers to a portion of the admin fees generated by Ellipsis' AMM contracts\n// Based on SNX MultiRewards by iamdefinitelyahuman - https://github.com/iamdefinitelyahuman/multi-rewards\ncontract MultiFeeDistribution is ReentrancyGuard, Ownable {\n\n    using SafeMath for uint256;\n    using SafeERC20 for IERC20;\n    using SafeERC20 for IMintableToken;\n\n    /* ========== STATE VARIABLES ========== */\n\n    struct Reward {\n        uint256 periodFinish;\n        uint256 rewardRate;\n        uint256 lastUpdateTime;\n        uint256 rewardPerTokenStored;\n    }\n    struct Balances {\n        uint256 total;\n        uint256 unlocked;\n        uint256 locked;\n        uint256 earned;\n    }\n    struct LockedBalance {\n        uint256 amount;\n        uint256 unlockTime;\n    }\n    struct RewardData {\n        address token;\n        uint256 amount;\n    }\n\n    IMintableToken public immutable stakingToken;\n    address[] public rewardTokens;\n    mapping(address => Reward) public rewardData;\n\n    // Duration that rewards are streamed over\n    uint256 public constant rewardsDuration = 86400 * 7;\n\n    // Duration of lock/earned penalty period\n    uint256 public constant lockDuration = rewardsDuration * 13;\n\n    // Addresses approved to call mint\n    mapping(address => bool) public minters;\n    // reward token -> distributor -> is approved to add rewards\n    mapping(address=> mapping(address => bool)) public rewardDistributors;\n\n    // user -> reward token -> amount\n    mapping(address => mapping(address => uint256)) public userRewardPerTokenPaid;\n    mapping(address => mapping(address => uint256)) public rewards;\n\n    uint256 public totalSupply;\n    uint256 public lockedSupply;\n\n    // Private mappings for balance data\n    mapping(address => Balances) private balances;\n    mapping(address => LockedBalance[]) private userLocks;\n    mapping(address => LockedBalance[]) private userEarnings;\n\n    /* ========== CONSTRUCTOR ========== */\n\n    constructor(\n        address _stakingToken,\n        address[] memory _minters\n    ) Ownable() {\n        stakingToken = IMintableToken(_stakingToken);\n        for (uint i; i < _minters.length; i++) {\n            minters[_minters[i]] = true;\n        }\n        // First reward MUST be the staking token or things will break\n        // related to the 50% penalty and distribution to locked balances\n        rewardTokens.push(_stakingToken);\n        rewardData[_stakingToken].lastUpdateTime = block.timestamp;\n    }\n\n    /* ========== ADMIN CONFIGURATION ========== */\n\n    // Add a new reward token to be distributed to stakers\n    function addReward(\n        address _rewardsToken,\n        address _distributor\n    )\n        public\n        onlyOwner\n    {\n        require(rewardData[_rewardsToken].lastUpdateTime == 0);\n        rewardTokens.push(_rewardsToken);\n        rewardData[_rewardsToken].lastUpdateTime = block.timestamp;\n        rewardData[_rewardsToken].periodFinish = block.timestamp;\n        rewardDistributors[_rewardsToken][_distributor] = true;\n    }\n\n    // Modify approval for an address to call notifyRewardAmount\n    function approveRewardDistributor(\n        address _rewardsToken,\n        address _distributor,\n        bool _approved\n    ) external onlyOwner {\n        require(rewardData[_rewardsToken].lastUpdateTime > 0);\n        rewardDistributors[_rewardsToken][_distributor] = _approved;\n    }\n\n    /* ========== VIEWS ========== */\n\n    function _rewardPerToken(address _rewardsToken, uint256 _supply) internal view returns (uint256) {\n        if (_supply == 0) {\n            return rewardData[_rewardsToken].rewardPerTokenStored;\n        }\n        return\n            rewardData[_rewardsToken].rewardPerTokenStored.add(\n                lastTimeRewardApplicable(_rewardsToken).sub(\n                    rewardData[_rewardsToken].lastUpdateTime).mul(\n                        rewardData[_rewardsToken].rewardRate).mul(1e18).div(_supply)\n            );\n    }\n\n    function _earned(\n        address _user,\n        address _rewardsToken,\n        uint256 _balance,\n        uint256 supply\n    ) internal view returns (uint256) {\n        return _balance.mul(\n            _rewardPerToken(_rewardsToken, supply).sub(userRewardPerTokenPaid[_user][_rewardsToken])\n        ).div(1e18).add(rewards[_user][_rewardsToken]);\n    }\n\n    function lastTimeRewardApplicable(address _rewardsToken) public view returns (uint256) {\n        return Math.min(block.timestamp, rewardData[_rewardsToken].periodFinish);\n    }\n\n    function rewardPerToken(address _rewardsToken) external view returns (uint256) {\n        uint256 supply = _rewardsToken == address(stakingToken) ? lockedSupply : totalSupply;\n        return _rewardPerToken(_rewardsToken, supply);\n\n    }\n\n    function getRewardForDuration(address _rewardsToken) external view returns (uint256) {\n        return rewardData[_rewardsToken].rewardRate.mul(rewardsDuration);\n    }\n\n    // Address and claimable amount of all reward tokens for the given account\n    function claimableRewards(address account) external view returns (RewardData[] memory rewards) {\n        rewards = new RewardData[](rewardTokens.length);\n        for (uint256 i = 0; i < rewards.length; i++) {\n            // If i == 0 this is the stakingReward, distribution is based on locked balances\n            uint256 balance = i == 0 ? balances[account].locked : balances[account].total;\n            uint256 supply = i == 0 ? lockedSupply : totalSupply;\n            rewards[i].token = rewardTokens[i];\n            rewards[i].amount = _earned(account, rewards[i].token, balance, supply);\n        }\n        return rewards;\n    }\n\n    // Total balance of an account, including unlocked, locked and earned tokens\n    function totalBalance(address user) view external returns (uint256 amount) {\n        return balances[user].total;\n    }\n\n    // Total withdrawable balance for an account to which no penalty is applied\n    function unlockedBalance(address user) view external returns (uint256 amount) {\n        amount = balances[user].unlocked;\n        LockedBalance[] storage earnings = userEarnings[msg.sender];\n        for (uint i = 0; i < earnings.length; i++) {\n            if (earnings[i].unlockTime > block.timestamp) {\n                break;\n            }\n            amount = amount.add(earnings[i].amount);\n        }\n        return amount;\n    }\n\n    // Information on the \"earned\" balances of a user\n    // Earned balances may be withdrawn immediately for a 50% penalty\n    function earnedBalances(\n        address user\n    ) view external returns (\n        uint256 total,\n        LockedBalance[] memory earningsData\n    ) {\n        LockedBalance[] storage earnings = userEarnings[user];\n        uint256 idx;\n        for (uint i = 0; i < earnings.length; i++) {\n            if (earnings[i].unlockTime > block.timestamp) {\n                if (idx == 0) {\n                    earningsData = new LockedBalance[](earnings.length - i);\n                }\n                earningsData[idx] = earnings[i];\n                idx++;\n                total = total.add(earnings[i].amount);\n            }\n        }\n        return (total, earningsData);\n    }\n\n    // Information on a user's locked balances\n    function lockedBalances(\n        address user\n    ) view external returns (\n        uint256 total,\n        uint256 unlockable,\n        uint256 locked,\n        LockedBalance[] memory lockData\n    ) {\n        LockedBalance[] storage locks = userLocks[user];\n        uint256 idx;\n        for (uint i = 0; i < locks.length; i++) {\n            if (locks[i].unlockTime > block.timestamp) {\n                if (idx == 0) {\n                    lockData = new LockedBalance[](locks.length - i);\n                }\n                lockData[idx] = locks[i];\n                idx++;\n                locked = locked.add(locks[i].amount);\n            } else {\n                unlockable = unlockable.add(locks[i].amount);\n            }\n        }\n        return (balances[user].locked, unlockable, locked, lockData);\n    }\n\n    // Final balance received and penalty balance paid by user upon calling exit\n    function withdrawableBalance(\n        address user\n    ) view public returns (\n        uint256 amount,\n        uint256 penaltyAmount\n    ) {\n        Balances storage bal = balances[user];\n        if (bal.earned > 0) {\n            uint256 amountWithoutPenalty;\n            uint256 length = userEarnings[user].length;\n            for (uint i = 0; i < length; i++) {\n                uint256 earnedAmount = userEarnings[user][i].amount;\n                if (earnedAmount == 0) continue;\n                if (userEarnings[user][i].unlockTime > block.timestamp) {\n                    break;\n                }\n                amountWithoutPenalty = amountWithoutPenalty.add(earnedAmount);\n            }\n\n            penaltyAmount = bal.earned.sub(amountWithoutPenalty).div(2);\n        }\n        amount = bal.unlocked.add(bal.earned).sub(penaltyAmount);\n        return (amount, penaltyAmount);\n    }\n\n    /* ========== MUTATIVE FUNCTIONS ========== */\n\n    // Stake tokens to receive rewards\n    // Locked tokens cannot be withdrawn for lockDuration and are eligible to receive stakingReward rewards\n    function stake(uint256 amount, bool lock) external nonReentrant updateReward(msg.sender) {\n        require(amount > 0, \"Cannot stake 0\");\n        totalSupply = totalSupply.add(amount);\n        Balances storage bal = balances[msg.sender];\n        bal.total = bal.total.add(amount);\n        if (lock) {\n            lockedSupply = lockedSupply.add(amount);\n            bal.locked = bal.locked.add(amount);\n            uint256 unlockTime = block.timestamp.div(rewardsDuration).mul(rewardsDuration).add(lockDuration);\n            uint256 idx = userLocks[msg.sender].length;\n            if (idx == 0 || userLocks[msg.sender][idx-1].unlockTime < unlockTime) {\n                userLocks[msg.sender].push(LockedBalance({amount: amount, unlockTime: unlockTime}));\n            } else {\n                userLocks[msg.sender][idx-1].amount = userLocks[msg.sender][idx-1].amount.add(amount);\n            }\n        } else {\n            bal.unlocked = bal.unlocked.add(amount);\n        }\n        stakingToken.safeTransferFrom(msg.sender, address(this), amount);\n        emit Staked(msg.sender, amount);\n    }\n\n    // Mint new tokens\n    // Minted tokens receive rewards normally but incur a 50% penalty when\n    // withdrawn before lockDuration has passed.\n    function mint(address user, uint256 amount) external updateReward(user) {\n        require(minters[msg.sender]);\n        totalSupply = totalSupply.add(amount);\n        Balances storage bal = balances[user];\n        bal.total = bal.total.add(amount);\n        bal.earned = bal.earned.add(amount);\n        uint256 unlockTime = block.timestamp.div(rewardsDuration).mul(rewardsDuration).add(lockDuration);\n        LockedBalance[] storage earnings = userEarnings[user];\n        uint256 idx = earnings.length;\n\n        if (idx == 0 || earnings[idx-1].unlockTime < unlockTime) {\n            earnings.push(LockedBalance({amount: amount, unlockTime: unlockTime}));\n        } else {\n            earnings[idx-1].amount = earnings[idx-1].amount.add(amount);\n        }\n        stakingToken.mint(address(this), amount);\n        emit Staked(user, amount);\n    }\n\n    // Withdraw staked tokens\n    // First withdraws unlocked tokens, then earned tokens. Withdrawing earned tokens\n    // incurs a 50% penalty which is distributed based on locked balances.\n    function withdraw(uint256 amount) public nonReentrant updateReward(msg.sender) {\n        require(amount > 0, \"Cannot withdraw 0\");\n        Balances storage bal = balances[msg.sender];\n        uint256 penaltyAmount;\n\n        if (amount <= bal.unlocked) {\n            bal.unlocked = bal.unlocked.sub(amount);\n        } else {\n            uint256 remaining = amount.sub(bal.unlocked);\n            require(bal.earned >= remaining, \"Insufficient unlocked balance\");\n            bal.unlocked = 0;\n            bal.earned = bal.earned.sub(remaining);\n            for (uint i = 0; ; i++) {\n                uint256 earnedAmount = userEarnings[msg.sender][i].amount;\n                if (earnedAmount == 0) continue;\n                if (penaltyAmount == 0 && userEarnings[msg.sender][i].unlockTime > block.timestamp) {\n                    penaltyAmount = remaining;\n                    require(bal.earned >= remaining, \"Insufficient balance after penalty\");\n                    bal.earned = bal.earned.sub(remaining);\n                    if (bal.earned == 0) {\n                        delete userEarnings[msg.sender];\n                        break;\n                    }\n                    remaining = remaining.mul(2);\n                }\n                if (remaining <= earnedAmount) {\n                    userEarnings[msg.sender][i].amount = earnedAmount.sub(remaining);\n                    break;\n                } else {\n                    delete userEarnings[msg.sender][i];\n                    remaining = remaining.sub(earnedAmount);\n                }\n            }\n        }\n\n        uint256 adjustedAmount = amount.add(penaltyAmount);\n        bal.total = bal.total.sub(adjustedAmount);\n        totalSupply = totalSupply.sub(adjustedAmount);\n        stakingToken.safeTransfer(msg.sender, amount);\n        if (penaltyAmount > 0) {\n            _notifyReward(address(stakingToken), penaltyAmount);\n        }\n        emit Withdrawn(msg.sender, amount);\n    }\n\n    // Claim all pending staking rewards\n    function getReward() public nonReentrant updateReward(msg.sender) {\n        for (uint i; i < rewardTokens.length; i++) {\n            address _rewardsToken = rewardTokens[i];\n            uint256 reward = rewards[msg.sender][_rewardsToken];\n            if (reward > 0) {\n                rewards[msg.sender][_rewardsToken] = 0;\n                IERC20(_rewardsToken).safeTransfer(msg.sender, reward);\n                emit RewardPaid(msg.sender, _rewardsToken, reward);\n            }\n        }\n    }\n\n    // Withdraw full unlocked balance and claim pending rewards\n    function exit() external updateReward(msg.sender) {\n        (uint256 amount, uint256 penaltyAmount) = withdrawableBalance(msg.sender);\n        delete userEarnings[msg.sender];\n        Balances storage bal = balances[msg.sender];\n        bal.total = bal.total.sub(bal.unlocked).sub(bal.earned);\n        bal.unlocked = 0;\n        bal.earned = 0;\n\n        totalSupply = totalSupply.sub(amount.add(penaltyAmount));\n        stakingToken.safeTransfer(msg.sender, amount);\n        if (penaltyAmount > 0) {\n            _notifyReward(address(stakingToken), penaltyAmount);\n        }\n        getReward();\n    }\n\n    // Withdraw all currently locked tokens where the unlock time has passed\n    function withdrawExpiredLocks() external {\n        LockedBalance[] storage locks = userLocks[msg.sender];\n        Balances storage bal = balances[msg.sender];\n        uint256 amount;\n        uint256 length = locks.length;\n        if (locks[length-1].unlockTime <= block.timestamp) {\n            amount = bal.locked;\n            delete userLocks[msg.sender];\n        } else {\n            for (uint i = 0; i < length; i++) {\n                if (locks[i].unlockTime > block.timestamp) break;\n                amount = amount.add(locks[i].amount);\n                delete locks[i];\n            }\n        }\n        bal.locked = bal.locked.sub(amount);\n        bal.total = bal.total.sub(amount);\n        totalSupply = totalSupply.sub(amount);\n        lockedSupply = lockedSupply.sub(amount);\n        stakingToken.safeTransfer(msg.sender, amount);\n    }\n\n    /* ========== RESTRICTED FUNCTIONS ========== */\n\n    function _notifyReward(address _rewardsToken, uint256 reward) internal {\n        if (block.timestamp >= rewardData[_rewardsToken].periodFinish) {\n            rewardData[_rewardsToken].rewardRate = reward.div(rewardsDuration);\n        } else {\n            uint256 remaining = rewardData[_rewardsToken].periodFinish.sub(block.timestamp);\n            uint256 leftover = remaining.mul(rewardData[_rewardsToken].rewardRate);\n            rewardData[_rewardsToken].rewardRate = reward.add(leftover).div(rewardsDuration);\n        }\n\n        rewardData[_rewardsToken].lastUpdateTime = block.timestamp;\n        rewardData[_rewardsToken].periodFinish = block.timestamp.add(rewardsDuration);\n\n    }\n\n    function notifyRewardAmount(address _rewardsToken, uint256 reward) external updateReward(address(0)) {\n        require(rewardDistributors[_rewardsToken][msg.sender]);\n        require(reward > 0, \"No reward\");\n        // handle the transfer of reward tokens via `transferFrom` to reduce the number\n        // of transactions required and ensure correctness of the reward amount\n        IERC20(_rewardsToken).safeTransferFrom(msg.sender, address(this), reward);\n        _notifyReward(_rewardsToken, reward);\n        emit RewardAdded(reward);\n    }\n\n    // Added to support recovering LP Rewards from other systems such as BAL to be distributed to holders\n    function recoverERC20(address tokenAddress, uint256 tokenAmount) external onlyOwner {\n        require(tokenAddress != address(stakingToken), \"Cannot withdraw staking token\");\n        require(rewardData[tokenAddress].lastUpdateTime == 0, \"Cannot withdraw reward token\");\n        IERC20(tokenAddress).safeTransfer(owner(), tokenAmount);\n        emit Recovered(tokenAddress, tokenAmount);\n    }\n\n    /* ========== MODIFIERS ========== */\n\n    modifier updateReward(address account) {\n        address token = address(stakingToken);\n        uint256 balance;\n        uint256 supply = lockedSupply;\n        rewardData[token].rewardPerTokenStored = _rewardPerToken(token, supply);\n        rewardData[token].lastUpdateTime = lastTimeRewardApplicable(token);\n        if (account != address(0)) {\n            // Special case, use the locked balances and supply for stakingReward rewards\n            rewards[account][token] = _earned(account, token, balances[account].locked, supply);\n            userRewardPerTokenPaid[account][token] = rewardData[token].rewardPerTokenStored;\n            balance = balances[account].total;\n        }\n\n        supply = totalSupply;\n        for (uint i = 1; i < rewardTokens.length; i++) {\n            token = rewardTokens[i];\n            rewardData[token].rewardPerTokenStored = _rewardPerToken(token, supply);\n            rewardData[token].lastUpdateTime = lastTimeRewardApplicable(token);\n            if (account != address(0)) {\n                rewards[account][token] = _earned(account, token, balance, supply);\n                userRewardPerTokenPaid[account][token] = rewardData[token].rewardPerTokenStored;\n            }\n        }\n        _;\n    }\n\n    /* ========== EVENTS ========== */\n\n    event RewardAdded(uint256 reward);\n    event Staked(address indexed user, uint256 amount);\n    event Withdrawn(address indexed user, uint256 amount);\n    event RewardPaid(address indexed user, address indexed rewardsToken, uint256 reward);\n    event RewardsDurationUpdated(address token, uint256 newDuration);\n    event Recovered(address token, uint256 amount);\n}\n",
  "sourcePath": "contracts/EpsStaker.sol",
  "type": "contract"
}