{
  "abi": [
    {
      "inputs": [],
      "stateMutability": "nonpayable",
      "type": "constructor"
    },
    {
      "anonymous": false,
      "inputs": [
        {
          "indexed": false,
          "internalType": "contract IStableSwap",
          "name": "pool",
          "type": "address"
        }
      ],
      "name": "FeeClaimRevert",
      "type": "event"
    },
    {
      "anonymous": false,
      "inputs": [
        {
          "indexed": false,
          "internalType": "contract IStableSwap",
          "name": "pool",
          "type": "address"
        }
      ],
      "name": "FeeClaimSuccess",
      "type": "event"
    },
    {
      "inputs": [
        {
          "internalType": "contract IStableSwap[]",
          "name": "_pools",
          "type": "address[]"
        }
      ],
      "name": "addPools",
      "outputs": [],
      "stateMutability": "nonpayable",
      "type": "function"
    },
    {
      "inputs": [],
      "name": "claimFees",
      "outputs": [],
      "stateMutability": "nonpayable",
      "type": "function"
    },
    {
      "inputs": [
        {
          "internalType": "uint256",
          "name": "",
          "type": "uint256"
        }
      ],
      "name": "pools",
      "outputs": [
        {
          "internalType": "contract IStableSwap",
          "name": "",
          "type": "address"
        }
      ],
      "stateMutability": "view",
      "type": "function"
    }
  ],
  "bytecode": "608060405234801561001057600080fd5b50600080546001600160a01b03191633179055610345806100326000396000f3fe608060405234801561001057600080fd5b50600436106100415760003560e01c8063ac4afa3814610046578063b36a4ab11461007f578063d294f093146100f1575b600080fd5b6100636004803603602081101561005c57600080fd5b50356100f9565b604080516001600160a01b039092168252519081900360200190f35b6100ef6004803603602081101561009557600080fd5b8101906020810181356401000000008111156100b057600080fd5b8201836020820111156100c257600080fd5b803590602001918460208302840111640100000000831117156100e457600080fd5b509092509050610123565b005b6100ef610209565b6001818154811061010957600080fd5b6000918252602090912001546001600160a01b0316905081565b6000546001600160a01b0316331461013a57600080fd5b60005b818110156102045782828281811061015157fe5b905060200201356001600160a01b03166001600160a01b03166330c540856040518163ffffffff1660e01b8152600401600060405180830381600087803b15801561019b57600080fd5b505af11580156101af573d6000803e3d6000fd5b5050505060018383838181106101c157fe5b835460018181018655600095865260209586902090910180546001600160a01b0319166001600160a01b039690930294909401359490941617909155500161013d565b505050565b60005b60015481101561030c5760006001828154811061022557fe5b6000918252602082200154604080516330c5408560e01b815290516001600160a01b03909216935083926330c540859260048084019382900301818387803b15801561027057600080fd5b505af1925050508015610281575060015b6102c657604080516001600160a01b038316815290517f82a9d8e92b39d35870f6192b03f1a9abd94c469cdee5341bbb66bf84e00028a19181900360200190a1610303565b604080516001600160a01b038316815290517f0a9a4ea520d59873f6c7d398e2030a6dff11002664af13a2adfc0fcad5a44c529181900360200190a15b5060010161020c565b5056fea2646970667358221220e82f9c15dd52b64208bc33090dd2600d901c8e197bea474dfe94d75d3cde488d64736f6c63430007060033",
  "bytecodeSha1": "f5454cba1be33f2df3670592e6cec16fc011815c",
  "compiler": {
    "evm_version": "istanbul",
    "optimizer": {
      "enabled": true,
      "runs": 200
    },
    "version": "0.7.6+commit.7338295f"
  },
  "contractName": "FeeClaimer",
  "language": "Solidity",
  "natspec": {
    "kind": "dev",
    "methods": {},
    "version": 1
  },
  "opcodes": "PUSH1 0x80 PUSH1 0x40 MSTORE CALLVALUE DUP1 ISZERO PUSH2 0x10 JUMPI PUSH1 0x0 DUP1 REVERT JUMPDEST POP PUSH1 0x4 CALLDATASIZE LT PUSH2 0x41 JUMPI PUSH1 0x0 CALLDATALOAD PUSH1 0xE0 SHR DUP1 PUSH4 0xAC4AFA38 EQ PUSH2 0x46 JUMPI DUP1 PUSH4 0xB36A4AB1 EQ PUSH2 0x7F JUMPI DUP1 PUSH4 0xD294F093 EQ PUSH2 0xF1 JUMPI JUMPDEST PUSH1 0x0 DUP1 REVERT JUMPDEST PUSH2 0x63 PUSH1 0x4 DUP1 CALLDATASIZE SUB PUSH1 0x20 DUP2 LT ISZERO PUSH2 0x5C JUMPI PUSH1 0x0 DUP1 REVERT JUMPDEST POP CALLDATALOAD PUSH2 0xF9 JUMP JUMPDEST PUSH1 0x40 DUP1 MLOAD PUSH1 0x1 PUSH1 0x1 PUSH1 0xA0 SHL SUB SWAP1 SWAP3 AND DUP3 MSTORE MLOAD SWAP1 DUP2 SWAP1 SUB PUSH1 0x20 ADD SWAP1 RETURN JUMPDEST PUSH2 0xEF PUSH1 0x4 DUP1 CALLDATASIZE SUB PUSH1 0x20 DUP2 LT ISZERO PUSH2 0x95 JUMPI PUSH1 0x0 DUP1 REVERT JUMPDEST DUP2 ADD SWAP1 PUSH1 0x20 DUP2 ADD DUP2 CALLDATALOAD PUSH5 0x100000000 DUP2 GT ISZERO PUSH2 0xB0 JUMPI PUSH1 0x0 DUP1 REVERT JUMPDEST DUP3 ADD DUP4 PUSH1 0x20 DUP3 ADD GT ISZERO PUSH2 0xC2 JUMPI PUSH1 0x0 DUP1 REVERT JUMPDEST DUP1 CALLDATALOAD SWAP1 PUSH1 0x20 ADD SWAP2 DUP5 PUSH1 0x20 DUP4 MUL DUP5 ADD GT PUSH5 0x100000000 DUP4 GT OR ISZERO PUSH2 0xE4 JUMPI PUSH1 0x0 DUP1 REVERT JUMPDEST POP SWAP1 SWAP3 POP SWAP1 POP PUSH2 0x123 JUMP JUMPDEST STOP JUMPDEST PUSH2 0xEF PUSH2 0x209 JUMP JUMPDEST PUSH1 0x1 DUP2 DUP2 SLOAD DUP2 LT PUSH2 0x109 JUMPI PUSH1 0x0 DUP1 REVERT JUMPDEST PUSH1 0x0 SWAP2 DUP3 MSTORE PUSH1 0x20 SWAP1 SWAP2 KECCAK256 ADD SLOAD PUSH1 0x1 PUSH1 0x1 PUSH1 0xA0 SHL SUB AND SWAP1 POP DUP2 JUMP JUMPDEST PUSH1 0x0 SLOAD PUSH1 0x1 PUSH1 0x1 PUSH1 0xA0 SHL SUB AND CALLER EQ PUSH2 0x13A JUMPI PUSH1 0x0 DUP1 REVERT JUMPDEST PUSH1 0x0 JUMPDEST DUP2 DUP2 LT ISZERO PUSH2 0x204 JUMPI DUP3 DUP3 DUP3 DUP2 DUP2 LT PUSH2 0x151 JUMPI INVALID JUMPDEST SWAP1 POP PUSH1 0x20 MUL ADD CALLDATALOAD PUSH1 0x1 PUSH1 0x1 PUSH1 0xA0 SHL SUB AND PUSH1 0x1 PUSH1 0x1 PUSH1 0xA0 SHL SUB AND PUSH4 0x30C54085 PUSH1 0x40 MLOAD DUP2 PUSH4 0xFFFFFFFF AND PUSH1 0xE0 SHL DUP2 MSTORE PUSH1 0x4 ADD PUSH1 0x0 PUSH1 0x40 MLOAD DUP1 DUP4 SUB DUP2 PUSH1 0x0 DUP8 DUP1 EXTCODESIZE ISZERO DUP1 ISZERO PUSH2 0x19B JUMPI PUSH1 0x0 DUP1 REVERT JUMPDEST POP GAS CALL ISZERO DUP1 ISZERO PUSH2 0x1AF JUMPI RETURNDATASIZE PUSH1 0x0 DUP1 RETURNDATACOPY RETURNDATASIZE PUSH1 0x0 REVERT JUMPDEST POP POP POP POP PUSH1 0x1 DUP4 DUP4 DUP4 DUP2 DUP2 LT PUSH2 0x1C1 JUMPI INVALID JUMPDEST DUP4 SLOAD PUSH1 0x1 DUP2 DUP2 ADD DUP7 SSTORE PUSH1 0x0 SWAP6 DUP7 MSTORE PUSH1 0x20 SWAP6 DUP7 SWAP1 KECCAK256 SWAP1 SWAP2 ADD DUP1 SLOAD PUSH1 0x1 PUSH1 0x1 PUSH1 0xA0 SHL SUB NOT AND PUSH1 0x1 PUSH1 0x1 PUSH1 0xA0 SHL SUB SWAP7 SWAP1 SWAP4 MUL SWAP5 SWAP1 SWAP5 ADD CALLDATALOAD SWAP5 SWAP1 SWAP5 AND OR SWAP1 SWAP2 SSTORE POP ADD PUSH2 0x13D JUMP JUMPDEST POP POP POP JUMP JUMPDEST PUSH1 0x0 JUMPDEST PUSH1 0x1 SLOAD DUP2 LT ISZERO PUSH2 0x30C JUMPI PUSH1 0x0 PUSH1 0x1 DUP3 DUP2 SLOAD DUP2 LT PUSH2 0x225 JUMPI INVALID JUMPDEST PUSH1 0x0 SWAP2 DUP3 MSTORE PUSH1 0x20 DUP3 KECCAK256 ADD SLOAD PUSH1 0x40 DUP1 MLOAD PUSH4 0x30C54085 PUSH1 0xE0 SHL DUP2 MSTORE SWAP1 MLOAD PUSH1 0x1 PUSH1 0x1 PUSH1 0xA0 SHL SUB SWAP1 SWAP3 AND SWAP4 POP DUP4 SWAP3 PUSH4 0x30C54085 SWAP3 PUSH1 0x4 DUP1 DUP5 ADD SWAP4 DUP3 SWAP1 SUB ADD DUP2 DUP4 DUP8 DUP1 EXTCODESIZE ISZERO DUP1 ISZERO PUSH2 0x270 JUMPI PUSH1 0x0 DUP1 REVERT JUMPDEST POP GAS CALL SWAP3 POP POP POP DUP1 ISZERO PUSH2 0x281 JUMPI POP PUSH1 0x1 JUMPDEST PUSH2 0x2C6 JUMPI PUSH1 0x40 DUP1 MLOAD PUSH1 0x1 PUSH1 0x1 PUSH1 0xA0 SHL SUB DUP4 AND DUP2 MSTORE SWAP1 MLOAD PUSH32 0x82A9D8E92B39D35870F6192B03F1A9ABD94C469CDEE5341BBB66BF84E00028A1 SWAP2 DUP2 SWAP1 SUB PUSH1 0x20 ADD SWAP1 LOG1 PUSH2 0x303 JUMP JUMPDEST PUSH1 0x40 DUP1 MLOAD PUSH1 0x1 PUSH1 0x1 PUSH1 0xA0 SHL SUB DUP4 AND DUP2 MSTORE SWAP1 MLOAD PUSH32 0xA9A4EA520D59873F6C7D398E2030A6DFF11002664AF13A2ADFC0FCAD5A44C52 SWAP2 DUP2 SWAP1 SUB PUSH1 0x20 ADD SWAP1 LOG1 JUMPDEST POP PUSH1 0x1 ADD PUSH2 0x20C JUMP JUMPDEST POP JUMP INVALID LOG2 PUSH5 0x6970667358 0x22 SLT KECCAK256 0xE8 0x2F SWAP13 ISZERO 0xDD MSTORE 0xB6 TIMESTAMP ADDMOD 0xBC CALLER MULMOD 0xD 0xD2 PUSH1 0xD SWAP1 SHR DUP15 NOT PUSH28 0xEA474DFE94D75D3CDE488D64736F6C63430007060033000000000000 ",
  "sha1": "9cb9c14732bc35737344347592cef880fdf43606",
  "source": "pragma solidity 0.7.6;\n\n\ninterface IStableSwap {\n    function withdraw_admin_fees() external;\n}\n\n\ncontract FeeClaimer {\n\n    address owner;\n    IStableSwap[] public pools;\n\n    event FeeClaimSuccess(IStableSwap pool);\n    event FeeClaimRevert(IStableSwap pool);\n\n    constructor() public {\n        owner = msg.sender;\n    }\n\n    function claimFees() external {\n        for (uint i = 0; i < pools.length; i++) {\n            IStableSwap pool = pools[i];\n            try pool.withdraw_admin_fees() {\n                emit FeeClaimSuccess(pool);\n            } catch {\n                emit FeeClaimRevert(pool);\n            }\n        }\n    }\n\n    function addPools(IStableSwap[] calldata _pools) external {\n        require(msg.sender == owner);\n        for (uint i = 0; i < _pools.length; i++) {\n            _pools[i].withdraw_admin_fees();\n            pools.push(_pools[i]);\n        }\n    }\n}\n",
  "sourcePath": "contracts/FeeClaims.sol",
  "type": "contract"
}