{
  "abi": [
    {
      "inputs": [
        {
          "internalType": "uint256",
          "name": "a",
          "type": "uint256"
        },
        {
          "internalType": "uint256",
          "name": "b",
          "type": "uint256"
        }
      ],
      "name": "difference",
      "outputs": [
        {
          "internalType": "uint256",
          "name": "",
          "type": "uint256"
        }
      ],
      "stateMutability": "pure",
      "type": "function"
    },
    {
      "inputs": [
        {
          "internalType": "uint256",
          "name": "a",
          "type": "uint256"
        },
        {
          "internalType": "uint256",
          "name": "b",
          "type": "uint256"
        }
      ],
      "name": "within1",
      "outputs": [
        {
          "internalType": "bool",
          "name": "",
          "type": "bool"
        }
      ],
      "stateMutability": "pure",
      "type": "function"
    }
  ],
  "bytecode": "61011c610026600b82828239805160001a60731461001957fe5b30600052607381538281f3fe7300000000000000000000000000000000000000003014608060405260043610603d5760003560e01c806313a1ec75146042578063a95cb7f7146076575b600080fd5b606260048036036040811015605657600080fd5b508035906020013560a8565b604080519115158252519081900360200190f35b609660048036036040811015608a57600080fd5b508035906020013560bf565b60408051918252519081900360200190f35b6000600160b4848460d0565b111590505b92915050565b600060c9838360d0565b9392505050565b60008183111560e1575080820360b9565b50039056fea2646970667358221220dfed11c61f8c2e0d917f53d082c6ff5519d24b415d40ad279dcca8cd2f9bbae464736f6c634300060c0033",
  "bytecodeSha1": "3753a4c80b332f7bed97541d00e09d407218caca",
  "compiler": {
    "evm_version": "istanbul",
    "optimizer": {
      "enabled": true,
      "runs": 200
    },
    "version": "0.6.12+commit.27d51765"
  },
  "contractName": "MathUtils",
  "language": "Solidity",
  "natspec": {
    "kind": "dev",
    "methods": {
      "difference(uint256,uint256)": {
        "notice": "Calculates absolute difference between a and b",
        "params": {
          "a": "uint256 to compare with",
          "b": "uint256 to compare with"
        },
        "returns": {
          "_0": "Difference between a and b"
        }
      },
      "within1(uint256,uint256)": {
        "notice": "Compares a and b and returns true if the difference between a and b         is less than 1 or equal to each other.",
        "params": {
          "a": "uint256 to compare with",
          "b": "uint256 to compare with"
        },
        "returns": {
          "_0": "True if the difference between a and b is less than 1 or equal,         otherwise return false"
        }
      }
    },
    "notice": "A library to be used in conjunction with SafeMath. Contains functions for calculating differences between two uint256.",
    "title": "MathUtils library",
    "version": 1
  },
  "opcodes": "PUSH20 0x0 ADDRESS EQ PUSH1 0x80 PUSH1 0x40 MSTORE PUSH1 0x4 CALLDATASIZE LT PUSH1 0x3D JUMPI PUSH1 0x0 CALLDATALOAD PUSH1 0xE0 SHR DUP1 PUSH4 0x13A1EC75 EQ PUSH1 0x42 JUMPI DUP1 PUSH4 0xA95CB7F7 EQ PUSH1 0x76 JUMPI JUMPDEST PUSH1 0x0 DUP1 REVERT JUMPDEST PUSH1 0x62 PUSH1 0x4 DUP1 CALLDATASIZE SUB PUSH1 0x40 DUP2 LT ISZERO PUSH1 0x56 JUMPI PUSH1 0x0 DUP1 REVERT JUMPDEST POP DUP1 CALLDATALOAD SWAP1 PUSH1 0x20 ADD CALLDATALOAD PUSH1 0xA8 JUMP JUMPDEST PUSH1 0x40 DUP1 MLOAD SWAP2 ISZERO ISZERO DUP3 MSTORE MLOAD SWAP1 DUP2 SWAP1 SUB PUSH1 0x20 ADD SWAP1 RETURN JUMPDEST PUSH1 0x96 PUSH1 0x4 DUP1 CALLDATASIZE SUB PUSH1 0x40 DUP2 LT ISZERO PUSH1 0x8A JUMPI PUSH1 0x0 DUP1 REVERT JUMPDEST POP DUP1 CALLDATALOAD SWAP1 PUSH1 0x20 ADD CALLDATALOAD PUSH1 0xBF JUMP JUMPDEST PUSH1 0x40 DUP1 MLOAD SWAP2 DUP3 MSTORE MLOAD SWAP1 DUP2 SWAP1 SUB PUSH1 0x20 ADD SWAP1 RETURN JUMPDEST PUSH1 0x0 PUSH1 0x1 PUSH1 0xB4 DUP5 DUP5 PUSH1 0xD0 JUMP JUMPDEST GT ISZERO SWAP1 POP JUMPDEST SWAP3 SWAP2 POP POP JUMP JUMPDEST PUSH1 0x0 PUSH1 0xC9 DUP4 DUP4 PUSH1 0xD0 JUMP JUMPDEST SWAP4 SWAP3 POP POP POP JUMP JUMPDEST PUSH1 0x0 DUP2 DUP4 GT ISZERO PUSH1 0xE1 JUMPI POP DUP1 DUP3 SUB PUSH1 0xB9 JUMP JUMPDEST POP SUB SWAP1 JUMP INVALID LOG2 PUSH5 0x6970667358 0x22 SLT KECCAK256 0xDF 0xED GT 0xC6 0x1F DUP13 0x2E 0xD SWAP2 PUSH32 0x53D082C6FF5519D24B415D40AD279DCCA8CD2F9BBAE464736F6C634300060C00 CALLER ",
  "sha1": "c0714798121b576110ed3db95d751fb156a72222",
  "source": "// SPDX-License-Identifier: MIT\n\npragma solidity 0.6.12;\n\nimport 'OpenZeppelin/openzeppelin-contracts@3.4.0/contracts/math/SafeMath.sol';\n\n/**\n * @title MathUtils library\n * @notice A library to be used in conjunction with SafeMath. Contains functions for calculating\n * differences between two uint256.\n */\nlibrary MathUtils {\n    /**\n     * @notice Compares a and b and returns true if the difference between a and b\n     *         is less than 1 or equal to each other.\n     * @param a uint256 to compare with\n     * @param b uint256 to compare with\n     * @return True if the difference between a and b is less than 1 or equal,\n     *         otherwise return false\n     */\n    function within1(uint256 a, uint256 b) external pure returns (bool) {\n        return (_difference(a, b) <= 1);\n    }\n\n    /**\n     * @notice Calculates absolute difference between a and b\n     * @param a uint256 to compare with\n     * @param b uint256 to compare with\n     * @return Difference between a and b\n     */\n    function difference(uint256 a, uint256 b) external pure returns (uint256) {\n        return _difference(a, b);\n    }\n\n    /**\n     * @notice Calculates absolute difference between a and b\n     * @param a uint256 to compare with\n     * @param b uint256 to compare with\n     * @return Difference between a and b\n     */\n    function _difference(uint256 a, uint256 b) internal pure returns (uint256) {\n        if (a > b) {\n            return a - b;\n        }\n        return b - a;\n    }\n}\n",
  "sourcePath": "contracts/MathUtils.sol",
  "type": "library"
}