{
  "abi": [
    {
      "anonymous": false,
      "inputs": [
        {
          "indexed": true,
          "internalType": "address",
          "name": "provider",
          "type": "address"
        },
        {
          "indexed": false,
          "internalType": "uint256[]",
          "name": "tokenAmounts",
          "type": "uint256[]"
        },
        {
          "indexed": false,
          "internalType": "uint256[]",
          "name": "fees",
          "type": "uint256[]"
        },
        {
          "indexed": false,
          "internalType": "uint256",
          "name": "invariant",
          "type": "uint256"
        },
        {
          "indexed": false,
          "internalType": "uint256",
          "name": "lpTokenSupply",
          "type": "uint256"
        }
      ],
      "name": "AddLiquidity",
      "type": "event"
    },
    {
      "anonymous": false,
      "inputs": [
        {
          "indexed": false,
          "internalType": "uint256",
          "name": "newAdminFee",
          "type": "uint256"
        }
      ],
      "name": "NewAdminFee",
      "type": "event"
    },
    {
      "anonymous": false,
      "inputs": [
        {
          "indexed": false,
          "internalType": "uint256",
          "name": "newDepositFee",
          "type": "uint256"
        }
      ],
      "name": "NewDepositFee",
      "type": "event"
    },
    {
      "anonymous": false,
      "inputs": [
        {
          "indexed": false,
          "internalType": "uint256",
          "name": "newSwapFee",
          "type": "uint256"
        }
      ],
      "name": "NewSwapFee",
      "type": "event"
    },
    {
      "anonymous": false,
      "inputs": [
        {
          "indexed": false,
          "internalType": "uint256",
          "name": "newWithdrawFee",
          "type": "uint256"
        }
      ],
      "name": "NewWithdrawFee",
      "type": "event"
    },
    {
      "anonymous": false,
      "inputs": [
        {
          "indexed": true,
          "internalType": "address",
          "name": "previousOwner",
          "type": "address"
        },
        {
          "indexed": true,
          "internalType": "address",
          "name": "newOwner",
          "type": "address"
        }
      ],
      "name": "OwnershipTransferred",
      "type": "event"
    },
    {
      "anonymous": false,
      "inputs": [
        {
          "indexed": false,
          "internalType": "address",
          "name": "account",
          "type": "address"
        }
      ],
      "name": "Paused",
      "type": "event"
    },
    {
      "anonymous": false,
      "inputs": [
        {
          "indexed": false,
          "internalType": "uint256",
          "name": "oldA",
          "type": "uint256"
        },
        {
          "indexed": false,
          "internalType": "uint256",
          "name": "newA",
          "type": "uint256"
        },
        {
          "indexed": false,
          "internalType": "uint256",
          "name": "initialTime",
          "type": "uint256"
        },
        {
          "indexed": false,
          "internalType": "uint256",
          "name": "futureTime",
          "type": "uint256"
        }
      ],
      "name": "RampA",
      "type": "event"
    },
    {
      "anonymous": false,
      "inputs": [
        {
          "indexed": true,
          "internalType": "address",
          "name": "provider",
          "type": "address"
        },
        {
          "indexed": false,
          "internalType": "uint256[]",
          "name": "tokenAmounts",
          "type": "uint256[]"
        },
        {
          "indexed": false,
          "internalType": "uint256",
          "name": "lpTokenSupply",
          "type": "uint256"
        }
      ],
      "name": "RemoveLiquidity",
      "type": "event"
    },
    {
      "anonymous": false,
      "inputs": [
        {
          "indexed": true,
          "internalType": "address",
          "name": "provider",
          "type": "address"
        },
        {
          "indexed": false,
          "internalType": "uint256[]",
          "name": "tokenAmounts",
          "type": "uint256[]"
        },
        {
          "indexed": false,
          "internalType": "uint256[]",
          "name": "fees",
          "type": "uint256[]"
        },
        {
          "indexed": false,
          "internalType": "uint256",
          "name": "invariant",
          "type": "uint256"
        },
        {
          "indexed": false,
          "internalType": "uint256",
          "name": "lpTokenSupply",
          "type": "uint256"
        }
      ],
      "name": "RemoveLiquidityImbalance",
      "type": "event"
    },
    {
      "anonymous": false,
      "inputs": [
        {
          "indexed": true,
          "internalType": "address",
          "name": "provider",
          "type": "address"
        },
        {
          "indexed": false,
          "internalType": "uint256",
          "name": "lpTokenAmount",
          "type": "uint256"
        },
        {
          "indexed": false,
          "internalType": "uint256",
          "name": "lpTokenSupply",
          "type": "uint256"
        },
        {
          "indexed": false,
          "internalType": "uint256",
          "name": "boughtId",
          "type": "uint256"
        },
        {
          "indexed": false,
          "internalType": "uint256",
          "name": "tokensBought",
          "type": "uint256"
        }
      ],
      "name": "RemoveLiquidityOne",
      "type": "event"
    },
    {
      "anonymous": false,
      "inputs": [
        {
          "indexed": false,
          "internalType": "uint256",
          "name": "currentA",
          "type": "uint256"
        },
        {
          "indexed": false,
          "internalType": "uint256",
          "name": "time",
          "type": "uint256"
        }
      ],
      "name": "StopRampA",
      "type": "event"
    },
    {
      "anonymous": false,
      "inputs": [
        {
          "indexed": true,
          "internalType": "address",
          "name": "buyer",
          "type": "address"
        },
        {
          "indexed": false,
          "internalType": "uint256",
          "name": "tokensSold",
          "type": "uint256"
        },
        {
          "indexed": false,
          "internalType": "uint256",
          "name": "tokensBought",
          "type": "uint256"
        },
        {
          "indexed": false,
          "internalType": "uint128",
          "name": "soldId",
          "type": "uint128"
        },
        {
          "indexed": false,
          "internalType": "uint128",
          "name": "boughtId",
          "type": "uint128"
        }
      ],
      "name": "TokenSwap",
      "type": "event"
    },
    {
      "anonymous": false,
      "inputs": [
        {
          "indexed": true,
          "internalType": "address",
          "name": "buyer",
          "type": "address"
        },
        {
          "indexed": false,
          "internalType": "uint256",
          "name": "tokensSold",
          "type": "uint256"
        },
        {
          "indexed": false,
          "internalType": "uint256",
          "name": "tokensBought",
          "type": "uint256"
        },
        {
          "indexed": false,
          "internalType": "uint128",
          "name": "soldId",
          "type": "uint128"
        },
        {
          "indexed": false,
          "internalType": "uint128",
          "name": "boughtId",
          "type": "uint128"
        }
      ],
      "name": "TokenSwapUnderlying",
      "type": "event"
    },
    {
      "anonymous": false,
      "inputs": [
        {
          "indexed": false,
          "internalType": "address",
          "name": "account",
          "type": "address"
        }
      ],
      "name": "Unpaused",
      "type": "event"
    },
    {
      "inputs": [
        {
          "internalType": "uint256[]",
          "name": "amounts",
          "type": "uint256[]"
        },
        {
          "internalType": "uint256",
          "name": "minToMint",
          "type": "uint256"
        },
        {
          "internalType": "uint256",
          "name": "deadline",
          "type": "uint256"
        }
      ],
      "name": "addLiquidity",
      "outputs": [
        {
          "internalType": "uint256",
          "name": "",
          "type": "uint256"
        }
      ],
      "stateMutability": "nonpayable",
      "type": "function"
    },
    {
      "inputs": [
        {
          "internalType": "address",
          "name": "user",
          "type": "address"
        }
      ],
      "name": "calculateCurrentWithdrawFee",
      "outputs": [
        {
          "internalType": "uint256",
          "name": "",
          "type": "uint256"
        }
      ],
      "stateMutability": "view",
      "type": "function"
    },
    {
      "inputs": [
        {
          "internalType": "address",
          "name": "account",
          "type": "address"
        },
        {
          "internalType": "uint256",
          "name": "amount",
          "type": "uint256"
        }
      ],
      "name": "calculateRemoveLiquidity",
      "outputs": [
        {
          "internalType": "uint256[]",
          "name": "",
          "type": "uint256[]"
        }
      ],
      "stateMutability": "view",
      "type": "function"
    },
    {
      "inputs": [
        {
          "internalType": "address",
          "name": "account",
          "type": "address"
        },
        {
          "internalType": "uint256",
          "name": "tokenAmount",
          "type": "uint256"
        },
        {
          "internalType": "uint8",
          "name": "tokenIndex",
          "type": "uint8"
        }
      ],
      "name": "calculateRemoveLiquidityOneToken",
      "outputs": [
        {
          "internalType": "uint256",
          "name": "",
          "type": "uint256"
        }
      ],
      "stateMutability": "view",
      "type": "function"
    },
    {
      "inputs": [
        {
          "internalType": "uint8",
          "name": "tokenIndexFrom",
          "type": "uint8"
        },
        {
          "internalType": "uint8",
          "name": "tokenIndexTo",
          "type": "uint8"
        },
        {
          "internalType": "uint256",
          "name": "dx",
          "type": "uint256"
        }
      ],
      "name": "calculateSwap",
      "outputs": [
        {
          "internalType": "uint256",
          "name": "",
          "type": "uint256"
        }
      ],
      "stateMutability": "view",
      "type": "function"
    },
    {
      "inputs": [
        {
          "internalType": "uint8",
          "name": "tokenIndexFrom",
          "type": "uint8"
        },
        {
          "internalType": "uint8",
          "name": "tokenIndexTo",
          "type": "uint8"
        },
        {
          "internalType": "uint256",
          "name": "dx",
          "type": "uint256"
        }
      ],
      "name": "calculateSwapUnderlying",
      "outputs": [
        {
          "internalType": "uint256",
          "name": "",
          "type": "uint256"
        }
      ],
      "stateMutability": "view",
      "type": "function"
    },
    {
      "inputs": [
        {
          "internalType": "address",
          "name": "account",
          "type": "address"
        },
        {
          "internalType": "uint256[]",
          "name": "amounts",
          "type": "uint256[]"
        },
        {
          "internalType": "bool",
          "name": "deposit",
          "type": "bool"
        }
      ],
      "name": "calculateTokenAmount",
      "outputs": [
        {
          "internalType": "uint256",
          "name": "",
          "type": "uint256"
        }
      ],
      "stateMutability": "view",
      "type": "function"
    },
    {
      "inputs": [],
      "name": "getA",
      "outputs": [
        {
          "internalType": "uint256",
          "name": "",
          "type": "uint256"
        }
      ],
      "stateMutability": "view",
      "type": "function"
    },
    {
      "inputs": [],
      "name": "getAPrecise",
      "outputs": [
        {
          "internalType": "uint256",
          "name": "",
          "type": "uint256"
        }
      ],
      "stateMutability": "view",
      "type": "function"
    },
    {
      "inputs": [
        {
          "internalType": "uint256",
          "name": "index",
          "type": "uint256"
        }
      ],
      "name": "getAdminBalance",
      "outputs": [
        {
          "internalType": "uint256",
          "name": "",
          "type": "uint256"
        }
      ],
      "stateMutability": "view",
      "type": "function"
    },
    {
      "inputs": [],
      "name": "getBalances",
      "outputs": [
        {
          "internalType": "uint256[]",
          "name": "",
          "type": "uint256[]"
        }
      ],
      "stateMutability": "view",
      "type": "function"
    },
    {
      "inputs": [
        {
          "internalType": "address",
          "name": "user",
          "type": "address"
        }
      ],
      "name": "getDepositTimestamp",
      "outputs": [
        {
          "internalType": "uint256",
          "name": "",
          "type": "uint256"
        }
      ],
      "stateMutability": "view",
      "type": "function"
    },
    {
      "inputs": [],
      "name": "getLpToken",
      "outputs": [
        {
          "internalType": "address",
          "name": "",
          "type": "address"
        }
      ],
      "stateMutability": "view",
      "type": "function"
    },
    {
      "inputs": [
        {
          "internalType": "uint8",
          "name": "index",
          "type": "uint8"
        }
      ],
      "name": "getToken",
      "outputs": [
        {
          "internalType": "contract IERC20",
          "name": "",
          "type": "address"
        }
      ],
      "stateMutability": "view",
      "type": "function"
    },
    {
      "inputs": [
        {
          "internalType": "uint8",
          "name": "index",
          "type": "uint8"
        }
      ],
      "name": "getTokenBalance",
      "outputs": [
        {
          "internalType": "uint256",
          "name": "",
          "type": "uint256"
        }
      ],
      "stateMutability": "view",
      "type": "function"
    },
    {
      "inputs": [
        {
          "internalType": "address",
          "name": "tokenAddress",
          "type": "address"
        }
      ],
      "name": "getTokenIndex",
      "outputs": [
        {
          "internalType": "uint8",
          "name": "",
          "type": "uint8"
        }
      ],
      "stateMutability": "view",
      "type": "function"
    },
    {
      "inputs": [],
      "name": "getVirtualPrice",
      "outputs": [
        {
          "internalType": "uint256",
          "name": "",
          "type": "uint256"
        }
      ],
      "stateMutability": "view",
      "type": "function"
    },
    {
      "inputs": [
        {
          "internalType": "contract IERC20[]",
          "name": "_pooledTokens",
          "type": "address[]"
        },
        {
          "internalType": "uint8[]",
          "name": "decimals",
          "type": "uint8[]"
        },
        {
          "internalType": "string",
          "name": "lpTokenName",
          "type": "string"
        },
        {
          "internalType": "string",
          "name": "lpTokenSymbol",
          "type": "string"
        },
        {
          "internalType": "uint256",
          "name": "_a",
          "type": "uint256"
        },
        {
          "internalType": "uint256",
          "name": "_fee",
          "type": "uint256"
        },
        {
          "internalType": "uint256",
          "name": "_adminFee",
          "type": "uint256"
        },
        {
          "internalType": "uint256",
          "name": "_depositFee",
          "type": "uint256"
        },
        {
          "internalType": "uint256",
          "name": "_withdrawFee",
          "type": "uint256"
        },
        {
          "internalType": "address",
          "name": "_devaddr",
          "type": "address"
        }
      ],
      "name": "initialize",
      "outputs": [],
      "stateMutability": "nonpayable",
      "type": "function"
    },
    {
      "inputs": [
        {
          "internalType": "contract IERC20[]",
          "name": "_pooledTokens",
          "type": "address[]"
        },
        {
          "internalType": "uint8[]",
          "name": "decimals",
          "type": "uint8[]"
        },
        {
          "internalType": "string",
          "name": "lpTokenName",
          "type": "string"
        },
        {
          "internalType": "string",
          "name": "lpTokenSymbol",
          "type": "string"
        },
        {
          "internalType": "uint256",
          "name": "_a",
          "type": "uint256"
        },
        {
          "internalType": "uint256",
          "name": "_fee",
          "type": "uint256"
        },
        {
          "internalType": "uint256",
          "name": "_adminFee",
          "type": "uint256"
        },
        {
          "internalType": "uint256",
          "name": "_depositFee",
          "type": "uint256"
        },
        {
          "internalType": "uint256",
          "name": "_withdrawFee",
          "type": "uint256"
        },
        {
          "internalType": "address",
          "name": "_devaddr",
          "type": "address"
        },
        {
          "internalType": "contract ISwap",
          "name": "baseSwap",
          "type": "address"
        }
      ],
      "name": "initializeMetaSwap",
      "outputs": [],
      "stateMutability": "nonpayable",
      "type": "function"
    },
    {
      "inputs": [],
      "name": "metaSwapStorage",
      "outputs": [
        {
          "internalType": "contract ISwap",
          "name": "baseSwap",
          "type": "address"
        },
        {
          "internalType": "uint256",
          "name": "baseVirtualPrice",
          "type": "uint256"
        },
        {
          "internalType": "uint256",
          "name": "baseCacheLastUpdated",
          "type": "uint256"
        }
      ],
      "stateMutability": "view",
      "type": "function"
    },
    {
      "inputs": [],
      "name": "owner",
      "outputs": [
        {
          "internalType": "address",
          "name": "",
          "type": "address"
        }
      ],
      "stateMutability": "view",
      "type": "function"
    },
    {
      "inputs": [],
      "name": "pause",
      "outputs": [],
      "stateMutability": "nonpayable",
      "type": "function"
    },
    {
      "inputs": [],
      "name": "paused",
      "outputs": [
        {
          "internalType": "bool",
          "name": "",
          "type": "bool"
        }
      ],
      "stateMutability": "view",
      "type": "function"
    },
    {
      "inputs": [
        {
          "internalType": "uint256",
          "name": "futureA",
          "type": "uint256"
        },
        {
          "internalType": "uint256",
          "name": "futureTime",
          "type": "uint256"
        }
      ],
      "name": "rampA",
      "outputs": [],
      "stateMutability": "nonpayable",
      "type": "function"
    },
    {
      "inputs": [
        {
          "internalType": "uint256",
          "name": "amount",
          "type": "uint256"
        },
        {
          "internalType": "uint256[]",
          "name": "minAmounts",
          "type": "uint256[]"
        },
        {
          "internalType": "uint256",
          "name": "deadline",
          "type": "uint256"
        }
      ],
      "name": "removeLiquidity",
      "outputs": [
        {
          "internalType": "uint256[]",
          "name": "",
          "type": "uint256[]"
        }
      ],
      "stateMutability": "nonpayable",
      "type": "function"
    },
    {
      "inputs": [
        {
          "internalType": "uint256[]",
          "name": "amounts",
          "type": "uint256[]"
        },
        {
          "internalType": "uint256",
          "name": "maxBurnAmount",
          "type": "uint256"
        },
        {
          "internalType": "uint256",
          "name": "deadline",
          "type": "uint256"
        }
      ],
      "name": "removeLiquidityImbalance",
      "outputs": [
        {
          "internalType": "uint256",
          "name": "",
          "type": "uint256"
        }
      ],
      "stateMutability": "nonpayable",
      "type": "function"
    },
    {
      "inputs": [
        {
          "internalType": "uint256",
          "name": "tokenAmount",
          "type": "uint256"
        },
        {
          "internalType": "uint8",
          "name": "tokenIndex",
          "type": "uint8"
        },
        {
          "internalType": "uint256",
          "name": "minAmount",
          "type": "uint256"
        },
        {
          "internalType": "uint256",
          "name": "deadline",
          "type": "uint256"
        }
      ],
      "name": "removeLiquidityOneToken",
      "outputs": [
        {
          "internalType": "uint256",
          "name": "",
          "type": "uint256"
        }
      ],
      "stateMutability": "nonpayable",
      "type": "function"
    },
    {
      "inputs": [],
      "name": "renounceOwnership",
      "outputs": [],
      "stateMutability": "nonpayable",
      "type": "function"
    },
    {
      "inputs": [
        {
          "internalType": "uint256",
          "name": "newAdminFee",
          "type": "uint256"
        }
      ],
      "name": "setAdminFee",
      "outputs": [],
      "stateMutability": "nonpayable",
      "type": "function"
    },
    {
      "inputs": [
        {
          "internalType": "uint256",
          "name": "newDepositFee",
          "type": "uint256"
        }
      ],
      "name": "setDefaultDepositFee",
      "outputs": [],
      "stateMutability": "nonpayable",
      "type": "function"
    },
    {
      "inputs": [
        {
          "internalType": "uint256",
          "name": "newWithdrawFee",
          "type": "uint256"
        }
      ],
      "name": "setDefaultWithdrawFee",
      "outputs": [],
      "stateMutability": "nonpayable",
      "type": "function"
    },
    {
      "inputs": [
        {
          "internalType": "address",
          "name": "_devaddr",
          "type": "address"
        }
      ],
      "name": "setDevAddress",
      "outputs": [],
      "stateMutability": "nonpayable",
      "type": "function"
    },
    {
      "inputs": [
        {
          "internalType": "uint256",
          "name": "newSwapFee",
          "type": "uint256"
        }
      ],
      "name": "setSwapFee",
      "outputs": [],
      "stateMutability": "nonpayable",
      "type": "function"
    },
    {
      "inputs": [],
      "name": "stopRampA",
      "outputs": [],
      "stateMutability": "nonpayable",
      "type": "function"
    },
    {
      "inputs": [
        {
          "internalType": "uint8",
          "name": "tokenIndexFrom",
          "type": "uint8"
        },
        {
          "internalType": "uint8",
          "name": "tokenIndexTo",
          "type": "uint8"
        },
        {
          "internalType": "uint256",
          "name": "dx",
          "type": "uint256"
        },
        {
          "internalType": "uint256",
          "name": "minDy",
          "type": "uint256"
        },
        {
          "internalType": "uint256",
          "name": "deadline",
          "type": "uint256"
        }
      ],
      "name": "swap",
      "outputs": [
        {
          "internalType": "uint256",
          "name": "",
          "type": "uint256"
        }
      ],
      "stateMutability": "nonpayable",
      "type": "function"
    },
    {
      "inputs": [],
      "name": "swapStorage",
      "outputs": [
        {
          "internalType": "uint256",
          "name": "initialA",
          "type": "uint256"
        },
        {
          "internalType": "uint256",
          "name": "futureA",
          "type": "uint256"
        },
        {
          "internalType": "uint256",
          "name": "initialATime",
          "type": "uint256"
        },
        {
          "internalType": "uint256",
          "name": "futureATime",
          "type": "uint256"
        },
        {
          "internalType": "uint256",
          "name": "swapFee",
          "type": "uint256"
        },
        {
          "internalType": "uint256",
          "name": "adminFee",
          "type": "uint256"
        },
        {
          "internalType": "uint256",
          "name": "defaultDepositFee",
          "type": "uint256"
        },
        {
          "internalType": "uint256",
          "name": "defaultWithdrawFee",
          "type": "uint256"
        },
        {
          "internalType": "contract LPToken",
          "name": "lpToken",
          "type": "address"
        },
        {
          "internalType": "address",
          "name": "devaddr",
          "type": "address"
        }
      ],
      "stateMutability": "view",
      "type": "function"
    },
    {
      "inputs": [
        {
          "internalType": "uint8",
          "name": "tokenIndexFrom",
          "type": "uint8"
        },
        {
          "internalType": "uint8",
          "name": "tokenIndexTo",
          "type": "uint8"
        },
        {
          "internalType": "uint256",
          "name": "dx",
          "type": "uint256"
        },
        {
          "internalType": "uint256",
          "name": "minDy",
          "type": "uint256"
        },
        {
          "internalType": "uint256",
          "name": "deadline",
          "type": "uint256"
        }
      ],
      "name": "swapUnderlying",
      "outputs": [
        {
          "internalType": "uint256",
          "name": "",
          "type": "uint256"
        }
      ],
      "stateMutability": "nonpayable",
      "type": "function"
    },
    {
      "inputs": [
        {
          "internalType": "address",
          "name": "newOwner",
          "type": "address"
        }
      ],
      "name": "transferOwnership",
      "outputs": [],
      "stateMutability": "nonpayable",
      "type": "function"
    },
    {
      "inputs": [],
      "name": "unpause",
      "outputs": [],
      "stateMutability": "nonpayable",
      "type": "function"
    },
    {
      "inputs": [
        {
          "internalType": "address",
          "name": "recipient",
          "type": "address"
        },
        {
          "internalType": "uint256",
          "name": "transferAmount",
          "type": "uint256"
        }
      ],
      "name": "updateUserWithdrawFee",
      "outputs": [],
      "stateMutability": "nonpayable",
      "type": "function"
    },
    {
      "inputs": [],
      "name": "withdrawAdminFees",
      "outputs": [],
      "stateMutability": "nonpayable",
      "type": "function"
    }
  ],
  "bytecode": "60806040523480156200001157600080fd5b50604051620046c0380380620046c083398181016040526101408110156200003857600080fd5b81019080805160405193929190846401000000008211156200005957600080fd5b9083019060208201858111156200006f57600080fd5b82518660208202830111640100000000821117156200008d57600080fd5b82525081516020918201928201910280838360005b83811015620000bc578181015183820152602001620000a2565b5050505090500160405260200180516040519392919084640100000000821115620000e657600080fd5b908301906020820185811115620000fc57600080fd5b82518660208202830111640100000000821117156200011a57600080fd5b82525081516020918201928201910280838360005b83811015620001495781810151838201526020016200012f565b50505050905001604052602001805160405193929190846401000000008211156200017357600080fd5b9083019060208201858111156200018957600080fd5b8251640100000000811182820188101715620001a457600080fd5b82525081516020918201929091019080838360005b83811015620001d3578181015183820152602001620001b9565b50505050905090810190601f168015620002015780820380516001836020036101000a031916815260200191505b50604052602001805160405193929190846401000000008211156200022557600080fd5b9083019060208201858111156200023b57600080fd5b82516401000000008111828201881017156200025657600080fd5b82525081516020918201929091019080838360005b83811015620002855781810151838201526020016200026b565b50505050905090810190601f168015620002b35780820380516001836020036101000a031916815260200191505b5060409081526020820151908201516060830151608084015160a085015160c0909501519396509194509290916000620002ec62000b03565b600080546001600160a01b0319166001600160a01b0383169081178255604051929350917f8be0079c531659141344cd1fd0a4f28419497f9722a3daafe3b4186f6b6457e0908290a3506000805460ff60a01b1916905560018080558a51116200039d576040805162461bcd60e51b815260206004820152601960248201527f5f706f6f6c6564546f6b656e732e6c656e677468203c3d203100000000000000604482015290519081900360640190fd5b60208a511115620003f5576040805162461bcd60e51b815260206004820152601960248201527f5f706f6f6c6564546f6b656e732e6c656e677468203e20333200000000000000604482015290519081900360640190fd5b88518a51146200044c576040805162461bcd60e51b815260206004820152601f60248201527f5f706f6f6c6564546f6b656e7320646563696d616c73206d69736d6174636800604482015290519081900360640190fd5b606089516001600160401b03811180156200046657600080fd5b5060405190808252806020026020018201604052801562000491578160200160208202803683370190505b50905060005b8b518160ff161015620007185760ff8116156200057a57601160008d8360ff1681518110620004c257fe5b6020908102919091018101516001600160a01b031682528101919091526040016000205460ff161580156200053557508b8160ff16815181106200050257fe5b60200260200101516001600160a01b03168c6000815181106200052157fe5b60200260200101516001600160a01b031614155b6200057a576040805162461bcd60e51b815260206004820152601060248201526f4475706c696361746520746f6b656e7360801b604482015290519081900360640190fd5b60006001600160a01b03168c8260ff16815181106200059557fe5b60200260200101516001600160a01b03161415620005fa576040805162461bcd60e51b815260206004820152601d60248201527f546865203020616464726573732069736e277420616e204552432d3230000000604482015290519081900360640190fd5b601260ff168b8260ff16815181106200060f57fe5b602002602001015160ff1611156200066e576040805162461bcd60e51b815260206004820152601a60248201527f546f6b656e20646563696d616c732065786365656473206d6178000000000000604482015290519081900360640190fd5b620006a68b8260ff16815181106200068257fe5b602002602001015160ff16601260ff1662000b0760201b620021e11790919060201c565b600a0a828260ff1681518110620006b957fe5b60200260200101818152505080601160008e8460ff1681518110620006da57fe5b6020908102919091018101516001600160a01b03168252810191909152604001600020805460ff191660ff9290921691909117905560010162000497565b50620f4240871062000766576040805162461bcd60e51b81526020600482015260126024820152715f612065786365656473206d6178696d756d60701b604482015290519081900360640190fd5b6305f5e1008610620007bf576040805162461bcd60e51b815260206004820152601460248201527f5f6665652065786365656473206d6178696d756d000000000000000000000000604482015290519081900360640190fd5b6402540be400851062000819576040805162461bcd60e51b815260206004820152601960248201527f5f61646d696e4665652065786365656473206d6178696d756d00000000000000604482015290519081900360640190fd5b6305f5e100831062000872576040805162461bcd60e51b815260206004820152601c60248201527f5f77697468647261774665652065786365656473206d6178696d756d00000000604482015290519081900360640190fd5b6305f5e1008410620008cb576040805162461bcd60e51b815260206004820152601b60248201527f5f6465706f7369744665652065786365656473206d6178696d756d0000000000604482015290519081900360640190fd5b88886012604051620008dd9062000bcf565b60ff82166040820152606080825284519082015283518190602080830191608084019188019080838360005b838110156200092357818101518382015260200162000909565b50505050905090810190601f168015620009515780820380516001836020036101000a031916815260200191505b50838103825285518152855160209182019187019080838360005b83811015620009865781810151838201526020016200096c565b50505050905090810190601f168015620009b45780820380516001836020036101000a031916815260200191505b5095505050505050604051809103906000f080158015620009d9573d6000803e3d6000fd5b50600b80546001600160a01b0319166001600160a01b03929092169190911790558a5162000a0f90600c9060208e019062000bdd565b50805162000a2590600d90602084019062000c47565b508a516001600160401b038111801562000a3e57600080fd5b5060405190808252806020026020018201604052801562000a69578160200160208202803683370190505b50805162000a8091600e9160209091019062000c47565b5062000a9c60648862000b6a60201b6200223e1790919060201c565b60025562000ab887606462000b6a602090811b6200223e17901c565b6003555060006004819055600555600694909455600792909255600855600955600a80546001600160a01b0319166001600160a01b039092169190911790555062000ccb9350505050565b3390565b60008282111562000b5f576040805162461bcd60e51b815260206004820152601e60248201527f536166654d6174683a207375627472616374696f6e206f766572666c6f770000604482015290519081900360640190fd5b508082035b92915050565b60008262000b7b5750600062000b64565b8282028284828162000b8957fe5b041462000bc85760405162461bcd60e51b81526004018080602001828103825260218152602001806200469f6021913960400191505060405180910390fd5b9392505050565b611539806200316683390190565b82805482825590600052602060002090810192821562000c35579160200282015b8281111562000c3557825182546001600160a01b0319166001600160a01b0390911617825560209092019160019091019062000bfe565b5062000c4392915062000c93565b5090565b82805482825590600052602060002090810192821562000c85579160200282015b8281111562000c8557825182559160200191906001019062000c68565b5062000c4392915062000cb4565b5b8082111562000c435780546001600160a01b031916815560010162000c94565b5b8082111562000c43576000815560010162000cb5565b61248b8062000cdb6000396000f3fe608060405234801561001057600080fd5b50600436106102265760003560e01c80638456cb5911610130578063c00c125c116100b8578063da7a77be1161007c578063da7a77be1461076a578063e25aa5fa14610790578063ef0a712f14610798578063f2fde38b146107b5578063f9273ffb146107db57610226565b8063c00c125c14610700578063c4db7fa01461072c578063d0d41fe114610734578063d46300fd1461075a578063d4cadf681461076257610226565b806391695586116100ff578063916955861461062257806391ceb3eb1461065e57806398899f401461067e578063a95b089f146106b3578063ac5bf263146106e357610226565b80638456cb591461058157806384cdd9bc146105895780638beb60b6146105fd5780638da5cb5b1461061a57610226565b806352ff62ec116101b357806366c0bd241161018257806366c0bd24146104cd578063715018a6146105095780637c61e561146105115780638214f5a41461053d57806382b866001461056157610226565b806352ff62ec1461040d578063593d132c1461042a5780635c975abb1461044d5780635fd65f0f1461046957610226565b806334e19907116101fa57806334e199071461031c5780633e3a1560146103395780633f4ba83a1461036b5780634a1b0d57146103735780634d49e87d1461039957610226565b8062113e081461022b5780630419b45a146102835780630ba819591461028d57806331cd52b0146102a7575b600080fd5b61023361085b565b60408051602080825283518183015283519192839290830191858101910280838360005b8381101561026f578181015183820152602001610257565b505050509050019250505060405180910390f35b61028b6108b6565b005b61029561099a565b60408051918252519081900360200190f35b610233600480360360608110156102bd57600080fd5b81359190810190604081016020820135600160201b8111156102de57600080fd5b8201836020820111156102f057600080fd5b803590602001918460208302840111600160201b8311171561031157600080fd5b919350915035610a1f565b61028b6004803603602081101561033257600080fd5b5035610c1c565b6102956004803603608081101561034f57600080fd5b5080359060ff6020820135169060408101359060600135610cf2565b61028b610e78565b6102956004803603602081101561038957600080fd5b50356001600160a01b0316610ee4565b610295600480360360608110156103af57600080fd5b810190602081018135600160201b8111156103c957600080fd5b8201836020820111156103db57600080fd5b803590602001918460208302840111600160201b831117156103fc57600080fd5b919350915080359060200135610f7b565b61028b6004803603602081101561042357600080fd5b50356110ef565b61028b6004803603604081101561044057600080fd5b50803590602001356111aa565b610455611288565b604080519115158252519081900360200190f35b610471611298565b604080519a8b5260208b0199909952898901979097526060890195909552608088019390935260a087019190915260c086015260e08501526001600160a01b039081166101008501521661012083015251908190036101400190f35b6104f3600480360360208110156104e357600080fd5b50356001600160a01b03166112c6565b6040805160ff9092168252519081900360200190f35b61028b611348565b6102336004803603604081101561052757600080fd5b506001600160a01b0381351690602001356113f4565b61054561152f565b604080516001600160a01b039092168252519081900360200190f35b6105456004803603602081101561057757600080fd5b503560ff1661153e565b61028b6115b5565b6102956004803603606081101561059f57600080fd5b810190602081018135600160201b8111156105b957600080fd5b8201836020820111156105cb57600080fd5b803590602001918460208302840111600160201b831117156105ec57600080fd5b91935091508035906020013561161f565b61028b6004803603602081101561061357600080fd5b5035611793565b61054561184e565b610295600480360360a081101561063857600080fd5b5060ff81358116916020810135909116906040810135906060810135906080013561185d565b6102956004803603602081101561067457600080fd5b503560ff166119ec565b6102956004803603606081101561069457600080fd5b5080356001600160a01b0316906020810135906040013560ff16611a60565b610295600480360360608110156106c957600080fd5b5060ff813581169160208101359091169060400135611b04565b61028b600480360360208110156106f957600080fd5b5035611b9c565b61028b6004803603604081101561071657600080fd5b506001600160a01b038135169060200135611c57565b61028b611d1e565b61028b6004803603602081101561074a57600080fd5b50356001600160a01b0316611dd2565b610295611e95565b610295611ee9565b6102956004803603602081101561078057600080fd5b50356001600160a01b0316611eef565b610295611f54565b610295600480360360208110156107ae57600080fd5b5035611fa8565b61028b600480360360208110156107cb57600080fd5b50356001600160a01b0316612004565b610295600480360360608110156107f157600080fd5b6001600160a01b038235169190810190604081016020820135600160201b81111561081b57600080fd5b82018360208201111561082d57600080fd5b803590602001918460208302840111600160201b8311171561084e57600080fd5b9193509150351515612106565b60606002600c018054806020026020016040519081016040528092919081815260200182805480156108ac57602002820191906000526020600020905b815481526020019060010190808311610898575b5050505050905090565b6108be61229e565b6001600160a01b03166108cf61184e565b6001600160a01b031614610918576040805162461bcd60e51b81526020600482018190526024820152600080516020612436833981519152604482015290519081900360640190fd5b73__SwapUtils_____________________________6324c5c751600261093c61184e565b6040518363ffffffff1660e01b815260040180838152602001826001600160a01b031681526020019250505060006040518083038186803b15801561098057600080fd5b505af4158015610994573d6000803e3d6000fd5b50505050565b6000600273__SwapUtils_____________________________63c9b64dcb90916040518263ffffffff1660e01b81526004018082815260200191505060206040518083038186803b1580156109ee57600080fd5b505af4158015610a02573d6000803e3d6000fd5b505050506040513d6020811015610a1857600080fd5b5051905090565b606060026001541415610a67576040805162461bcd60e51b815260206004820152601f60248201526000805160206123cf833981519152604482015290519081900360640190fd5b60026001558142811015610ab5576040805162461bcd60e51b815260206004820152601060248201526f111958591b1a5b99481b9bdd081b595d60821b604482015290519081900360640190fd5b600273__SwapUtils_____________________________6373fd6b3e90918888886040518563ffffffff1660e01b815260040180858152602001848152602001806020018281038252848482818152602001925060200280828437600081840152601f19601f8201169050808301925050509550505050505060006040518083038186803b158015610b4657600080fd5b505af4158015610b5a573d6000803e3d6000fd5b505050506040513d6000823e601f3d908101601f191682016040526020811015610b8357600080fd5b8101908080516040519392919084600160201b821115610ba257600080fd5b908301906020820185811115610bb757600080fd5b82518660208202830111600160201b82111715610bd357600080fd5b82525081516020918201928201910280838360005b83811015610c00578181015183820152602001610be8565b5050505090500160405250505091505060018055949350505050565b610c2461229e565b6001600160a01b0316610c3561184e565b6001600160a01b031614610c7e576040805162461bcd60e51b81526020600482018190526024820152600080516020612436833981519152604482015290519081900360640190fd5b6040805163119f861b60e21b81526002600482015260248101839052905173__SwapUtils_____________________________9163467e186c916044808301926000929190829003018186803b158015610cd757600080fd5b505af4158015610ceb573d6000803e3d6000fd5b5050505050565b600060026001541415610d3a576040805162461bcd60e51b815260206004820152601f60248201526000805160206123cf833981519152604482015290519081900360640190fd5b6002600155610d47611288565b15610d8c576040805162461bcd60e51b815260206004820152601060248201526f14185d5cd8589b194e881c185d5cd95960821b604482015290519081900360640190fd5b8180421115610dd5576040805162461bcd60e51b815260206004820152601060248201526f111958591b1a5b99481b9bdd081b595d60821b604482015290519081900360640190fd5b6040805163e7a4db8160e01b8152600260048201526024810188905260ff8716604482015260648101869052905173__SwapUtils_____________________________9163e7a4db81916084808301926020929190829003018186803b158015610e3e57600080fd5b505af4158015610e52573d6000803e3d6000fd5b505050506040513d6020811015610e6857600080fd5b5051600180559695505050505050565b610e8061229e565b6001600160a01b0316610e9161184e565b6001600160a01b031614610eda576040805162461bcd60e51b81526020600482018190526024820152600080516020612436833981519152604482015290519081900360640190fd5b610ee26122a2565b565b604080516325a3956560e21b8152600260048201526001600160a01b0383166024820152905160009173__SwapUtils_____________________________9163968e559491604480820192602092909190829003018186803b158015610f4957600080fd5b505af4158015610f5d573d6000803e3d6000fd5b505050506040513d6020811015610f7357600080fd5b505192915050565b600060026001541415610fc3576040805162461bcd60e51b815260206004820152601f60248201526000805160206123cf833981519152604482015290519081900360640190fd5b6002600155610fd0611288565b15611015576040805162461bcd60e51b815260206004820152601060248201526f14185d5cd8589b194e881c185d5cd95960821b604482015290519081900360640190fd5b818042111561105e576040805162461bcd60e51b815260206004820152601060248201526f111958591b1a5b99481b9bdd081b595d60821b604482015290519081900360640190fd5b600273__SwapUtils_____________________________6340370edf90918888886040518563ffffffff1660e01b815260040180858152602001806020018381526020018281038252858582818152602001925060200280828437600081840152601f19601f8201169050808301925050509550505050505060206040518083038186803b158015610e3e57600080fd5b6110f761229e565b6001600160a01b031661110861184e565b6001600160a01b031614611151576040805162461bcd60e51b81526020600482018190526024820152600080516020612436833981519152604482015290519081900360640190fd5b6040805163d2a3948760e01b81526002600482015260248101839052905173__SwapUtils_____________________________9163d2a39487916044808301926000929190829003018186803b158015610cd757600080fd5b6111b261229e565b6001600160a01b03166111c361184e565b6001600160a01b03161461120c576040805162461bcd60e51b81526020600482018190526024820152600080516020612436833981519152604482015290519081900360640190fd5b604080516358fdd79b60e01b8152600260048201526024810184905260448101839052905173__SwapUtils_____________________________916358fdd79b916064808301926000929190829003018186803b15801561126c57600080fd5b505af4158015611280573d6000803e3d6000fd5b505050505050565b600054600160a01b900460ff1690565b600254600354600454600554600654600754600854600954600a54600b546001600160a01b0391821691168a565b6001600160a01b038116600081815260116020526040812054909160ff909116906112f08261153e565b6001600160a01b031614611342576040805162461bcd60e51b8152602060048201526014602482015273151bdad95b88191bd95cc81b9bdd08195e1a5cdd60621b604482015290519081900360640190fd5b92915050565b61135061229e565b6001600160a01b031661136161184e565b6001600160a01b0316146113aa576040805162461bcd60e51b81526020600482018190526024820152600080516020612436833981519152604482015290519081900360640190fd5b600080546040516001600160a01b03909116907f8be0079c531659141344cd1fd0a4f28419497f9722a3daafe3b4186f6b6457e0908390a3600080546001600160a01b0319169055565b6040805163f967a81f60e01b8152600260048201526001600160a01b038416602482015260448101839052905160609173__SwapUtils_____________________________9163f967a81f91606480820192600092909190829003018186803b15801561146057600080fd5b505af4158015611474573d6000803e3d6000fd5b505050506040513d6000823e601f3d908101601f19168201604052602081101561149d57600080fd5b8101908080516040519392919084600160201b8211156114bc57600080fd5b9083019060208201858111156114d157600080fd5b82518660208202830111600160201b821117156114ed57600080fd5b82525081516020918201928201910280838360005b8381101561151a578181015183820152602001611502565b50505050905001604052505050905092915050565b600b546001600160a01b031690565b600c5460009060ff831610611589576040805162461bcd60e51b815260206004820152600c60248201526b4f7574206f662072616e676560a01b604482015290519081900360640190fd5b600c805460ff841690811061159a57fe5b6000918252602090912001546001600160a01b031692915050565b6115bd61229e565b6001600160a01b03166115ce61184e565b6001600160a01b031614611617576040805162461bcd60e51b81526020600482018190526024820152600080516020612436833981519152604482015290519081900360640190fd5b610ee2612345565b600060026001541415611667576040805162461bcd60e51b815260206004820152601f60248201526000805160206123cf833981519152604482015290519081900360640190fd5b6002600155611674611288565b156116b9576040805162461bcd60e51b815260206004820152601060248201526f14185d5cd8589b194e881c185d5cd95960821b604482015290519081900360640190fd5b8180421115611702576040805162461bcd60e51b815260206004820152601060248201526f111958591b1a5b99481b9bdd081b595d60821b604482015290519081900360640190fd5b600273__SwapUtils_____________________________6341b91c2690918888886040518563ffffffff1660e01b815260040180858152602001806020018381526020018281038252858582818152602001925060200280828437600081840152601f19601f8201169050808301925050509550505050505060206040518083038186803b158015610e3e57600080fd5b61179b61229e565b6001600160a01b03166117ac61184e565b6001600160a01b0316146117f5576040805162461bcd60e51b81526020600482018190526024820152600080516020612436833981519152604482015290519081900360640190fd5b60408051633823393b60e11b81526002600482015260248101839052905173__SwapUtils_____________________________916370467276916044808301926000929190829003018186803b158015610cd757600080fd5b6000546001600160a01b031690565b6000600260015414156118a5576040805162461bcd60e51b815260206004820152601f60248201526000805160206123cf833981519152604482015290519081900360640190fd5b60026001556118b2611288565b156118f7576040805162461bcd60e51b815260206004820152601060248201526f14185d5cd8589b194e881c185d5cd95960821b604482015290519081900360640190fd5b8180421115611940576040805162461bcd60e51b815260206004820152601060248201526f111958591b1a5b99481b9bdd081b595d60821b604482015290519081900360640190fd5b6040805163529cbd9160e11b81526002600482015260ff808a166024830152881660448201526064810187905260848101869052905173__SwapUtils_____________________________9163a5397b229160a4808301926020929190829003018186803b1580156119b157600080fd5b505af41580156119c5573d6000803e3d6000fd5b505050506040513d60208110156119db57600080fd5b505160018055979650505050505050565b600c5460009060ff831610611a3d576040805162461bcd60e51b8152602060048201526012602482015271496e646578206f7574206f662072616e676560701b604482015290519081900360640190fd5b600e805460ff8416908110611a4e57fe5b90600052602060002001549050919050565b60408051637254d06d60e11b8152600260048201526001600160a01b03851660248201526044810184905260ff83166064820152815160009273__SwapUtils_____________________________9263e4a9a0da9260848083019392829003018186803b158015611ad057600080fd5b505af4158015611ae4573d6000803e3d6000fd5b505050506040513d6040811015611afa57600080fd5b5051949350505050565b604080516312c8d80f60e21b81526002600482015260ff80861660248301528416604482015260648101839052905160009173__SwapUtils_____________________________91634b23603c91608480820192602092909190829003018186803b158015611b7257600080fd5b505af4158015611b86573d6000803e3d6000fd5b505050506040513d6020811015611afa57600080fd5b611ba461229e565b6001600160a01b0316611bb561184e565b6001600160a01b031614611bfe576040805162461bcd60e51b81526020600482018190526024820152600080516020612436833981519152604482015290519081900360640190fd5b6040805163455bb4bf60e11b81526002600482015260248101839052905173__SwapUtils_____________________________91638ab7697e916044808301926000929190829003018186803b158015610cd757600080fd5b600b546001600160a01b03163314611cb6576040805162461bcd60e51b815260206004820152601b60248201527f4f6e6c792063616c6c61626c6520627920706f6f6c20746f6b656e0000000000604482015290519081900360640190fd5b6040805163749296a360e11b8152600260048201526001600160a01b038416602482015260448101839052905173__SwapUtils_____________________________9163e9252d46916064808301926000929190829003018186803b15801561126c57600080fd5b611d2661229e565b6001600160a01b0316611d3761184e565b6001600160a01b031614611d80576040805162461bcd60e51b81526020600482018190526024820152600080516020612436833981519152604482015290519081900360640190fd5b604080516378a7108f60e11b815260026004820152905173__SwapUtils_____________________________9163f14e211e916024808301926000929190829003018186803b15801561098057600080fd5b611dda61229e565b6001600160a01b0316611deb61184e565b6001600160a01b031614611e34576040805162461bcd60e51b81526020600482018190526024820152600080516020612436833981519152604482015290519081900360640190fd5b604080516321c363e760e11b8152600260048201526001600160a01b0383166024820152905173__SwapUtils_____________________________91634386c7ce916044808301926000929190829003018186803b158015610cd757600080fd5b6000600273__SwapUtils_____________________________63b0a14cfc90916040518263ffffffff1660e01b81526004018082815260200191505060206040518083038186803b1580156109ee57600080fd5b60065490565b60408051633a311e9560e21b8152600260048201526001600160a01b0383166024820152905160009173__SwapUtils_____________________________9163e8c47a5491604480820192602092909190829003018186803b158015610f4957600080fd5b6000600273__SwapUtils_____________________________6371906c2c90916040518263ffffffff1660e01b81526004018082815260200191505060206040518083038186803b1580156109ee57600080fd5b6000600273__SwapUtils_____________________________637d0481609091846040518363ffffffff1660e01b8152600401808381526020018281526020019250505060206040518083038186803b158015610f4957600080fd5b61200c61229e565b6001600160a01b031661201d61184e565b6001600160a01b031614612066576040805162461bcd60e51b81526020600482018190526024820152600080516020612436833981519152604482015290519081900360640190fd5b6001600160a01b0381166120ab5760405162461bcd60e51b81526004018080602001828103825260268152602001806123ef6026913960400191505060405180910390fd5b600080546040516001600160a01b03808516939216917f8be0079c531659141344cd1fd0a4f28419497f9722a3daafe3b4186f6b6457e091a3600080546001600160a01b0319166001600160a01b0392909216919091179055565b6000600273__SwapUtils_____________________________635e58579c9091878787876040518663ffffffff1660e01b815260040180868152602001856001600160a01b031681526020018060200183151581526020018281038252858582818152602001925060200280828437600081840152601f19601f820116905080830192505050965050505050505060206040518083038186803b1580156121ac57600080fd5b505af41580156121c0573d6000803e3d6000fd5b505050506040513d60208110156121d657600080fd5b505195945050505050565b600082821115612238576040805162461bcd60e51b815260206004820152601e60248201527f536166654d6174683a207375627472616374696f6e206f766572666c6f770000604482015290519081900360640190fd5b50900390565b60008261224d57506000611342565b8282028284828161225a57fe5b04146122975760405162461bcd60e51b81526004018080602001828103825260218152602001806124156021913960400191505060405180910390fd5b9392505050565b3390565b6122aa611288565b6122f2576040805162461bcd60e51b815260206004820152601460248201527314185d5cd8589b194e881b9bdd081c185d5cd95960621b604482015290519081900360640190fd5b6000805460ff60a01b191690557f5db9ee0a495bf2e6ff9c91a7834c1ba4fdd244a5e8aa4e537bd38aeae4b073aa61232861229e565b604080516001600160a01b039092168252519081900360200190a1565b61234d611288565b15612392576040805162461bcd60e51b815260206004820152601060248201526f14185d5cd8589b194e881c185d5cd95960821b604482015290519081900360640190fd5b6000805460ff60a01b1916600160a01b1790557f62e78cea01bee320cd4e420270b5ea74000d11b0c9f74754ebdbfc544b05a25861232861229e56fe5265656e7472616e637947756172643a207265656e7472616e742063616c6c004f776e61626c653a206e6577206f776e657220697320746865207a65726f2061646472657373536166654d6174683a206d756c7469706c69636174696f6e206f766572666c6f774f776e61626c653a2063616c6c6572206973206e6f7420746865206f776e6572a2646970667358221220a69d0a26e2930982bf9d92ad7bcb3efcd65b75bba966786e1eaaf74c0a2b9b7a64736f6c634300060c003360a06040523480156200001157600080fd5b506040516200153938038062001539833981810160405260608110156200003757600080fd5b81019080805160405193929190846401000000008211156200005857600080fd5b9083019060208201858111156200006e57600080fd5b82516401000000008111828201881017156200008957600080fd5b82525081516020918201929091019080838360005b83811015620000b85781810151838201526020016200009e565b50505050905090810190601f168015620000e65780820380516001836020036101000a031916815260200191505b50604052602001805160405193929190846401000000008211156200010a57600080fd5b9083019060208201858111156200012057600080fd5b82516401000000008111828201881017156200013b57600080fd5b82525081516020918201929091019080838360005b838110156200016a57818101518382015260200162000150565b50505050905090810190601f168015620001985780820380516001836020036101000a031916815260200191505b5060405260209081015185519093508592508491620001bd916003918501906200028e565b508051620001d39060049060208401906200028e565b50506005805460ff19166012179055506000620001ef62000274565b60058054610100600160a81b0319166101006001600160a01b03841690810291909117909155604051919250906000907f8be0079c531659141344cd1fd0a4f28419497f9722a3daafe3b4186f6b6457e0908290a350620002508162000278565b6200025a62000274565b60601b6001600160601b031916608052506200032a915050565b3390565b6005805460ff191660ff92909216919091179055565b828054600181600116156101000203166002900490600052602060002090601f016020900481019282601f10620002d157805160ff191683800117855562000301565b8280016001018555821562000301579182015b8281111562000301578251825591602001919060010190620002e4565b506200030f92915062000313565b5090565b5b808211156200030f576000815560010162000314565b60805160601c6111ec6200034d6000398061079f5280610f3952506111ec6000f3fe608060405234801561001057600080fd5b50600436106101165760003560e01c8063715018a6116100a257806395d89b411161007157806395d89b4114610343578063a457c2d71461034b578063a9059cbb14610377578063dd62ed3e146103a3578063f2fde38b146103d157610116565b8063715018a6146102e357806379cc6790146102eb5780638119c065146103175780638da5cb5b1461033b57610116565b8063313ce567116100e9578063313ce56714610228578063395093511461024657806340c10f191461027257806342966c68146102a057806370a08231146102bd57610116565b806306fdde031461011b578063095ea7b31461019857806318160ddd146101d857806323b872dd146101f2575b600080fd5b6101236103f7565b6040805160208082528351818301528351919283929083019185019080838360005b8381101561015d578181015183820152602001610145565b50505050905090810190601f16801561018a5780820380516001836020036101000a031916815260200191505b509250505060405180910390f35b6101c4600480360360408110156101ae57600080fd5b506001600160a01b03813516906020013561048d565b604080519115158252519081900360200190f35b6101e06104aa565b60408051918252519081900360200190f35b6101c46004803603606081101561020857600080fd5b506001600160a01b038135811691602081013590911690604001356104b0565b610230610537565b6040805160ff9092168252519081900360200190f35b6101c46004803603604081101561025c57600080fd5b506001600160a01b038135169060200135610540565b61029e6004803603604081101561028857600080fd5b506001600160a01b03813516906020013561058e565b005b61029e600480360360208110156102b657600080fd5b5035610650565b6101e0600480360360208110156102d357600080fd5b50356001600160a01b0316610664565b61029e61067f565b61029e6004803603604081101561030157600080fd5b506001600160a01b038135169060200135610743565b61031f61079d565b604080516001600160a01b039092168252519081900360200190f35b61031f6107c1565b6101236107d5565b6101c46004803603604081101561036157600080fd5b506001600160a01b038135169060200135610836565b6101c46004803603604081101561038d57600080fd5b506001600160a01b03813516906020013561089e565b6101e0600480360360408110156103b957600080fd5b506001600160a01b03813581169160200135166108b2565b61029e600480360360208110156103e757600080fd5b50356001600160a01b03166108dd565b60038054604080516020601f60026000196101006001881615020190951694909404938401819004810282018101909252828152606093909290918301828280156104835780601f1061045857610100808354040283529160200191610483565b820191906000526020600020905b81548152906001019060200180831161046657829003601f168201915b5050505050905090565b60006104a161049a6109fd565b8484610a01565b50600192915050565b60025490565b60006104bd848484610aed565b61052d846104c96109fd565b610528856040518060600160405280602881526020016110dc602891396001600160a01b038a166000908152600160205260408120906105076109fd565b6001600160a01b031681526020810191909152604001600020549190610c48565b610a01565b5060019392505050565b60055460ff1690565b60006104a161054d6109fd565b84610528856001600061055e6109fd565b6001600160a01b03908116825260208083019390935260409182016000908120918c168152925290205490610cdf565b6105966109fd565b6001600160a01b03166105a76107c1565b6001600160a01b031614610602576040805162461bcd60e51b815260206004820181905260248201527f4f776e61626c653a2063616c6c6572206973206e6f7420746865206f776e6572604482015290519081900360640190fd5b80610642576040805162461bcd60e51b815260206004820152600b60248201526a0616d6f756e74203d3d20360ac1b604482015290519081900360640190fd5b61064c8282610d40565b5050565b61066161065b6109fd565b82610e30565b50565b6001600160a01b031660009081526020819052604090205490565b6106876109fd565b6001600160a01b03166106986107c1565b6001600160a01b0316146106f3576040805162461bcd60e51b815260206004820181905260248201527f4f776e61626c653a2063616c6c6572206973206e6f7420746865206f776e6572604482015290519081900360640190fd5b60055460405160009161010090046001600160a01b0316907f8be0079c531659141344cd1fd0a4f28419497f9722a3daafe3b4186f6b6457e0908390a360058054610100600160a81b0319169055565b600061077a82604051806060016040528060248152602001611104602491396107738661076e6109fd565b6108b2565b9190610c48565b905061078e836107886109fd565b83610a01565b6107988383610e30565b505050565b7f000000000000000000000000000000000000000000000000000000000000000081565b60055461010090046001600160a01b031690565b60048054604080516020601f60026000196101006001881615020190951694909404938401819004810282018101909252828152606093909290918301828280156104835780601f1061045857610100808354040283529160200191610483565b60006104a16108436109fd565b8461052885604051806060016040528060258152602001611192602591396001600061086d6109fd565b6001600160a01b03908116825260208083019390935260409182016000908120918d16815292529020549190610c48565b60006104a16108ab6109fd565b8484610aed565b6001600160a01b03918216600090815260016020908152604080832093909416825291909152205490565b6108e56109fd565b6001600160a01b03166108f66107c1565b6001600160a01b031614610951576040805162461bcd60e51b815260206004820181905260248201527f4f776e61626c653a2063616c6c6572206973206e6f7420746865206f776e6572604482015290519081900360640190fd5b6001600160a01b0381166109965760405162461bcd60e51b815260040180806020018281038252602681526020018061106e6026913960400191505060405180910390fd5b6005546040516001600160a01b0380841692610100900416907f8be0079c531659141344cd1fd0a4f28419497f9722a3daafe3b4186f6b6457e090600090a3600580546001600160a01b0390921661010002610100600160a81b0319909216919091179055565b3390565b6001600160a01b038316610a465760405162461bcd60e51b815260040180806020018281038252602481526020018061116e6024913960400191505060405180910390fd5b6001600160a01b038216610a8b5760405162461bcd60e51b81526004018080602001828103825260228152602001806110946022913960400191505060405180910390fd5b6001600160a01b03808416600081815260016020908152604080832094871680845294825291829020859055815185815291517f8c5be1e5ebec7d5bd14f71427d1e84f3dd0314c0f7b2291e5b200ac8c7c3b9259281900390910190a3505050565b6001600160a01b038316610b325760405162461bcd60e51b81526004018080602001828103825260258152602001806111496025913960400191505060405180910390fd5b6001600160a01b038216610b775760405162461bcd60e51b81526004018080602001828103825260238152602001806110296023913960400191505060405180910390fd5b610b82838383610f2c565b610bbf816040518060600160405280602681526020016110b6602691396001600160a01b0386166000908152602081905260409020549190610c48565b6001600160a01b038085166000908152602081905260408082209390935590841681522054610bee9082610cdf565b6001600160a01b038084166000818152602081815260409182902094909455805185815290519193928716927fddf252ad1be2c89b69c2b068fc378daa952ba7f163c4a11628f55a4df523b3ef92918290030190a3505050565b60008184841115610cd75760405162461bcd60e51b81526004018080602001828103825283818151815260200191508051906020019080838360005b83811015610c9c578181015183820152602001610c84565b50505050905090810190601f168015610cc95780820380516001836020036101000a031916815260200191505b509250505060405180910390fd5b505050900390565b600082820183811015610d39576040805162461bcd60e51b815260206004820152601b60248201527f536166654d6174683a206164646974696f6e206f766572666c6f770000000000604482015290519081900360640190fd5b9392505050565b6001600160a01b038216610d9b576040805162461bcd60e51b815260206004820152601f60248201527f45524332303a206d696e7420746f20746865207a65726f206164647265737300604482015290519081900360640190fd5b610da760008383610f2c565b600254610db49082610cdf565b6002556001600160a01b038216600090815260208190526040902054610dda9082610cdf565b6001600160a01b0383166000818152602081815260408083209490945583518581529351929391927fddf252ad1be2c89b69c2b068fc378daa952ba7f163c4a11628f55a4df523b3ef9281900390910190a35050565b6001600160a01b038216610e755760405162461bcd60e51b81526004018080602001828103825260218152602001806111286021913960400191505060405180910390fd5b610e8182600083610f2c565b610ebe8160405180606001604052806022815260200161104c602291396001600160a01b0385166000908152602081905260409020549190610c48565b6001600160a01b038316600090815260208190526040902055600254610ee49082610fcb565b6002556040805182815290516000916001600160a01b038516917fddf252ad1be2c89b69c2b068fc378daa952ba7f163c4a11628f55a4df523b3ef9181900360200190a35050565b610f37838383610798565b7f00000000000000000000000000000000000000000000000000000000000000006001600160a01b031663c00c125c83836040518363ffffffff1660e01b815260040180836001600160a01b0316815260200182815260200192505050600060405180830381600087803b158015610fae57600080fd5b505af1158015610fc2573d6000803e3d6000fd5b50505050505050565b600082821115611022576040805162461bcd60e51b815260206004820152601e60248201527f536166654d6174683a207375627472616374696f6e206f766572666c6f770000604482015290519081900360640190fd5b5090039056fe45524332303a207472616e7366657220746f20746865207a65726f206164647265737345524332303a206275726e20616d6f756e7420657863656564732062616c616e63654f776e61626c653a206e6577206f776e657220697320746865207a65726f206164647265737345524332303a20617070726f766520746f20746865207a65726f206164647265737345524332303a207472616e7366657220616d6f756e7420657863656564732062616c616e636545524332303a207472616e7366657220616d6f756e74206578636565647320616c6c6f77616e636545524332303a206275726e20616d6f756e74206578636565647320616c6c6f77616e636545524332303a206275726e2066726f6d20746865207a65726f206164647265737345524332303a207472616e736665722066726f6d20746865207a65726f206164647265737345524332303a20617070726f76652066726f6d20746865207a65726f206164647265737345524332303a2064656372656173656420616c6c6f77616e63652062656c6f77207a65726fa2646970667358221220e66721db69b22545e913dd1fb6c9e45e616abf286b9dca4b89e1e7190eec65ff64736f6c634300060c0033536166654d6174683a206d756c7469706c69636174696f6e206f766572666c6f77",
  "bytecodeSha1": "da39a3ee5e6b4b0d3255bfef95601890afd80709",
  "compiler": {
    "evm_version": "istanbul",
    "optimizer": {
      "enabled": true,
      "runs": 200
    },
    "version": "0.6.12+commit.27d51765"
  },
  "contractName": "Swap",
  "deployedBytecode": "608060405234801561001057600080fd5b50600436106102265760003560e01c80638456cb5911610130578063c00c125c116100b8578063da7a77be1161007c578063da7a77be1461076a578063e25aa5fa14610790578063ef0a712f14610798578063f2fde38b146107b5578063f9273ffb146107db57610226565b8063c00c125c14610700578063c4db7fa01461072c578063d0d41fe114610734578063d46300fd1461075a578063d4cadf681461076257610226565b806391695586116100ff578063916955861461062257806391ceb3eb1461065e57806398899f401461067e578063a95b089f146106b3578063ac5bf263146106e357610226565b80638456cb591461058157806384cdd9bc146105895780638beb60b6146105fd5780638da5cb5b1461061a57610226565b806352ff62ec116101b357806366c0bd241161018257806366c0bd24146104cd578063715018a6146105095780637c61e561146105115780638214f5a41461053d57806382b866001461056157610226565b806352ff62ec1461040d578063593d132c1461042a5780635c975abb1461044d5780635fd65f0f1461046957610226565b806334e19907116101fa57806334e199071461031c5780633e3a1560146103395780633f4ba83a1461036b5780634a1b0d57146103735780634d49e87d1461039957610226565b8062113e081461022b5780630419b45a146102835780630ba819591461028d57806331cd52b0146102a7575b600080fd5b61023361085b565b60408051602080825283518183015283519192839290830191858101910280838360005b8381101561026f578181015183820152602001610257565b505050509050019250505060405180910390f35b61028b6108b6565b005b61029561099a565b60408051918252519081900360200190f35b610233600480360360608110156102bd57600080fd5b81359190810190604081016020820135600160201b8111156102de57600080fd5b8201836020820111156102f057600080fd5b803590602001918460208302840111600160201b8311171561031157600080fd5b919350915035610a1f565b61028b6004803603602081101561033257600080fd5b5035610c1c565b6102956004803603608081101561034f57600080fd5b5080359060ff6020820135169060408101359060600135610cf2565b61028b610e78565b6102956004803603602081101561038957600080fd5b50356001600160a01b0316610ee4565b610295600480360360608110156103af57600080fd5b810190602081018135600160201b8111156103c957600080fd5b8201836020820111156103db57600080fd5b803590602001918460208302840111600160201b831117156103fc57600080fd5b919350915080359060200135610f7b565b61028b6004803603602081101561042357600080fd5b50356110ef565b61028b6004803603604081101561044057600080fd5b50803590602001356111aa565b610455611288565b604080519115158252519081900360200190f35b610471611298565b604080519a8b5260208b0199909952898901979097526060890195909552608088019390935260a087019190915260c086015260e08501526001600160a01b039081166101008501521661012083015251908190036101400190f35b6104f3600480360360208110156104e357600080fd5b50356001600160a01b03166112c6565b6040805160ff9092168252519081900360200190f35b61028b611348565b6102336004803603604081101561052757600080fd5b506001600160a01b0381351690602001356113f4565b61054561152f565b604080516001600160a01b039092168252519081900360200190f35b6105456004803603602081101561057757600080fd5b503560ff1661153e565b61028b6115b5565b6102956004803603606081101561059f57600080fd5b810190602081018135600160201b8111156105b957600080fd5b8201836020820111156105cb57600080fd5b803590602001918460208302840111600160201b831117156105ec57600080fd5b91935091508035906020013561161f565b61028b6004803603602081101561061357600080fd5b5035611793565b61054561184e565b610295600480360360a081101561063857600080fd5b5060ff81358116916020810135909116906040810135906060810135906080013561185d565b6102956004803603602081101561067457600080fd5b503560ff166119ec565b6102956004803603606081101561069457600080fd5b5080356001600160a01b0316906020810135906040013560ff16611a60565b610295600480360360608110156106c957600080fd5b5060ff813581169160208101359091169060400135611b04565b61028b600480360360208110156106f957600080fd5b5035611b9c565b61028b6004803603604081101561071657600080fd5b506001600160a01b038135169060200135611c57565b61028b611d1e565b61028b6004803603602081101561074a57600080fd5b50356001600160a01b0316611dd2565b610295611e95565b610295611ee9565b6102956004803603602081101561078057600080fd5b50356001600160a01b0316611eef565b610295611f54565b610295600480360360208110156107ae57600080fd5b5035611fa8565b61028b600480360360208110156107cb57600080fd5b50356001600160a01b0316612004565b610295600480360360608110156107f157600080fd5b6001600160a01b038235169190810190604081016020820135600160201b81111561081b57600080fd5b82018360208201111561082d57600080fd5b803590602001918460208302840111600160201b8311171561084e57600080fd5b9193509150351515612106565b60606002600c018054806020026020016040519081016040528092919081815260200182805480156108ac57602002820191906000526020600020905b815481526020019060010190808311610898575b5050505050905090565b6108be61229e565b6001600160a01b03166108cf61184e565b6001600160a01b031614610918576040805162461bcd60e51b81526020600482018190526024820152600080516020612436833981519152604482015290519081900360640190fd5b73__$a4e4384d4f8ec13c7a898ae597a4175ef6$__6324c5c751600261093c61184e565b6040518363ffffffff1660e01b815260040180838152602001826001600160a01b031681526020019250505060006040518083038186803b15801561098057600080fd5b505af4158015610994573d6000803e3d6000fd5b50505050565b6000600273__$a4e4384d4f8ec13c7a898ae597a4175ef6$__63c9b64dcb90916040518263ffffffff1660e01b81526004018082815260200191505060206040518083038186803b1580156109ee57600080fd5b505af4158015610a02573d6000803e3d6000fd5b505050506040513d6020811015610a1857600080fd5b5051905090565b606060026001541415610a67576040805162461bcd60e51b815260206004820152601f60248201526000805160206123cf833981519152604482015290519081900360640190fd5b60026001558142811015610ab5576040805162461bcd60e51b815260206004820152601060248201526f111958591b1a5b99481b9bdd081b595d60821b604482015290519081900360640190fd5b600273__$a4e4384d4f8ec13c7a898ae597a4175ef6$__6373fd6b3e90918888886040518563ffffffff1660e01b815260040180858152602001848152602001806020018281038252848482818152602001925060200280828437600081840152601f19601f8201169050808301925050509550505050505060006040518083038186803b158015610b4657600080fd5b505af4158015610b5a573d6000803e3d6000fd5b505050506040513d6000823e601f3d908101601f191682016040526020811015610b8357600080fd5b8101908080516040519392919084600160201b821115610ba257600080fd5b908301906020820185811115610bb757600080fd5b82518660208202830111600160201b82111715610bd357600080fd5b82525081516020918201928201910280838360005b83811015610c00578181015183820152602001610be8565b5050505090500160405250505091505060018055949350505050565b610c2461229e565b6001600160a01b0316610c3561184e565b6001600160a01b031614610c7e576040805162461bcd60e51b81526020600482018190526024820152600080516020612436833981519152604482015290519081900360640190fd5b6040805163119f861b60e21b81526002600482015260248101839052905173__$a4e4384d4f8ec13c7a898ae597a4175ef6$__9163467e186c916044808301926000929190829003018186803b158015610cd757600080fd5b505af4158015610ceb573d6000803e3d6000fd5b5050505050565b600060026001541415610d3a576040805162461bcd60e51b815260206004820152601f60248201526000805160206123cf833981519152604482015290519081900360640190fd5b6002600155610d47611288565b15610d8c576040805162461bcd60e51b815260206004820152601060248201526f14185d5cd8589b194e881c185d5cd95960821b604482015290519081900360640190fd5b8180421115610dd5576040805162461bcd60e51b815260206004820152601060248201526f111958591b1a5b99481b9bdd081b595d60821b604482015290519081900360640190fd5b6040805163e7a4db8160e01b8152600260048201526024810188905260ff8716604482015260648101869052905173__$a4e4384d4f8ec13c7a898ae597a4175ef6$__9163e7a4db81916084808301926020929190829003018186803b158015610e3e57600080fd5b505af4158015610e52573d6000803e3d6000fd5b505050506040513d6020811015610e6857600080fd5b5051600180559695505050505050565b610e8061229e565b6001600160a01b0316610e9161184e565b6001600160a01b031614610eda576040805162461bcd60e51b81526020600482018190526024820152600080516020612436833981519152604482015290519081900360640190fd5b610ee26122a2565b565b604080516325a3956560e21b8152600260048201526001600160a01b0383166024820152905160009173__$a4e4384d4f8ec13c7a898ae597a4175ef6$__9163968e559491604480820192602092909190829003018186803b158015610f4957600080fd5b505af4158015610f5d573d6000803e3d6000fd5b505050506040513d6020811015610f7357600080fd5b505192915050565b600060026001541415610fc3576040805162461bcd60e51b815260206004820152601f60248201526000805160206123cf833981519152604482015290519081900360640190fd5b6002600155610fd0611288565b15611015576040805162461bcd60e51b815260206004820152601060248201526f14185d5cd8589b194e881c185d5cd95960821b604482015290519081900360640190fd5b818042111561105e576040805162461bcd60e51b815260206004820152601060248201526f111958591b1a5b99481b9bdd081b595d60821b604482015290519081900360640190fd5b600273__$a4e4384d4f8ec13c7a898ae597a4175ef6$__6340370edf90918888886040518563ffffffff1660e01b815260040180858152602001806020018381526020018281038252858582818152602001925060200280828437600081840152601f19601f8201169050808301925050509550505050505060206040518083038186803b158015610e3e57600080fd5b6110f761229e565b6001600160a01b031661110861184e565b6001600160a01b031614611151576040805162461bcd60e51b81526020600482018190526024820152600080516020612436833981519152604482015290519081900360640190fd5b6040805163d2a3948760e01b81526002600482015260248101839052905173__$a4e4384d4f8ec13c7a898ae597a4175ef6$__9163d2a39487916044808301926000929190829003018186803b158015610cd757600080fd5b6111b261229e565b6001600160a01b03166111c361184e565b6001600160a01b03161461120c576040805162461bcd60e51b81526020600482018190526024820152600080516020612436833981519152604482015290519081900360640190fd5b604080516358fdd79b60e01b8152600260048201526024810184905260448101839052905173__$a4e4384d4f8ec13c7a898ae597a4175ef6$__916358fdd79b916064808301926000929190829003018186803b15801561126c57600080fd5b505af4158015611280573d6000803e3d6000fd5b505050505050565b600054600160a01b900460ff1690565b600254600354600454600554600654600754600854600954600a54600b546001600160a01b0391821691168a565b6001600160a01b038116600081815260116020526040812054909160ff909116906112f08261153e565b6001600160a01b031614611342576040805162461bcd60e51b8152602060048201526014602482015273151bdad95b88191bd95cc81b9bdd08195e1a5cdd60621b604482015290519081900360640190fd5b92915050565b61135061229e565b6001600160a01b031661136161184e565b6001600160a01b0316146113aa576040805162461bcd60e51b81526020600482018190526024820152600080516020612436833981519152604482015290519081900360640190fd5b600080546040516001600160a01b03909116907f8be0079c531659141344cd1fd0a4f28419497f9722a3daafe3b4186f6b6457e0908390a3600080546001600160a01b0319169055565b6040805163f967a81f60e01b8152600260048201526001600160a01b038416602482015260448101839052905160609173__$a4e4384d4f8ec13c7a898ae597a4175ef6$__9163f967a81f91606480820192600092909190829003018186803b15801561146057600080fd5b505af4158015611474573d6000803e3d6000fd5b505050506040513d6000823e601f3d908101601f19168201604052602081101561149d57600080fd5b8101908080516040519392919084600160201b8211156114bc57600080fd5b9083019060208201858111156114d157600080fd5b82518660208202830111600160201b821117156114ed57600080fd5b82525081516020918201928201910280838360005b8381101561151a578181015183820152602001611502565b50505050905001604052505050905092915050565b600b546001600160a01b031690565b600c5460009060ff831610611589576040805162461bcd60e51b815260206004820152600c60248201526b4f7574206f662072616e676560a01b604482015290519081900360640190fd5b600c805460ff841690811061159a57fe5b6000918252602090912001546001600160a01b031692915050565b6115bd61229e565b6001600160a01b03166115ce61184e565b6001600160a01b031614611617576040805162461bcd60e51b81526020600482018190526024820152600080516020612436833981519152604482015290519081900360640190fd5b610ee2612345565b600060026001541415611667576040805162461bcd60e51b815260206004820152601f60248201526000805160206123cf833981519152604482015290519081900360640190fd5b6002600155611674611288565b156116b9576040805162461bcd60e51b815260206004820152601060248201526f14185d5cd8589b194e881c185d5cd95960821b604482015290519081900360640190fd5b8180421115611702576040805162461bcd60e51b815260206004820152601060248201526f111958591b1a5b99481b9bdd081b595d60821b604482015290519081900360640190fd5b600273__$a4e4384d4f8ec13c7a898ae597a4175ef6$__6341b91c2690918888886040518563ffffffff1660e01b815260040180858152602001806020018381526020018281038252858582818152602001925060200280828437600081840152601f19601f8201169050808301925050509550505050505060206040518083038186803b158015610e3e57600080fd5b61179b61229e565b6001600160a01b03166117ac61184e565b6001600160a01b0316146117f5576040805162461bcd60e51b81526020600482018190526024820152600080516020612436833981519152604482015290519081900360640190fd5b60408051633823393b60e11b81526002600482015260248101839052905173__$a4e4384d4f8ec13c7a898ae597a4175ef6$__916370467276916044808301926000929190829003018186803b158015610cd757600080fd5b6000546001600160a01b031690565b6000600260015414156118a5576040805162461bcd60e51b815260206004820152601f60248201526000805160206123cf833981519152604482015290519081900360640190fd5b60026001556118b2611288565b156118f7576040805162461bcd60e51b815260206004820152601060248201526f14185d5cd8589b194e881c185d5cd95960821b604482015290519081900360640190fd5b8180421115611940576040805162461bcd60e51b815260206004820152601060248201526f111958591b1a5b99481b9bdd081b595d60821b604482015290519081900360640190fd5b6040805163529cbd9160e11b81526002600482015260ff808a166024830152881660448201526064810187905260848101869052905173__$a4e4384d4f8ec13c7a898ae597a4175ef6$__9163a5397b229160a4808301926020929190829003018186803b1580156119b157600080fd5b505af41580156119c5573d6000803e3d6000fd5b505050506040513d60208110156119db57600080fd5b505160018055979650505050505050565b600c5460009060ff831610611a3d576040805162461bcd60e51b8152602060048201526012602482015271496e646578206f7574206f662072616e676560701b604482015290519081900360640190fd5b600e805460ff8416908110611a4e57fe5b90600052602060002001549050919050565b60408051637254d06d60e11b8152600260048201526001600160a01b03851660248201526044810184905260ff83166064820152815160009273__$a4e4384d4f8ec13c7a898ae597a4175ef6$__9263e4a9a0da9260848083019392829003018186803b158015611ad057600080fd5b505af4158015611ae4573d6000803e3d6000fd5b505050506040513d6040811015611afa57600080fd5b5051949350505050565b604080516312c8d80f60e21b81526002600482015260ff80861660248301528416604482015260648101839052905160009173__$a4e4384d4f8ec13c7a898ae597a4175ef6$__91634b23603c91608480820192602092909190829003018186803b158015611b7257600080fd5b505af4158015611b86573d6000803e3d6000fd5b505050506040513d6020811015611afa57600080fd5b611ba461229e565b6001600160a01b0316611bb561184e565b6001600160a01b031614611bfe576040805162461bcd60e51b81526020600482018190526024820152600080516020612436833981519152604482015290519081900360640190fd5b6040805163455bb4bf60e11b81526002600482015260248101839052905173__$a4e4384d4f8ec13c7a898ae597a4175ef6$__91638ab7697e916044808301926000929190829003018186803b158015610cd757600080fd5b600b546001600160a01b03163314611cb6576040805162461bcd60e51b815260206004820152601b60248201527f4f6e6c792063616c6c61626c6520627920706f6f6c20746f6b656e0000000000604482015290519081900360640190fd5b6040805163749296a360e11b8152600260048201526001600160a01b038416602482015260448101839052905173__$a4e4384d4f8ec13c7a898ae597a4175ef6$__9163e9252d46916064808301926000929190829003018186803b15801561126c57600080fd5b611d2661229e565b6001600160a01b0316611d3761184e565b6001600160a01b031614611d80576040805162461bcd60e51b81526020600482018190526024820152600080516020612436833981519152604482015290519081900360640190fd5b604080516378a7108f60e11b815260026004820152905173__$a4e4384d4f8ec13c7a898ae597a4175ef6$__9163f14e211e916024808301926000929190829003018186803b15801561098057600080fd5b611dda61229e565b6001600160a01b0316611deb61184e565b6001600160a01b031614611e34576040805162461bcd60e51b81526020600482018190526024820152600080516020612436833981519152604482015290519081900360640190fd5b604080516321c363e760e11b8152600260048201526001600160a01b0383166024820152905173__$a4e4384d4f8ec13c7a898ae597a4175ef6$__91634386c7ce916044808301926000929190829003018186803b158015610cd757600080fd5b6000600273__$a4e4384d4f8ec13c7a898ae597a4175ef6$__63b0a14cfc90916040518263ffffffff1660e01b81526004018082815260200191505060206040518083038186803b1580156109ee57600080fd5b60065490565b60408051633a311e9560e21b8152600260048201526001600160a01b0383166024820152905160009173__$a4e4384d4f8ec13c7a898ae597a4175ef6$__9163e8c47a5491604480820192602092909190829003018186803b158015610f4957600080fd5b6000600273__$a4e4384d4f8ec13c7a898ae597a4175ef6$__6371906c2c90916040518263ffffffff1660e01b81526004018082815260200191505060206040518083038186803b1580156109ee57600080fd5b6000600273__$a4e4384d4f8ec13c7a898ae597a4175ef6$__637d0481609091846040518363ffffffff1660e01b8152600401808381526020018281526020019250505060206040518083038186803b158015610f4957600080fd5b61200c61229e565b6001600160a01b031661201d61184e565b6001600160a01b031614612066576040805162461bcd60e51b81526020600482018190526024820152600080516020612436833981519152604482015290519081900360640190fd5b6001600160a01b0381166120ab5760405162461bcd60e51b81526004018080602001828103825260268152602001806123ef6026913960400191505060405180910390fd5b600080546040516001600160a01b03808516939216917f8be0079c531659141344cd1fd0a4f28419497f9722a3daafe3b4186f6b6457e091a3600080546001600160a01b0319166001600160a01b0392909216919091179055565b6000600273__$a4e4384d4f8ec13c7a898ae597a4175ef6$__635e58579c9091878787876040518663ffffffff1660e01b815260040180868152602001856001600160a01b031681526020018060200183151581526020018281038252858582818152602001925060200280828437600081840152601f19601f820116905080830192505050965050505050505060206040518083038186803b1580156121ac57600080fd5b505af41580156121c0573d6000803e3d6000fd5b505050506040513d60208110156121d657600080fd5b505195945050505050565b600082821115612238576040805162461bcd60e51b815260206004820152601e60248201527f536166654d6174683a207375627472616374696f6e206f766572666c6f770000604482015290519081900360640190fd5b50900390565b60008261224d57506000611342565b8282028284828161225a57fe5b04146122975760405162461bcd60e51b81526004018080602001828103825260218152602001806124156021913960400191505060405180910390fd5b9392505050565b3390565b6122aa611288565b6122f2576040805162461bcd60e51b815260206004820152601460248201527314185d5cd8589b194e881b9bdd081c185d5cd95960621b604482015290519081900360640190fd5b6000805460ff60a01b191690557f5db9ee0a495bf2e6ff9c91a7834c1ba4fdd244a5e8aa4e537bd38aeae4b073aa61232861229e565b604080516001600160a01b039092168252519081900360200190a1565b61234d611288565b15612392576040805162461bcd60e51b815260206004820152601060248201526f14185d5cd8589b194e881c185d5cd95960821b604482015290519081900360640190fd5b6000805460ff60a01b1916600160a01b1790557f62e78cea01bee320cd4e420270b5ea74000d11b0c9f74754ebdbfc544b05a25861232861229e56fe5265656e7472616e637947756172643a207265656e7472616e742063616c6c004f776e61626c653a206e6577206f776e657220697320746865207a65726f2061646472657373536166654d6174683a206d756c7469706c69636174696f6e206f766572666c6f774f776e61626c653a2063616c6c6572206973206e6f7420746865206f776e6572a2646970667358221220a69d0a26e2930982bf9d92ad7bcb3efcd65b75bba966786e1eaaf74c0a2b9b7a64736f6c634300060c0033",
  "language": "Solidity",
  "natspec": {
    "details": "Most of the logic is stored as a library `SwapUtils` for the sake of reducing contract's deployment size.",
    "kind": "dev",
    "methods": {
      "addLiquidity(uint256[],uint256,uint256)": {
        "notice": "Add liquidity to the pool with given amounts",
        "params": {
          "amounts": "the amounts of each token to add, in their native precision",
          "deadline": "latest timestamp to accept this transaction",
          "minToMint": "the minimum LP tokens adding this amount of liquidity should mint, otherwise revert. Handy for front-running mitigation"
        },
        "returns": {
          "_0": "amount of LP token user minted and received"
        }
      },
      "calculateCurrentWithdrawFee(address)": {
        "details": "returned value should be divided by FEE_DENOMINATOR to convert to correct decimals",
        "notice": "Calculate the fee that is applied when the given user withdraws. The withdraw fee decays linearly over period of 4 weeks. For example, depositing and withdrawing right away will charge you the full amount of withdraw fee. But withdrawing after 4 weeks will charge you no additional fees.",
        "params": {
          "user": "address you want to calculate withdraw fee of"
        },
        "returns": {
          "_0": "current withdraw fee of the user"
        }
      },
      "calculateRemoveLiquidity(address,uint256)": {
        "notice": "A simple method to calculate amount of each underlying tokens that is returned upon burning given amount of LP tokens",
        "params": {
          "account": "the address that is withdrawing tokens",
          "amount": "the amount of LP tokens that would be burned on withdrawal"
        },
        "returns": {
          "_0": "array of token balances that the user will receive"
        }
      },
      "calculateRemoveLiquidityOneToken(address,uint256,uint8)": {
        "notice": "Calculate the amount of underlying token available to withdraw when withdrawing via only single token",
        "params": {
          "account": "the address that is withdrawing tokens",
          "tokenAmount": "the amount of LP token to burn",
          "tokenIndex": "index of which token will be withdrawn"
        },
        "returns": {
          "availableTokenAmount": "calculated amount of underlying token available to withdraw"
        }
      },
      "calculateSwap(uint8,uint8,uint256)": {
        "notice": "Calculate amount of tokens you receive on swap",
        "params": {
          "dx": "the amount of tokens the user wants to sell. If the token charges a fee on transfers, use the amount that gets transferred after the fee.",
          "tokenIndexFrom": "the token the user wants to sell",
          "tokenIndexTo": "the token the user wants to buy"
        },
        "returns": {
          "_0": "amount of tokens the user will receive"
        }
      },
      "calculateTokenAmount(address,uint256[],bool)": {
        "details": "This shouldn't be used outside frontends for user estimates.",
        "notice": "A simple method to calculate prices from deposits or withdrawals, excluding fees but including slippage. This is helpful as an input into the various \"min\" parameters on calls to fight front-running",
        "params": {
          "account": "address that is depositing or withdrawing tokens",
          "amounts": "an array of token amounts to deposit or withdrawal, corresponding to pooledTokens. The amount should be in each pooled token's native precision. If a token charges a fee on transfers, use the amount that gets transferred after the fee.",
          "deposit": "whether this is a deposit or a withdrawal"
        },
        "returns": {
          "_0": "token amount the user will receive"
        }
      },
      "constructor": {
        "params": {
          "_a": "the amplification coefficient * n * (n - 1). See the StableSwap paper for details",
          "_adminFee": "default adminFee to be initialized with",
          "_depositFee": "default depositFee to be initialized with",
          "_devaddr": "default _devaddr to be initialized with",
          "_fee": "default swap fee to be initialized with",
          "_pooledTokens": "an array of ERC20s this pool will accept",
          "_withdrawFee": "default withdrawFee to be initialized with",
          "decimals": "the decimals to use for each pooled token, eg 8 for WBTC. Cannot be larger than POOL_PRECISION_DECIMALS",
          "lpTokenName": "the long-form name of the token to be deployed",
          "lpTokenSymbol": "the short symbol for the token to be deployed"
        }
      },
      "getA()": {
        "details": "See the StableSwap paper for details",
        "notice": "Return A, the amplification coefficient * n * (n - 1)",
        "returns": {
          "_0": "A parameter"
        }
      },
      "getAPrecise()": {
        "details": "See the StableSwap paper for details",
        "notice": "Return A in its raw precision form",
        "returns": {
          "_0": "A parameter in its raw precision form"
        }
      },
      "getAdminBalance(uint256)": {
        "notice": "This function reads the accumulated amount of admin fees of the token with given index",
        "params": {
          "index": "Index of the pooled token"
        },
        "returns": {
          "_0": "admin's token balance in the token's precision"
        }
      },
      "getBalances()": {
        "notice": "Return balances of pooled tokens",
        "returns": {
          "_0": "current balances of all tokens in pool"
        }
      },
      "getDepositTimestamp(address)": {
        "notice": "Return timestamp of last deposit of given address",
        "returns": {
          "_0": "timestamp of the last deposit made by the given address"
        }
      },
      "getLpToken()": {
        "notice": "Returns address of lp token",
        "returns": {
          "_0": "address of lp token"
        }
      },
      "getSwapFee()": {
        "notice": "Returns the swap fee",
        "returns": {
          "_0": "current swap fee"
        }
      },
      "getToken(uint8)": {
        "notice": "Return address of the pooled token at given index. Reverts if tokenIndex is out of range.",
        "params": {
          "index": "the index of the token"
        },
        "returns": {
          "_0": "address of the token at given index"
        }
      },
      "getTokenBalance(uint8)": {
        "notice": "Return current balance of the pooled token at given index",
        "params": {
          "index": "the index of the token"
        },
        "returns": {
          "_0": "current balance of the pooled token at given index with token's native precision"
        }
      },
      "getTokenIndex(address)": {
        "notice": "Return the index of the given token address. Reverts if no matching token is found.",
        "params": {
          "tokenAddress": "address of the token"
        },
        "returns": {
          "_0": "the index of the given token address"
        }
      },
      "getVirtualPrice()": {
        "notice": "Get the virtual price, to help calculate profit",
        "returns": {
          "_0": "the virtual price, scaled to the POOL_PRECISION_DECIMALS"
        }
      },
      "owner()": {
        "details": "Returns the address of the current owner."
      },
      "pause()": {
        "notice": "Pause the contract. Revert if already paused."
      },
      "paused()": {
        "details": "Returns true if the contract is paused, and false otherwise."
      },
      "rampA(uint256,uint256)": {
        "notice": "Start ramping up or down A parameter towards given futureA and futureTime Checks if the change is too rapid, and commits the new A value only when it falls under the limit range.",
        "params": {
          "futureA": "the new A to ramp towards",
          "futureTime": "timestamp when the new A should be reached"
        }
      },
      "removeLiquidity(uint256,uint256[],uint256)": {
        "details": "Liquidity can always be removed, even when the pool is paused.",
        "notice": "Burn LP tokens to remove liquidity from the pool. Withdraw fee that decays linearly over period of 4 weeks since last deposit will apply.",
        "params": {
          "amount": "the amount of LP tokens to burn",
          "deadline": "latest timestamp to accept this transaction",
          "minAmounts": "the minimum amounts of each token in the pool        acceptable for this burn. Useful as a front-running mitigation"
        },
        "returns": {
          "_0": "amounts of tokens user received"
        }
      },
      "removeLiquidityImbalance(uint256[],uint256,uint256)": {
        "notice": "Remove liquidity from the pool, weighted differently than the pool's current balances. Withdraw fee that decays linearly over period of 4 weeks since last deposit will apply.",
        "params": {
          "amounts": "how much of each token to withdraw",
          "deadline": "latest timestamp to accept this transaction",
          "maxBurnAmount": "the max LP token provider is willing to pay to remove liquidity. Useful as a front-running mitigation."
        },
        "returns": {
          "_0": "amount of LP tokens burned"
        }
      },
      "removeLiquidityOneToken(uint256,uint8,uint256,uint256)": {
        "notice": "Remove liquidity from the pool all in one token. Withdraw fee that decays linearly over period of 4 weeks since last deposit will apply.",
        "params": {
          "deadline": "latest timestamp to accept this transaction",
          "minAmount": "the minimum amount to withdraw, otherwise revert",
          "tokenAmount": "the amount of the token you want to receive",
          "tokenIndex": "the index of the token you want to receive"
        },
        "returns": {
          "_0": "amount of chosen token user received"
        }
      },
      "renounceOwnership()": {
        "details": "Leaves the contract without owner. It will not be possible to call `onlyOwner` functions anymore. Can only be called by the current owner. NOTE: Renouncing ownership will leave the contract without an owner, thereby removing any functionality that is only available to the owner."
      },
      "setAdminFee(uint256)": {
        "notice": "Update the admin fee. Admin fee takes portion of the swap fee.",
        "params": {
          "newAdminFee": "new admin fee to be applied on future transactions"
        }
      },
      "setDefaultDepositFee(uint256)": {
        "notice": "Update the deposit fee. ",
        "params": {
          "newDepositFee": "new deposit fee to be applied on future deposits"
        }
      },
      "setDefaultWithdrawFee(uint256)": {
        "notice": "Update the withdraw fee. This fee decays linearly over 4 weeks since user's last deposit.",
        "params": {
          "newWithdrawFee": "new withdraw fee to be applied on future deposits"
        }
      },
      "setSwapFee(uint256)": {
        "notice": "Update the swap fee to be applied on swaps",
        "params": {
          "newSwapFee": "new swap fee to be applied on future transactions"
        }
      },
      "stopRampA()": {
        "notice": "Stop ramping A immediately. Reverts if ramp A is already stopped."
      },
      "swap(uint8,uint8,uint256,uint256,uint256)": {
        "notice": "Swap two tokens using this pool",
        "params": {
          "deadline": "latest timestamp to accept this transaction",
          "dx": "the amount of tokens the user wants to swap from",
          "minDy": "the min amount the user would like to receive, or revert.",
          "tokenIndexFrom": "the token the user wants to swap from",
          "tokenIndexTo": "the token the user wants to swap to"
        }
      },
      "transferOwnership(address)": {
        "details": "Transfers ownership of the contract to a new account (`newOwner`). Can only be called by the current owner."
      },
      "unpause()": {
        "notice": "Unpause the contract. Revert if already unpaused."
      },
      "updateUserWithdrawFee(address,uint256)": {
        "notice": "Updates the user withdraw fee. This function can only be called by the pool token. Should be used to update the withdraw fee on transfer of pool tokens. Transferring your pool token will reset the 4 weeks period. If the recipient is already holding some pool tokens, the withdraw fee will be discounted in respective amounts.",
        "params": {
          "recipient": "address of the recipient of pool token",
          "transferAmount": "amount of pool token to transfer"
        }
      },
      "withdrawAdminFees()": {
        "notice": "Withdraw all admin fees to the contract owner"
      }
    },
    "notice": "This contract is responsible for custody of closely pegged assets (eg. group of stablecoins) and automatic market making system. Users become an LP (Liquidity Provider) by depositing their tokens in desired ratios for an exchange of the pool token that represents their share of the pool. Users can burn pool tokens and withdraw their share of token(s). Each time a swap between the pooled tokens happens, a set fee incurs which effectively gets distributed to the LPs. In case of emergencies, admin can pause additional deposits, swaps, or single-asset withdraws - which stops the ratio of the tokens in the pool from changing. Users can always withdraw their tokens via multi-asset withdraws.",
    "title": "Swap - A StableSwap implementation in solidity.",
    "version": 1
  },
  "opcodes": "PUSH1 0x80 PUSH1 0x40 MSTORE CALLVALUE DUP1 ISZERO PUSH2 0x10 JUMPI PUSH1 0x0 DUP1 REVERT JUMPDEST POP PUSH1 0x4 CALLDATASIZE LT PUSH2 0x226 JUMPI PUSH1 0x0 CALLDATALOAD PUSH1 0xE0 SHR DUP1 PUSH4 0x8456CB59 GT PUSH2 0x130 JUMPI DUP1 PUSH4 0xC00C125C GT PUSH2 0xB8 JUMPI DUP1 PUSH4 0xDA7A77BE GT PUSH2 0x7C JUMPI DUP1 PUSH4 0xDA7A77BE EQ PUSH2 0x76A JUMPI DUP1 PUSH4 0xE25AA5FA EQ PUSH2 0x790 JUMPI DUP1 PUSH4 0xEF0A712F EQ PUSH2 0x798 JUMPI DUP1 PUSH4 0xF2FDE38B EQ PUSH2 0x7B5 JUMPI DUP1 PUSH4 0xF9273FFB EQ PUSH2 0x7DB JUMPI PUSH2 0x226 JUMP JUMPDEST DUP1 PUSH4 0xC00C125C EQ PUSH2 0x700 JUMPI DUP1 PUSH4 0xC4DB7FA0 EQ PUSH2 0x72C JUMPI DUP1 PUSH4 0xD0D41FE1 EQ PUSH2 0x734 JUMPI DUP1 PUSH4 0xD46300FD EQ PUSH2 0x75A JUMPI DUP1 PUSH4 0xD4CADF68 EQ PUSH2 0x762 JUMPI PUSH2 0x226 JUMP JUMPDEST DUP1 PUSH4 0x91695586 GT PUSH2 0xFF JUMPI DUP1 PUSH4 0x91695586 EQ PUSH2 0x622 JUMPI DUP1 PUSH4 0x91CEB3EB EQ PUSH2 0x65E JUMPI DUP1 PUSH4 0x98899F40 EQ PUSH2 0x67E JUMPI DUP1 PUSH4 0xA95B089F EQ PUSH2 0x6B3 JUMPI DUP1 PUSH4 0xAC5BF263 EQ PUSH2 0x6E3 JUMPI PUSH2 0x226 JUMP JUMPDEST DUP1 PUSH4 0x8456CB59 EQ PUSH2 0x581 JUMPI DUP1 PUSH4 0x84CDD9BC EQ PUSH2 0x589 JUMPI DUP1 PUSH4 0x8BEB60B6 EQ PUSH2 0x5FD JUMPI DUP1 PUSH4 0x8DA5CB5B EQ PUSH2 0x61A JUMPI PUSH2 0x226 JUMP JUMPDEST DUP1 PUSH4 0x52FF62EC GT PUSH2 0x1B3 JUMPI DUP1 PUSH4 0x66C0BD24 GT PUSH2 0x182 JUMPI DUP1 PUSH4 0x66C0BD24 EQ PUSH2 0x4CD JUMPI DUP1 PUSH4 0x715018A6 EQ PUSH2 0x509 JUMPI DUP1 PUSH4 0x7C61E561 EQ PUSH2 0x511 JUMPI DUP1 PUSH4 0x8214F5A4 EQ PUSH2 0x53D JUMPI DUP1 PUSH4 0x82B86600 EQ PUSH2 0x561 JUMPI PUSH2 0x226 JUMP JUMPDEST DUP1 PUSH4 0x52FF62EC EQ PUSH2 0x40D JUMPI DUP1 PUSH4 0x593D132C EQ PUSH2 0x42A JUMPI DUP1 PUSH4 0x5C975ABB EQ PUSH2 0x44D JUMPI DUP1 PUSH4 0x5FD65F0F EQ PUSH2 0x469 JUMPI PUSH2 0x226 JUMP JUMPDEST DUP1 PUSH4 0x34E19907 GT PUSH2 0x1FA JUMPI DUP1 PUSH4 0x34E19907 EQ PUSH2 0x31C JUMPI DUP1 PUSH4 0x3E3A1560 EQ PUSH2 0x339 JUMPI DUP1 PUSH4 0x3F4BA83A EQ PUSH2 0x36B JUMPI DUP1 PUSH4 0x4A1B0D57 EQ PUSH2 0x373 JUMPI DUP1 PUSH4 0x4D49E87D EQ PUSH2 0x399 JUMPI PUSH2 0x226 JUMP JUMPDEST DUP1 PUSH3 0x113E08 EQ PUSH2 0x22B JUMPI DUP1 PUSH4 0x419B45A EQ PUSH2 0x283 JUMPI DUP1 PUSH4 0xBA81959 EQ PUSH2 0x28D JUMPI DUP1 PUSH4 0x31CD52B0 EQ PUSH2 0x2A7 JUMPI JUMPDEST PUSH1 0x0 DUP1 REVERT JUMPDEST PUSH2 0x233 PUSH2 0x85B JUMP JUMPDEST PUSH1 0x40 DUP1 MLOAD PUSH1 0x20 DUP1 DUP3 MSTORE DUP4 MLOAD DUP2 DUP4 ADD MSTORE DUP4 MLOAD SWAP2 SWAP3 DUP4 SWAP3 SWAP1 DUP4 ADD SWAP2 DUP6 DUP2 ADD SWAP2 MUL DUP1 DUP4 DUP4 PUSH1 0x0 JUMPDEST DUP4 DUP2 LT ISZERO PUSH2 0x26F JUMPI DUP2 DUP2 ADD MLOAD DUP4 DUP3 ADD MSTORE PUSH1 0x20 ADD PUSH2 0x257 JUMP JUMPDEST POP POP POP POP SWAP1 POP ADD SWAP3 POP POP POP PUSH1 0x40 MLOAD DUP1 SWAP2 SUB SWAP1 RETURN JUMPDEST PUSH2 0x28B PUSH2 0x8B6 JUMP JUMPDEST STOP JUMPDEST PUSH2 0x295 PUSH2 0x99A JUMP JUMPDEST PUSH1 0x40 DUP1 MLOAD SWAP2 DUP3 MSTORE MLOAD SWAP1 DUP2 SWAP1 SUB PUSH1 0x20 ADD SWAP1 RETURN JUMPDEST PUSH2 0x233 PUSH1 0x4 DUP1 CALLDATASIZE SUB PUSH1 0x60 DUP2 LT ISZERO PUSH2 0x2BD JUMPI PUSH1 0x0 DUP1 REVERT JUMPDEST DUP2 CALLDATALOAD SWAP2 SWAP1 DUP2 ADD SWAP1 PUSH1 0x40 DUP2 ADD PUSH1 0x20 DUP3 ADD CALLDATALOAD PUSH1 0x1 PUSH1 0x20 SHL DUP2 GT ISZERO PUSH2 0x2DE JUMPI PUSH1 0x0 DUP1 REVERT JUMPDEST DUP3 ADD DUP4 PUSH1 0x20 DUP3 ADD GT ISZERO PUSH2 0x2F0 JUMPI PUSH1 0x0 DUP1 REVERT JUMPDEST DUP1 CALLDATALOAD SWAP1 PUSH1 0x20 ADD SWAP2 DUP5 PUSH1 0x20 DUP4 MUL DUP5 ADD GT PUSH1 0x1 PUSH1 0x20 SHL DUP4 GT OR ISZERO PUSH2 0x311 JUMPI PUSH1 0x0 DUP1 REVERT JUMPDEST SWAP2 SWAP4 POP SWAP2 POP CALLDATALOAD PUSH2 0xA1F JUMP JUMPDEST PUSH2 0x28B PUSH1 0x4 DUP1 CALLDATASIZE SUB PUSH1 0x20 DUP2 LT ISZERO PUSH2 0x332 JUMPI PUSH1 0x0 DUP1 REVERT JUMPDEST POP CALLDATALOAD PUSH2 0xC1C JUMP JUMPDEST PUSH2 0x295 PUSH1 0x4 DUP1 CALLDATASIZE SUB PUSH1 0x80 DUP2 LT ISZERO PUSH2 0x34F JUMPI PUSH1 0x0 DUP1 REVERT JUMPDEST POP DUP1 CALLDATALOAD SWAP1 PUSH1 0xFF PUSH1 0x20 DUP3 ADD CALLDATALOAD AND SWAP1 PUSH1 0x40 DUP2 ADD CALLDATALOAD SWAP1 PUSH1 0x60 ADD CALLDATALOAD PUSH2 0xCF2 JUMP JUMPDEST PUSH2 0x28B PUSH2 0xE78 JUMP JUMPDEST PUSH2 0x295 PUSH1 0x4 DUP1 CALLDATASIZE SUB PUSH1 0x20 DUP2 LT ISZERO PUSH2 0x389 JUMPI PUSH1 0x0 DUP1 REVERT JUMPDEST POP CALLDATALOAD PUSH1 0x1 PUSH1 0x1 PUSH1 0xA0 SHL SUB AND PUSH2 0xEE4 JUMP JUMPDEST PUSH2 0x295 PUSH1 0x4 DUP1 CALLDATASIZE SUB PUSH1 0x60 DUP2 LT ISZERO PUSH2 0x3AF JUMPI PUSH1 0x0 DUP1 REVERT JUMPDEST DUP2 ADD SWAP1 PUSH1 0x20 DUP2 ADD DUP2 CALLDATALOAD PUSH1 0x1 PUSH1 0x20 SHL DUP2 GT ISZERO PUSH2 0x3C9 JUMPI PUSH1 0x0 DUP1 REVERT JUMPDEST DUP3 ADD DUP4 PUSH1 0x20 DUP3 ADD GT ISZERO PUSH2 0x3DB JUMPI PUSH1 0x0 DUP1 REVERT JUMPDEST DUP1 CALLDATALOAD SWAP1 PUSH1 0x20 ADD SWAP2 DUP5 PUSH1 0x20 DUP4 MUL DUP5 ADD GT PUSH1 0x1 PUSH1 0x20 SHL DUP4 GT OR ISZERO PUSH2 0x3FC JUMPI PUSH1 0x0 DUP1 REVERT JUMPDEST SWAP2 SWAP4 POP SWAP2 POP DUP1 CALLDATALOAD SWAP1 PUSH1 0x20 ADD CALLDATALOAD PUSH2 0xF7B JUMP JUMPDEST PUSH2 0x28B PUSH1 0x4 DUP1 CALLDATASIZE SUB PUSH1 0x20 DUP2 LT ISZERO PUSH2 0x423 JUMPI PUSH1 0x0 DUP1 REVERT JUMPDEST POP CALLDATALOAD PUSH2 0x10EF JUMP JUMPDEST PUSH2 0x28B PUSH1 0x4 DUP1 CALLDATASIZE SUB PUSH1 0x40 DUP2 LT ISZERO PUSH2 0x440 JUMPI PUSH1 0x0 DUP1 REVERT JUMPDEST POP DUP1 CALLDATALOAD SWAP1 PUSH1 0x20 ADD CALLDATALOAD PUSH2 0x11AA JUMP JUMPDEST PUSH2 0x455 PUSH2 0x1288 JUMP JUMPDEST PUSH1 0x40 DUP1 MLOAD SWAP2 ISZERO ISZERO DUP3 MSTORE MLOAD SWAP1 DUP2 SWAP1 SUB PUSH1 0x20 ADD SWAP1 RETURN JUMPDEST PUSH2 0x471 PUSH2 0x1298 JUMP JUMPDEST PUSH1 0x40 DUP1 MLOAD SWAP11 DUP12 MSTORE PUSH1 0x20 DUP12 ADD SWAP10 SWAP1 SWAP10 MSTORE DUP10 DUP10 ADD SWAP8 SWAP1 SWAP8 MSTORE PUSH1 0x60 DUP10 ADD SWAP6 SWAP1 SWAP6 MSTORE PUSH1 0x80 DUP9 ADD SWAP4 SWAP1 SWAP4 MSTORE PUSH1 0xA0 DUP8 ADD SWAP2 SWAP1 SWAP2 MSTORE PUSH1 0xC0 DUP7 ADD MSTORE PUSH1 0xE0 DUP6 ADD MSTORE PUSH1 0x1 PUSH1 0x1 PUSH1 0xA0 SHL SUB SWAP1 DUP2 AND PUSH2 0x100 DUP6 ADD MSTORE AND PUSH2 0x120 DUP4 ADD MSTORE MLOAD SWAP1 DUP2 SWAP1 SUB PUSH2 0x140 ADD SWAP1 RETURN JUMPDEST PUSH2 0x4F3 PUSH1 0x4 DUP1 CALLDATASIZE SUB PUSH1 0x20 DUP2 LT ISZERO PUSH2 0x4E3 JUMPI PUSH1 0x0 DUP1 REVERT JUMPDEST POP CALLDATALOAD PUSH1 0x1 PUSH1 0x1 PUSH1 0xA0 SHL SUB AND PUSH2 0x12C6 JUMP JUMPDEST PUSH1 0x40 DUP1 MLOAD PUSH1 0xFF SWAP1 SWAP3 AND DUP3 MSTORE MLOAD SWAP1 DUP2 SWAP1 SUB PUSH1 0x20 ADD SWAP1 RETURN JUMPDEST PUSH2 0x28B PUSH2 0x1348 JUMP JUMPDEST PUSH2 0x233 PUSH1 0x4 DUP1 CALLDATASIZE SUB PUSH1 0x40 DUP2 LT ISZERO PUSH2 0x527 JUMPI PUSH1 0x0 DUP1 REVERT JUMPDEST POP PUSH1 0x1 PUSH1 0x1 PUSH1 0xA0 SHL SUB DUP2 CALLDATALOAD AND SWAP1 PUSH1 0x20 ADD CALLDATALOAD PUSH2 0x13F4 JUMP JUMPDEST PUSH2 0x545 PUSH2 0x152F JUMP JUMPDEST PUSH1 0x40 DUP1 MLOAD PUSH1 0x1 PUSH1 0x1 PUSH1 0xA0 SHL SUB SWAP1 SWAP3 AND DUP3 MSTORE MLOAD SWAP1 DUP2 SWAP1 SUB PUSH1 0x20 ADD SWAP1 RETURN JUMPDEST PUSH2 0x545 PUSH1 0x4 DUP1 CALLDATASIZE SUB PUSH1 0x20 DUP2 LT ISZERO PUSH2 0x577 JUMPI PUSH1 0x0 DUP1 REVERT JUMPDEST POP CALLDATALOAD PUSH1 0xFF AND PUSH2 0x153E JUMP JUMPDEST PUSH2 0x28B PUSH2 0x15B5 JUMP JUMPDEST PUSH2 0x295 PUSH1 0x4 DUP1 CALLDATASIZE SUB PUSH1 0x60 DUP2 LT ISZERO PUSH2 0x59F JUMPI PUSH1 0x0 DUP1 REVERT JUMPDEST DUP2 ADD SWAP1 PUSH1 0x20 DUP2 ADD DUP2 CALLDATALOAD PUSH1 0x1 PUSH1 0x20 SHL DUP2 GT ISZERO PUSH2 0x5B9 JUMPI PUSH1 0x0 DUP1 REVERT JUMPDEST DUP3 ADD DUP4 PUSH1 0x20 DUP3 ADD GT ISZERO PUSH2 0x5CB JUMPI PUSH1 0x0 DUP1 REVERT JUMPDEST DUP1 CALLDATALOAD SWAP1 PUSH1 0x20 ADD SWAP2 DUP5 PUSH1 0x20 DUP4 MUL DUP5 ADD GT PUSH1 0x1 PUSH1 0x20 SHL DUP4 GT OR ISZERO PUSH2 0x5EC JUMPI PUSH1 0x0 DUP1 REVERT JUMPDEST SWAP2 SWAP4 POP SWAP2 POP DUP1 CALLDATALOAD SWAP1 PUSH1 0x20 ADD CALLDATALOAD PUSH2 0x161F JUMP JUMPDEST PUSH2 0x28B PUSH1 0x4 DUP1 CALLDATASIZE SUB PUSH1 0x20 DUP2 LT ISZERO PUSH2 0x613 JUMPI PUSH1 0x0 DUP1 REVERT JUMPDEST POP CALLDATALOAD PUSH2 0x1793 JUMP JUMPDEST PUSH2 0x545 PUSH2 0x184E JUMP JUMPDEST PUSH2 0x295 PUSH1 0x4 DUP1 CALLDATASIZE SUB PUSH1 0xA0 DUP2 LT ISZERO PUSH2 0x638 JUMPI PUSH1 0x0 DUP1 REVERT JUMPDEST POP PUSH1 0xFF DUP2 CALLDATALOAD DUP2 AND SWAP2 PUSH1 0x20 DUP2 ADD CALLDATALOAD SWAP1 SWAP2 AND SWAP1 PUSH1 0x40 DUP2 ADD CALLDATALOAD SWAP1 PUSH1 0x60 DUP2 ADD CALLDATALOAD SWAP1 PUSH1 0x80 ADD CALLDATALOAD PUSH2 0x185D JUMP JUMPDEST PUSH2 0x295 PUSH1 0x4 DUP1 CALLDATASIZE SUB PUSH1 0x20 DUP2 LT ISZERO PUSH2 0x674 JUMPI PUSH1 0x0 DUP1 REVERT JUMPDEST POP CALLDATALOAD PUSH1 0xFF AND PUSH2 0x19EC JUMP JUMPDEST PUSH2 0x295 PUSH1 0x4 DUP1 CALLDATASIZE SUB PUSH1 0x60 DUP2 LT ISZERO PUSH2 0x694 JUMPI PUSH1 0x0 DUP1 REVERT JUMPDEST POP DUP1 CALLDATALOAD PUSH1 0x1 PUSH1 0x1 PUSH1 0xA0 SHL SUB AND SWAP1 PUSH1 0x20 DUP2 ADD CALLDATALOAD SWAP1 PUSH1 0x40 ADD CALLDATALOAD PUSH1 0xFF AND PUSH2 0x1A60 JUMP JUMPDEST PUSH2 0x295 PUSH1 0x4 DUP1 CALLDATASIZE SUB PUSH1 0x60 DUP2 LT ISZERO PUSH2 0x6C9 JUMPI PUSH1 0x0 DUP1 REVERT JUMPDEST POP PUSH1 0xFF DUP2 CALLDATALOAD DUP2 AND SWAP2 PUSH1 0x20 DUP2 ADD CALLDATALOAD SWAP1 SWAP2 AND SWAP1 PUSH1 0x40 ADD CALLDATALOAD PUSH2 0x1B04 JUMP JUMPDEST PUSH2 0x28B PUSH1 0x4 DUP1 CALLDATASIZE SUB PUSH1 0x20 DUP2 LT ISZERO PUSH2 0x6F9 JUMPI PUSH1 0x0 DUP1 REVERT JUMPDEST POP CALLDATALOAD PUSH2 0x1B9C JUMP JUMPDEST PUSH2 0x28B PUSH1 0x4 DUP1 CALLDATASIZE SUB PUSH1 0x40 DUP2 LT ISZERO PUSH2 0x716 JUMPI PUSH1 0x0 DUP1 REVERT JUMPDEST POP PUSH1 0x1 PUSH1 0x1 PUSH1 0xA0 SHL SUB DUP2 CALLDATALOAD AND SWAP1 PUSH1 0x20 ADD CALLDATALOAD PUSH2 0x1C57 JUMP JUMPDEST PUSH2 0x28B PUSH2 0x1D1E JUMP JUMPDEST PUSH2 0x28B PUSH1 0x4 DUP1 CALLDATASIZE SUB PUSH1 0x20 DUP2 LT ISZERO PUSH2 0x74A JUMPI PUSH1 0x0 DUP1 REVERT JUMPDEST POP CALLDATALOAD PUSH1 0x1 PUSH1 0x1 PUSH1 0xA0 SHL SUB AND PUSH2 0x1DD2 JUMP JUMPDEST PUSH2 0x295 PUSH2 0x1E95 JUMP JUMPDEST PUSH2 0x295 PUSH2 0x1EE9 JUMP JUMPDEST PUSH2 0x295 PUSH1 0x4 DUP1 CALLDATASIZE SUB PUSH1 0x20 DUP2 LT ISZERO PUSH2 0x780 JUMPI PUSH1 0x0 DUP1 REVERT JUMPDEST POP CALLDATALOAD PUSH1 0x1 PUSH1 0x1 PUSH1 0xA0 SHL SUB AND PUSH2 0x1EEF JUMP JUMPDEST PUSH2 0x295 PUSH2 0x1F54 JUMP JUMPDEST PUSH2 0x295 PUSH1 0x4 DUP1 CALLDATASIZE SUB PUSH1 0x20 DUP2 LT ISZERO PUSH2 0x7AE JUMPI PUSH1 0x0 DUP1 REVERT JUMPDEST POP CALLDATALOAD PUSH2 0x1FA8 JUMP JUMPDEST PUSH2 0x28B PUSH1 0x4 DUP1 CALLDATASIZE SUB PUSH1 0x20 DUP2 LT ISZERO PUSH2 0x7CB JUMPI PUSH1 0x0 DUP1 REVERT JUMPDEST POP CALLDATALOAD PUSH1 0x1 PUSH1 0x1 PUSH1 0xA0 SHL SUB AND PUSH2 0x2004 JUMP JUMPDEST PUSH2 0x295 PUSH1 0x4 DUP1 CALLDATASIZE SUB PUSH1 0x60 DUP2 LT ISZERO PUSH2 0x7F1 JUMPI PUSH1 0x0 DUP1 REVERT JUMPDEST PUSH1 0x1 PUSH1 0x1 PUSH1 0xA0 SHL SUB DUP3 CALLDATALOAD AND SWAP2 SWAP1 DUP2 ADD SWAP1 PUSH1 0x40 DUP2 ADD PUSH1 0x20 DUP3 ADD CALLDATALOAD PUSH1 0x1 PUSH1 0x20 SHL DUP2 GT ISZERO PUSH2 0x81B JUMPI PUSH1 0x0 DUP1 REVERT JUMPDEST DUP3 ADD DUP4 PUSH1 0x20 DUP3 ADD GT ISZERO PUSH2 0x82D JUMPI PUSH1 0x0 DUP1 REVERT JUMPDEST DUP1 CALLDATALOAD SWAP1 PUSH1 0x20 ADD SWAP2 DUP5 PUSH1 0x20 DUP4 MUL DUP5 ADD GT PUSH1 0x1 PUSH1 0x20 SHL DUP4 GT OR ISZERO PUSH2 0x84E JUMPI PUSH1 0x0 DUP1 REVERT JUMPDEST SWAP2 SWAP4 POP SWAP2 POP CALLDATALOAD ISZERO ISZERO PUSH2 0x2106 JUMP JUMPDEST PUSH1 0x60 PUSH1 0x2 PUSH1 0xC ADD DUP1 SLOAD DUP1 PUSH1 0x20 MUL PUSH1 0x20 ADD PUSH1 0x40 MLOAD SWAP1 DUP2 ADD PUSH1 0x40 MSTORE DUP1 SWAP3 SWAP2 SWAP1 DUP2 DUP2 MSTORE PUSH1 0x20 ADD DUP3 DUP1 SLOAD DUP1 ISZERO PUSH2 0x8AC JUMPI PUSH1 0x20 MUL DUP3 ADD SWAP2 SWAP1 PUSH1 0x0 MSTORE PUSH1 0x20 PUSH1 0x0 KECCAK256 SWAP1 JUMPDEST DUP2 SLOAD DUP2 MSTORE PUSH1 0x20 ADD SWAP1 PUSH1 0x1 ADD SWAP1 DUP1 DUP4 GT PUSH2 0x898 JUMPI JUMPDEST POP POP POP POP POP SWAP1 POP SWAP1 JUMP JUMPDEST PUSH2 0x8BE PUSH2 0x229E JUMP JUMPDEST PUSH1 0x1 PUSH1 0x1 PUSH1 0xA0 SHL SUB AND PUSH2 0x8CF PUSH2 0x184E JUMP JUMPDEST PUSH1 0x1 PUSH1 0x1 PUSH1 0xA0 SHL SUB AND EQ PUSH2 0x918 JUMPI PUSH1 0x40 DUP1 MLOAD PUSH3 0x461BCD PUSH1 0xE5 SHL DUP2 MSTORE PUSH1 0x20 PUSH1 0x4 DUP3 ADD DUP2 SWAP1 MSTORE PUSH1 0x24 DUP3 ADD MSTORE PUSH1 0x0 DUP1 MLOAD PUSH1 0x20 PUSH2 0x2436 DUP4 CODECOPY DUP2 MLOAD SWAP2 MSTORE PUSH1 0x44 DUP3 ADD MSTORE SWAP1 MLOAD SWAP1 DUP2 SWAP1 SUB PUSH1 0x64 ADD SWAP1 REVERT JUMPDEST PUSH20 0x0 PUSH4 0x24C5C751 PUSH1 0x2 PUSH2 0x93C PUSH2 0x184E JUMP JUMPDEST PUSH1 0x40 MLOAD DUP4 PUSH4 0xFFFFFFFF AND PUSH1 0xE0 SHL DUP2 MSTORE PUSH1 0x4 ADD DUP1 DUP4 DUP2 MSTORE PUSH1 0x20 ADD DUP3 PUSH1 0x1 PUSH1 0x1 PUSH1 0xA0 SHL SUB AND DUP2 MSTORE PUSH1 0x20 ADD SWAP3 POP POP POP PUSH1 0x0 PUSH1 0x40 MLOAD DUP1 DUP4 SUB DUP2 DUP7 DUP1 EXTCODESIZE ISZERO DUP1 ISZERO PUSH2 0x980 JUMPI PUSH1 0x0 DUP1 REVERT JUMPDEST POP GAS DELEGATECALL ISZERO DUP1 ISZERO PUSH2 0x994 JUMPI RETURNDATASIZE PUSH1 0x0 DUP1 RETURNDATACOPY RETURNDATASIZE PUSH1 0x0 REVERT JUMPDEST POP POP POP POP JUMP JUMPDEST PUSH1 0x0 PUSH1 0x2 PUSH20 0x0 PUSH4 0xC9B64DCB SWAP1 SWAP2 PUSH1 0x40 MLOAD DUP3 PUSH4 0xFFFFFFFF AND PUSH1 0xE0 SHL DUP2 MSTORE PUSH1 0x4 ADD DUP1 DUP3 DUP2 MSTORE PUSH1 0x20 ADD SWAP2 POP POP PUSH1 0x20 PUSH1 0x40 MLOAD DUP1 DUP4 SUB DUP2 DUP7 DUP1 EXTCODESIZE ISZERO DUP1 ISZERO PUSH2 0x9EE JUMPI PUSH1 0x0 DUP1 REVERT JUMPDEST POP GAS DELEGATECALL ISZERO DUP1 ISZERO PUSH2 0xA02 JUMPI RETURNDATASIZE PUSH1 0x0 DUP1 RETURNDATACOPY RETURNDATASIZE PUSH1 0x0 REVERT JUMPDEST POP POP POP POP PUSH1 0x40 MLOAD RETURNDATASIZE PUSH1 0x20 DUP2 LT ISZERO PUSH2 0xA18 JUMPI PUSH1 0x0 DUP1 REVERT JUMPDEST POP MLOAD SWAP1 POP SWAP1 JUMP JUMPDEST PUSH1 0x60 PUSH1 0x2 PUSH1 0x1 SLOAD EQ ISZERO PUSH2 0xA67 JUMPI PUSH1 0x40 DUP1 MLOAD PUSH3 0x461BCD PUSH1 0xE5 SHL DUP2 MSTORE PUSH1 0x20 PUSH1 0x4 DUP3 ADD MSTORE PUSH1 0x1F PUSH1 0x24 DUP3 ADD MSTORE PUSH1 0x0 DUP1 MLOAD PUSH1 0x20 PUSH2 0x23CF DUP4 CODECOPY DUP2 MLOAD SWAP2 MSTORE PUSH1 0x44 DUP3 ADD MSTORE SWAP1 MLOAD SWAP1 DUP2 SWAP1 SUB PUSH1 0x64 ADD SWAP1 REVERT JUMPDEST PUSH1 0x2 PUSH1 0x1 SSTORE DUP2 TIMESTAMP DUP2 LT ISZERO PUSH2 0xAB5 JUMPI PUSH1 0x40 DUP1 MLOAD PUSH3 0x461BCD PUSH1 0xE5 SHL DUP2 MSTORE PUSH1 0x20 PUSH1 0x4 DUP3 ADD MSTORE PUSH1 0x10 PUSH1 0x24 DUP3 ADD MSTORE PUSH16 0x111958591B1A5B99481B9BDD081B595D PUSH1 0x82 SHL PUSH1 0x44 DUP3 ADD MSTORE SWAP1 MLOAD SWAP1 DUP2 SWAP1 SUB PUSH1 0x64 ADD SWAP1 REVERT JUMPDEST PUSH1 0x2 PUSH20 0x0 PUSH4 0x73FD6B3E SWAP1 SWAP2 DUP9 DUP9 DUP9 PUSH1 0x40 MLOAD DUP6 PUSH4 0xFFFFFFFF AND PUSH1 0xE0 SHL DUP2 MSTORE PUSH1 0x4 ADD DUP1 DUP6 DUP2 MSTORE PUSH1 0x20 ADD DUP5 DUP2 MSTORE PUSH1 0x20 ADD DUP1 PUSH1 0x20 ADD DUP3 DUP2 SUB DUP3 MSTORE DUP5 DUP5 DUP3 DUP2 DUP2 MSTORE PUSH1 0x20 ADD SWAP3 POP PUSH1 0x20 MUL DUP1 DUP3 DUP5 CALLDATACOPY PUSH1 0x0 DUP2 DUP5 ADD MSTORE PUSH1 0x1F NOT PUSH1 0x1F DUP3 ADD AND SWAP1 POP DUP1 DUP4 ADD SWAP3 POP POP POP SWAP6 POP POP POP POP POP POP PUSH1 0x0 PUSH1 0x40 MLOAD DUP1 DUP4 SUB DUP2 DUP7 DUP1 EXTCODESIZE ISZERO DUP1 ISZERO PUSH2 0xB46 JUMPI PUSH1 0x0 DUP1 REVERT JUMPDEST POP GAS DELEGATECALL ISZERO DUP1 ISZERO PUSH2 0xB5A JUMPI RETURNDATASIZE PUSH1 0x0 DUP1 RETURNDATACOPY RETURNDATASIZE PUSH1 0x0 REVERT JUMPDEST POP POP POP POP PUSH1 0x40 MLOAD RETURNDATASIZE PUSH1 0x0 DUP3 RETURNDATACOPY PUSH1 0x1F RETURNDATASIZE SWAP1 DUP2 ADD PUSH1 0x1F NOT AND DUP3 ADD PUSH1 0x40 MSTORE PUSH1 0x20 DUP2 LT ISZERO PUSH2 0xB83 JUMPI PUSH1 0x0 DUP1 REVERT JUMPDEST DUP2 ADD SWAP1 DUP1 DUP1 MLOAD PUSH1 0x40 MLOAD SWAP4 SWAP3 SWAP2 SWAP1 DUP5 PUSH1 0x1 PUSH1 0x20 SHL DUP3 GT ISZERO PUSH2 0xBA2 JUMPI PUSH1 0x0 DUP1 REVERT JUMPDEST SWAP1 DUP4 ADD SWAP1 PUSH1 0x20 DUP3 ADD DUP6 DUP2 GT ISZERO PUSH2 0xBB7 JUMPI PUSH1 0x0 DUP1 REVERT JUMPDEST DUP3 MLOAD DUP7 PUSH1 0x20 DUP3 MUL DUP4 ADD GT PUSH1 0x1 PUSH1 0x20 SHL DUP3 GT OR ISZERO PUSH2 0xBD3 JUMPI PUSH1 0x0 DUP1 REVERT JUMPDEST DUP3 MSTORE POP DUP2 MLOAD PUSH1 0x20 SWAP2 DUP3 ADD SWAP3 DUP3 ADD SWAP2 MUL DUP1 DUP4 DUP4 PUSH1 0x0 JUMPDEST DUP4 DUP2 LT ISZERO PUSH2 0xC00 JUMPI DUP2 DUP2 ADD MLOAD DUP4 DUP3 ADD MSTORE PUSH1 0x20 ADD PUSH2 0xBE8 JUMP JUMPDEST POP POP POP POP SWAP1 POP ADD PUSH1 0x40 MSTORE POP POP POP SWAP2 POP POP PUSH1 0x1 DUP1 SSTORE SWAP5 SWAP4 POP POP POP POP JUMP JUMPDEST PUSH2 0xC24 PUSH2 0x229E JUMP JUMPDEST PUSH1 0x1 PUSH1 0x1 PUSH1 0xA0 SHL SUB AND PUSH2 0xC35 PUSH2 0x184E JUMP JUMPDEST PUSH1 0x1 PUSH1 0x1 PUSH1 0xA0 SHL SUB AND EQ PUSH2 0xC7E JUMPI PUSH1 0x40 DUP1 MLOAD PUSH3 0x461BCD PUSH1 0xE5 SHL DUP2 MSTORE PUSH1 0x20 PUSH1 0x4 DUP3 ADD DUP2 SWAP1 MSTORE PUSH1 0x24 DUP3 ADD MSTORE PUSH1 0x0 DUP1 MLOAD PUSH1 0x20 PUSH2 0x2436 DUP4 CODECOPY DUP2 MLOAD SWAP2 MSTORE PUSH1 0x44 DUP3 ADD MSTORE SWAP1 MLOAD SWAP1 DUP2 SWAP1 SUB PUSH1 0x64 ADD SWAP1 REVERT JUMPDEST PUSH1 0x40 DUP1 MLOAD PUSH4 0x119F861B PUSH1 0xE2 SHL DUP2 MSTORE PUSH1 0x2 PUSH1 0x4 DUP3 ADD MSTORE PUSH1 0x24 DUP2 ADD DUP4 SWAP1 MSTORE SWAP1 MLOAD PUSH20 0x0 SWAP2 PUSH4 0x467E186C SWAP2 PUSH1 0x44 DUP1 DUP4 ADD SWAP3 PUSH1 0x0 SWAP3 SWAP2 SWAP1 DUP3 SWAP1 SUB ADD DUP2 DUP7 DUP1 EXTCODESIZE ISZERO DUP1 ISZERO PUSH2 0xCD7 JUMPI PUSH1 0x0 DUP1 REVERT JUMPDEST POP GAS DELEGATECALL ISZERO DUP1 ISZERO PUSH2 0xCEB JUMPI RETURNDATASIZE PUSH1 0x0 DUP1 RETURNDATACOPY RETURNDATASIZE PUSH1 0x0 REVERT JUMPDEST POP POP POP POP POP JUMP JUMPDEST PUSH1 0x0 PUSH1 0x2 PUSH1 0x1 SLOAD EQ ISZERO PUSH2 0xD3A JUMPI PUSH1 0x40 DUP1 MLOAD PUSH3 0x461BCD PUSH1 0xE5 SHL DUP2 MSTORE PUSH1 0x20 PUSH1 0x4 DUP3 ADD MSTORE PUSH1 0x1F PUSH1 0x24 DUP3 ADD MSTORE PUSH1 0x0 DUP1 MLOAD PUSH1 0x20 PUSH2 0x23CF DUP4 CODECOPY DUP2 MLOAD SWAP2 MSTORE PUSH1 0x44 DUP3 ADD MSTORE SWAP1 MLOAD SWAP1 DUP2 SWAP1 SUB PUSH1 0x64 ADD SWAP1 REVERT JUMPDEST PUSH1 0x2 PUSH1 0x1 SSTORE PUSH2 0xD47 PUSH2 0x1288 JUMP JUMPDEST ISZERO PUSH2 0xD8C JUMPI PUSH1 0x40 DUP1 MLOAD PUSH3 0x461BCD PUSH1 0xE5 SHL DUP2 MSTORE PUSH1 0x20 PUSH1 0x4 DUP3 ADD MSTORE PUSH1 0x10 PUSH1 0x24 DUP3 ADD MSTORE PUSH16 0x14185D5CD8589B194E881C185D5CD959 PUSH1 0x82 SHL PUSH1 0x44 DUP3 ADD MSTORE SWAP1 MLOAD SWAP1 DUP2 SWAP1 SUB PUSH1 0x64 ADD SWAP1 REVERT JUMPDEST DUP2 DUP1 TIMESTAMP GT ISZERO PUSH2 0xDD5 JUMPI PUSH1 0x40 DUP1 MLOAD PUSH3 0x461BCD PUSH1 0xE5 SHL DUP2 MSTORE PUSH1 0x20 PUSH1 0x4 DUP3 ADD MSTORE PUSH1 0x10 PUSH1 0x24 DUP3 ADD MSTORE PUSH16 0x111958591B1A5B99481B9BDD081B595D PUSH1 0x82 SHL PUSH1 0x44 DUP3 ADD MSTORE SWAP1 MLOAD SWAP1 DUP2 SWAP1 SUB PUSH1 0x64 ADD SWAP1 REVERT JUMPDEST PUSH1 0x40 DUP1 MLOAD PUSH4 0xE7A4DB81 PUSH1 0xE0 SHL DUP2 MSTORE PUSH1 0x2 PUSH1 0x4 DUP3 ADD MSTORE PUSH1 0x24 DUP2 ADD DUP9 SWAP1 MSTORE PUSH1 0xFF DUP8 AND PUSH1 0x44 DUP3 ADD MSTORE PUSH1 0x64 DUP2 ADD DUP7 SWAP1 MSTORE SWAP1 MLOAD PUSH20 0x0 SWAP2 PUSH4 0xE7A4DB81 SWAP2 PUSH1 0x84 DUP1 DUP4 ADD SWAP3 PUSH1 0x20 SWAP3 SWAP2 SWAP1 DUP3 SWAP1 SUB ADD DUP2 DUP7 DUP1 EXTCODESIZE ISZERO DUP1 ISZERO PUSH2 0xE3E JUMPI PUSH1 0x0 DUP1 REVERT JUMPDEST POP GAS DELEGATECALL ISZERO DUP1 ISZERO PUSH2 0xE52 JUMPI RETURNDATASIZE PUSH1 0x0 DUP1 RETURNDATACOPY RETURNDATASIZE PUSH1 0x0 REVERT JUMPDEST POP POP POP POP PUSH1 0x40 MLOAD RETURNDATASIZE PUSH1 0x20 DUP2 LT ISZERO PUSH2 0xE68 JUMPI PUSH1 0x0 DUP1 REVERT JUMPDEST POP MLOAD PUSH1 0x1 DUP1 SSTORE SWAP7 SWAP6 POP POP POP POP POP POP JUMP JUMPDEST PUSH2 0xE80 PUSH2 0x229E JUMP JUMPDEST PUSH1 0x1 PUSH1 0x1 PUSH1 0xA0 SHL SUB AND PUSH2 0xE91 PUSH2 0x184E JUMP JUMPDEST PUSH1 0x1 PUSH1 0x1 PUSH1 0xA0 SHL SUB AND EQ PUSH2 0xEDA JUMPI PUSH1 0x40 DUP1 MLOAD PUSH3 0x461BCD PUSH1 0xE5 SHL DUP2 MSTORE PUSH1 0x20 PUSH1 0x4 DUP3 ADD DUP2 SWAP1 MSTORE PUSH1 0x24 DUP3 ADD MSTORE PUSH1 0x0 DUP1 MLOAD PUSH1 0x20 PUSH2 0x2436 DUP4 CODECOPY DUP2 MLOAD SWAP2 MSTORE PUSH1 0x44 DUP3 ADD MSTORE SWAP1 MLOAD SWAP1 DUP2 SWAP1 SUB PUSH1 0x64 ADD SWAP1 REVERT JUMPDEST PUSH2 0xEE2 PUSH2 0x22A2 JUMP JUMPDEST JUMP JUMPDEST PUSH1 0x40 DUP1 MLOAD PUSH4 0x25A39565 PUSH1 0xE2 SHL DUP2 MSTORE PUSH1 0x2 PUSH1 0x4 DUP3 ADD MSTORE PUSH1 0x1 PUSH1 0x1 PUSH1 0xA0 SHL SUB DUP4 AND PUSH1 0x24 DUP3 ADD MSTORE SWAP1 MLOAD PUSH1 0x0 SWAP2 PUSH20 0x0 SWAP2 PUSH4 0x968E5594 SWAP2 PUSH1 0x44 DUP1 DUP3 ADD SWAP3 PUSH1 0x20 SWAP3 SWAP1 SWAP2 SWAP1 DUP3 SWAP1 SUB ADD DUP2 DUP7 DUP1 EXTCODESIZE ISZERO DUP1 ISZERO PUSH2 0xF49 JUMPI PUSH1 0x0 DUP1 REVERT JUMPDEST POP GAS DELEGATECALL ISZERO DUP1 ISZERO PUSH2 0xF5D JUMPI RETURNDATASIZE PUSH1 0x0 DUP1 RETURNDATACOPY RETURNDATASIZE PUSH1 0x0 REVERT JUMPDEST POP POP POP POP PUSH1 0x40 MLOAD RETURNDATASIZE PUSH1 0x20 DUP2 LT ISZERO PUSH2 0xF73 JUMPI PUSH1 0x0 DUP1 REVERT JUMPDEST POP MLOAD SWAP3 SWAP2 POP POP JUMP JUMPDEST PUSH1 0x0 PUSH1 0x2 PUSH1 0x1 SLOAD EQ ISZERO PUSH2 0xFC3 JUMPI PUSH1 0x40 DUP1 MLOAD PUSH3 0x461BCD PUSH1 0xE5 SHL DUP2 MSTORE PUSH1 0x20 PUSH1 0x4 DUP3 ADD MSTORE PUSH1 0x1F PUSH1 0x24 DUP3 ADD MSTORE PUSH1 0x0 DUP1 MLOAD PUSH1 0x20 PUSH2 0x23CF DUP4 CODECOPY DUP2 MLOAD SWAP2 MSTORE PUSH1 0x44 DUP3 ADD MSTORE SWAP1 MLOAD SWAP1 DUP2 SWAP1 SUB PUSH1 0x64 ADD SWAP1 REVERT JUMPDEST PUSH1 0x2 PUSH1 0x1 SSTORE PUSH2 0xFD0 PUSH2 0x1288 JUMP JUMPDEST ISZERO PUSH2 0x1015 JUMPI PUSH1 0x40 DUP1 MLOAD PUSH3 0x461BCD PUSH1 0xE5 SHL DUP2 MSTORE PUSH1 0x20 PUSH1 0x4 DUP3 ADD MSTORE PUSH1 0x10 PUSH1 0x24 DUP3 ADD MSTORE PUSH16 0x14185D5CD8589B194E881C185D5CD959 PUSH1 0x82 SHL PUSH1 0x44 DUP3 ADD MSTORE SWAP1 MLOAD SWAP1 DUP2 SWAP1 SUB PUSH1 0x64 ADD SWAP1 REVERT JUMPDEST DUP2 DUP1 TIMESTAMP GT ISZERO PUSH2 0x105E JUMPI PUSH1 0x40 DUP1 MLOAD PUSH3 0x461BCD PUSH1 0xE5 SHL DUP2 MSTORE PUSH1 0x20 PUSH1 0x4 DUP3 ADD MSTORE PUSH1 0x10 PUSH1 0x24 DUP3 ADD MSTORE PUSH16 0x111958591B1A5B99481B9BDD081B595D PUSH1 0x82 SHL PUSH1 0x44 DUP3 ADD MSTORE SWAP1 MLOAD SWAP1 DUP2 SWAP1 SUB PUSH1 0x64 ADD SWAP1 REVERT JUMPDEST PUSH1 0x2 PUSH20 0x0 PUSH4 0x40370EDF SWAP1 SWAP2 DUP9 DUP9 DUP9 PUSH1 0x40 MLOAD DUP6 PUSH4 0xFFFFFFFF AND PUSH1 0xE0 SHL DUP2 MSTORE PUSH1 0x4 ADD DUP1 DUP6 DUP2 MSTORE PUSH1 0x20 ADD DUP1 PUSH1 0x20 ADD DUP4 DUP2 MSTORE PUSH1 0x20 ADD DUP3 DUP2 SUB DUP3 MSTORE DUP6 DUP6 DUP3 DUP2 DUP2 MSTORE PUSH1 0x20 ADD SWAP3 POP PUSH1 0x20 MUL DUP1 DUP3 DUP5 CALLDATACOPY PUSH1 0x0 DUP2 DUP5 ADD MSTORE PUSH1 0x1F NOT PUSH1 0x1F DUP3 ADD AND SWAP1 POP DUP1 DUP4 ADD SWAP3 POP POP POP SWAP6 POP POP POP POP POP POP PUSH1 0x20 PUSH1 0x40 MLOAD DUP1 DUP4 SUB DUP2 DUP7 DUP1 EXTCODESIZE ISZERO DUP1 ISZERO PUSH2 0xE3E JUMPI PUSH1 0x0 DUP1 REVERT JUMPDEST PUSH2 0x10F7 PUSH2 0x229E JUMP JUMPDEST PUSH1 0x1 PUSH1 0x1 PUSH1 0xA0 SHL SUB AND PUSH2 0x1108 PUSH2 0x184E JUMP JUMPDEST PUSH1 0x1 PUSH1 0x1 PUSH1 0xA0 SHL SUB AND EQ PUSH2 0x1151 JUMPI PUSH1 0x40 DUP1 MLOAD PUSH3 0x461BCD PUSH1 0xE5 SHL DUP2 MSTORE PUSH1 0x20 PUSH1 0x4 DUP3 ADD DUP2 SWAP1 MSTORE PUSH1 0x24 DUP3 ADD MSTORE PUSH1 0x0 DUP1 MLOAD PUSH1 0x20 PUSH2 0x2436 DUP4 CODECOPY DUP2 MLOAD SWAP2 MSTORE PUSH1 0x44 DUP3 ADD MSTORE SWAP1 MLOAD SWAP1 DUP2 SWAP1 SUB PUSH1 0x64 ADD SWAP1 REVERT JUMPDEST PUSH1 0x40 DUP1 MLOAD PUSH4 0xD2A39487 PUSH1 0xE0 SHL DUP2 MSTORE PUSH1 0x2 PUSH1 0x4 DUP3 ADD MSTORE PUSH1 0x24 DUP2 ADD DUP4 SWAP1 MSTORE SWAP1 MLOAD PUSH20 0x0 SWAP2 PUSH4 0xD2A39487 SWAP2 PUSH1 0x44 DUP1 DUP4 ADD SWAP3 PUSH1 0x0 SWAP3 SWAP2 SWAP1 DUP3 SWAP1 SUB ADD DUP2 DUP7 DUP1 EXTCODESIZE ISZERO DUP1 ISZERO PUSH2 0xCD7 JUMPI PUSH1 0x0 DUP1 REVERT JUMPDEST PUSH2 0x11B2 PUSH2 0x229E JUMP JUMPDEST PUSH1 0x1 PUSH1 0x1 PUSH1 0xA0 SHL SUB AND PUSH2 0x11C3 PUSH2 0x184E JUMP JUMPDEST PUSH1 0x1 PUSH1 0x1 PUSH1 0xA0 SHL SUB AND EQ PUSH2 0x120C JUMPI PUSH1 0x40 DUP1 MLOAD PUSH3 0x461BCD PUSH1 0xE5 SHL DUP2 MSTORE PUSH1 0x20 PUSH1 0x4 DUP3 ADD DUP2 SWAP1 MSTORE PUSH1 0x24 DUP3 ADD MSTORE PUSH1 0x0 DUP1 MLOAD PUSH1 0x20 PUSH2 0x2436 DUP4 CODECOPY DUP2 MLOAD SWAP2 MSTORE PUSH1 0x44 DUP3 ADD MSTORE SWAP1 MLOAD SWAP1 DUP2 SWAP1 SUB PUSH1 0x64 ADD SWAP1 REVERT JUMPDEST PUSH1 0x40 DUP1 MLOAD PUSH4 0x58FDD79B PUSH1 0xE0 SHL DUP2 MSTORE PUSH1 0x2 PUSH1 0x4 DUP3 ADD MSTORE PUSH1 0x24 DUP2 ADD DUP5 SWAP1 MSTORE PUSH1 0x44 DUP2 ADD DUP4 SWAP1 MSTORE SWAP1 MLOAD PUSH20 0x0 SWAP2 PUSH4 0x58FDD79B SWAP2 PUSH1 0x64 DUP1 DUP4 ADD SWAP3 PUSH1 0x0 SWAP3 SWAP2 SWAP1 DUP3 SWAP1 SUB ADD DUP2 DUP7 DUP1 EXTCODESIZE ISZERO DUP1 ISZERO PUSH2 0x126C JUMPI PUSH1 0x0 DUP1 REVERT JUMPDEST POP GAS DELEGATECALL ISZERO DUP1 ISZERO PUSH2 0x1280 JUMPI RETURNDATASIZE PUSH1 0x0 DUP1 RETURNDATACOPY RETURNDATASIZE PUSH1 0x0 REVERT JUMPDEST POP POP POP POP POP POP JUMP JUMPDEST PUSH1 0x0 SLOAD PUSH1 0x1 PUSH1 0xA0 SHL SWAP1 DIV PUSH1 0xFF AND SWAP1 JUMP JUMPDEST PUSH1 0x2 SLOAD PUSH1 0x3 SLOAD PUSH1 0x4 SLOAD PUSH1 0x5 SLOAD PUSH1 0x6 SLOAD PUSH1 0x7 SLOAD PUSH1 0x8 SLOAD PUSH1 0x9 SLOAD PUSH1 0xA SLOAD PUSH1 0xB SLOAD PUSH1 0x1 PUSH1 0x1 PUSH1 0xA0 SHL SUB SWAP2 DUP3 AND SWAP2 AND DUP11 JUMP JUMPDEST PUSH1 0x1 PUSH1 0x1 PUSH1 0xA0 SHL SUB DUP2 AND PUSH1 0x0 DUP2 DUP2 MSTORE PUSH1 0x11 PUSH1 0x20 MSTORE PUSH1 0x40 DUP2 KECCAK256 SLOAD SWAP1 SWAP2 PUSH1 0xFF SWAP1 SWAP2 AND SWAP1 PUSH2 0x12F0 DUP3 PUSH2 0x153E JUMP JUMPDEST PUSH1 0x1 PUSH1 0x1 PUSH1 0xA0 SHL SUB AND EQ PUSH2 0x1342 JUMPI PUSH1 0x40 DUP1 MLOAD PUSH3 0x461BCD PUSH1 0xE5 SHL DUP2 MSTORE PUSH1 0x20 PUSH1 0x4 DUP3 ADD MSTORE PUSH1 0x14 PUSH1 0x24 DUP3 ADD MSTORE PUSH20 0x151BDAD95B88191BD95CC81B9BDD08195E1A5CDD PUSH1 0x62 SHL PUSH1 0x44 DUP3 ADD MSTORE SWAP1 MLOAD SWAP1 DUP2 SWAP1 SUB PUSH1 0x64 ADD SWAP1 REVERT JUMPDEST SWAP3 SWAP2 POP POP JUMP JUMPDEST PUSH2 0x1350 PUSH2 0x229E JUMP JUMPDEST PUSH1 0x1 PUSH1 0x1 PUSH1 0xA0 SHL SUB AND PUSH2 0x1361 PUSH2 0x184E JUMP JUMPDEST PUSH1 0x1 PUSH1 0x1 PUSH1 0xA0 SHL SUB AND EQ PUSH2 0x13AA JUMPI PUSH1 0x40 DUP1 MLOAD PUSH3 0x461BCD PUSH1 0xE5 SHL DUP2 MSTORE PUSH1 0x20 PUSH1 0x4 DUP3 ADD DUP2 SWAP1 MSTORE PUSH1 0x24 DUP3 ADD MSTORE PUSH1 0x0 DUP1 MLOAD PUSH1 0x20 PUSH2 0x2436 DUP4 CODECOPY DUP2 MLOAD SWAP2 MSTORE PUSH1 0x44 DUP3 ADD MSTORE SWAP1 MLOAD SWAP1 DUP2 SWAP1 SUB PUSH1 0x64 ADD SWAP1 REVERT JUMPDEST PUSH1 0x0 DUP1 SLOAD PUSH1 0x40 MLOAD PUSH1 0x1 PUSH1 0x1 PUSH1 0xA0 SHL SUB SWAP1 SWAP2 AND SWAP1 PUSH32 0x8BE0079C531659141344CD1FD0A4F28419497F9722A3DAAFE3B4186F6B6457E0 SWAP1 DUP4 SWAP1 LOG3 PUSH1 0x0 DUP1 SLOAD PUSH1 0x1 PUSH1 0x1 PUSH1 0xA0 SHL SUB NOT AND SWAP1 SSTORE JUMP JUMPDEST PUSH1 0x40 DUP1 MLOAD PUSH4 0xF967A81F PUSH1 0xE0 SHL DUP2 MSTORE PUSH1 0x2 PUSH1 0x4 DUP3 ADD MSTORE PUSH1 0x1 PUSH1 0x1 PUSH1 0xA0 SHL SUB DUP5 AND PUSH1 0x24 DUP3 ADD MSTORE PUSH1 0x44 DUP2 ADD DUP4 SWAP1 MSTORE SWAP1 MLOAD PUSH1 0x60 SWAP2 PUSH20 0x0 SWAP2 PUSH4 0xF967A81F SWAP2 PUSH1 0x64 DUP1 DUP3 ADD SWAP3 PUSH1 0x0 SWAP3 SWAP1 SWAP2 SWAP1 DUP3 SWAP1 SUB ADD DUP2 DUP7 DUP1 EXTCODESIZE ISZERO DUP1 ISZERO PUSH2 0x1460 JUMPI PUSH1 0x0 DUP1 REVERT JUMPDEST POP GAS DELEGATECALL ISZERO DUP1 ISZERO PUSH2 0x1474 JUMPI RETURNDATASIZE PUSH1 0x0 DUP1 RETURNDATACOPY RETURNDATASIZE PUSH1 0x0 REVERT JUMPDEST POP POP POP POP PUSH1 0x40 MLOAD RETURNDATASIZE PUSH1 0x0 DUP3 RETURNDATACOPY PUSH1 0x1F RETURNDATASIZE SWAP1 DUP2 ADD PUSH1 0x1F NOT AND DUP3 ADD PUSH1 0x40 MSTORE PUSH1 0x20 DUP2 LT ISZERO PUSH2 0x149D JUMPI PUSH1 0x0 DUP1 REVERT JUMPDEST DUP2 ADD SWAP1 DUP1 DUP1 MLOAD PUSH1 0x40 MLOAD SWAP4 SWAP3 SWAP2 SWAP1 DUP5 PUSH1 0x1 PUSH1 0x20 SHL DUP3 GT ISZERO PUSH2 0x14BC JUMPI PUSH1 0x0 DUP1 REVERT JUMPDEST SWAP1 DUP4 ADD SWAP1 PUSH1 0x20 DUP3 ADD DUP6 DUP2 GT ISZERO PUSH2 0x14D1 JUMPI PUSH1 0x0 DUP1 REVERT JUMPDEST DUP3 MLOAD DUP7 PUSH1 0x20 DUP3 MUL DUP4 ADD GT PUSH1 0x1 PUSH1 0x20 SHL DUP3 GT OR ISZERO PUSH2 0x14ED JUMPI PUSH1 0x0 DUP1 REVERT JUMPDEST DUP3 MSTORE POP DUP2 MLOAD PUSH1 0x20 SWAP2 DUP3 ADD SWAP3 DUP3 ADD SWAP2 MUL DUP1 DUP4 DUP4 PUSH1 0x0 JUMPDEST DUP4 DUP2 LT ISZERO PUSH2 0x151A JUMPI DUP2 DUP2 ADD MLOAD DUP4 DUP3 ADD MSTORE PUSH1 0x20 ADD PUSH2 0x1502 JUMP JUMPDEST POP POP POP POP SWAP1 POP ADD PUSH1 0x40 MSTORE POP POP POP SWAP1 POP SWAP3 SWAP2 POP POP JUMP JUMPDEST PUSH1 0xB SLOAD PUSH1 0x1 PUSH1 0x1 PUSH1 0xA0 SHL SUB AND SWAP1 JUMP JUMPDEST PUSH1 0xC SLOAD PUSH1 0x0 SWAP1 PUSH1 0xFF DUP4 AND LT PUSH2 0x1589 JUMPI PUSH1 0x40 DUP1 MLOAD PUSH3 0x461BCD PUSH1 0xE5 SHL DUP2 MSTORE PUSH1 0x20 PUSH1 0x4 DUP3 ADD MSTORE PUSH1 0xC PUSH1 0x24 DUP3 ADD MSTORE PUSH12 0x4F7574206F662072616E6765 PUSH1 0xA0 SHL PUSH1 0x44 DUP3 ADD MSTORE SWAP1 MLOAD SWAP1 DUP2 SWAP1 SUB PUSH1 0x64 ADD SWAP1 REVERT JUMPDEST PUSH1 0xC DUP1 SLOAD PUSH1 0xFF DUP5 AND SWAP1 DUP2 LT PUSH2 0x159A JUMPI INVALID JUMPDEST PUSH1 0x0 SWAP2 DUP3 MSTORE PUSH1 0x20 SWAP1 SWAP2 KECCAK256 ADD SLOAD PUSH1 0x1 PUSH1 0x1 PUSH1 0xA0 SHL SUB AND SWAP3 SWAP2 POP POP JUMP JUMPDEST PUSH2 0x15BD PUSH2 0x229E JUMP JUMPDEST PUSH1 0x1 PUSH1 0x1 PUSH1 0xA0 SHL SUB AND PUSH2 0x15CE PUSH2 0x184E JUMP JUMPDEST PUSH1 0x1 PUSH1 0x1 PUSH1 0xA0 SHL SUB AND EQ PUSH2 0x1617 JUMPI PUSH1 0x40 DUP1 MLOAD PUSH3 0x461BCD PUSH1 0xE5 SHL DUP2 MSTORE PUSH1 0x20 PUSH1 0x4 DUP3 ADD DUP2 SWAP1 MSTORE PUSH1 0x24 DUP3 ADD MSTORE PUSH1 0x0 DUP1 MLOAD PUSH1 0x20 PUSH2 0x2436 DUP4 CODECOPY DUP2 MLOAD SWAP2 MSTORE PUSH1 0x44 DUP3 ADD MSTORE SWAP1 MLOAD SWAP1 DUP2 SWAP1 SUB PUSH1 0x64 ADD SWAP1 REVERT JUMPDEST PUSH2 0xEE2 PUSH2 0x2345 JUMP JUMPDEST PUSH1 0x0 PUSH1 0x2 PUSH1 0x1 SLOAD EQ ISZERO PUSH2 0x1667 JUMPI PUSH1 0x40 DUP1 MLOAD PUSH3 0x461BCD PUSH1 0xE5 SHL DUP2 MSTORE PUSH1 0x20 PUSH1 0x4 DUP3 ADD MSTORE PUSH1 0x1F PUSH1 0x24 DUP3 ADD MSTORE PUSH1 0x0 DUP1 MLOAD PUSH1 0x20 PUSH2 0x23CF DUP4 CODECOPY DUP2 MLOAD SWAP2 MSTORE PUSH1 0x44 DUP3 ADD MSTORE SWAP1 MLOAD SWAP1 DUP2 SWAP1 SUB PUSH1 0x64 ADD SWAP1 REVERT JUMPDEST PUSH1 0x2 PUSH1 0x1 SSTORE PUSH2 0x1674 PUSH2 0x1288 JUMP JUMPDEST ISZERO PUSH2 0x16B9 JUMPI PUSH1 0x40 DUP1 MLOAD PUSH3 0x461BCD PUSH1 0xE5 SHL DUP2 MSTORE PUSH1 0x20 PUSH1 0x4 DUP3 ADD MSTORE PUSH1 0x10 PUSH1 0x24 DUP3 ADD MSTORE PUSH16 0x14185D5CD8589B194E881C185D5CD959 PUSH1 0x82 SHL PUSH1 0x44 DUP3 ADD MSTORE SWAP1 MLOAD SWAP1 DUP2 SWAP1 SUB PUSH1 0x64 ADD SWAP1 REVERT JUMPDEST DUP2 DUP1 TIMESTAMP GT ISZERO PUSH2 0x1702 JUMPI PUSH1 0x40 DUP1 MLOAD PUSH3 0x461BCD PUSH1 0xE5 SHL DUP2 MSTORE PUSH1 0x20 PUSH1 0x4 DUP3 ADD MSTORE PUSH1 0x10 PUSH1 0x24 DUP3 ADD MSTORE PUSH16 0x111958591B1A5B99481B9BDD081B595D PUSH1 0x82 SHL PUSH1 0x44 DUP3 ADD MSTORE SWAP1 MLOAD SWAP1 DUP2 SWAP1 SUB PUSH1 0x64 ADD SWAP1 REVERT JUMPDEST PUSH1 0x2 PUSH20 0x0 PUSH4 0x41B91C26 SWAP1 SWAP2 DUP9 DUP9 DUP9 PUSH1 0x40 MLOAD DUP6 PUSH4 0xFFFFFFFF AND PUSH1 0xE0 SHL DUP2 MSTORE PUSH1 0x4 ADD DUP1 DUP6 DUP2 MSTORE PUSH1 0x20 ADD DUP1 PUSH1 0x20 ADD DUP4 DUP2 MSTORE PUSH1 0x20 ADD DUP3 DUP2 SUB DUP3 MSTORE DUP6 DUP6 DUP3 DUP2 DUP2 MSTORE PUSH1 0x20 ADD SWAP3 POP PUSH1 0x20 MUL DUP1 DUP3 DUP5 CALLDATACOPY PUSH1 0x0 DUP2 DUP5 ADD MSTORE PUSH1 0x1F NOT PUSH1 0x1F DUP3 ADD AND SWAP1 POP DUP1 DUP4 ADD SWAP3 POP POP POP SWAP6 POP POP POP POP POP POP PUSH1 0x20 PUSH1 0x40 MLOAD DUP1 DUP4 SUB DUP2 DUP7 DUP1 EXTCODESIZE ISZERO DUP1 ISZERO PUSH2 0xE3E JUMPI PUSH1 0x0 DUP1 REVERT JUMPDEST PUSH2 0x179B PUSH2 0x229E JUMP JUMPDEST PUSH1 0x1 PUSH1 0x1 PUSH1 0xA0 SHL SUB AND PUSH2 0x17AC PUSH2 0x184E JUMP JUMPDEST PUSH1 0x1 PUSH1 0x1 PUSH1 0xA0 SHL SUB AND EQ PUSH2 0x17F5 JUMPI PUSH1 0x40 DUP1 MLOAD PUSH3 0x461BCD PUSH1 0xE5 SHL DUP2 MSTORE PUSH1 0x20 PUSH1 0x4 DUP3 ADD DUP2 SWAP1 MSTORE PUSH1 0x24 DUP3 ADD MSTORE PUSH1 0x0 DUP1 MLOAD PUSH1 0x20 PUSH2 0x2436 DUP4 CODECOPY DUP2 MLOAD SWAP2 MSTORE PUSH1 0x44 DUP3 ADD MSTORE SWAP1 MLOAD SWAP1 DUP2 SWAP1 SUB PUSH1 0x64 ADD SWAP1 REVERT JUMPDEST PUSH1 0x40 DUP1 MLOAD PUSH4 0x3823393B PUSH1 0xE1 SHL DUP2 MSTORE PUSH1 0x2 PUSH1 0x4 DUP3 ADD MSTORE PUSH1 0x24 DUP2 ADD DUP4 SWAP1 MSTORE SWAP1 MLOAD PUSH20 0x0 SWAP2 PUSH4 0x70467276 SWAP2 PUSH1 0x44 DUP1 DUP4 ADD SWAP3 PUSH1 0x0 SWAP3 SWAP2 SWAP1 DUP3 SWAP1 SUB ADD DUP2 DUP7 DUP1 EXTCODESIZE ISZERO DUP1 ISZERO PUSH2 0xCD7 JUMPI PUSH1 0x0 DUP1 REVERT JUMPDEST PUSH1 0x0 SLOAD PUSH1 0x1 PUSH1 0x1 PUSH1 0xA0 SHL SUB AND SWAP1 JUMP JUMPDEST PUSH1 0x0 PUSH1 0x2 PUSH1 0x1 SLOAD EQ ISZERO PUSH2 0x18A5 JUMPI PUSH1 0x40 DUP1 MLOAD PUSH3 0x461BCD PUSH1 0xE5 SHL DUP2 MSTORE PUSH1 0x20 PUSH1 0x4 DUP3 ADD MSTORE PUSH1 0x1F PUSH1 0x24 DUP3 ADD MSTORE PUSH1 0x0 DUP1 MLOAD PUSH1 0x20 PUSH2 0x23CF DUP4 CODECOPY DUP2 MLOAD SWAP2 MSTORE PUSH1 0x44 DUP3 ADD MSTORE SWAP1 MLOAD SWAP1 DUP2 SWAP1 SUB PUSH1 0x64 ADD SWAP1 REVERT JUMPDEST PUSH1 0x2 PUSH1 0x1 SSTORE PUSH2 0x18B2 PUSH2 0x1288 JUMP JUMPDEST ISZERO PUSH2 0x18F7 JUMPI PUSH1 0x40 DUP1 MLOAD PUSH3 0x461BCD PUSH1 0xE5 SHL DUP2 MSTORE PUSH1 0x20 PUSH1 0x4 DUP3 ADD MSTORE PUSH1 0x10 PUSH1 0x24 DUP3 ADD MSTORE PUSH16 0x14185D5CD8589B194E881C185D5CD959 PUSH1 0x82 SHL PUSH1 0x44 DUP3 ADD MSTORE SWAP1 MLOAD SWAP1 DUP2 SWAP1 SUB PUSH1 0x64 ADD SWAP1 REVERT JUMPDEST DUP2 DUP1 TIMESTAMP GT ISZERO PUSH2 0x1940 JUMPI PUSH1 0x40 DUP1 MLOAD PUSH3 0x461BCD PUSH1 0xE5 SHL DUP2 MSTORE PUSH1 0x20 PUSH1 0x4 DUP3 ADD MSTORE PUSH1 0x10 PUSH1 0x24 DUP3 ADD MSTORE PUSH16 0x111958591B1A5B99481B9BDD081B595D PUSH1 0x82 SHL PUSH1 0x44 DUP3 ADD MSTORE SWAP1 MLOAD SWAP1 DUP2 SWAP1 SUB PUSH1 0x64 ADD SWAP1 REVERT JUMPDEST PUSH1 0x40 DUP1 MLOAD PUSH4 0x529CBD91 PUSH1 0xE1 SHL DUP2 MSTORE PUSH1 0x2 PUSH1 0x4 DUP3 ADD MSTORE PUSH1 0xFF DUP1 DUP11 AND PUSH1 0x24 DUP4 ADD MSTORE DUP9 AND PUSH1 0x44 DUP3 ADD MSTORE PUSH1 0x64 DUP2 ADD DUP8 SWAP1 MSTORE PUSH1 0x84 DUP2 ADD DUP7 SWAP1 MSTORE SWAP1 MLOAD PUSH20 0x0 SWAP2 PUSH4 0xA5397B22 SWAP2 PUSH1 0xA4 DUP1 DUP4 ADD SWAP3 PUSH1 0x20 SWAP3 SWAP2 SWAP1 DUP3 SWAP1 SUB ADD DUP2 DUP7 DUP1 EXTCODESIZE ISZERO DUP1 ISZERO PUSH2 0x19B1 JUMPI PUSH1 0x0 DUP1 REVERT JUMPDEST POP GAS DELEGATECALL ISZERO DUP1 ISZERO PUSH2 0x19C5 JUMPI RETURNDATASIZE PUSH1 0x0 DUP1 RETURNDATACOPY RETURNDATASIZE PUSH1 0x0 REVERT JUMPDEST POP POP POP POP PUSH1 0x40 MLOAD RETURNDATASIZE PUSH1 0x20 DUP2 LT ISZERO PUSH2 0x19DB JUMPI PUSH1 0x0 DUP1 REVERT JUMPDEST POP MLOAD PUSH1 0x1 DUP1 SSTORE SWAP8 SWAP7 POP POP POP POP POP POP POP JUMP JUMPDEST PUSH1 0xC SLOAD PUSH1 0x0 SWAP1 PUSH1 0xFF DUP4 AND LT PUSH2 0x1A3D JUMPI PUSH1 0x40 DUP1 MLOAD PUSH3 0x461BCD PUSH1 0xE5 SHL DUP2 MSTORE PUSH1 0x20 PUSH1 0x4 DUP3 ADD MSTORE PUSH1 0x12 PUSH1 0x24 DUP3 ADD MSTORE PUSH18 0x496E646578206F7574206F662072616E6765 PUSH1 0x70 SHL PUSH1 0x44 DUP3 ADD MSTORE SWAP1 MLOAD SWAP1 DUP2 SWAP1 SUB PUSH1 0x64 ADD SWAP1 REVERT JUMPDEST PUSH1 0xE DUP1 SLOAD PUSH1 0xFF DUP5 AND SWAP1 DUP2 LT PUSH2 0x1A4E JUMPI INVALID JUMPDEST SWAP1 PUSH1 0x0 MSTORE PUSH1 0x20 PUSH1 0x0 KECCAK256 ADD SLOAD SWAP1 POP SWAP2 SWAP1 POP JUMP JUMPDEST PUSH1 0x40 DUP1 MLOAD PUSH4 0x7254D06D PUSH1 0xE1 SHL DUP2 MSTORE PUSH1 0x2 PUSH1 0x4 DUP3 ADD MSTORE PUSH1 0x1 PUSH1 0x1 PUSH1 0xA0 SHL SUB DUP6 AND PUSH1 0x24 DUP3 ADD MSTORE PUSH1 0x44 DUP2 ADD DUP5 SWAP1 MSTORE PUSH1 0xFF DUP4 AND PUSH1 0x64 DUP3 ADD MSTORE DUP2 MLOAD PUSH1 0x0 SWAP3 PUSH20 0x0 SWAP3 PUSH4 0xE4A9A0DA SWAP3 PUSH1 0x84 DUP1 DUP4 ADD SWAP4 SWAP3 DUP3 SWAP1 SUB ADD DUP2 DUP7 DUP1 EXTCODESIZE ISZERO DUP1 ISZERO PUSH2 0x1AD0 JUMPI PUSH1 0x0 DUP1 REVERT JUMPDEST POP GAS DELEGATECALL ISZERO DUP1 ISZERO PUSH2 0x1AE4 JUMPI RETURNDATASIZE PUSH1 0x0 DUP1 RETURNDATACOPY RETURNDATASIZE PUSH1 0x0 REVERT JUMPDEST POP POP POP POP PUSH1 0x40 MLOAD RETURNDATASIZE PUSH1 0x40 DUP2 LT ISZERO PUSH2 0x1AFA JUMPI PUSH1 0x0 DUP1 REVERT JUMPDEST POP MLOAD SWAP5 SWAP4 POP POP POP POP JUMP JUMPDEST PUSH1 0x40 DUP1 MLOAD PUSH4 0x12C8D80F PUSH1 0xE2 SHL DUP2 MSTORE PUSH1 0x2 PUSH1 0x4 DUP3 ADD MSTORE PUSH1 0xFF DUP1 DUP7 AND PUSH1 0x24 DUP4 ADD MSTORE DUP5 AND PUSH1 0x44 DUP3 ADD MSTORE PUSH1 0x64 DUP2 ADD DUP4 SWAP1 MSTORE SWAP1 MLOAD PUSH1 0x0 SWAP2 PUSH20 0x0 SWAP2 PUSH4 0x4B23603C SWAP2 PUSH1 0x84 DUP1 DUP3 ADD SWAP3 PUSH1 0x20 SWAP3 SWAP1 SWAP2 SWAP1 DUP3 SWAP1 SUB ADD DUP2 DUP7 DUP1 EXTCODESIZE ISZERO DUP1 ISZERO PUSH2 0x1B72 JUMPI PUSH1 0x0 DUP1 REVERT JUMPDEST POP GAS DELEGATECALL ISZERO DUP1 ISZERO PUSH2 0x1B86 JUMPI RETURNDATASIZE PUSH1 0x0 DUP1 RETURNDATACOPY RETURNDATASIZE PUSH1 0x0 REVERT JUMPDEST POP POP POP POP PUSH1 0x40 MLOAD RETURNDATASIZE PUSH1 0x20 DUP2 LT ISZERO PUSH2 0x1AFA JUMPI PUSH1 0x0 DUP1 REVERT JUMPDEST PUSH2 0x1BA4 PUSH2 0x229E JUMP JUMPDEST PUSH1 0x1 PUSH1 0x1 PUSH1 0xA0 SHL SUB AND PUSH2 0x1BB5 PUSH2 0x184E JUMP JUMPDEST PUSH1 0x1 PUSH1 0x1 PUSH1 0xA0 SHL SUB AND EQ PUSH2 0x1BFE JUMPI PUSH1 0x40 DUP1 MLOAD PUSH3 0x461BCD PUSH1 0xE5 SHL DUP2 MSTORE PUSH1 0x20 PUSH1 0x4 DUP3 ADD DUP2 SWAP1 MSTORE PUSH1 0x24 DUP3 ADD MSTORE PUSH1 0x0 DUP1 MLOAD PUSH1 0x20 PUSH2 0x2436 DUP4 CODECOPY DUP2 MLOAD SWAP2 MSTORE PUSH1 0x44 DUP3 ADD MSTORE SWAP1 MLOAD SWAP1 DUP2 SWAP1 SUB PUSH1 0x64 ADD SWAP1 REVERT JUMPDEST PUSH1 0x40 DUP1 MLOAD PUSH4 0x455BB4BF PUSH1 0xE1 SHL DUP2 MSTORE PUSH1 0x2 PUSH1 0x4 DUP3 ADD MSTORE PUSH1 0x24 DUP2 ADD DUP4 SWAP1 MSTORE SWAP1 MLOAD PUSH20 0x0 SWAP2 PUSH4 0x8AB7697E SWAP2 PUSH1 0x44 DUP1 DUP4 ADD SWAP3 PUSH1 0x0 SWAP3 SWAP2 SWAP1 DUP3 SWAP1 SUB ADD DUP2 DUP7 DUP1 EXTCODESIZE ISZERO DUP1 ISZERO PUSH2 0xCD7 JUMPI PUSH1 0x0 DUP1 REVERT JUMPDEST PUSH1 0xB SLOAD PUSH1 0x1 PUSH1 0x1 PUSH1 0xA0 SHL SUB AND CALLER EQ PUSH2 0x1CB6 JUMPI PUSH1 0x40 DUP1 MLOAD PUSH3 0x461BCD PUSH1 0xE5 SHL DUP2 MSTORE PUSH1 0x20 PUSH1 0x4 DUP3 ADD MSTORE PUSH1 0x1B PUSH1 0x24 DUP3 ADD MSTORE PUSH32 0x4F6E6C792063616C6C61626C6520627920706F6F6C20746F6B656E0000000000 PUSH1 0x44 DUP3 ADD MSTORE SWAP1 MLOAD SWAP1 DUP2 SWAP1 SUB PUSH1 0x64 ADD SWAP1 REVERT JUMPDEST PUSH1 0x40 DUP1 MLOAD PUSH4 0x749296A3 PUSH1 0xE1 SHL DUP2 MSTORE PUSH1 0x2 PUSH1 0x4 DUP3 ADD MSTORE PUSH1 0x1 PUSH1 0x1 PUSH1 0xA0 SHL SUB DUP5 AND PUSH1 0x24 DUP3 ADD MSTORE PUSH1 0x44 DUP2 ADD DUP4 SWAP1 MSTORE SWAP1 MLOAD PUSH20 0x0 SWAP2 PUSH4 0xE9252D46 SWAP2 PUSH1 0x64 DUP1 DUP4 ADD SWAP3 PUSH1 0x0 SWAP3 SWAP2 SWAP1 DUP3 SWAP1 SUB ADD DUP2 DUP7 DUP1 EXTCODESIZE ISZERO DUP1 ISZERO PUSH2 0x126C JUMPI PUSH1 0x0 DUP1 REVERT JUMPDEST PUSH2 0x1D26 PUSH2 0x229E JUMP JUMPDEST PUSH1 0x1 PUSH1 0x1 PUSH1 0xA0 SHL SUB AND PUSH2 0x1D37 PUSH2 0x184E JUMP JUMPDEST PUSH1 0x1 PUSH1 0x1 PUSH1 0xA0 SHL SUB AND EQ PUSH2 0x1D80 JUMPI PUSH1 0x40 DUP1 MLOAD PUSH3 0x461BCD PUSH1 0xE5 SHL DUP2 MSTORE PUSH1 0x20 PUSH1 0x4 DUP3 ADD DUP2 SWAP1 MSTORE PUSH1 0x24 DUP3 ADD MSTORE PUSH1 0x0 DUP1 MLOAD PUSH1 0x20 PUSH2 0x2436 DUP4 CODECOPY DUP2 MLOAD SWAP2 MSTORE PUSH1 0x44 DUP3 ADD MSTORE SWAP1 MLOAD SWAP1 DUP2 SWAP1 SUB PUSH1 0x64 ADD SWAP1 REVERT JUMPDEST PUSH1 0x40 DUP1 MLOAD PUSH4 0x78A7108F PUSH1 0xE1 SHL DUP2 MSTORE PUSH1 0x2 PUSH1 0x4 DUP3 ADD MSTORE SWAP1 MLOAD PUSH20 0x0 SWAP2 PUSH4 0xF14E211E SWAP2 PUSH1 0x24 DUP1 DUP4 ADD SWAP3 PUSH1 0x0 SWAP3 SWAP2 SWAP1 DUP3 SWAP1 SUB ADD DUP2 DUP7 DUP1 EXTCODESIZE ISZERO DUP1 ISZERO PUSH2 0x980 JUMPI PUSH1 0x0 DUP1 REVERT JUMPDEST PUSH2 0x1DDA PUSH2 0x229E JUMP JUMPDEST PUSH1 0x1 PUSH1 0x1 PUSH1 0xA0 SHL SUB AND PUSH2 0x1DEB PUSH2 0x184E JUMP JUMPDEST PUSH1 0x1 PUSH1 0x1 PUSH1 0xA0 SHL SUB AND EQ PUSH2 0x1E34 JUMPI PUSH1 0x40 DUP1 MLOAD PUSH3 0x461BCD PUSH1 0xE5 SHL DUP2 MSTORE PUSH1 0x20 PUSH1 0x4 DUP3 ADD DUP2 SWAP1 MSTORE PUSH1 0x24 DUP3 ADD MSTORE PUSH1 0x0 DUP1 MLOAD PUSH1 0x20 PUSH2 0x2436 DUP4 CODECOPY DUP2 MLOAD SWAP2 MSTORE PUSH1 0x44 DUP3 ADD MSTORE SWAP1 MLOAD SWAP1 DUP2 SWAP1 SUB PUSH1 0x64 ADD SWAP1 REVERT JUMPDEST PUSH1 0x40 DUP1 MLOAD PUSH4 0x21C363E7 PUSH1 0xE1 SHL DUP2 MSTORE PUSH1 0x2 PUSH1 0x4 DUP3 ADD MSTORE PUSH1 0x1 PUSH1 0x1 PUSH1 0xA0 SHL SUB DUP4 AND PUSH1 0x24 DUP3 ADD MSTORE SWAP1 MLOAD PUSH20 0x0 SWAP2 PUSH4 0x4386C7CE SWAP2 PUSH1 0x44 DUP1 DUP4 ADD SWAP3 PUSH1 0x0 SWAP3 SWAP2 SWAP1 DUP3 SWAP1 SUB ADD DUP2 DUP7 DUP1 EXTCODESIZE ISZERO DUP1 ISZERO PUSH2 0xCD7 JUMPI PUSH1 0x0 DUP1 REVERT JUMPDEST PUSH1 0x0 PUSH1 0x2 PUSH20 0x0 PUSH4 0xB0A14CFC SWAP1 SWAP2 PUSH1 0x40 MLOAD DUP3 PUSH4 0xFFFFFFFF AND PUSH1 0xE0 SHL DUP2 MSTORE PUSH1 0x4 ADD DUP1 DUP3 DUP2 MSTORE PUSH1 0x20 ADD SWAP2 POP POP PUSH1 0x20 PUSH1 0x40 MLOAD DUP1 DUP4 SUB DUP2 DUP7 DUP1 EXTCODESIZE ISZERO DUP1 ISZERO PUSH2 0x9EE JUMPI PUSH1 0x0 DUP1 REVERT JUMPDEST PUSH1 0x6 SLOAD SWAP1 JUMP JUMPDEST PUSH1 0x40 DUP1 MLOAD PUSH4 0x3A311E95 PUSH1 0xE2 SHL DUP2 MSTORE PUSH1 0x2 PUSH1 0x4 DUP3 ADD MSTORE PUSH1 0x1 PUSH1 0x1 PUSH1 0xA0 SHL SUB DUP4 AND PUSH1 0x24 DUP3 ADD MSTORE SWAP1 MLOAD PUSH1 0x0 SWAP2 PUSH20 0x0 SWAP2 PUSH4 0xE8C47A54 SWAP2 PUSH1 0x44 DUP1 DUP3 ADD SWAP3 PUSH1 0x20 SWAP3 SWAP1 SWAP2 SWAP1 DUP3 SWAP1 SUB ADD DUP2 DUP7 DUP1 EXTCODESIZE ISZERO DUP1 ISZERO PUSH2 0xF49 JUMPI PUSH1 0x0 DUP1 REVERT JUMPDEST PUSH1 0x0 PUSH1 0x2 PUSH20 0x0 PUSH4 0x71906C2C SWAP1 SWAP2 PUSH1 0x40 MLOAD DUP3 PUSH4 0xFFFFFFFF AND PUSH1 0xE0 SHL DUP2 MSTORE PUSH1 0x4 ADD DUP1 DUP3 DUP2 MSTORE PUSH1 0x20 ADD SWAP2 POP POP PUSH1 0x20 PUSH1 0x40 MLOAD DUP1 DUP4 SUB DUP2 DUP7 DUP1 EXTCODESIZE ISZERO DUP1 ISZERO PUSH2 0x9EE JUMPI PUSH1 0x0 DUP1 REVERT JUMPDEST PUSH1 0x0 PUSH1 0x2 PUSH20 0x0 PUSH4 0x7D048160 SWAP1 SWAP2 DUP5 PUSH1 0x40 MLOAD DUP4 PUSH4 0xFFFFFFFF AND PUSH1 0xE0 SHL DUP2 MSTORE PUSH1 0x4 ADD DUP1 DUP4 DUP2 MSTORE PUSH1 0x20 ADD DUP3 DUP2 MSTORE PUSH1 0x20 ADD SWAP3 POP POP POP PUSH1 0x20 PUSH1 0x40 MLOAD DUP1 DUP4 SUB DUP2 DUP7 DUP1 EXTCODESIZE ISZERO DUP1 ISZERO PUSH2 0xF49 JUMPI PUSH1 0x0 DUP1 REVERT JUMPDEST PUSH2 0x200C PUSH2 0x229E JUMP JUMPDEST PUSH1 0x1 PUSH1 0x1 PUSH1 0xA0 SHL SUB AND PUSH2 0x201D PUSH2 0x184E JUMP JUMPDEST PUSH1 0x1 PUSH1 0x1 PUSH1 0xA0 SHL SUB AND EQ PUSH2 0x2066 JUMPI PUSH1 0x40 DUP1 MLOAD PUSH3 0x461BCD PUSH1 0xE5 SHL DUP2 MSTORE PUSH1 0x20 PUSH1 0x4 DUP3 ADD DUP2 SWAP1 MSTORE PUSH1 0x24 DUP3 ADD MSTORE PUSH1 0x0 DUP1 MLOAD PUSH1 0x20 PUSH2 0x2436 DUP4 CODECOPY DUP2 MLOAD SWAP2 MSTORE PUSH1 0x44 DUP3 ADD MSTORE SWAP1 MLOAD SWAP1 DUP2 SWAP1 SUB PUSH1 0x64 ADD SWAP1 REVERT JUMPDEST PUSH1 0x1 PUSH1 0x1 PUSH1 0xA0 SHL SUB DUP2 AND PUSH2 0x20AB JUMPI PUSH1 0x40 MLOAD PUSH3 0x461BCD PUSH1 0xE5 SHL DUP2 MSTORE PUSH1 0x4 ADD DUP1 DUP1 PUSH1 0x20 ADD DUP3 DUP2 SUB DUP3 MSTORE PUSH1 0x26 DUP2 MSTORE PUSH1 0x20 ADD DUP1 PUSH2 0x23EF PUSH1 0x26 SWAP2 CODECOPY PUSH1 0x40 ADD SWAP2 POP POP PUSH1 0x40 MLOAD DUP1 SWAP2 SUB SWAP1 REVERT JUMPDEST PUSH1 0x0 DUP1 SLOAD PUSH1 0x40 MLOAD PUSH1 0x1 PUSH1 0x1 PUSH1 0xA0 SHL SUB DUP1 DUP6 AND SWAP4 SWAP3 AND SWAP2 PUSH32 0x8BE0079C531659141344CD1FD0A4F28419497F9722A3DAAFE3B4186F6B6457E0 SWAP2 LOG3 PUSH1 0x0 DUP1 SLOAD PUSH1 0x1 PUSH1 0x1 PUSH1 0xA0 SHL SUB NOT AND PUSH1 0x1 PUSH1 0x1 PUSH1 0xA0 SHL SUB SWAP3 SWAP1 SWAP3 AND SWAP2 SWAP1 SWAP2 OR SWAP1 SSTORE JUMP JUMPDEST PUSH1 0x0 PUSH1 0x2 PUSH20 0x0 PUSH4 0x5E58579C SWAP1 SWAP2 DUP8 DUP8 DUP8 DUP8 PUSH1 0x40 MLOAD DUP7 PUSH4 0xFFFFFFFF AND PUSH1 0xE0 SHL DUP2 MSTORE PUSH1 0x4 ADD DUP1 DUP7 DUP2 MSTORE PUSH1 0x20 ADD DUP6 PUSH1 0x1 PUSH1 0x1 PUSH1 0xA0 SHL SUB AND DUP2 MSTORE PUSH1 0x20 ADD DUP1 PUSH1 0x20 ADD DUP4 ISZERO ISZERO DUP2 MSTORE PUSH1 0x20 ADD DUP3 DUP2 SUB DUP3 MSTORE DUP6 DUP6 DUP3 DUP2 DUP2 MSTORE PUSH1 0x20 ADD SWAP3 POP PUSH1 0x20 MUL DUP1 DUP3 DUP5 CALLDATACOPY PUSH1 0x0 DUP2 DUP5 ADD MSTORE PUSH1 0x1F NOT PUSH1 0x1F DUP3 ADD AND SWAP1 POP DUP1 DUP4 ADD SWAP3 POP POP POP SWAP7 POP POP POP POP POP POP POP PUSH1 0x20 PUSH1 0x40 MLOAD DUP1 DUP4 SUB DUP2 DUP7 DUP1 EXTCODESIZE ISZERO DUP1 ISZERO PUSH2 0x21AC JUMPI PUSH1 0x0 DUP1 REVERT JUMPDEST POP GAS DELEGATECALL ISZERO DUP1 ISZERO PUSH2 0x21C0 JUMPI RETURNDATASIZE PUSH1 0x0 DUP1 RETURNDATACOPY RETURNDATASIZE PUSH1 0x0 REVERT JUMPDEST POP POP POP POP PUSH1 0x40 MLOAD RETURNDATASIZE PUSH1 0x20 DUP2 LT ISZERO PUSH2 0x21D6 JUMPI PUSH1 0x0 DUP1 REVERT JUMPDEST POP MLOAD SWAP6 SWAP5 POP POP POP POP POP JUMP JUMPDEST PUSH1 0x0 DUP3 DUP3 GT ISZERO PUSH2 0x2238 JUMPI PUSH1 0x40 DUP1 MLOAD PUSH3 0x461BCD PUSH1 0xE5 SHL DUP2 MSTORE PUSH1 0x20 PUSH1 0x4 DUP3 ADD MSTORE PUSH1 0x1E PUSH1 0x24 DUP3 ADD MSTORE PUSH32 0x536166654D6174683A207375627472616374696F6E206F766572666C6F770000 PUSH1 0x44 DUP3 ADD MSTORE SWAP1 MLOAD SWAP1 DUP2 SWAP1 SUB PUSH1 0x64 ADD SWAP1 REVERT JUMPDEST POP SWAP1 SUB SWAP1 JUMP JUMPDEST PUSH1 0x0 DUP3 PUSH2 0x224D JUMPI POP PUSH1 0x0 PUSH2 0x1342 JUMP JUMPDEST DUP3 DUP3 MUL DUP3 DUP5 DUP3 DUP2 PUSH2 0x225A JUMPI INVALID JUMPDEST DIV EQ PUSH2 0x2297 JUMPI PUSH1 0x40 MLOAD PUSH3 0x461BCD PUSH1 0xE5 SHL DUP2 MSTORE PUSH1 0x4 ADD DUP1 DUP1 PUSH1 0x20 ADD DUP3 DUP2 SUB DUP3 MSTORE PUSH1 0x21 DUP2 MSTORE PUSH1 0x20 ADD DUP1 PUSH2 0x2415 PUSH1 0x21 SWAP2 CODECOPY PUSH1 0x40 ADD SWAP2 POP POP PUSH1 0x40 MLOAD DUP1 SWAP2 SUB SWAP1 REVERT JUMPDEST SWAP4 SWAP3 POP POP POP JUMP JUMPDEST CALLER SWAP1 JUMP JUMPDEST PUSH2 0x22AA PUSH2 0x1288 JUMP JUMPDEST PUSH2 0x22F2 JUMPI PUSH1 0x40 DUP1 MLOAD PUSH3 0x461BCD PUSH1 0xE5 SHL DUP2 MSTORE PUSH1 0x20 PUSH1 0x4 DUP3 ADD MSTORE PUSH1 0x14 PUSH1 0x24 DUP3 ADD MSTORE PUSH20 0x14185D5CD8589B194E881B9BDD081C185D5CD959 PUSH1 0x62 SHL PUSH1 0x44 DUP3 ADD MSTORE SWAP1 MLOAD SWAP1 DUP2 SWAP1 SUB PUSH1 0x64 ADD SWAP1 REVERT JUMPDEST PUSH1 0x0 DUP1 SLOAD PUSH1 0xFF PUSH1 0xA0 SHL NOT AND SWAP1 SSTORE PUSH32 0x5DB9EE0A495BF2E6FF9C91A7834C1BA4FDD244A5E8AA4E537BD38AEAE4B073AA PUSH2 0x2328 PUSH2 0x229E JUMP JUMPDEST PUSH1 0x40 DUP1 MLOAD PUSH1 0x1 PUSH1 0x1 PUSH1 0xA0 SHL SUB SWAP1 SWAP3 AND DUP3 MSTORE MLOAD SWAP1 DUP2 SWAP1 SUB PUSH1 0x20 ADD SWAP1 LOG1 JUMP JUMPDEST PUSH2 0x234D PUSH2 0x1288 JUMP JUMPDEST ISZERO PUSH2 0x2392 JUMPI PUSH1 0x40 DUP1 MLOAD PUSH3 0x461BCD PUSH1 0xE5 SHL DUP2 MSTORE PUSH1 0x20 PUSH1 0x4 DUP3 ADD MSTORE PUSH1 0x10 PUSH1 0x24 DUP3 ADD MSTORE PUSH16 0x14185D5CD8589B194E881C185D5CD959 PUSH1 0x82 SHL PUSH1 0x44 DUP3 ADD MSTORE SWAP1 MLOAD SWAP1 DUP2 SWAP1 SUB PUSH1 0x64 ADD SWAP1 REVERT JUMPDEST PUSH1 0x0 DUP1 SLOAD PUSH1 0xFF PUSH1 0xA0 SHL NOT AND PUSH1 0x1 PUSH1 0xA0 SHL OR SWAP1 SSTORE PUSH32 0x62E78CEA01BEE320CD4E420270B5EA74000D11B0C9F74754EBDBFC544B05A258 PUSH2 0x2328 PUSH2 0x229E JUMP INVALID MSTORE PUSH6 0x656E7472616E PUSH4 0x79477561 PUSH19 0x643A207265656E7472616E742063616C6C004F PUSH24 0x6E61626C653A206E6577206F776E65722069732074686520 PUSH27 0x65726F2061646472657373536166654D6174683A206D756C746970 PUSH13 0x69636174696F6E206F76657266 PUSH13 0x6F774F776E61626C653A206361 PUSH13 0x6C6572206973206E6F74207468 PUSH6 0x206F776E6572 LOG2 PUSH5 0x6970667358 0x22 SLT KECCAK256 0xA6 SWAP14 EXP 0x26 0xE2 SWAP4 MULMOD DUP3 0xBF SWAP14 SWAP3 0xAD PUSH28 0xCB3EFCD65B75BBA966786E1EAAF74C0A2B9B7A64736F6C634300060C STOP CALLER ",
  "sha1": "9ba632d94e00c438aefa9199d17dabe729f6e3e5",
  "source": "// SPDX-License-Identifier: MIT\n\npragma solidity 0.6.12;\n\nimport 'OpenZeppelin/openzeppelin-contracts@3.4.0/contracts/math/SafeMath.sol';\nimport 'OpenZeppelin/openzeppelin-contracts@3.4.0/contracts/token/ERC20/SafeERC20.sol';\nimport 'OpenZeppelin/openzeppelin-contracts@3.4.0/contracts/utils/ReentrancyGuard.sol';\nimport \"./OwnerPausable.sol\";\nimport \"./SwapUtils.sol\";\nimport \"./MathUtils.sol\";\n\n/**\n * @title Swap - A StableSwap implementation in solidity.\n * @notice This contract is responsible for custody of closely pegged assets (eg. group of stablecoins)\n * and automatic market making system. Users become an LP (Liquidity Provider) by depositing their tokens\n * in desired ratios for an exchange of the pool token that represents their share of the pool.\n * Users can burn pool tokens and withdraw their share of token(s).\n *\n * Each time a swap between the pooled tokens happens, a set fee incurs which effectively gets\n * distributed to the LPs.\n *\n * In case of emergencies, admin can pause additional deposits, swaps, or single-asset withdraws - which\n * stops the ratio of the tokens in the pool from changing.\n * Users can always withdraw their tokens via multi-asset withdraws.\n *\n * @dev Most of the logic is stored as a library `SwapUtils` for the sake of reducing contract's\n * deployment size.\n */\ncontract Swap is OwnerPausable, ReentrancyGuard {\n    using SafeERC20 for IERC20;\n    using SafeMath for uint256;\n    using MathUtils for uint256;\n    using SwapUtils for SwapUtils.Swap;\n\n    // Struct storing data responsible for automatic market maker functionalities. In order to\n    // access this data, this contract uses SwapUtils library. For more details, see SwapUtils.sol\n    SwapUtils.Swap public swapStorage;\n\n    // Maps token address to an index in the pool. Used to prevent duplicate tokens in the pool.\n    // getTokenIndex function also relies on this mapping to retrieve token index.\n    mapping(address => uint8) private tokenIndexes;\n\n    /*** EVENTS ***/\n\n    // events replicated from SwapUtils to make the ABI easier for dumb\n    // clients\n    event TokenSwap(\n        address indexed buyer,\n        uint256 tokensSold,\n        uint256 tokensBought,\n        uint128 soldId,\n        uint128 boughtId\n    );\n    event AddLiquidity(\n        address indexed provider,\n        uint256[] tokenAmounts,\n        uint256[] fees,\n        uint256 invariant,\n        uint256 lpTokenSupply\n    );\n    event RemoveLiquidity(\n        address indexed provider,\n        uint256[] tokenAmounts,\n        uint256 lpTokenSupply\n    );\n    event RemoveLiquidityOne(\n        address indexed provider,\n        uint256 lpTokenAmount,\n        uint256 lpTokenSupply,\n        uint256 boughtId,\n        uint256 tokensBought\n    );\n    event RemoveLiquidityImbalance(\n        address indexed provider,\n        uint256[] tokenAmounts,\n        uint256[] fees,\n        uint256 invariant,\n        uint256 lpTokenSupply\n    );\n    event NewAdminFee(uint256 newAdminFee);\n    event NewSwapFee(uint256 newSwapFee);\n    event NewDepositFee(uint256 newDepositFee);\n    event NewWithdrawFee(uint256 newWithdrawFee);\n    event RampA(\n        uint256 oldA,\n        uint256 newA,\n        uint256 initialTime,\n        uint256 futureTime\n    );\n    event StopRampA(uint256 currentA, uint256 time);\n\n    /**\n     * @notice Deploys this Swap contract with given parameters as default\n     * values. This will also deploy a LPToken that represents users\n     * LP position. The owner of LPToken will be this contract - which means\n     * only this contract is allowed to mint new tokens.\n     *\n     * @param _pooledTokens an array of ERC20s this pool will accept\n     * @param decimals the decimals to use for each pooled token,\n     * eg 8 for WBTC. Cannot be larger than POOL_PRECISION_DECIMALS\n     * @param lpTokenName the long-form name of the token to be deployed\n     * @param lpTokenSymbol the short symbol for the token to be deployed\n     * @param _a the amplification coefficient * n * (n - 1). See the\n     * StableSwap paper for details\n     * @param _fee default swap fee to be initialized with\n     * @param _adminFee default adminFee to be initialized with\n     * @param _depositFee default depositFee to be initialized with\n     * @param _withdrawFee default withdrawFee to be initialized with\n     * @param _devaddr default _devaddr to be initialized with\n     */\n    constructor(\n        IERC20[] memory _pooledTokens,\n        uint8[] memory decimals,\n        string memory lpTokenName,\n        string memory lpTokenSymbol,\n        uint256 _a,\n        uint256 _fee,\n        uint256 _adminFee,\n        uint256 _depositFee,\n        uint256 _withdrawFee,\n        address _devaddr\n    ) public OwnerPausable() ReentrancyGuard() {\n        // Check _pooledTokens and precisions parameter\n        require(_pooledTokens.length > 1, \"_pooledTokens.length <= 1\");\n        require(_pooledTokens.length <= 32, \"_pooledTokens.length > 32\");\n        require(\n            _pooledTokens.length == decimals.length,\n            \"_pooledTokens decimals mismatch\"\n        );\n\n        uint256[] memory precisionMultipliers = new uint256[](decimals.length);\n\n        for (uint8 i = 0; i < _pooledTokens.length; i++) {\n            if (i > 0) {\n                // Check if index is already used. Check if 0th element is a duplicate.\n                require(\n                    tokenIndexes[address(_pooledTokens[i])] == 0 &&\n                        _pooledTokens[0] != _pooledTokens[i],\n                    \"Duplicate tokens\"\n                );\n            }\n            require(\n                address(_pooledTokens[i]) != address(0),\n                \"The 0 address isn't an ERC-20\"\n            );\n            require(\n                decimals[i] <= SwapUtils.POOL_PRECISION_DECIMALS,\n                \"Token decimals exceeds max\"\n            );\n            precisionMultipliers[i] =\n                10 **\n                    uint256(SwapUtils.POOL_PRECISION_DECIMALS).sub(\n                        uint256(decimals[i])\n                    );\n            tokenIndexes[address(_pooledTokens[i])] = i;\n        }\n\n        // Check _a, _fee, _adminFee, _depositFee, _withdrawFee\n        require(_a < SwapUtils.MAX_A, \"_a exceeds maximum\");\n        require(_fee < SwapUtils.MAX_SWAP_FEE, \"_fee exceeds maximum\");\n        require(\n            _adminFee < SwapUtils.MAX_ADMIN_FEE,\n            \"_adminFee exceeds maximum\"\n        );\n        require(\n            _withdrawFee < SwapUtils.MAX_WITHDRAW_FEE,\n            \"_withdrawFee exceeds maximum\"\n        );\n        require(\n            _depositFee < SwapUtils.MAX_DEPOSIT_FEE,\n            \"_depositFee exceeds maximum\"\n        );\n\n        // Initialize swapStorage struct\n        swapStorage.lpToken = new LPToken(\n            lpTokenName,\n            lpTokenSymbol,\n            SwapUtils.POOL_PRECISION_DECIMALS\n        );\n        swapStorage.pooledTokens = _pooledTokens;\n        swapStorage.tokenPrecisionMultipliers = precisionMultipliers;\n        swapStorage.balances = new uint256[](_pooledTokens.length);\n        swapStorage.initialA = _a.mul(SwapUtils.A_PRECISION);\n        swapStorage.futureA = _a.mul(SwapUtils.A_PRECISION);\n        swapStorage.initialATime = 0;\n        swapStorage.futureATime = 0;\n        swapStorage.swapFee = _fee;\n        swapStorage.adminFee = _adminFee;\n        swapStorage.defaultDepositFee = _depositFee;\n        swapStorage.defaultWithdrawFee = _withdrawFee;\n        swapStorage.devaddr = _devaddr;\n\n    }\n\n    /*** MODIFIERS ***/\n\n    /**\n     * @notice Modifier to check deadline against current timestamp\n     * @param deadline latest timestamp to accept this transaction\n     */\n    modifier deadlineCheck(uint256 deadline) {\n        require(block.timestamp <= deadline, \"Deadline not met\");\n        _;\n    }\n\n    /*** VIEW FUNCTIONS ***/\n\n    /**\n     * @notice Return A, the amplification coefficient * n * (n - 1)\n     * @dev See the StableSwap paper for details\n     * @return A parameter\n     */\n    function getA() external view returns (uint256) {\n        return swapStorage.getA();\n    }\n\n    /**\n     * @notice Return A in its raw precision form\n     * @dev See the StableSwap paper for details\n     * @return A parameter in its raw precision form\n     */\n    function getAPrecise() external view returns (uint256) {\n        return swapStorage.getAPrecise();\n    }\n\n    /**\n     * @notice Return address of the pooled token at given index. Reverts if tokenIndex is out of range.\n     * @param index the index of the token\n     * @return address of the token at given index\n     */\n    function getToken(uint8 index) public view returns (IERC20) {\n        require(index < swapStorage.pooledTokens.length, \"Out of range\");\n        return swapStorage.pooledTokens[index];\n    }\n\n    /**\n     * @notice Return the index of the given token address. Reverts if no matching\n     * token is found.\n     * @param tokenAddress address of the token\n     * @return the index of the given token address\n     */\n    function getTokenIndex(address tokenAddress) external view returns (uint8) {\n        uint8 index = tokenIndexes[tokenAddress];\n        require(\n            address(getToken(index)) == tokenAddress,\n            \"Token does not exist\"\n        );\n        return index;\n    }\n\n    /**\n     * @notice Return timestamp of last deposit of given address\n     * @return timestamp of the last deposit made by the given address\n     */\n    function getDepositTimestamp(address user) external view returns (uint256) {\n        return swapStorage.getDepositTimestamp(user);\n    }\n\n    /**\n     * @notice Return current balance of the pooled token at given index\n     * @param index the index of the token\n     * @return current balance of the pooled token at given index with token's native precision\n     */\n    function getTokenBalance(uint8 index) external view returns (uint256) {\n        require(index < swapStorage.pooledTokens.length, \"Index out of range\");\n        return swapStorage.balances[index];\n    }\n\n    /**\n     * @notice Return balances of pooled tokens\n     * @return current balances of all tokens in pool\n     */\n    function getBalances() external view returns (uint256[] memory) {\n        return swapStorage.balances;\n    }\n\n    /**\n        @notice Returns the swap fee\n        @return current swap fee\n     */\n     function getSwapFee() external view returns (uint256) {\n         return swapStorage.swapFee;\n     }\n\n    /**\n        @notice Returns address of lp token\n        @return address of lp token\n     */\n     function getLpToken() external view returns (address) {\n         return address(swapStorage.lpToken);\n     }\n\n    /**\n     * @notice Get the virtual price, to help calculate profit\n     * @return the virtual price, scaled to the POOL_PRECISION_DECIMALS\n     */\n    function getVirtualPrice() external view returns (uint256) {\n        return swapStorage.getVirtualPrice();\n    }\n\n    /**\n     * @notice Calculate amount of tokens you receive on swap\n     * @param tokenIndexFrom the token the user wants to sell\n     * @param tokenIndexTo the token the user wants to buy\n     * @param dx the amount of tokens the user wants to sell. If the token charges\n     * a fee on transfers, use the amount that gets transferred after the fee.\n     * @return amount of tokens the user will receive\n     */\n    function calculateSwap(\n        uint8 tokenIndexFrom,\n        uint8 tokenIndexTo,\n        uint256 dx\n    ) external view returns (uint256) {\n        return swapStorage.calculateSwap(tokenIndexFrom, tokenIndexTo, dx);\n    }\n\n    /**\n     * @notice A simple method to calculate prices from deposits or\n     * withdrawals, excluding fees but including slippage. This is\n     * helpful as an input into the various \"min\" parameters on calls\n     * to fight front-running\n     *\n     * @dev This shouldn't be used outside frontends for user estimates.\n     *\n     * @param account address that is depositing or withdrawing tokens\n     * @param amounts an array of token amounts to deposit or withdrawal,\n     * corresponding to pooledTokens. The amount should be in each\n     * pooled token's native precision. If a token charges a fee on transfers,\n     * use the amount that gets transferred after the fee.\n     * @param deposit whether this is a deposit or a withdrawal\n     * @return token amount the user will receive\n     */\n    function calculateTokenAmount(\n        address account,\n        uint256[] calldata amounts,\n        bool deposit\n    ) external view returns (uint256) {\n        return swapStorage.calculateTokenAmount(account, amounts, deposit);\n    }\n\n    /**\n     * @notice A simple method to calculate amount of each underlying\n     * tokens that is returned upon burning given amount of LP tokens\n     * @param account the address that is withdrawing tokens\n     * @param amount the amount of LP tokens that would be burned on withdrawal\n     * @return array of token balances that the user will receive\n     */\n    function calculateRemoveLiquidity(address account, uint256 amount)\n        external\n        view\n        returns (uint256[] memory)\n    {\n        return swapStorage.calculateRemoveLiquidity(account, amount);\n    }\n\n    /**\n     * @notice Calculate the amount of underlying token available to withdraw\n     * when withdrawing via only single token\n     * @param account the address that is withdrawing tokens\n     * @param tokenAmount the amount of LP token to burn\n     * @param tokenIndex index of which token will be withdrawn\n     * @return availableTokenAmount calculated amount of underlying token\n     * available to withdraw\n     */\n    function calculateRemoveLiquidityOneToken(\n        address account,\n        uint256 tokenAmount,\n        uint8 tokenIndex\n    ) external view returns (uint256 availableTokenAmount) {\n        (availableTokenAmount, ) = swapStorage.calculateWithdrawOneToken(\n            account,\n            tokenAmount,\n            tokenIndex\n        );\n    }\n\n    /**\n     * @notice Calculate the fee that is applied when the given user withdraws. The withdraw fee\n     * decays linearly over period of 4 weeks. For example, depositing and withdrawing right away\n     * will charge you the full amount of withdraw fee. But withdrawing after 4 weeks will charge you\n     * no additional fees.\n     * @dev returned value should be divided by FEE_DENOMINATOR to convert to correct decimals\n     * @param user address you want to calculate withdraw fee of\n     * @return current withdraw fee of the user\n     */\n    function calculateCurrentWithdrawFee(address user)\n        external\n        view\n        returns (uint256)\n    {\n        return swapStorage.calculateCurrentWithdrawFee(user);\n    }\n\n    /**\n     * @notice This function reads the accumulated amount of admin fees of the token with given index\n     * @param index Index of the pooled token\n     * @return admin's token balance in the token's precision\n     */\n    function getAdminBalance(uint256 index) external view returns (uint256) {\n        return swapStorage.getAdminBalance(index);\n    }\n\n    /*** STATE MODIFYING FUNCTIONS ***/\n\n    /**\n     * @notice Swap two tokens using this pool\n     * @param tokenIndexFrom the token the user wants to swap from\n     * @param tokenIndexTo the token the user wants to swap to\n     * @param dx the amount of tokens the user wants to swap from\n     * @param minDy the min amount the user would like to receive, or revert.\n     * @param deadline latest timestamp to accept this transaction\n     */\n    function swap(\n        uint8 tokenIndexFrom,\n        uint8 tokenIndexTo,\n        uint256 dx,\n        uint256 minDy,\n        uint256 deadline\n    )\n        external\n        nonReentrant\n        whenNotPaused\n        deadlineCheck(deadline)\n        returns (uint256)\n    {\n        return swapStorage.swap(tokenIndexFrom, tokenIndexTo, dx, minDy);\n    }\n\n    /**\n     * @notice Add liquidity to the pool with given amounts\n     * @param amounts the amounts of each token to add, in their native precision\n     * @param minToMint the minimum LP tokens adding this amount of liquidity\n     * should mint, otherwise revert. Handy for front-running mitigation\n     * @param deadline latest timestamp to accept this transaction\n     * @return amount of LP token user minted and received\n     */\n    function addLiquidity(\n        uint256[] calldata amounts,\n        uint256 minToMint,\n        uint256 deadline\n    )\n        external\n        nonReentrant\n        whenNotPaused\n        deadlineCheck(deadline)\n        returns (uint256)\n    {\n        return swapStorage.addLiquidity(amounts, minToMint);\n    }\n\n    /**\n     * @notice Burn LP tokens to remove liquidity from the pool. Withdraw fee that decays linearly\n     * over period of 4 weeks since last deposit will apply.\n     * @dev Liquidity can always be removed, even when the pool is paused.\n     * @param amount the amount of LP tokens to burn\n     * @param minAmounts the minimum amounts of each token in the pool\n     *        acceptable for this burn. Useful as a front-running mitigation\n     * @param deadline latest timestamp to accept this transaction\n     * @return amounts of tokens user received\n     */\n    function removeLiquidity(\n        uint256 amount,\n        uint256[] calldata minAmounts,\n        uint256 deadline\n    ) external nonReentrant deadlineCheck(deadline) returns (uint256[] memory) {\n        return swapStorage.removeLiquidity(amount, minAmounts);\n    }\n\n    /**\n     * @notice Remove liquidity from the pool all in one token. Withdraw fee that decays linearly\n     * over period of 4 weeks since last deposit will apply.\n     * @param tokenAmount the amount of the token you want to receive\n     * @param tokenIndex the index of the token you want to receive\n     * @param minAmount the minimum amount to withdraw, otherwise revert\n     * @param deadline latest timestamp to accept this transaction\n     * @return amount of chosen token user received\n     */\n    function removeLiquidityOneToken(\n        uint256 tokenAmount,\n        uint8 tokenIndex,\n        uint256 minAmount,\n        uint256 deadline\n    )\n        external\n        nonReentrant\n        whenNotPaused\n        deadlineCheck(deadline)\n        returns (uint256)\n    {\n        return\n            swapStorage.removeLiquidityOneToken(\n                tokenAmount,\n                tokenIndex,\n                minAmount\n            );\n    }\n\n    /**\n     * @notice Remove liquidity from the pool, weighted differently than the\n     * pool's current balances. Withdraw fee that decays linearly\n     * over period of 4 weeks since last deposit will apply.\n     * @param amounts how much of each token to withdraw\n     * @param maxBurnAmount the max LP token provider is willing to pay to\n     * remove liquidity. Useful as a front-running mitigation.\n     * @param deadline latest timestamp to accept this transaction\n     * @return amount of LP tokens burned\n     */\n    function removeLiquidityImbalance(\n        uint256[] calldata amounts,\n        uint256 maxBurnAmount,\n        uint256 deadline\n    )\n        external\n        nonReentrant\n        whenNotPaused\n        deadlineCheck(deadline)\n        returns (uint256)\n    {\n        return swapStorage.removeLiquidityImbalance(amounts, maxBurnAmount);\n    }\n\n    /*** ADMIN FUNCTIONS ***/\n\n    /**\n     * @notice Updates the user withdraw fee. This function can only be called by\n     * the pool token. Should be used to update the withdraw fee on transfer of pool tokens.\n     * Transferring your pool token will reset the 4 weeks period. If the recipient is already\n     * holding some pool tokens, the withdraw fee will be discounted in respective amounts.\n     * @param recipient address of the recipient of pool token\n     * @param transferAmount amount of pool token to transfer\n     */\n    function updateUserWithdrawFee(address recipient, uint256 transferAmount)\n        external\n    {\n        require(\n            msg.sender == address(swapStorage.lpToken),\n            \"Only callable by pool token\"\n        );\n        swapStorage.updateUserWithdrawFee(recipient, transferAmount);\n    }\n\n    /**\n     * @notice Withdraw all admin fees to the contract owner\n     */\n    function withdrawAdminFees() external onlyOwner {\n        swapStorage.withdrawAdminFees(owner());\n    }\n\n    /**\n     * @notice Update the admin fee. Admin fee takes portion of the swap fee.\n     * @param newAdminFee new admin fee to be applied on future transactions\n     */\n    function setAdminFee(uint256 newAdminFee) external onlyOwner {\n        swapStorage.setAdminFee(newAdminFee);\n    }\n\n    /**\n     * @notice Update the swap fee to be applied on swaps\n     * @param newSwapFee new swap fee to be applied on future transactions\n     */\n    function setSwapFee(uint256 newSwapFee) external onlyOwner {\n        swapStorage.setSwapFee(newSwapFee);\n    }\n\n        /**\n     * @notice Update the deposit fee. \n     * @param newDepositFee new deposit fee to be applied on future deposits\n     */\n    function setDefaultDepositFee(uint256 newDepositFee) external onlyOwner {\n        swapStorage.setDefaultDepositFee(newDepositFee);\n    }\n\n    /**\n     * @notice Update the withdraw fee. This fee decays linearly over 4 weeks since\n     * user's last deposit.\n     * @param newWithdrawFee new withdraw fee to be applied on future deposits\n     */\n    function setDefaultWithdrawFee(uint256 newWithdrawFee) external onlyOwner {\n        swapStorage.setDefaultWithdrawFee(newWithdrawFee);\n    }\n\n    /**\n     * @notice Start ramping up or down A parameter towards given futureA and futureTime\n     * Checks if the change is too rapid, and commits the new A value only when it falls under\n     * the limit range.\n     * @param futureA the new A to ramp towards\n     * @param futureTime timestamp when the new A should be reached\n     */\n    function rampA(uint256 futureA, uint256 futureTime) external onlyOwner {\n        swapStorage.rampA(futureA, futureTime);\n    }\n\n    /**\n     * @notice Stop ramping A immediately. Reverts if ramp A is already stopped.\n     */\n    function stopRampA() external onlyOwner {\n        swapStorage.stopRampA();\n    }\n\n        // Update dev address by the previous dev.\n    function setDevAddress(address _devaddr) external onlyOwner {\n        swapStorage.setDevAddress(_devaddr);\n    }\n}\n",
  "sourcePath": "contracts/Swap.sol",
  "type": "contract"
}